{
  "contracts/AdapterJS.sol": {
    "AdapterJS": {
      "abi": [
        {
          "inputs": [
            {
              "internalType": "address",
              "name": "_chainlinkNode",
              "type": "address"
            },
            {
              "internalType": "uint256",
              "name": "_fee",
              "type": "uint256"
            }
          ],
          "stateMutability": "nonpayable",
          "type": "constructor"
        },
        {
          "anonymous": false,
          "inputs": [
            {
              "components": [
                {
                  "internalType": "bytes32",
                  "name": "id",
                  "type": "bytes32"
                },
                {
                  "internalType": "address",
                  "name": "callbackAddress",
                  "type": "address"
                },
                {
                  "internalType": "bytes4",
                  "name": "callbackFunctionId",
                  "type": "bytes4"
                },
                {
                  "internalType": "uint256",
                  "name": "nonce",
                  "type": "uint256"
                },
                {
                  "components": [
                    {
                      "internalType": "bytes",
                      "name": "buf",
                      "type": "bytes"
                    },
                    {
                      "internalType": "uint256",
                      "name": "capacity",
                      "type": "uint256"
                    }
                  ],
                  "internalType": "struct BufferChainlink.buffer",
                  "name": "buf",
                  "type": "tuple"
                }
              ],
              "indexed": false,
              "internalType": "struct Chainlink.Request",
              "name": "request",
              "type": "tuple"
            }
          ],
          "name": "CLrequest",
          "type": "event"
        },
        {
          "anonymous": false,
          "inputs": [
            {
              "indexed": true,
              "internalType": "bytes32",
              "name": "id",
              "type": "bytes32"
            }
          ],
          "name": "ChainlinkCancelled",
          "type": "event"
        },
        {
          "anonymous": false,
          "inputs": [
            {
              "indexed": true,
              "internalType": "bytes32",
              "name": "id",
              "type": "bytes32"
            }
          ],
          "name": "ChainlinkFulfilled",
          "type": "event"
        },
        {
          "anonymous": false,
          "inputs": [
            {
              "indexed": true,
              "internalType": "bytes32",
              "name": "id",
              "type": "bytes32"
            }
          ],
          "name": "ChainlinkRequested",
          "type": "event"
        },
        {
          "anonymous": false,
          "inputs": [
            {
              "indexed": true,
              "internalType": "bytes32",
              "name": "requestId",
              "type": "bytes32"
            },
            {
              "indexed": true,
              "internalType": "uint256",
              "name": "price",
              "type": "uint256"
            }
          ],
          "name": "RequestEthereumPriceFulfilled",
          "type": "event"
        },
        {
          "anonymous": false,
          "inputs": [
            {
              "indexed": false,
              "internalType": "bool",
              "name": "reply",
              "type": "bool"
            }
          ],
          "name": "boolAdapterReply",
          "type": "event"
        },
        {
          "anonymous": false,
          "inputs": [
            {
              "indexed": false,
              "internalType": "bytes32",
              "name": "reply",
              "type": "bytes32"
            }
          ],
          "name": "bytes32AdapterReply",
          "type": "event"
        },
        {
          "anonymous": false,
          "inputs": [
            {
              "indexed": false,
              "internalType": "uint256",
              "name": "",
              "type": "uint256"
            }
          ],
          "name": "calledAdapter",
          "type": "event"
        },
        {
          "anonymous": false,
          "inputs": [
            {
              "indexed": false,
              "internalType": "uint256",
              "name": "time",
              "type": "uint256"
            }
          ],
          "name": "deployed",
          "type": "event"
        },
        {
          "anonymous": false,
          "inputs": [
            {
              "indexed": false,
              "internalType": "int256",
              "name": "reply",
              "type": "int256"
            }
          ],
          "name": "int256AdapterReply",
          "type": "event"
        },
        {
          "anonymous": false,
          "inputs": [
            {
              "indexed": false,
              "internalType": "uint256",
              "name": "reply",
              "type": "uint256"
            }
          ],
          "name": "uint256AdapterReply",
          "type": "event"
        },
        {
          "inputs": [
            {
              "internalType": "bytes32",
              "name": "_requestId",
              "type": "bytes32"
            },
            {
              "internalType": "bool",
              "name": "_reply",
              "type": "bool"
            }
          ],
          "name": "boolFullfill",
          "outputs": [],
          "stateMutability": "nonpayable",
          "type": "function"
        },
        {
          "inputs": [
            {
              "internalType": "bytes32",
              "name": "_requestId",
              "type": "bytes32"
            },
            {
              "internalType": "bytes32",
              "name": "_reply",
              "type": "bytes32"
            }
          ],
          "name": "bytes32Fullfill",
          "outputs": [],
          "stateMutability": "nonpayable",
          "type": "function"
        },
        {
          "inputs": [
            {
              "internalType": "bytes32",
              "name": "_bytes32",
              "type": "bytes32"
            }
          ],
          "name": "bytes32ToString",
          "outputs": [
            {
              "internalType": "string",
              "name": "",
              "type": "string"
            }
          ],
          "stateMutability": "pure",
          "type": "function"
        },
        {
          "inputs": [],
          "name": "chainlinkNode",
          "outputs": [
            {
              "internalType": "address",
              "name": "",
              "type": "address"
            }
          ],
          "stateMutability": "view",
          "type": "function"
        },
        {
          "inputs": [],
          "name": "fee",
          "outputs": [
            {
              "internalType": "uint256",
              "name": "",
              "type": "uint256"
            }
          ],
          "stateMutability": "view",
          "type": "function"
        },
        {
          "inputs": [
            {
              "internalType": "bytes32",
              "name": "_requestId",
              "type": "bytes32"
            },
            {
              "internalType": "uint256",
              "name": "_price",
              "type": "uint256"
            }
          ],
          "name": "fulfillEthereumPrice",
          "outputs": [],
          "stateMutability": "nonpayable",
          "type": "function"
        },
        {
          "inputs": [
            {
              "internalType": "address",
              "name": "_oracle",
              "type": "address"
            },
            {
              "internalType": "string",
              "name": "_jobId",
              "type": "string"
            },
            {
              "internalType": "uint256",
              "name": "payment",
              "type": "uint256"
            },
            {
              "internalType": "string",
              "name": "_method",
              "type": "string"
            },
            {
              "internalType": "string",
              "name": "_url",
              "type": "string"
            },
            {
              "internalType": "string",
              "name": "_headers",
              "type": "string"
            },
            {
              "internalType": "string",
              "name": "_data",
              "type": "string"
            },
            {
              "internalType": "string",
              "name": "_javascript",
              "type": "string"
            },
            {
              "internalType": "string",
              "name": "_ipfs",
              "type": "string"
            }
          ],
          "name": "int256CallAdapter",
          "outputs": [
            {
              "internalType": "bytes32",
              "name": "requestId",
              "type": "bytes32"
            }
          ],
          "stateMutability": "nonpayable",
          "type": "function"
        },
        {
          "inputs": [
            {
              "internalType": "bytes32",
              "name": "_requestId",
              "type": "bytes32"
            },
            {
              "internalType": "int256",
              "name": "_reply",
              "type": "int256"
            }
          ],
          "name": "int256Fullfill",
          "outputs": [],
          "stateMutability": "nonpayable",
          "type": "function"
        },
        {
          "inputs": [
            {
              "internalType": "address",
              "name": "_oracle",
              "type": "address"
            },
            {
              "internalType": "string",
              "name": "_jobId",
              "type": "string"
            },
            {
              "internalType": "uint256",
              "name": "payment",
              "type": "uint256"
            }
          ],
          "name": "requestEthereumPrice",
          "outputs": [],
          "stateMutability": "nonpayable",
          "type": "function"
        },
        {
          "inputs": [],
          "name": "simpleCallAdapter",
          "outputs": [
            {
              "internalType": "bytes32",
              "name": "requestId",
              "type": "bytes32"
            }
          ],
          "stateMutability": "nonpayable",
          "type": "function"
        },
        {
          "inputs": [
            {
              "internalType": "bytes32",
              "name": "_requestId",
              "type": "bytes32"
            },
            {
              "internalType": "uint256",
              "name": "_reply",
              "type": "uint256"
            }
          ],
          "name": "simpleFulfill",
          "outputs": [],
          "stateMutability": "nonpayable",
          "type": "function"
        },
        {
          "inputs": [
            {
              "internalType": "bytes32",
              "name": "_requestId",
              "type": "bytes32"
            },
            {
              "internalType": "uint256",
              "name": "_reply",
              "type": "uint256"
            }
          ],
          "name": "uint256Fullfill",
          "outputs": [],
          "stateMutability": "nonpayable",
          "type": "function"
        },
        {
          "inputs": [],
          "name": "uninit",
          "outputs": [
            {
              "internalType": "bytes32",
              "name": "",
              "type": "bytes32"
            }
          ],
          "stateMutability": "view",
          "type": "function"
        }
      ],
      "evm": {
        "bytecode": {
          "linkReferences": {},
          "object": "608060405260016004553480156200001657600080fd5b50604051620028123803806200281283398181016040528101906200003c91906200015c565b6200006173326c977e6efc84e512bb9c30f76e30c160ed06fb620000ea60201b60201c565b81600660006101000a81548173ffffffffffffffffffffffffffffffffffffffff021916908373ffffffffffffffffffffffffffffffffffffffff160217905550806007819055507f15b40ec05fb71b25f4e46c28335f2626d29465bafb74d67b683a01cff2a3522442604051620000da9190620001b4565b60405180910390a1505062000248565b80600260006101000a81548173ffffffffffffffffffffffffffffffffffffffff021916908373ffffffffffffffffffffffffffffffffffffffff16021790555050565b6000815190506200013f8162000214565b92915050565b60008151905062000156816200022e565b92915050565b600080604083850312156200017657620001756200020f565b5b600062000186858286016200012e565b9250506020620001998582860162000145565b9150509250929050565b620001ae8162000205565b82525050565b6000602082019050620001cb6000830184620001a3565b92915050565b6000620001de82620001e5565b9050919050565b600073ffffffffffffffffffffffffffffffffffffffff82169050919050565b6000819050919050565b600080fd5b6200021f81620001d1565b81146200022b57600080fd5b50565b620002398162000205565b81146200024557600080fd5b50565b6125ba80620002586000396000f3fe608060405234801561001057600080fd5b50600436106100cf5760003560e01c80639201de551161008c578063be4cdc8d11610066578063be4cdc8d146101fa578063ddca3f4314610218578063f07029b914610236578063ff68299a14610254576100cf565b80639201de551461017e57806392cdaaf3146101ae578063a3e69c91146101ca576100cf565b806310dba203146100d45780632ee56849146100f2578063341a24761461010e5780633fc958ea1461012a5780635d3b29ef1461014657806363a3cd4c14610162575b600080fd5b6100dc610270565b6040516100e99190611e1b565b60405180910390f35b61010c60048036038101906101079190611b36565b610276565b005b61012860048036038101906101239190611af6565b6103b7565b005b610144600480360381019061013f9190611b76565b6104f8565b005b610160600480360381019061015b9190611ab6565b610639565b005b61017c6004803603810190610177919061185f565b61077a565b005b61019860048036038101906101939190611a89565b6107aa565b6040516101a59190611e51565b60405180910390f35b6101c860048036038101906101c39190611b76565b610945565b005b6101e460048036038101906101df91906118ce565b610a7d565b6040516101f19190611e1b565b60405180910390f35b610202610cf9565b60405161020f9190611e1b565b60405180910390f35b610220610d6b565b60405161022d9190611eb3565b60405180910390f35b61023e610d71565b60405161024b9190611d22565b60405180910390f35b61026e60048036038101906102699190611b76565b610d97565b005b60085481565b816005600082815260200190815260200160002060009054906101000a900473ffffffffffffffffffffffffffffffffffffffff1673ffffffffffffffffffffffffffffffffffffffff163373ffffffffffffffffffffffffffffffffffffffff1614610318576040517f08c379a000000000000000000000000000000000000000000000000000000000815260040161030f90611e93565b60405180910390fd5b6005600082815260200190815260200160002060006101000a81549073ffffffffffffffffffffffffffffffffffffffff0219169055807f7cc135e0cebb02c3480ae5d74d377283180a2601f8f644edf7987b009316c63a60405160405180910390a27ff83420c728b9acd9fcdaa60a5bba545814a0ebfee0e8cfcbdb73f171f3e5f79c826040516103aa9190611e36565b60405180910390a1505050565b816005600082815260200190815260200160002060009054906101000a900473ffffffffffffffffffffffffffffffffffffffff1673ffffffffffffffffffffffffffffffffffffffff163373ffffffffffffffffffffffffffffffffffffffff1614610459576040517f08c379a000000000000000000000000000000000000000000000000000000000815260040161045090611e93565b60405180910390fd5b6005600082815260200190815260200160002060006101000a81549073ffffffffffffffffffffffffffffffffffffffff0219169055807f7cc135e0cebb02c3480ae5d74d377283180a2601f8f644edf7987b009316c63a60405160405180910390a27fc76965736a0f2ed17e98ec7c2dab6231b5f98e52f597e6d6bf0bdb9b9878ed7d826040516104eb9190611e1b565b60405180910390a1505050565b816005600082815260200190815260200160002060009054906101000a900473ffffffffffffffffffffffffffffffffffffffff1673ffffffffffffffffffffffffffffffffffffffff163373ffffffffffffffffffffffffffffffffffffffff161461059a576040517f08c379a000000000000000000000000000000000000000000000000000000000815260040161059190611e93565b60405180910390fd5b6005600082815260200190815260200160002060006101000a81549073ffffffffffffffffffffffffffffffffffffffff0219169055807f7cc135e0cebb02c3480ae5d74d377283180a2601f8f644edf7987b009316c63a60405160405180910390a27fa3bc099d9a6f5297ef1269c4501dbf6315c78eca2baefdfc64bfb9f07a60b6d38260405161062c9190611eb3565b60405180910390a1505050565b816005600082815260200190815260200160002060009054906101000a900473ffffffffffffffffffffffffffffffffffffffff1673ffffffffffffffffffffffffffffffffffffffff163373ffffffffffffffffffffffffffffffffffffffff16146106db576040517f08c379a00000000000000000000000000000000000000000000000000000000081526004016106d290611e93565b60405180910390fd5b6005600082815260200190815260200160002060006101000a81549073ffffffffffffffffffffffffffffffffffffffff0219169055807f7cc135e0cebb02c3480ae5d74d377283180a2601f8f644edf7987b009316c63a60405160405180910390a27f5bf6c807803406bbd4941bd53364338bd8c211c6f25efbdcf329fac81659ced58260405161076d9190611e00565b60405180910390a1505050565b600061079661078884610ed8565b306392cdaaf360e01b610f02565b90506107a3848284610f33565b5050505050565b606060005b60208160ff161080156108015750600060f81b838260ff16602081106107d8576107d76123d6565b5b1a60f81b7effffffffffffffffffffffffffffffffffffffffffffffffffffffffffffff191614155b15610819578080610811906122ef565b9150506107af565b60008160ff1667ffffffffffffffff81111561083857610837612405565b5b6040519080825280601f01601f19166020018201604052801561086a5781602001600182028036833780820191505090505b509050600091505b60208260ff161080156108c45750600060f81b848360ff166020811061089b5761089a6123d6565b5b1a60f81b7effffffffffffffffffffffffffffffffffffffffffffffffffffffffffffff191614155b1561093b57838260ff16602081106108df576108de6123d6565b5b1a60f81b818360ff16815181106108f9576108f86123d6565b5b60200101907effffffffffffffffffffffffffffffffffffffffffffffffffffffffffffff1916908160001a9053508180610933906122ef565b925050610872565b8092505050919050565b816005600082815260200190815260200160002060009054906101000a900473ffffffffffffffffffffffffffffffffffffffff1673ffffffffffffffffffffffffffffffffffffffff163373ffffffffffffffffffffffffffffffffffffffff16146109e7576040517f08c379a00000000000000000000000000000000000000000000000000000000081526004016109de90611e93565b60405180910390fd5b6005600082815260200190815260200160002060006101000a81549073ffffffffffffffffffffffffffffffffffffffff0219169055807f7cc135e0cebb02c3480ae5d74d377283180a2601f8f644edf7987b009316c63a60405160405180910390a281837f794eb9e29f6750ede99e05248d997a9ab9fa23c4a7eaff8afa729080eb7c642860405160405180910390a3505050565b6000610a876116ea565b610aa1610a938b610ed8565b30632ee5684960e01b610f02565b9050610b226040518060400160405280600a81526020017f72657475726e54797065000000000000000000000000000000000000000000008152506040518060400160405280600681526020017f696e74323536000000000000000000000000000000000000000000000000000081525083610f539092919063ffffffff16565b610b6c6040518060400160405280600681526020017f6d6574686f6400000000000000000000000000000000000000000000000000008152508983610f539092919063ffffffff16565b610bb66040518060400160405280600381526020017f75726c00000000000000000000000000000000000000000000000000000000008152508883610f539092919063ffffffff16565b610c006040518060400160405280600781526020017f68656164657273000000000000000000000000000000000000000000000000008152508783610f539092919063ffffffff16565b610c4a6040518060400160405280600481526020017f64617461000000000000000000000000000000000000000000000000000000008152508683610f539092919063ffffffff16565b610c946040518060400160405280600a81526020017f6a617661736372697074000000000000000000000000000000000000000000008152508583610f539092919063ffffffff16565b610cde6040518060400160405280600481526020017f69706673000000000000000000000000000000000000000000000000000000008152508483610f539092919063ffffffff16565b610ce98b828b610f33565b9150509998505050505050505050565b600080610d2e7f623164343263643534613361343230316231663632356136386534386161643230633fc958ea60e01b610f02565b90506000610d61600660009054906101000a900473ffffffffffffffffffffffffffffffffffffffff1683600754610f33565b9050809250505090565b60075481565b600660009054906101000a900473ffffffffffffffffffffffffffffffffffffffff1681565b816005600082815260200190815260200160002060009054906101000a900473ffffffffffffffffffffffffffffffffffffffff1673ffffffffffffffffffffffffffffffffffffffff163373ffffffffffffffffffffffffffffffffffffffff1614610e39576040517f08c379a0000000000000000000000000000000000000000000000000000000008152600401610e3090611e93565b60405180910390fd5b6005600082815260200190815260200160002060006101000a81549073ffffffffffffffffffffffffffffffffffffffff0219169055807f7cc135e0cebb02c3480ae5d74d377283180a2601f8f644edf7987b009316c63a60405160405180910390a27fa3bc099d9a6f5297ef1269c4501dbf6315c78eca2baefdfc64bfb9f07a60b6d382604051610ecb9190611eb3565b60405180910390a1505050565b600080829050600081511415610ef4576000801b915050610efd565b60208301519150505b919050565b610f0a6116ea565b610f126116ea565b610f2985858584610f86909392919063ffffffff16565b9150509392505050565b6000610f4a8484846001634042994660e01b611036565b90509392505050565b610f6a82846080015161129e90919063ffffffff16565b610f8181846080015161129e90919063ffffffff16565b505050565b610f8e6116ea565b610f9e85608001516101006112c3565b508385600001818152505082856020019073ffffffffffffffffffffffffffffffffffffffff16908173ffffffffffffffffffffffffffffffffffffffff16815250508185604001907bffffffffffffffffffffffffffffffffffffffffffffffffffffffff191690817bffffffffffffffffffffffffffffffffffffffffffffffffffffffff191681525050849050949350505050565b60003060045460405160200161104d929190611cf6565b604051602081830303815290604052805190602001209050600454856060018181525050856005600083815260200190815260200160002060006101000a81548173ffffffffffffffffffffffffffffffffffffffff021916908373ffffffffffffffffffffffffffffffffffffffff160217905550807fb5e6e01e79f91267dc17b4e6314d5d4d03593d2ceee0fbb452b750bd70ea5af960405160405180910390a2600082600080886000015189602001518a604001518b606001518a8d608001516000015160405160240161112b989796959493929190611d3d565b604051602081830303815290604052907bffffffffffffffffffffffffffffffffffffffffffffffffffffffff19166020820180517bffffffffffffffffffffffffffffffffffffffffffffffffffffffff83818316178352505050509050600260009054906101000a900473ffffffffffffffffffffffffffffffffffffffff1673ffffffffffffffffffffffffffffffffffffffff16634000aea08887846040518463ffffffff1660e01b81526004016111e993929190611dc2565b602060405180830381600087803b15801561120357600080fd5b505af1158015611217573d6000803e3d6000fd5b505050506040513d601f19601f8201168201806040525081019061123b9190611a5c565b61127a576040517f08c379a000000000000000000000000000000000000000000000000000000000815260040161127190611e73565b60405180910390fd5b60016004600082825461128d9190611f5c565b925050819055505095945050505050565b6112ab826003835161132d565b6112be818361147290919063ffffffff16565b505050565b6112cb611757565b60006020836112da9190612347565b14611306576020826112ec9190612347565b60206112f8919061217d565b826113039190611f5c565b91505b81836020018181525050604051808452600081528281016020016040525082905092915050565b6017811161135a576113548160058460ff16901b60ff16178461149490919063ffffffff16565b5061146d565b60ff811161139c5761137f601860058460ff16901b178461149490919063ffffffff16565b50611396816001856114b49092919063ffffffff16565b5061146c565b61ffff81116113df576113c2601960058460ff16901b178461149490919063ffffffff16565b506113d9816002856114b49092919063ffffffff16565b5061146b565b63ffffffff811161142457611407601a60058460ff16901b178461149490919063ffffffff16565b5061141e816004856114b49092919063ffffffff16565b5061146a565b67ffffffffffffffff811161146957611450601b60058460ff16901b178461149490919063ffffffff16565b50611467816008856114b49092919063ffffffff16565b505b5b5b5b5b505050565b61147a611757565b61148c838460000151518485516114d6565b905092915050565b61149c611757565b6114ac83846000015151846115c5565b905092915050565b6114bc611757565b6114cd84856000015151858561161c565b90509392505050565b6114de611757565b82518211156114ec57600080fd5b846020015182856114fd9190611f5c565b1115611532576115318560026115228860200151888761151d9190611f5c565b6116aa565b61152c9190612123565b6116c6565b5b6000808651805187602083010193508088870111156115515787860182525b60208701925050505b6020841061159857805182526020826115739190611f5c565b91506020816115829190611f5c565b9050602084611591919061217d565b935061155a565b60006001856020036101000a03905080198251168184511681811785525050508692505050949350505050565b6115cd611757565b836020015183106115f3576115f284600286602001516115ed9190612123565b6116c6565b5b835180516020858301018481538186141561160f576001820183525b5050508390509392505050565b611624611757565b846020015184836116359190611f5c565b111561165d5761165c856002868561164d9190611f5c565b6116579190612123565b6116c6565b5b600060018361010061166f9190612005565b611679919061217d565b9050855183868201018583198251161781528151858801111561169c5784870182525b505085915050949350505050565b6000818311156116bc578290506116c0565b8190505b92915050565b6000826000015190506116d983836112c3565b506116e48382611472565b50505050565b6040518060a0016040528060008019168152602001600073ffffffffffffffffffffffffffffffffffffffff16815260200160007bffffffffffffffffffffffffffffffffffffffffffffffffffffffff1916815260200160008152602001611751611757565b81525090565b604051806040016040528060608152602001600081525090565b600061178461177f84611ef3565b611ece565b9050828152602081018484840111156117a05761179f612439565b5b6117ab84828561227c565b509392505050565b6000813590506117c281612511565b92915050565b6000813590506117d781612528565b92915050565b6000815190506117ec81612528565b92915050565b6000813590506118018161253f565b92915050565b60008135905061181681612556565b92915050565b600082601f83011261183157611830612434565b5b8135611841848260208601611771565b91505092915050565b6000813590506118598161256d565b92915050565b60008060006060848603121561187857611877612443565b5b6000611886868287016117b3565b935050602084013567ffffffffffffffff8111156118a7576118a661243e565b5b6118b38682870161181c565b92505060406118c48682870161184a565b9150509250925092565b60008060008060008060008060006101208a8c0312156118f1576118f0612443565b5b60006118ff8c828d016117b3565b99505060208a013567ffffffffffffffff8111156119205761191f61243e565b5b61192c8c828d0161181c565b985050604061193d8c828d0161184a565b97505060608a013567ffffffffffffffff81111561195e5761195d61243e565b5b61196a8c828d0161181c565b96505060808a013567ffffffffffffffff81111561198b5761198a61243e565b5b6119978c828d0161181c565b95505060a08a013567ffffffffffffffff8111156119b8576119b761243e565b5b6119c48c828d0161181c565b94505060c08a013567ffffffffffffffff8111156119e5576119e461243e565b5b6119f18c828d0161181c565b93505060e08a013567ffffffffffffffff811115611a1257611a1161243e565b5b611a1e8c828d0161181c565b9250506101008a013567ffffffffffffffff811115611a4057611a3f61243e565b5b611a4c8c828d0161181c565b9150509295985092959850929598565b600060208284031215611a7257611a71612443565b5b6000611a80848285016117dd565b91505092915050565b600060208284031215611a9f57611a9e612443565b5b6000611aad848285016117f2565b91505092915050565b60008060408385031215611acd57611acc612443565b5b6000611adb858286016117f2565b9250506020611aec858286016117c8565b9150509250929050565b60008060408385031215611b0d57611b0c612443565b5b6000611b1b858286016117f2565b9250506020611b2c858286016117f2565b9150509250929050565b60008060408385031215611b4d57611b4c612443565b5b6000611b5b858286016117f2565b9250506020611b6c85828601611807565b9150509250929050565b60008060408385031215611b8d57611b8c612443565b5b6000611b9b858286016117f2565b9250506020611bac8582860161184a565b9150509250929050565b611bbf816121b1565b82525050565b611bce816121c3565b82525050565b611bdd816121cf565b82525050565b611bec816121d9565b82525050565b6000611bfd82611f24565b611c078185611f3a565b9350611c1781856020860161228b565b611c2081612448565b840191505092915050565b611c3c611c3782612246565b612319565b82525050565b611c4b81612205565b82525050565b6000611c5c82611f2f565b611c668185611f4b565b9350611c7681856020860161228b565b611c7f81612448565b840191505092915050565b6000611c97602383611f4b565b9150611ca282612473565b604082019050919050565b6000611cba602883611f4b565b9150611cc5826124c2565b604082019050919050565b611cd98161222f565b82525050565b611cf0611ceb8261222f565b61233d565b82525050565b6000611d028285611c2b565b601482019150611d128284611cdf565b6020820191508190509392505050565b6000602082019050611d376000830184611bb6565b92915050565b600061010082019050611d53600083018b611bb6565b611d60602083018a611cd0565b611d6d6040830189611bd4565b611d7a6060830188611bb6565b611d876080830187611be3565b611d9460a0830186611cd0565b611da160c0830185611cd0565b81810360e0830152611db38184611bf2565b90509998505050505050505050565b6000606082019050611dd76000830186611bb6565b611de46020830185611cd0565b8181036040830152611df68184611bf2565b9050949350505050565b6000602082019050611e156000830184611bc5565b92915050565b6000602082019050611e306000830184611bd4565b92915050565b6000602082019050611e4b6000830184611c42565b92915050565b60006020820190508181036000830152611e6b8184611c51565b905092915050565b60006020820190508181036000830152611e8c81611c8a565b9050919050565b60006020820190508181036000830152611eac81611cad565b9050919050565b6000602082019050611ec86000830184611cd0565b92915050565b6000611ed8611ee9565b9050611ee482826122be565b919050565b6000604051905090565b600067ffffffffffffffff821115611f0e57611f0d612405565b5b611f1782612448565b9050602081019050919050565b600081519050919050565b600081519050919050565b600082825260208201905092915050565b600082825260208201905092915050565b6000611f678261222f565b9150611f728361222f565b9250827fffffffffffffffffffffffffffffffffffffffffffffffffffffffffffffffff03821115611fa757611fa6612378565b5b828201905092915050565b6000808291508390505b6001851115611ffc57808604811115611fd857611fd7612378565b5b6001851615611fe75780820291505b8081029050611ff585612466565b9450611fbc565b94509492505050565b60006120108261222f565b915061201b8361222f565b92506120487fffffffffffffffffffffffffffffffffffffffffffffffffffffffffffffffff8484612050565b905092915050565b600082612060576001905061211c565b8161206e576000905061211c565b8160018114612084576002811461208e576120bd565b600191505061211c565b60ff8411156120a05761209f612378565b5b8360020a9150848211156120b7576120b6612378565b5b5061211c565b5060208310610133831016604e8410600b84101617156120f25782820a9050838111156120ed576120ec612378565b5b61211c565b6120ff8484846001611fb2565b9250905081840481111561211657612115612378565b5b81810290505b9392505050565b600061212e8261222f565b91506121398361222f565b9250817fffffffffffffffffffffffffffffffffffffffffffffffffffffffffffffffff048311821515161561217257612171612378565b5b828202905092915050565b60006121888261222f565b91506121938361222f565b9250828210156121a6576121a5612378565b5b828203905092915050565b60006121bc8261220f565b9050919050565b60008115159050919050565b6000819050919050565b60007fffffffff0000000000000000000000000000000000000000000000000000000082169050919050565b6000819050919050565b600073ffffffffffffffffffffffffffffffffffffffff82169050919050565b6000819050919050565b600060ff82169050919050565b600061225182612258565b9050919050565b60006122638261226a565b9050919050565b60006122758261220f565b9050919050565b82818337600083830152505050565b60005b838110156122a957808201518184015260208101905061228e565b838111156122b8576000848401525b50505050565b6122c782612448565b810181811067ffffffffffffffff821117156122e6576122e5612405565b5b80604052505050565b60006122fa82612239565b915060ff82141561230e5761230d612378565b5b600182019050919050565b60006123248261232b565b9050919050565b600061233682612459565b9050919050565b6000819050919050565b60006123528261222f565b915061235d8361222f565b92508261236d5761236c6123a7565b5b828206905092915050565b7f4e487b7100000000000000000000000000000000000000000000000000000000600052601160045260246000fd5b7f4e487b7100000000000000000000000000000000000000000000000000000000600052601260045260246000fd5b7f4e487b7100000000000000000000000000000000000000000000000000000000600052603260045260246000fd5b7f4e487b7100000000000000000000000000000000000000000000000000000000600052604160045260246000fd5b600080fd5b600080fd5b600080fd5b600080fd5b6000601f19601f8301169050919050565b60008160601b9050919050565b60008160011c9050919050565b7f756e61626c6520746f207472616e73666572416e6443616c6c20746f206f726160008201527f636c650000000000000000000000000000000000000000000000000000000000602082015250565b7f536f75726365206d75737420626520746865206f7261636c65206f662074686560008201527f2072657175657374000000000000000000000000000000000000000000000000602082015250565b61251a816121b1565b811461252557600080fd5b50565b612531816121c3565b811461253c57600080fd5b50565b612548816121cf565b811461255357600080fd5b50565b61255f81612205565b811461256a57600080fd5b50565b6125768161222f565b811461258157600080fd5b5056fea26469706673582212202b77faedda374db59ad914e85ed8ccbaf088de9baae7a796bf12ff02a89b35e964736f6c63430008070033",
          "opcodes": "PUSH1 0x80 PUSH1 0x40 MSTORE PUSH1 0x1 PUSH1 0x4 SSTORE CALLVALUE DUP1 ISZERO PUSH3 0x16 JUMPI PUSH1 0x0 DUP1 REVERT JUMPDEST POP PUSH1 0x40 MLOAD PUSH3 0x2812 CODESIZE SUB DUP1 PUSH3 0x2812 DUP4 CODECOPY DUP2 DUP2 ADD PUSH1 0x40 MSTORE DUP2 ADD SWAP1 PUSH3 0x3C SWAP2 SWAP1 PUSH3 0x15C JUMP JUMPDEST PUSH3 0x61 PUSH20 0x326C977E6EFC84E512BB9C30F76E30C160ED06FB PUSH3 0xEA PUSH1 0x20 SHL PUSH1 0x20 SHR JUMP JUMPDEST DUP2 PUSH1 0x6 PUSH1 0x0 PUSH2 0x100 EXP DUP2 SLOAD DUP2 PUSH20 0xFFFFFFFFFFFFFFFFFFFFFFFFFFFFFFFFFFFFFFFF MUL NOT AND SWAP1 DUP4 PUSH20 0xFFFFFFFFFFFFFFFFFFFFFFFFFFFFFFFFFFFFFFFF AND MUL OR SWAP1 SSTORE POP DUP1 PUSH1 0x7 DUP2 SWAP1 SSTORE POP PUSH32 0x15B40EC05FB71B25F4E46C28335F2626D29465BAFB74D67B683A01CFF2A35224 TIMESTAMP PUSH1 0x40 MLOAD PUSH3 0xDA SWAP2 SWAP1 PUSH3 0x1B4 JUMP JUMPDEST PUSH1 0x40 MLOAD DUP1 SWAP2 SUB SWAP1 LOG1 POP POP PUSH3 0x248 JUMP JUMPDEST DUP1 PUSH1 0x2 PUSH1 0x0 PUSH2 0x100 EXP DUP2 SLOAD DUP2 PUSH20 0xFFFFFFFFFFFFFFFFFFFFFFFFFFFFFFFFFFFFFFFF MUL NOT AND SWAP1 DUP4 PUSH20 0xFFFFFFFFFFFFFFFFFFFFFFFFFFFFFFFFFFFFFFFF AND MUL OR SWAP1 SSTORE POP POP JUMP JUMPDEST PUSH1 0x0 DUP2 MLOAD SWAP1 POP PUSH3 0x13F DUP2 PUSH3 0x214 JUMP JUMPDEST SWAP3 SWAP2 POP POP JUMP JUMPDEST PUSH1 0x0 DUP2 MLOAD SWAP1 POP PUSH3 0x156 DUP2 PUSH3 0x22E JUMP JUMPDEST SWAP3 SWAP2 POP POP JUMP JUMPDEST PUSH1 0x0 DUP1 PUSH1 0x40 DUP4 DUP6 SUB SLT ISZERO PUSH3 0x176 JUMPI PUSH3 0x175 PUSH3 0x20F JUMP JUMPDEST JUMPDEST PUSH1 0x0 PUSH3 0x186 DUP6 DUP3 DUP7 ADD PUSH3 0x12E JUMP JUMPDEST SWAP3 POP POP PUSH1 0x20 PUSH3 0x199 DUP6 DUP3 DUP7 ADD PUSH3 0x145 JUMP JUMPDEST SWAP2 POP POP SWAP3 POP SWAP3 SWAP1 POP JUMP JUMPDEST PUSH3 0x1AE DUP2 PUSH3 0x205 JUMP JUMPDEST DUP3 MSTORE POP POP JUMP JUMPDEST PUSH1 0x0 PUSH1 0x20 DUP3 ADD SWAP1 POP PUSH3 0x1CB PUSH1 0x0 DUP4 ADD DUP5 PUSH3 0x1A3 JUMP JUMPDEST SWAP3 SWAP2 POP POP JUMP JUMPDEST PUSH1 0x0 PUSH3 0x1DE DUP3 PUSH3 0x1E5 JUMP JUMPDEST SWAP1 POP SWAP2 SWAP1 POP JUMP JUMPDEST PUSH1 0x0 PUSH20 0xFFFFFFFFFFFFFFFFFFFFFFFFFFFFFFFFFFFFFFFF DUP3 AND SWAP1 POP SWAP2 SWAP1 POP JUMP JUMPDEST PUSH1 0x0 DUP2 SWAP1 POP SWAP2 SWAP1 POP JUMP JUMPDEST PUSH1 0x0 DUP1 REVERT JUMPDEST PUSH3 0x21F DUP2 PUSH3 0x1D1 JUMP JUMPDEST DUP2 EQ PUSH3 0x22B JUMPI PUSH1 0x0 DUP1 REVERT JUMPDEST POP JUMP JUMPDEST PUSH3 0x239 DUP2 PUSH3 0x205 JUMP JUMPDEST DUP2 EQ PUSH3 0x245 JUMPI PUSH1 0x0 DUP1 REVERT JUMPDEST POP JUMP JUMPDEST PUSH2 0x25BA DUP1 PUSH3 0x258 PUSH1 0x0 CODECOPY PUSH1 0x0 RETURN INVALID PUSH1 0x80 PUSH1 0x40 MSTORE CALLVALUE DUP1 ISZERO PUSH2 0x10 JUMPI PUSH1 0x0 DUP1 REVERT JUMPDEST POP PUSH1 0x4 CALLDATASIZE LT PUSH2 0xCF JUMPI PUSH1 0x0 CALLDATALOAD PUSH1 0xE0 SHR DUP1 PUSH4 0x9201DE55 GT PUSH2 0x8C JUMPI DUP1 PUSH4 0xBE4CDC8D GT PUSH2 0x66 JUMPI DUP1 PUSH4 0xBE4CDC8D EQ PUSH2 0x1FA JUMPI DUP1 PUSH4 0xDDCA3F43 EQ PUSH2 0x218 JUMPI DUP1 PUSH4 0xF07029B9 EQ PUSH2 0x236 JUMPI DUP1 PUSH4 0xFF68299A EQ PUSH2 0x254 JUMPI PUSH2 0xCF JUMP JUMPDEST DUP1 PUSH4 0x9201DE55 EQ PUSH2 0x17E JUMPI DUP1 PUSH4 0x92CDAAF3 EQ PUSH2 0x1AE JUMPI DUP1 PUSH4 0xA3E69C91 EQ PUSH2 0x1CA JUMPI PUSH2 0xCF JUMP JUMPDEST DUP1 PUSH4 0x10DBA203 EQ PUSH2 0xD4 JUMPI DUP1 PUSH4 0x2EE56849 EQ PUSH2 0xF2 JUMPI DUP1 PUSH4 0x341A2476 EQ PUSH2 0x10E JUMPI DUP1 PUSH4 0x3FC958EA EQ PUSH2 0x12A JUMPI DUP1 PUSH4 0x5D3B29EF EQ PUSH2 0x146 JUMPI DUP1 PUSH4 0x63A3CD4C EQ PUSH2 0x162 JUMPI JUMPDEST PUSH1 0x0 DUP1 REVERT JUMPDEST PUSH2 0xDC PUSH2 0x270 JUMP JUMPDEST PUSH1 0x40 MLOAD PUSH2 0xE9 SWAP2 SWAP1 PUSH2 0x1E1B JUMP JUMPDEST PUSH1 0x40 MLOAD DUP1 SWAP2 SUB SWAP1 RETURN JUMPDEST PUSH2 0x10C PUSH1 0x4 DUP1 CALLDATASIZE SUB DUP2 ADD SWAP1 PUSH2 0x107 SWAP2 SWAP1 PUSH2 0x1B36 JUMP JUMPDEST PUSH2 0x276 JUMP JUMPDEST STOP JUMPDEST PUSH2 0x128 PUSH1 0x4 DUP1 CALLDATASIZE SUB DUP2 ADD SWAP1 PUSH2 0x123 SWAP2 SWAP1 PUSH2 0x1AF6 JUMP JUMPDEST PUSH2 0x3B7 JUMP JUMPDEST STOP JUMPDEST PUSH2 0x144 PUSH1 0x4 DUP1 CALLDATASIZE SUB DUP2 ADD SWAP1 PUSH2 0x13F SWAP2 SWAP1 PUSH2 0x1B76 JUMP JUMPDEST PUSH2 0x4F8 JUMP JUMPDEST STOP JUMPDEST PUSH2 0x160 PUSH1 0x4 DUP1 CALLDATASIZE SUB DUP2 ADD SWAP1 PUSH2 0x15B SWAP2 SWAP1 PUSH2 0x1AB6 JUMP JUMPDEST PUSH2 0x639 JUMP JUMPDEST STOP JUMPDEST PUSH2 0x17C PUSH1 0x4 DUP1 CALLDATASIZE SUB DUP2 ADD SWAP1 PUSH2 0x177 SWAP2 SWAP1 PUSH2 0x185F JUMP JUMPDEST PUSH2 0x77A JUMP JUMPDEST STOP JUMPDEST PUSH2 0x198 PUSH1 0x4 DUP1 CALLDATASIZE SUB DUP2 ADD SWAP1 PUSH2 0x193 SWAP2 SWAP1 PUSH2 0x1A89 JUMP JUMPDEST PUSH2 0x7AA JUMP JUMPDEST PUSH1 0x40 MLOAD PUSH2 0x1A5 SWAP2 SWAP1 PUSH2 0x1E51 JUMP JUMPDEST PUSH1 0x40 MLOAD DUP1 SWAP2 SUB SWAP1 RETURN JUMPDEST PUSH2 0x1C8 PUSH1 0x4 DUP1 CALLDATASIZE SUB DUP2 ADD SWAP1 PUSH2 0x1C3 SWAP2 SWAP1 PUSH2 0x1B76 JUMP JUMPDEST PUSH2 0x945 JUMP JUMPDEST STOP JUMPDEST PUSH2 0x1E4 PUSH1 0x4 DUP1 CALLDATASIZE SUB DUP2 ADD SWAP1 PUSH2 0x1DF SWAP2 SWAP1 PUSH2 0x18CE JUMP JUMPDEST PUSH2 0xA7D JUMP JUMPDEST PUSH1 0x40 MLOAD PUSH2 0x1F1 SWAP2 SWAP1 PUSH2 0x1E1B JUMP JUMPDEST PUSH1 0x40 MLOAD DUP1 SWAP2 SUB SWAP1 RETURN JUMPDEST PUSH2 0x202 PUSH2 0xCF9 JUMP JUMPDEST PUSH1 0x40 MLOAD PUSH2 0x20F SWAP2 SWAP1 PUSH2 0x1E1B JUMP JUMPDEST PUSH1 0x40 MLOAD DUP1 SWAP2 SUB SWAP1 RETURN JUMPDEST PUSH2 0x220 PUSH2 0xD6B JUMP JUMPDEST PUSH1 0x40 MLOAD PUSH2 0x22D SWAP2 SWAP1 PUSH2 0x1EB3 JUMP JUMPDEST PUSH1 0x40 MLOAD DUP1 SWAP2 SUB SWAP1 RETURN JUMPDEST PUSH2 0x23E PUSH2 0xD71 JUMP JUMPDEST PUSH1 0x40 MLOAD PUSH2 0x24B SWAP2 SWAP1 PUSH2 0x1D22 JUMP JUMPDEST PUSH1 0x40 MLOAD DUP1 SWAP2 SUB SWAP1 RETURN JUMPDEST PUSH2 0x26E PUSH1 0x4 DUP1 CALLDATASIZE SUB DUP2 ADD SWAP1 PUSH2 0x269 SWAP2 SWAP1 PUSH2 0x1B76 JUMP JUMPDEST PUSH2 0xD97 JUMP JUMPDEST STOP JUMPDEST PUSH1 0x8 SLOAD DUP2 JUMP JUMPDEST DUP2 PUSH1 0x5 PUSH1 0x0 DUP3 DUP2 MSTORE PUSH1 0x20 ADD SWAP1 DUP2 MSTORE PUSH1 0x20 ADD PUSH1 0x0 KECCAK256 PUSH1 0x0 SWAP1 SLOAD SWAP1 PUSH2 0x100 EXP SWAP1 DIV PUSH20 0xFFFFFFFFFFFFFFFFFFFFFFFFFFFFFFFFFFFFFFFF AND PUSH20 0xFFFFFFFFFFFFFFFFFFFFFFFFFFFFFFFFFFFFFFFF AND CALLER PUSH20 0xFFFFFFFFFFFFFFFFFFFFFFFFFFFFFFFFFFFFFFFF AND EQ PUSH2 0x318 JUMPI PUSH1 0x40 MLOAD PUSH32 0x8C379A000000000000000000000000000000000000000000000000000000000 DUP2 MSTORE PUSH1 0x4 ADD PUSH2 0x30F SWAP1 PUSH2 0x1E93 JUMP JUMPDEST PUSH1 0x40 MLOAD DUP1 SWAP2 SUB SWAP1 REVERT JUMPDEST PUSH1 0x5 PUSH1 0x0 DUP3 DUP2 MSTORE PUSH1 0x20 ADD SWAP1 DUP2 MSTORE PUSH1 0x20 ADD PUSH1 0x0 KECCAK256 PUSH1 0x0 PUSH2 0x100 EXP DUP2 SLOAD SWAP1 PUSH20 0xFFFFFFFFFFFFFFFFFFFFFFFFFFFFFFFFFFFFFFFF MUL NOT AND SWAP1 SSTORE DUP1 PUSH32 0x7CC135E0CEBB02C3480AE5D74D377283180A2601F8F644EDF7987B009316C63A PUSH1 0x40 MLOAD PUSH1 0x40 MLOAD DUP1 SWAP2 SUB SWAP1 LOG2 PUSH32 0xF83420C728B9ACD9FCDAA60A5BBA545814A0EBFEE0E8CFCBDB73F171F3E5F79C DUP3 PUSH1 0x40 MLOAD PUSH2 0x3AA SWAP2 SWAP1 PUSH2 0x1E36 JUMP JUMPDEST PUSH1 0x40 MLOAD DUP1 SWAP2 SUB SWAP1 LOG1 POP POP POP JUMP JUMPDEST DUP2 PUSH1 0x5 PUSH1 0x0 DUP3 DUP2 MSTORE PUSH1 0x20 ADD SWAP1 DUP2 MSTORE PUSH1 0x20 ADD PUSH1 0x0 KECCAK256 PUSH1 0x0 SWAP1 SLOAD SWAP1 PUSH2 0x100 EXP SWAP1 DIV PUSH20 0xFFFFFFFFFFFFFFFFFFFFFFFFFFFFFFFFFFFFFFFF AND PUSH20 0xFFFFFFFFFFFFFFFFFFFFFFFFFFFFFFFFFFFFFFFF AND CALLER PUSH20 0xFFFFFFFFFFFFFFFFFFFFFFFFFFFFFFFFFFFFFFFF AND EQ PUSH2 0x459 JUMPI PUSH1 0x40 MLOAD PUSH32 0x8C379A000000000000000000000000000000000000000000000000000000000 DUP2 MSTORE PUSH1 0x4 ADD PUSH2 0x450 SWAP1 PUSH2 0x1E93 JUMP JUMPDEST PUSH1 0x40 MLOAD DUP1 SWAP2 SUB SWAP1 REVERT JUMPDEST PUSH1 0x5 PUSH1 0x0 DUP3 DUP2 MSTORE PUSH1 0x20 ADD SWAP1 DUP2 MSTORE PUSH1 0x20 ADD PUSH1 0x0 KECCAK256 PUSH1 0x0 PUSH2 0x100 EXP DUP2 SLOAD SWAP1 PUSH20 0xFFFFFFFFFFFFFFFFFFFFFFFFFFFFFFFFFFFFFFFF MUL NOT AND SWAP1 SSTORE DUP1 PUSH32 0x7CC135E0CEBB02C3480AE5D74D377283180A2601F8F644EDF7987B009316C63A PUSH1 0x40 MLOAD PUSH1 0x40 MLOAD DUP1 SWAP2 SUB SWAP1 LOG2 PUSH32 0xC76965736A0F2ED17E98EC7C2DAB6231B5F98E52F597E6D6BF0BDB9B9878ED7D DUP3 PUSH1 0x40 MLOAD PUSH2 0x4EB SWAP2 SWAP1 PUSH2 0x1E1B JUMP JUMPDEST PUSH1 0x40 MLOAD DUP1 SWAP2 SUB SWAP1 LOG1 POP POP POP JUMP JUMPDEST DUP2 PUSH1 0x5 PUSH1 0x0 DUP3 DUP2 MSTORE PUSH1 0x20 ADD SWAP1 DUP2 MSTORE PUSH1 0x20 ADD PUSH1 0x0 KECCAK256 PUSH1 0x0 SWAP1 SLOAD SWAP1 PUSH2 0x100 EXP SWAP1 DIV PUSH20 0xFFFFFFFFFFFFFFFFFFFFFFFFFFFFFFFFFFFFFFFF AND PUSH20 0xFFFFFFFFFFFFFFFFFFFFFFFFFFFFFFFFFFFFFFFF AND CALLER PUSH20 0xFFFFFFFFFFFFFFFFFFFFFFFFFFFFFFFFFFFFFFFF AND EQ PUSH2 0x59A JUMPI PUSH1 0x40 MLOAD PUSH32 0x8C379A000000000000000000000000000000000000000000000000000000000 DUP2 MSTORE PUSH1 0x4 ADD PUSH2 0x591 SWAP1 PUSH2 0x1E93 JUMP JUMPDEST PUSH1 0x40 MLOAD DUP1 SWAP2 SUB SWAP1 REVERT JUMPDEST PUSH1 0x5 PUSH1 0x0 DUP3 DUP2 MSTORE PUSH1 0x20 ADD SWAP1 DUP2 MSTORE PUSH1 0x20 ADD PUSH1 0x0 KECCAK256 PUSH1 0x0 PUSH2 0x100 EXP DUP2 SLOAD SWAP1 PUSH20 0xFFFFFFFFFFFFFFFFFFFFFFFFFFFFFFFFFFFFFFFF MUL NOT AND SWAP1 SSTORE DUP1 PUSH32 0x7CC135E0CEBB02C3480AE5D74D377283180A2601F8F644EDF7987B009316C63A PUSH1 0x40 MLOAD PUSH1 0x40 MLOAD DUP1 SWAP2 SUB SWAP1 LOG2 PUSH32 0xA3BC099D9A6F5297EF1269C4501DBF6315C78ECA2BAEFDFC64BFB9F07A60B6D3 DUP3 PUSH1 0x40 MLOAD PUSH2 0x62C SWAP2 SWAP1 PUSH2 0x1EB3 JUMP JUMPDEST PUSH1 0x40 MLOAD DUP1 SWAP2 SUB SWAP1 LOG1 POP POP POP JUMP JUMPDEST DUP2 PUSH1 0x5 PUSH1 0x0 DUP3 DUP2 MSTORE PUSH1 0x20 ADD SWAP1 DUP2 MSTORE PUSH1 0x20 ADD PUSH1 0x0 KECCAK256 PUSH1 0x0 SWAP1 SLOAD SWAP1 PUSH2 0x100 EXP SWAP1 DIV PUSH20 0xFFFFFFFFFFFFFFFFFFFFFFFFFFFFFFFFFFFFFFFF AND PUSH20 0xFFFFFFFFFFFFFFFFFFFFFFFFFFFFFFFFFFFFFFFF AND CALLER PUSH20 0xFFFFFFFFFFFFFFFFFFFFFFFFFFFFFFFFFFFFFFFF AND EQ PUSH2 0x6DB JUMPI PUSH1 0x40 MLOAD PUSH32 0x8C379A000000000000000000000000000000000000000000000000000000000 DUP2 MSTORE PUSH1 0x4 ADD PUSH2 0x6D2 SWAP1 PUSH2 0x1E93 JUMP JUMPDEST PUSH1 0x40 MLOAD DUP1 SWAP2 SUB SWAP1 REVERT JUMPDEST PUSH1 0x5 PUSH1 0x0 DUP3 DUP2 MSTORE PUSH1 0x20 ADD SWAP1 DUP2 MSTORE PUSH1 0x20 ADD PUSH1 0x0 KECCAK256 PUSH1 0x0 PUSH2 0x100 EXP DUP2 SLOAD SWAP1 PUSH20 0xFFFFFFFFFFFFFFFFFFFFFFFFFFFFFFFFFFFFFFFF MUL NOT AND SWAP1 SSTORE DUP1 PUSH32 0x7CC135E0CEBB02C3480AE5D74D377283180A2601F8F644EDF7987B009316C63A PUSH1 0x40 MLOAD PUSH1 0x40 MLOAD DUP1 SWAP2 SUB SWAP1 LOG2 PUSH32 0x5BF6C807803406BBD4941BD53364338BD8C211C6F25EFBDCF329FAC81659CED5 DUP3 PUSH1 0x40 MLOAD PUSH2 0x76D SWAP2 SWAP1 PUSH2 0x1E00 JUMP JUMPDEST PUSH1 0x40 MLOAD DUP1 SWAP2 SUB SWAP1 LOG1 POP POP POP JUMP JUMPDEST PUSH1 0x0 PUSH2 0x796 PUSH2 0x788 DUP5 PUSH2 0xED8 JUMP JUMPDEST ADDRESS PUSH4 0x92CDAAF3 PUSH1 0xE0 SHL PUSH2 0xF02 JUMP JUMPDEST SWAP1 POP PUSH2 0x7A3 DUP5 DUP3 DUP5 PUSH2 0xF33 JUMP JUMPDEST POP POP POP POP POP JUMP JUMPDEST PUSH1 0x60 PUSH1 0x0 JUMPDEST PUSH1 0x20 DUP2 PUSH1 0xFF AND LT DUP1 ISZERO PUSH2 0x801 JUMPI POP PUSH1 0x0 PUSH1 0xF8 SHL DUP4 DUP3 PUSH1 0xFF AND PUSH1 0x20 DUP2 LT PUSH2 0x7D8 JUMPI PUSH2 0x7D7 PUSH2 0x23D6 JUMP JUMPDEST JUMPDEST BYTE PUSH1 0xF8 SHL PUSH31 0xFFFFFFFFFFFFFFFFFFFFFFFFFFFFFFFFFFFFFFFFFFFFFFFFFFFFFFFFFFFFFF NOT AND EQ ISZERO JUMPDEST ISZERO PUSH2 0x819 JUMPI DUP1 DUP1 PUSH2 0x811 SWAP1 PUSH2 0x22EF JUMP JUMPDEST SWAP2 POP POP PUSH2 0x7AF JUMP JUMPDEST PUSH1 0x0 DUP2 PUSH1 0xFF AND PUSH8 0xFFFFFFFFFFFFFFFF DUP2 GT ISZERO PUSH2 0x838 JUMPI PUSH2 0x837 PUSH2 0x2405 JUMP JUMPDEST JUMPDEST PUSH1 0x40 MLOAD SWAP1 DUP1 DUP3 MSTORE DUP1 PUSH1 0x1F ADD PUSH1 0x1F NOT AND PUSH1 0x20 ADD DUP3 ADD PUSH1 0x40 MSTORE DUP1 ISZERO PUSH2 0x86A JUMPI DUP2 PUSH1 0x20 ADD PUSH1 0x1 DUP3 MUL DUP1 CALLDATASIZE DUP4 CALLDATACOPY DUP1 DUP3 ADD SWAP2 POP POP SWAP1 POP JUMPDEST POP SWAP1 POP PUSH1 0x0 SWAP2 POP JUMPDEST PUSH1 0x20 DUP3 PUSH1 0xFF AND LT DUP1 ISZERO PUSH2 0x8C4 JUMPI POP PUSH1 0x0 PUSH1 0xF8 SHL DUP5 DUP4 PUSH1 0xFF AND PUSH1 0x20 DUP2 LT PUSH2 0x89B JUMPI PUSH2 0x89A PUSH2 0x23D6 JUMP JUMPDEST JUMPDEST BYTE PUSH1 0xF8 SHL PUSH31 0xFFFFFFFFFFFFFFFFFFFFFFFFFFFFFFFFFFFFFFFFFFFFFFFFFFFFFFFFFFFFFF NOT AND EQ ISZERO JUMPDEST ISZERO PUSH2 0x93B JUMPI DUP4 DUP3 PUSH1 0xFF AND PUSH1 0x20 DUP2 LT PUSH2 0x8DF JUMPI PUSH2 0x8DE PUSH2 0x23D6 JUMP JUMPDEST JUMPDEST BYTE PUSH1 0xF8 SHL DUP2 DUP4 PUSH1 0xFF AND DUP2 MLOAD DUP2 LT PUSH2 0x8F9 JUMPI PUSH2 0x8F8 PUSH2 0x23D6 JUMP JUMPDEST JUMPDEST PUSH1 0x20 ADD ADD SWAP1 PUSH31 0xFFFFFFFFFFFFFFFFFFFFFFFFFFFFFFFFFFFFFFFFFFFFFFFFFFFFFFFFFFFFFF NOT AND SWAP1 DUP2 PUSH1 0x0 BYTE SWAP1 MSTORE8 POP DUP2 DUP1 PUSH2 0x933 SWAP1 PUSH2 0x22EF JUMP JUMPDEST SWAP3 POP POP PUSH2 0x872 JUMP JUMPDEST DUP1 SWAP3 POP POP POP SWAP2 SWAP1 POP JUMP JUMPDEST DUP2 PUSH1 0x5 PUSH1 0x0 DUP3 DUP2 MSTORE PUSH1 0x20 ADD SWAP1 DUP2 MSTORE PUSH1 0x20 ADD PUSH1 0x0 KECCAK256 PUSH1 0x0 SWAP1 SLOAD SWAP1 PUSH2 0x100 EXP SWAP1 DIV PUSH20 0xFFFFFFFFFFFFFFFFFFFFFFFFFFFFFFFFFFFFFFFF AND PUSH20 0xFFFFFFFFFFFFFFFFFFFFFFFFFFFFFFFFFFFFFFFF AND CALLER PUSH20 0xFFFFFFFFFFFFFFFFFFFFFFFFFFFFFFFFFFFFFFFF AND EQ PUSH2 0x9E7 JUMPI PUSH1 0x40 MLOAD PUSH32 0x8C379A000000000000000000000000000000000000000000000000000000000 DUP2 MSTORE PUSH1 0x4 ADD PUSH2 0x9DE SWAP1 PUSH2 0x1E93 JUMP JUMPDEST PUSH1 0x40 MLOAD DUP1 SWAP2 SUB SWAP1 REVERT JUMPDEST PUSH1 0x5 PUSH1 0x0 DUP3 DUP2 MSTORE PUSH1 0x20 ADD SWAP1 DUP2 MSTORE PUSH1 0x20 ADD PUSH1 0x0 KECCAK256 PUSH1 0x0 PUSH2 0x100 EXP DUP2 SLOAD SWAP1 PUSH20 0xFFFFFFFFFFFFFFFFFFFFFFFFFFFFFFFFFFFFFFFF MUL NOT AND SWAP1 SSTORE DUP1 PUSH32 0x7CC135E0CEBB02C3480AE5D74D377283180A2601F8F644EDF7987B009316C63A PUSH1 0x40 MLOAD PUSH1 0x40 MLOAD DUP1 SWAP2 SUB SWAP1 LOG2 DUP2 DUP4 PUSH32 0x794EB9E29F6750EDE99E05248D997A9AB9FA23C4A7EAFF8AFA729080EB7C6428 PUSH1 0x40 MLOAD PUSH1 0x40 MLOAD DUP1 SWAP2 SUB SWAP1 LOG3 POP POP POP JUMP JUMPDEST PUSH1 0x0 PUSH2 0xA87 PUSH2 0x16EA JUMP JUMPDEST PUSH2 0xAA1 PUSH2 0xA93 DUP12 PUSH2 0xED8 JUMP JUMPDEST ADDRESS PUSH4 0x2EE56849 PUSH1 0xE0 SHL PUSH2 0xF02 JUMP JUMPDEST SWAP1 POP PUSH2 0xB22 PUSH1 0x40 MLOAD DUP1 PUSH1 0x40 ADD PUSH1 0x40 MSTORE DUP1 PUSH1 0xA DUP2 MSTORE PUSH1 0x20 ADD PUSH32 0x72657475726E5479706500000000000000000000000000000000000000000000 DUP2 MSTORE POP PUSH1 0x40 MLOAD DUP1 PUSH1 0x40 ADD PUSH1 0x40 MSTORE DUP1 PUSH1 0x6 DUP2 MSTORE PUSH1 0x20 ADD PUSH32 0x696E743235360000000000000000000000000000000000000000000000000000 DUP2 MSTORE POP DUP4 PUSH2 0xF53 SWAP1 SWAP3 SWAP2 SWAP1 PUSH4 0xFFFFFFFF AND JUMP JUMPDEST PUSH2 0xB6C PUSH1 0x40 MLOAD DUP1 PUSH1 0x40 ADD PUSH1 0x40 MSTORE DUP1 PUSH1 0x6 DUP2 MSTORE PUSH1 0x20 ADD PUSH32 0x6D6574686F640000000000000000000000000000000000000000000000000000 DUP2 MSTORE POP DUP10 DUP4 PUSH2 0xF53 SWAP1 SWAP3 SWAP2 SWAP1 PUSH4 0xFFFFFFFF AND JUMP JUMPDEST PUSH2 0xBB6 PUSH1 0x40 MLOAD DUP1 PUSH1 0x40 ADD PUSH1 0x40 MSTORE DUP1 PUSH1 0x3 DUP2 MSTORE PUSH1 0x20 ADD PUSH32 0x75726C0000000000000000000000000000000000000000000000000000000000 DUP2 MSTORE POP DUP9 DUP4 PUSH2 0xF53 SWAP1 SWAP3 SWAP2 SWAP1 PUSH4 0xFFFFFFFF AND JUMP JUMPDEST PUSH2 0xC00 PUSH1 0x40 MLOAD DUP1 PUSH1 0x40 ADD PUSH1 0x40 MSTORE DUP1 PUSH1 0x7 DUP2 MSTORE PUSH1 0x20 ADD PUSH32 0x6865616465727300000000000000000000000000000000000000000000000000 DUP2 MSTORE POP DUP8 DUP4 PUSH2 0xF53 SWAP1 SWAP3 SWAP2 SWAP1 PUSH4 0xFFFFFFFF AND JUMP JUMPDEST PUSH2 0xC4A PUSH1 0x40 MLOAD DUP1 PUSH1 0x40 ADD PUSH1 0x40 MSTORE DUP1 PUSH1 0x4 DUP2 MSTORE PUSH1 0x20 ADD PUSH32 0x6461746100000000000000000000000000000000000000000000000000000000 DUP2 MSTORE POP DUP7 DUP4 PUSH2 0xF53 SWAP1 SWAP3 SWAP2 SWAP1 PUSH4 0xFFFFFFFF AND JUMP JUMPDEST PUSH2 0xC94 PUSH1 0x40 MLOAD DUP1 PUSH1 0x40 ADD PUSH1 0x40 MSTORE DUP1 PUSH1 0xA DUP2 MSTORE PUSH1 0x20 ADD PUSH32 0x6A61766173637269707400000000000000000000000000000000000000000000 DUP2 MSTORE POP DUP6 DUP4 PUSH2 0xF53 SWAP1 SWAP3 SWAP2 SWAP1 PUSH4 0xFFFFFFFF AND JUMP JUMPDEST PUSH2 0xCDE PUSH1 0x40 MLOAD DUP1 PUSH1 0x40 ADD PUSH1 0x40 MSTORE DUP1 PUSH1 0x4 DUP2 MSTORE PUSH1 0x20 ADD PUSH32 0x6970667300000000000000000000000000000000000000000000000000000000 DUP2 MSTORE POP DUP5 DUP4 PUSH2 0xF53 SWAP1 SWAP3 SWAP2 SWAP1 PUSH4 0xFFFFFFFF AND JUMP JUMPDEST PUSH2 0xCE9 DUP12 DUP3 DUP12 PUSH2 0xF33 JUMP JUMPDEST SWAP2 POP POP SWAP10 SWAP9 POP POP POP POP POP POP POP POP POP JUMP JUMPDEST PUSH1 0x0 DUP1 PUSH2 0xD2E PUSH32 0x6231643432636435346133613432303162316636323561363865343861616432 ADDRESS PUSH4 0x3FC958EA PUSH1 0xE0 SHL PUSH2 0xF02 JUMP JUMPDEST SWAP1 POP PUSH1 0x0 PUSH2 0xD61 PUSH1 0x6 PUSH1 0x0 SWAP1 SLOAD SWAP1 PUSH2 0x100 EXP SWAP1 DIV PUSH20 0xFFFFFFFFFFFFFFFFFFFFFFFFFFFFFFFFFFFFFFFF AND DUP4 PUSH1 0x7 SLOAD PUSH2 0xF33 JUMP JUMPDEST SWAP1 POP DUP1 SWAP3 POP POP POP SWAP1 JUMP JUMPDEST PUSH1 0x7 SLOAD DUP2 JUMP JUMPDEST PUSH1 0x6 PUSH1 0x0 SWAP1 SLOAD SWAP1 PUSH2 0x100 EXP SWAP1 DIV PUSH20 0xFFFFFFFFFFFFFFFFFFFFFFFFFFFFFFFFFFFFFFFF AND DUP2 JUMP JUMPDEST DUP2 PUSH1 0x5 PUSH1 0x0 DUP3 DUP2 MSTORE PUSH1 0x20 ADD SWAP1 DUP2 MSTORE PUSH1 0x20 ADD PUSH1 0x0 KECCAK256 PUSH1 0x0 SWAP1 SLOAD SWAP1 PUSH2 0x100 EXP SWAP1 DIV PUSH20 0xFFFFFFFFFFFFFFFFFFFFFFFFFFFFFFFFFFFFFFFF AND PUSH20 0xFFFFFFFFFFFFFFFFFFFFFFFFFFFFFFFFFFFFFFFF AND CALLER PUSH20 0xFFFFFFFFFFFFFFFFFFFFFFFFFFFFFFFFFFFFFFFF AND EQ PUSH2 0xE39 JUMPI PUSH1 0x40 MLOAD PUSH32 0x8C379A000000000000000000000000000000000000000000000000000000000 DUP2 MSTORE PUSH1 0x4 ADD PUSH2 0xE30 SWAP1 PUSH2 0x1E93 JUMP JUMPDEST PUSH1 0x40 MLOAD DUP1 SWAP2 SUB SWAP1 REVERT JUMPDEST PUSH1 0x5 PUSH1 0x0 DUP3 DUP2 MSTORE PUSH1 0x20 ADD SWAP1 DUP2 MSTORE PUSH1 0x20 ADD PUSH1 0x0 KECCAK256 PUSH1 0x0 PUSH2 0x100 EXP DUP2 SLOAD SWAP1 PUSH20 0xFFFFFFFFFFFFFFFFFFFFFFFFFFFFFFFFFFFFFFFF MUL NOT AND SWAP1 SSTORE DUP1 PUSH32 0x7CC135E0CEBB02C3480AE5D74D377283180A2601F8F644EDF7987B009316C63A PUSH1 0x40 MLOAD PUSH1 0x40 MLOAD DUP1 SWAP2 SUB SWAP1 LOG2 PUSH32 0xA3BC099D9A6F5297EF1269C4501DBF6315C78ECA2BAEFDFC64BFB9F07A60B6D3 DUP3 PUSH1 0x40 MLOAD PUSH2 0xECB SWAP2 SWAP1 PUSH2 0x1EB3 JUMP JUMPDEST PUSH1 0x40 MLOAD DUP1 SWAP2 SUB SWAP1 LOG1 POP POP POP JUMP JUMPDEST PUSH1 0x0 DUP1 DUP3 SWAP1 POP PUSH1 0x0 DUP2 MLOAD EQ ISZERO PUSH2 0xEF4 JUMPI PUSH1 0x0 DUP1 SHL SWAP2 POP POP PUSH2 0xEFD JUMP JUMPDEST PUSH1 0x20 DUP4 ADD MLOAD SWAP2 POP POP JUMPDEST SWAP2 SWAP1 POP JUMP JUMPDEST PUSH2 0xF0A PUSH2 0x16EA JUMP JUMPDEST PUSH2 0xF12 PUSH2 0x16EA JUMP JUMPDEST PUSH2 0xF29 DUP6 DUP6 DUP6 DUP5 PUSH2 0xF86 SWAP1 SWAP4 SWAP3 SWAP2 SWAP1 PUSH4 0xFFFFFFFF AND JUMP JUMPDEST SWAP2 POP POP SWAP4 SWAP3 POP POP POP JUMP JUMPDEST PUSH1 0x0 PUSH2 0xF4A DUP5 DUP5 DUP5 PUSH1 0x1 PUSH4 0x40429946 PUSH1 0xE0 SHL PUSH2 0x1036 JUMP JUMPDEST SWAP1 POP SWAP4 SWAP3 POP POP POP JUMP JUMPDEST PUSH2 0xF6A DUP3 DUP5 PUSH1 0x80 ADD MLOAD PUSH2 0x129E SWAP1 SWAP2 SWAP1 PUSH4 0xFFFFFFFF AND JUMP JUMPDEST PUSH2 0xF81 DUP2 DUP5 PUSH1 0x80 ADD MLOAD PUSH2 0x129E SWAP1 SWAP2 SWAP1 PUSH4 0xFFFFFFFF AND JUMP JUMPDEST POP POP POP JUMP JUMPDEST PUSH2 0xF8E PUSH2 0x16EA JUMP JUMPDEST PUSH2 0xF9E DUP6 PUSH1 0x80 ADD MLOAD PUSH2 0x100 PUSH2 0x12C3 JUMP JUMPDEST POP DUP4 DUP6 PUSH1 0x0 ADD DUP2 DUP2 MSTORE POP POP DUP3 DUP6 PUSH1 0x20 ADD SWAP1 PUSH20 0xFFFFFFFFFFFFFFFFFFFFFFFFFFFFFFFFFFFFFFFF AND SWAP1 DUP2 PUSH20 0xFFFFFFFFFFFFFFFFFFFFFFFFFFFFFFFFFFFFFFFF AND DUP2 MSTORE POP POP DUP2 DUP6 PUSH1 0x40 ADD SWAP1 PUSH28 0xFFFFFFFFFFFFFFFFFFFFFFFFFFFFFFFFFFFFFFFFFFFFFFFFFFFFFFFF NOT AND SWAP1 DUP2 PUSH28 0xFFFFFFFFFFFFFFFFFFFFFFFFFFFFFFFFFFFFFFFFFFFFFFFFFFFFFFFF NOT AND DUP2 MSTORE POP POP DUP5 SWAP1 POP SWAP5 SWAP4 POP POP POP POP JUMP JUMPDEST PUSH1 0x0 ADDRESS PUSH1 0x4 SLOAD PUSH1 0x40 MLOAD PUSH1 0x20 ADD PUSH2 0x104D SWAP3 SWAP2 SWAP1 PUSH2 0x1CF6 JUMP JUMPDEST PUSH1 0x40 MLOAD PUSH1 0x20 DUP2 DUP4 SUB SUB DUP2 MSTORE SWAP1 PUSH1 0x40 MSTORE DUP1 MLOAD SWAP1 PUSH1 0x20 ADD KECCAK256 SWAP1 POP PUSH1 0x4 SLOAD DUP6 PUSH1 0x60 ADD DUP2 DUP2 MSTORE POP POP DUP6 PUSH1 0x5 PUSH1 0x0 DUP4 DUP2 MSTORE PUSH1 0x20 ADD SWAP1 DUP2 MSTORE PUSH1 0x20 ADD PUSH1 0x0 KECCAK256 PUSH1 0x0 PUSH2 0x100 EXP DUP2 SLOAD DUP2 PUSH20 0xFFFFFFFFFFFFFFFFFFFFFFFFFFFFFFFFFFFFFFFF MUL NOT AND SWAP1 DUP4 PUSH20 0xFFFFFFFFFFFFFFFFFFFFFFFFFFFFFFFFFFFFFFFF AND MUL OR SWAP1 SSTORE POP DUP1 PUSH32 0xB5E6E01E79F91267DC17B4E6314D5D4D03593D2CEEE0FBB452B750BD70EA5AF9 PUSH1 0x40 MLOAD PUSH1 0x40 MLOAD DUP1 SWAP2 SUB SWAP1 LOG2 PUSH1 0x0 DUP3 PUSH1 0x0 DUP1 DUP9 PUSH1 0x0 ADD MLOAD DUP10 PUSH1 0x20 ADD MLOAD DUP11 PUSH1 0x40 ADD MLOAD DUP12 PUSH1 0x60 ADD MLOAD DUP11 DUP14 PUSH1 0x80 ADD MLOAD PUSH1 0x0 ADD MLOAD PUSH1 0x40 MLOAD PUSH1 0x24 ADD PUSH2 0x112B SWAP9 SWAP8 SWAP7 SWAP6 SWAP5 SWAP4 SWAP3 SWAP2 SWAP1 PUSH2 0x1D3D JUMP JUMPDEST PUSH1 0x40 MLOAD PUSH1 0x20 DUP2 DUP4 SUB SUB DUP2 MSTORE SWAP1 PUSH1 0x40 MSTORE SWAP1 PUSH28 0xFFFFFFFFFFFFFFFFFFFFFFFFFFFFFFFFFFFFFFFFFFFFFFFFFFFFFFFF NOT AND PUSH1 0x20 DUP3 ADD DUP1 MLOAD PUSH28 0xFFFFFFFFFFFFFFFFFFFFFFFFFFFFFFFFFFFFFFFFFFFFFFFFFFFFFFFF DUP4 DUP2 DUP4 AND OR DUP4 MSTORE POP POP POP POP SWAP1 POP PUSH1 0x2 PUSH1 0x0 SWAP1 SLOAD SWAP1 PUSH2 0x100 EXP SWAP1 DIV PUSH20 0xFFFFFFFFFFFFFFFFFFFFFFFFFFFFFFFFFFFFFFFF AND PUSH20 0xFFFFFFFFFFFFFFFFFFFFFFFFFFFFFFFFFFFFFFFF AND PUSH4 0x4000AEA0 DUP9 DUP8 DUP5 PUSH1 0x40 MLOAD DUP5 PUSH4 0xFFFFFFFF AND PUSH1 0xE0 SHL DUP2 MSTORE PUSH1 0x4 ADD PUSH2 0x11E9 SWAP4 SWAP3 SWAP2 SWAP1 PUSH2 0x1DC2 JUMP JUMPDEST PUSH1 0x20 PUSH1 0x40 MLOAD DUP1 DUP4 SUB DUP2 PUSH1 0x0 DUP8 DUP1 EXTCODESIZE ISZERO DUP1 ISZERO PUSH2 0x1203 JUMPI PUSH1 0x0 DUP1 REVERT JUMPDEST POP GAS CALL ISZERO DUP1 ISZERO PUSH2 0x1217 JUMPI RETURNDATASIZE PUSH1 0x0 DUP1 RETURNDATACOPY RETURNDATASIZE PUSH1 0x0 REVERT JUMPDEST POP POP POP POP PUSH1 0x40 MLOAD RETURNDATASIZE PUSH1 0x1F NOT PUSH1 0x1F DUP3 ADD AND DUP3 ADD DUP1 PUSH1 0x40 MSTORE POP DUP2 ADD SWAP1 PUSH2 0x123B SWAP2 SWAP1 PUSH2 0x1A5C JUMP JUMPDEST PUSH2 0x127A JUMPI PUSH1 0x40 MLOAD PUSH32 0x8C379A000000000000000000000000000000000000000000000000000000000 DUP2 MSTORE PUSH1 0x4 ADD PUSH2 0x1271 SWAP1 PUSH2 0x1E73 JUMP JUMPDEST PUSH1 0x40 MLOAD DUP1 SWAP2 SUB SWAP1 REVERT JUMPDEST PUSH1 0x1 PUSH1 0x4 PUSH1 0x0 DUP3 DUP3 SLOAD PUSH2 0x128D SWAP2 SWAP1 PUSH2 0x1F5C JUMP JUMPDEST SWAP3 POP POP DUP2 SWAP1 SSTORE POP POP SWAP6 SWAP5 POP POP POP POP POP JUMP JUMPDEST PUSH2 0x12AB DUP3 PUSH1 0x3 DUP4 MLOAD PUSH2 0x132D JUMP JUMPDEST PUSH2 0x12BE DUP2 DUP4 PUSH2 0x1472 SWAP1 SWAP2 SWAP1 PUSH4 0xFFFFFFFF AND JUMP JUMPDEST POP POP POP JUMP JUMPDEST PUSH2 0x12CB PUSH2 0x1757 JUMP JUMPDEST PUSH1 0x0 PUSH1 0x20 DUP4 PUSH2 0x12DA SWAP2 SWAP1 PUSH2 0x2347 JUMP JUMPDEST EQ PUSH2 0x1306 JUMPI PUSH1 0x20 DUP3 PUSH2 0x12EC SWAP2 SWAP1 PUSH2 0x2347 JUMP JUMPDEST PUSH1 0x20 PUSH2 0x12F8 SWAP2 SWAP1 PUSH2 0x217D JUMP JUMPDEST DUP3 PUSH2 0x1303 SWAP2 SWAP1 PUSH2 0x1F5C JUMP JUMPDEST SWAP2 POP JUMPDEST DUP2 DUP4 PUSH1 0x20 ADD DUP2 DUP2 MSTORE POP POP PUSH1 0x40 MLOAD DUP1 DUP5 MSTORE PUSH1 0x0 DUP2 MSTORE DUP3 DUP2 ADD PUSH1 0x20 ADD PUSH1 0x40 MSTORE POP DUP3 SWAP1 POP SWAP3 SWAP2 POP POP JUMP JUMPDEST PUSH1 0x17 DUP2 GT PUSH2 0x135A JUMPI PUSH2 0x1354 DUP2 PUSH1 0x5 DUP5 PUSH1 0xFF AND SWAP1 SHL PUSH1 0xFF AND OR DUP5 PUSH2 0x1494 SWAP1 SWAP2 SWAP1 PUSH4 0xFFFFFFFF AND JUMP JUMPDEST POP PUSH2 0x146D JUMP JUMPDEST PUSH1 0xFF DUP2 GT PUSH2 0x139C JUMPI PUSH2 0x137F PUSH1 0x18 PUSH1 0x5 DUP5 PUSH1 0xFF AND SWAP1 SHL OR DUP5 PUSH2 0x1494 SWAP1 SWAP2 SWAP1 PUSH4 0xFFFFFFFF AND JUMP JUMPDEST POP PUSH2 0x1396 DUP2 PUSH1 0x1 DUP6 PUSH2 0x14B4 SWAP1 SWAP3 SWAP2 SWAP1 PUSH4 0xFFFFFFFF AND JUMP JUMPDEST POP PUSH2 0x146C JUMP JUMPDEST PUSH2 0xFFFF DUP2 GT PUSH2 0x13DF JUMPI PUSH2 0x13C2 PUSH1 0x19 PUSH1 0x5 DUP5 PUSH1 0xFF AND SWAP1 SHL OR DUP5 PUSH2 0x1494 SWAP1 SWAP2 SWAP1 PUSH4 0xFFFFFFFF AND JUMP JUMPDEST POP PUSH2 0x13D9 DUP2 PUSH1 0x2 DUP6 PUSH2 0x14B4 SWAP1 SWAP3 SWAP2 SWAP1 PUSH4 0xFFFFFFFF AND JUMP JUMPDEST POP PUSH2 0x146B JUMP JUMPDEST PUSH4 0xFFFFFFFF DUP2 GT PUSH2 0x1424 JUMPI PUSH2 0x1407 PUSH1 0x1A PUSH1 0x5 DUP5 PUSH1 0xFF AND SWAP1 SHL OR DUP5 PUSH2 0x1494 SWAP1 SWAP2 SWAP1 PUSH4 0xFFFFFFFF AND JUMP JUMPDEST POP PUSH2 0x141E DUP2 PUSH1 0x4 DUP6 PUSH2 0x14B4 SWAP1 SWAP3 SWAP2 SWAP1 PUSH4 0xFFFFFFFF AND JUMP JUMPDEST POP PUSH2 0x146A JUMP JUMPDEST PUSH8 0xFFFFFFFFFFFFFFFF DUP2 GT PUSH2 0x1469 JUMPI PUSH2 0x1450 PUSH1 0x1B PUSH1 0x5 DUP5 PUSH1 0xFF AND SWAP1 SHL OR DUP5 PUSH2 0x1494 SWAP1 SWAP2 SWAP1 PUSH4 0xFFFFFFFF AND JUMP JUMPDEST POP PUSH2 0x1467 DUP2 PUSH1 0x8 DUP6 PUSH2 0x14B4 SWAP1 SWAP3 SWAP2 SWAP1 PUSH4 0xFFFFFFFF AND JUMP JUMPDEST POP JUMPDEST JUMPDEST JUMPDEST JUMPDEST JUMPDEST POP POP POP JUMP JUMPDEST PUSH2 0x147A PUSH2 0x1757 JUMP JUMPDEST PUSH2 0x148C DUP4 DUP5 PUSH1 0x0 ADD MLOAD MLOAD DUP5 DUP6 MLOAD PUSH2 0x14D6 JUMP JUMPDEST SWAP1 POP SWAP3 SWAP2 POP POP JUMP JUMPDEST PUSH2 0x149C PUSH2 0x1757 JUMP JUMPDEST PUSH2 0x14AC DUP4 DUP5 PUSH1 0x0 ADD MLOAD MLOAD DUP5 PUSH2 0x15C5 JUMP JUMPDEST SWAP1 POP SWAP3 SWAP2 POP POP JUMP JUMPDEST PUSH2 0x14BC PUSH2 0x1757 JUMP JUMPDEST PUSH2 0x14CD DUP5 DUP6 PUSH1 0x0 ADD MLOAD MLOAD DUP6 DUP6 PUSH2 0x161C JUMP JUMPDEST SWAP1 POP SWAP4 SWAP3 POP POP POP JUMP JUMPDEST PUSH2 0x14DE PUSH2 0x1757 JUMP JUMPDEST DUP3 MLOAD DUP3 GT ISZERO PUSH2 0x14EC JUMPI PUSH1 0x0 DUP1 REVERT JUMPDEST DUP5 PUSH1 0x20 ADD MLOAD DUP3 DUP6 PUSH2 0x14FD SWAP2 SWAP1 PUSH2 0x1F5C JUMP JUMPDEST GT ISZERO PUSH2 0x1532 JUMPI PUSH2 0x1531 DUP6 PUSH1 0x2 PUSH2 0x1522 DUP9 PUSH1 0x20 ADD MLOAD DUP9 DUP8 PUSH2 0x151D SWAP2 SWAP1 PUSH2 0x1F5C JUMP JUMPDEST PUSH2 0x16AA JUMP JUMPDEST PUSH2 0x152C SWAP2 SWAP1 PUSH2 0x2123 JUMP JUMPDEST PUSH2 0x16C6 JUMP JUMPDEST JUMPDEST PUSH1 0x0 DUP1 DUP7 MLOAD DUP1 MLOAD DUP8 PUSH1 0x20 DUP4 ADD ADD SWAP4 POP DUP1 DUP9 DUP8 ADD GT ISZERO PUSH2 0x1551 JUMPI DUP8 DUP7 ADD DUP3 MSTORE JUMPDEST PUSH1 0x20 DUP8 ADD SWAP3 POP POP POP JUMPDEST PUSH1 0x20 DUP5 LT PUSH2 0x1598 JUMPI DUP1 MLOAD DUP3 MSTORE PUSH1 0x20 DUP3 PUSH2 0x1573 SWAP2 SWAP1 PUSH2 0x1F5C JUMP JUMPDEST SWAP2 POP PUSH1 0x20 DUP2 PUSH2 0x1582 SWAP2 SWAP1 PUSH2 0x1F5C JUMP JUMPDEST SWAP1 POP PUSH1 0x20 DUP5 PUSH2 0x1591 SWAP2 SWAP1 PUSH2 0x217D JUMP JUMPDEST SWAP4 POP PUSH2 0x155A JUMP JUMPDEST PUSH1 0x0 PUSH1 0x1 DUP6 PUSH1 0x20 SUB PUSH2 0x100 EXP SUB SWAP1 POP DUP1 NOT DUP3 MLOAD AND DUP2 DUP5 MLOAD AND DUP2 DUP2 OR DUP6 MSTORE POP POP POP DUP7 SWAP3 POP POP POP SWAP5 SWAP4 POP POP POP POP JUMP JUMPDEST PUSH2 0x15CD PUSH2 0x1757 JUMP JUMPDEST DUP4 PUSH1 0x20 ADD MLOAD DUP4 LT PUSH2 0x15F3 JUMPI PUSH2 0x15F2 DUP5 PUSH1 0x2 DUP7 PUSH1 0x20 ADD MLOAD PUSH2 0x15ED SWAP2 SWAP1 PUSH2 0x2123 JUMP JUMPDEST PUSH2 0x16C6 JUMP JUMPDEST JUMPDEST DUP4 MLOAD DUP1 MLOAD PUSH1 0x20 DUP6 DUP4 ADD ADD DUP5 DUP2 MSTORE8 DUP2 DUP7 EQ ISZERO PUSH2 0x160F JUMPI PUSH1 0x1 DUP3 ADD DUP4 MSTORE JUMPDEST POP POP POP DUP4 SWAP1 POP SWAP4 SWAP3 POP POP POP JUMP JUMPDEST PUSH2 0x1624 PUSH2 0x1757 JUMP JUMPDEST DUP5 PUSH1 0x20 ADD MLOAD DUP5 DUP4 PUSH2 0x1635 SWAP2 SWAP1 PUSH2 0x1F5C JUMP JUMPDEST GT ISZERO PUSH2 0x165D JUMPI PUSH2 0x165C DUP6 PUSH1 0x2 DUP7 DUP6 PUSH2 0x164D SWAP2 SWAP1 PUSH2 0x1F5C JUMP JUMPDEST PUSH2 0x1657 SWAP2 SWAP1 PUSH2 0x2123 JUMP JUMPDEST PUSH2 0x16C6 JUMP JUMPDEST JUMPDEST PUSH1 0x0 PUSH1 0x1 DUP4 PUSH2 0x100 PUSH2 0x166F SWAP2 SWAP1 PUSH2 0x2005 JUMP JUMPDEST PUSH2 0x1679 SWAP2 SWAP1 PUSH2 0x217D JUMP JUMPDEST SWAP1 POP DUP6 MLOAD DUP4 DUP7 DUP3 ADD ADD DUP6 DUP4 NOT DUP3 MLOAD AND OR DUP2 MSTORE DUP2 MLOAD DUP6 DUP9 ADD GT ISZERO PUSH2 0x169C JUMPI DUP5 DUP8 ADD DUP3 MSTORE JUMPDEST POP POP DUP6 SWAP2 POP POP SWAP5 SWAP4 POP POP POP POP JUMP JUMPDEST PUSH1 0x0 DUP2 DUP4 GT ISZERO PUSH2 0x16BC JUMPI DUP3 SWAP1 POP PUSH2 0x16C0 JUMP JUMPDEST DUP2 SWAP1 POP JUMPDEST SWAP3 SWAP2 POP POP JUMP JUMPDEST PUSH1 0x0 DUP3 PUSH1 0x0 ADD MLOAD SWAP1 POP PUSH2 0x16D9 DUP4 DUP4 PUSH2 0x12C3 JUMP JUMPDEST POP PUSH2 0x16E4 DUP4 DUP3 PUSH2 0x1472 JUMP JUMPDEST POP POP POP POP JUMP JUMPDEST PUSH1 0x40 MLOAD DUP1 PUSH1 0xA0 ADD PUSH1 0x40 MSTORE DUP1 PUSH1 0x0 DUP1 NOT AND DUP2 MSTORE PUSH1 0x20 ADD PUSH1 0x0 PUSH20 0xFFFFFFFFFFFFFFFFFFFFFFFFFFFFFFFFFFFFFFFF AND DUP2 MSTORE PUSH1 0x20 ADD PUSH1 0x0 PUSH28 0xFFFFFFFFFFFFFFFFFFFFFFFFFFFFFFFFFFFFFFFFFFFFFFFFFFFFFFFF NOT AND DUP2 MSTORE PUSH1 0x20 ADD PUSH1 0x0 DUP2 MSTORE PUSH1 0x20 ADD PUSH2 0x1751 PUSH2 0x1757 JUMP JUMPDEST DUP2 MSTORE POP SWAP1 JUMP JUMPDEST PUSH1 0x40 MLOAD DUP1 PUSH1 0x40 ADD PUSH1 0x40 MSTORE DUP1 PUSH1 0x60 DUP2 MSTORE PUSH1 0x20 ADD PUSH1 0x0 DUP2 MSTORE POP SWAP1 JUMP JUMPDEST PUSH1 0x0 PUSH2 0x1784 PUSH2 0x177F DUP5 PUSH2 0x1EF3 JUMP JUMPDEST PUSH2 0x1ECE JUMP JUMPDEST SWAP1 POP DUP3 DUP2 MSTORE PUSH1 0x20 DUP2 ADD DUP5 DUP5 DUP5 ADD GT ISZERO PUSH2 0x17A0 JUMPI PUSH2 0x179F PUSH2 0x2439 JUMP JUMPDEST JUMPDEST PUSH2 0x17AB DUP5 DUP3 DUP6 PUSH2 0x227C JUMP JUMPDEST POP SWAP4 SWAP3 POP POP POP JUMP JUMPDEST PUSH1 0x0 DUP2 CALLDATALOAD SWAP1 POP PUSH2 0x17C2 DUP2 PUSH2 0x2511 JUMP JUMPDEST SWAP3 SWAP2 POP POP JUMP JUMPDEST PUSH1 0x0 DUP2 CALLDATALOAD SWAP1 POP PUSH2 0x17D7 DUP2 PUSH2 0x2528 JUMP JUMPDEST SWAP3 SWAP2 POP POP JUMP JUMPDEST PUSH1 0x0 DUP2 MLOAD SWAP1 POP PUSH2 0x17EC DUP2 PUSH2 0x2528 JUMP JUMPDEST SWAP3 SWAP2 POP POP JUMP JUMPDEST PUSH1 0x0 DUP2 CALLDATALOAD SWAP1 POP PUSH2 0x1801 DUP2 PUSH2 0x253F JUMP JUMPDEST SWAP3 SWAP2 POP POP JUMP JUMPDEST PUSH1 0x0 DUP2 CALLDATALOAD SWAP1 POP PUSH2 0x1816 DUP2 PUSH2 0x2556 JUMP JUMPDEST SWAP3 SWAP2 POP POP JUMP JUMPDEST PUSH1 0x0 DUP3 PUSH1 0x1F DUP4 ADD SLT PUSH2 0x1831 JUMPI PUSH2 0x1830 PUSH2 0x2434 JUMP JUMPDEST JUMPDEST DUP2 CALLDATALOAD PUSH2 0x1841 DUP5 DUP3 PUSH1 0x20 DUP7 ADD PUSH2 0x1771 JUMP JUMPDEST SWAP2 POP POP SWAP3 SWAP2 POP POP JUMP JUMPDEST PUSH1 0x0 DUP2 CALLDATALOAD SWAP1 POP PUSH2 0x1859 DUP2 PUSH2 0x256D JUMP JUMPDEST SWAP3 SWAP2 POP POP JUMP JUMPDEST PUSH1 0x0 DUP1 PUSH1 0x0 PUSH1 0x60 DUP5 DUP7 SUB SLT ISZERO PUSH2 0x1878 JUMPI PUSH2 0x1877 PUSH2 0x2443 JUMP JUMPDEST JUMPDEST PUSH1 0x0 PUSH2 0x1886 DUP7 DUP3 DUP8 ADD PUSH2 0x17B3 JUMP JUMPDEST SWAP4 POP POP PUSH1 0x20 DUP5 ADD CALLDATALOAD PUSH8 0xFFFFFFFFFFFFFFFF DUP2 GT ISZERO PUSH2 0x18A7 JUMPI PUSH2 0x18A6 PUSH2 0x243E JUMP JUMPDEST JUMPDEST PUSH2 0x18B3 DUP7 DUP3 DUP8 ADD PUSH2 0x181C JUMP JUMPDEST SWAP3 POP POP PUSH1 0x40 PUSH2 0x18C4 DUP7 DUP3 DUP8 ADD PUSH2 0x184A JUMP JUMPDEST SWAP2 POP POP SWAP3 POP SWAP3 POP SWAP3 JUMP JUMPDEST PUSH1 0x0 DUP1 PUSH1 0x0 DUP1 PUSH1 0x0 DUP1 PUSH1 0x0 DUP1 PUSH1 0x0 PUSH2 0x120 DUP11 DUP13 SUB SLT ISZERO PUSH2 0x18F1 JUMPI PUSH2 0x18F0 PUSH2 0x2443 JUMP JUMPDEST JUMPDEST PUSH1 0x0 PUSH2 0x18FF DUP13 DUP3 DUP14 ADD PUSH2 0x17B3 JUMP JUMPDEST SWAP10 POP POP PUSH1 0x20 DUP11 ADD CALLDATALOAD PUSH8 0xFFFFFFFFFFFFFFFF DUP2 GT ISZERO PUSH2 0x1920 JUMPI PUSH2 0x191F PUSH2 0x243E JUMP JUMPDEST JUMPDEST PUSH2 0x192C DUP13 DUP3 DUP14 ADD PUSH2 0x181C JUMP JUMPDEST SWAP9 POP POP PUSH1 0x40 PUSH2 0x193D DUP13 DUP3 DUP14 ADD PUSH2 0x184A JUMP JUMPDEST SWAP8 POP POP PUSH1 0x60 DUP11 ADD CALLDATALOAD PUSH8 0xFFFFFFFFFFFFFFFF DUP2 GT ISZERO PUSH2 0x195E JUMPI PUSH2 0x195D PUSH2 0x243E JUMP JUMPDEST JUMPDEST PUSH2 0x196A DUP13 DUP3 DUP14 ADD PUSH2 0x181C JUMP JUMPDEST SWAP7 POP POP PUSH1 0x80 DUP11 ADD CALLDATALOAD PUSH8 0xFFFFFFFFFFFFFFFF DUP2 GT ISZERO PUSH2 0x198B JUMPI PUSH2 0x198A PUSH2 0x243E JUMP JUMPDEST JUMPDEST PUSH2 0x1997 DUP13 DUP3 DUP14 ADD PUSH2 0x181C JUMP JUMPDEST SWAP6 POP POP PUSH1 0xA0 DUP11 ADD CALLDATALOAD PUSH8 0xFFFFFFFFFFFFFFFF DUP2 GT ISZERO PUSH2 0x19B8 JUMPI PUSH2 0x19B7 PUSH2 0x243E JUMP JUMPDEST JUMPDEST PUSH2 0x19C4 DUP13 DUP3 DUP14 ADD PUSH2 0x181C JUMP JUMPDEST SWAP5 POP POP PUSH1 0xC0 DUP11 ADD CALLDATALOAD PUSH8 0xFFFFFFFFFFFFFFFF DUP2 GT ISZERO PUSH2 0x19E5 JUMPI PUSH2 0x19E4 PUSH2 0x243E JUMP JUMPDEST JUMPDEST PUSH2 0x19F1 DUP13 DUP3 DUP14 ADD PUSH2 0x181C JUMP JUMPDEST SWAP4 POP POP PUSH1 0xE0 DUP11 ADD CALLDATALOAD PUSH8 0xFFFFFFFFFFFFFFFF DUP2 GT ISZERO PUSH2 0x1A12 JUMPI PUSH2 0x1A11 PUSH2 0x243E JUMP JUMPDEST JUMPDEST PUSH2 0x1A1E DUP13 DUP3 DUP14 ADD PUSH2 0x181C JUMP JUMPDEST SWAP3 POP POP PUSH2 0x100 DUP11 ADD CALLDATALOAD PUSH8 0xFFFFFFFFFFFFFFFF DUP2 GT ISZERO PUSH2 0x1A40 JUMPI PUSH2 0x1A3F PUSH2 0x243E JUMP JUMPDEST JUMPDEST PUSH2 0x1A4C DUP13 DUP3 DUP14 ADD PUSH2 0x181C JUMP JUMPDEST SWAP2 POP POP SWAP3 SWAP6 SWAP9 POP SWAP3 SWAP6 SWAP9 POP SWAP3 SWAP6 SWAP9 JUMP JUMPDEST PUSH1 0x0 PUSH1 0x20 DUP3 DUP5 SUB SLT ISZERO PUSH2 0x1A72 JUMPI PUSH2 0x1A71 PUSH2 0x2443 JUMP JUMPDEST JUMPDEST PUSH1 0x0 PUSH2 0x1A80 DUP5 DUP3 DUP6 ADD PUSH2 0x17DD JUMP JUMPDEST SWAP2 POP POP SWAP3 SWAP2 POP POP JUMP JUMPDEST PUSH1 0x0 PUSH1 0x20 DUP3 DUP5 SUB SLT ISZERO PUSH2 0x1A9F JUMPI PUSH2 0x1A9E PUSH2 0x2443 JUMP JUMPDEST JUMPDEST PUSH1 0x0 PUSH2 0x1AAD DUP5 DUP3 DUP6 ADD PUSH2 0x17F2 JUMP JUMPDEST SWAP2 POP POP SWAP3 SWAP2 POP POP JUMP JUMPDEST PUSH1 0x0 DUP1 PUSH1 0x40 DUP4 DUP6 SUB SLT ISZERO PUSH2 0x1ACD JUMPI PUSH2 0x1ACC PUSH2 0x2443 JUMP JUMPDEST JUMPDEST PUSH1 0x0 PUSH2 0x1ADB DUP6 DUP3 DUP7 ADD PUSH2 0x17F2 JUMP JUMPDEST SWAP3 POP POP PUSH1 0x20 PUSH2 0x1AEC DUP6 DUP3 DUP7 ADD PUSH2 0x17C8 JUMP JUMPDEST SWAP2 POP POP SWAP3 POP SWAP3 SWAP1 POP JUMP JUMPDEST PUSH1 0x0 DUP1 PUSH1 0x40 DUP4 DUP6 SUB SLT ISZERO PUSH2 0x1B0D JUMPI PUSH2 0x1B0C PUSH2 0x2443 JUMP JUMPDEST JUMPDEST PUSH1 0x0 PUSH2 0x1B1B DUP6 DUP3 DUP7 ADD PUSH2 0x17F2 JUMP JUMPDEST SWAP3 POP POP PUSH1 0x20 PUSH2 0x1B2C DUP6 DUP3 DUP7 ADD PUSH2 0x17F2 JUMP JUMPDEST SWAP2 POP POP SWAP3 POP SWAP3 SWAP1 POP JUMP JUMPDEST PUSH1 0x0 DUP1 PUSH1 0x40 DUP4 DUP6 SUB SLT ISZERO PUSH2 0x1B4D JUMPI PUSH2 0x1B4C PUSH2 0x2443 JUMP JUMPDEST JUMPDEST PUSH1 0x0 PUSH2 0x1B5B DUP6 DUP3 DUP7 ADD PUSH2 0x17F2 JUMP JUMPDEST SWAP3 POP POP PUSH1 0x20 PUSH2 0x1B6C DUP6 DUP3 DUP7 ADD PUSH2 0x1807 JUMP JUMPDEST SWAP2 POP POP SWAP3 POP SWAP3 SWAP1 POP JUMP JUMPDEST PUSH1 0x0 DUP1 PUSH1 0x40 DUP4 DUP6 SUB SLT ISZERO PUSH2 0x1B8D JUMPI PUSH2 0x1B8C PUSH2 0x2443 JUMP JUMPDEST JUMPDEST PUSH1 0x0 PUSH2 0x1B9B DUP6 DUP3 DUP7 ADD PUSH2 0x17F2 JUMP JUMPDEST SWAP3 POP POP PUSH1 0x20 PUSH2 0x1BAC DUP6 DUP3 DUP7 ADD PUSH2 0x184A JUMP JUMPDEST SWAP2 POP POP SWAP3 POP SWAP3 SWAP1 POP JUMP JUMPDEST PUSH2 0x1BBF DUP2 PUSH2 0x21B1 JUMP JUMPDEST DUP3 MSTORE POP POP JUMP JUMPDEST PUSH2 0x1BCE DUP2 PUSH2 0x21C3 JUMP JUMPDEST DUP3 MSTORE POP POP JUMP JUMPDEST PUSH2 0x1BDD DUP2 PUSH2 0x21CF JUMP JUMPDEST DUP3 MSTORE POP POP JUMP JUMPDEST PUSH2 0x1BEC DUP2 PUSH2 0x21D9 JUMP JUMPDEST DUP3 MSTORE POP POP JUMP JUMPDEST PUSH1 0x0 PUSH2 0x1BFD DUP3 PUSH2 0x1F24 JUMP JUMPDEST PUSH2 0x1C07 DUP2 DUP6 PUSH2 0x1F3A JUMP JUMPDEST SWAP4 POP PUSH2 0x1C17 DUP2 DUP6 PUSH1 0x20 DUP7 ADD PUSH2 0x228B JUMP JUMPDEST PUSH2 0x1C20 DUP2 PUSH2 0x2448 JUMP JUMPDEST DUP5 ADD SWAP2 POP POP SWAP3 SWAP2 POP POP JUMP JUMPDEST PUSH2 0x1C3C PUSH2 0x1C37 DUP3 PUSH2 0x2246 JUMP JUMPDEST PUSH2 0x2319 JUMP JUMPDEST DUP3 MSTORE POP POP JUMP JUMPDEST PUSH2 0x1C4B DUP2 PUSH2 0x2205 JUMP JUMPDEST DUP3 MSTORE POP POP JUMP JUMPDEST PUSH1 0x0 PUSH2 0x1C5C DUP3 PUSH2 0x1F2F JUMP JUMPDEST PUSH2 0x1C66 DUP2 DUP6 PUSH2 0x1F4B JUMP JUMPDEST SWAP4 POP PUSH2 0x1C76 DUP2 DUP6 PUSH1 0x20 DUP7 ADD PUSH2 0x228B JUMP JUMPDEST PUSH2 0x1C7F DUP2 PUSH2 0x2448 JUMP JUMPDEST DUP5 ADD SWAP2 POP POP SWAP3 SWAP2 POP POP JUMP JUMPDEST PUSH1 0x0 PUSH2 0x1C97 PUSH1 0x23 DUP4 PUSH2 0x1F4B JUMP JUMPDEST SWAP2 POP PUSH2 0x1CA2 DUP3 PUSH2 0x2473 JUMP JUMPDEST PUSH1 0x40 DUP3 ADD SWAP1 POP SWAP2 SWAP1 POP JUMP JUMPDEST PUSH1 0x0 PUSH2 0x1CBA PUSH1 0x28 DUP4 PUSH2 0x1F4B JUMP JUMPDEST SWAP2 POP PUSH2 0x1CC5 DUP3 PUSH2 0x24C2 JUMP JUMPDEST PUSH1 0x40 DUP3 ADD SWAP1 POP SWAP2 SWAP1 POP JUMP JUMPDEST PUSH2 0x1CD9 DUP2 PUSH2 0x222F JUMP JUMPDEST DUP3 MSTORE POP POP JUMP JUMPDEST PUSH2 0x1CF0 PUSH2 0x1CEB DUP3 PUSH2 0x222F JUMP JUMPDEST PUSH2 0x233D JUMP JUMPDEST DUP3 MSTORE POP POP JUMP JUMPDEST PUSH1 0x0 PUSH2 0x1D02 DUP3 DUP6 PUSH2 0x1C2B JUMP JUMPDEST PUSH1 0x14 DUP3 ADD SWAP2 POP PUSH2 0x1D12 DUP3 DUP5 PUSH2 0x1CDF JUMP JUMPDEST PUSH1 0x20 DUP3 ADD SWAP2 POP DUP2 SWAP1 POP SWAP4 SWAP3 POP POP POP JUMP JUMPDEST PUSH1 0x0 PUSH1 0x20 DUP3 ADD SWAP1 POP PUSH2 0x1D37 PUSH1 0x0 DUP4 ADD DUP5 PUSH2 0x1BB6 JUMP JUMPDEST SWAP3 SWAP2 POP POP JUMP JUMPDEST PUSH1 0x0 PUSH2 0x100 DUP3 ADD SWAP1 POP PUSH2 0x1D53 PUSH1 0x0 DUP4 ADD DUP12 PUSH2 0x1BB6 JUMP JUMPDEST PUSH2 0x1D60 PUSH1 0x20 DUP4 ADD DUP11 PUSH2 0x1CD0 JUMP JUMPDEST PUSH2 0x1D6D PUSH1 0x40 DUP4 ADD DUP10 PUSH2 0x1BD4 JUMP JUMPDEST PUSH2 0x1D7A PUSH1 0x60 DUP4 ADD DUP9 PUSH2 0x1BB6 JUMP JUMPDEST PUSH2 0x1D87 PUSH1 0x80 DUP4 ADD DUP8 PUSH2 0x1BE3 JUMP JUMPDEST PUSH2 0x1D94 PUSH1 0xA0 DUP4 ADD DUP7 PUSH2 0x1CD0 JUMP JUMPDEST PUSH2 0x1DA1 PUSH1 0xC0 DUP4 ADD DUP6 PUSH2 0x1CD0 JUMP JUMPDEST DUP2 DUP2 SUB PUSH1 0xE0 DUP4 ADD MSTORE PUSH2 0x1DB3 DUP2 DUP5 PUSH2 0x1BF2 JUMP JUMPDEST SWAP1 POP SWAP10 SWAP9 POP POP POP POP POP POP POP POP POP JUMP JUMPDEST PUSH1 0x0 PUSH1 0x60 DUP3 ADD SWAP1 POP PUSH2 0x1DD7 PUSH1 0x0 DUP4 ADD DUP7 PUSH2 0x1BB6 JUMP JUMPDEST PUSH2 0x1DE4 PUSH1 0x20 DUP4 ADD DUP6 PUSH2 0x1CD0 JUMP JUMPDEST DUP2 DUP2 SUB PUSH1 0x40 DUP4 ADD MSTORE PUSH2 0x1DF6 DUP2 DUP5 PUSH2 0x1BF2 JUMP JUMPDEST SWAP1 POP SWAP5 SWAP4 POP POP POP POP JUMP JUMPDEST PUSH1 0x0 PUSH1 0x20 DUP3 ADD SWAP1 POP PUSH2 0x1E15 PUSH1 0x0 DUP4 ADD DUP5 PUSH2 0x1BC5 JUMP JUMPDEST SWAP3 SWAP2 POP POP JUMP JUMPDEST PUSH1 0x0 PUSH1 0x20 DUP3 ADD SWAP1 POP PUSH2 0x1E30 PUSH1 0x0 DUP4 ADD DUP5 PUSH2 0x1BD4 JUMP JUMPDEST SWAP3 SWAP2 POP POP JUMP JUMPDEST PUSH1 0x0 PUSH1 0x20 DUP3 ADD SWAP1 POP PUSH2 0x1E4B PUSH1 0x0 DUP4 ADD DUP5 PUSH2 0x1C42 JUMP JUMPDEST SWAP3 SWAP2 POP POP JUMP JUMPDEST PUSH1 0x0 PUSH1 0x20 DUP3 ADD SWAP1 POP DUP2 DUP2 SUB PUSH1 0x0 DUP4 ADD MSTORE PUSH2 0x1E6B DUP2 DUP5 PUSH2 0x1C51 JUMP JUMPDEST SWAP1 POP SWAP3 SWAP2 POP POP JUMP JUMPDEST PUSH1 0x0 PUSH1 0x20 DUP3 ADD SWAP1 POP DUP2 DUP2 SUB PUSH1 0x0 DUP4 ADD MSTORE PUSH2 0x1E8C DUP2 PUSH2 0x1C8A JUMP JUMPDEST SWAP1 POP SWAP2 SWAP1 POP JUMP JUMPDEST PUSH1 0x0 PUSH1 0x20 DUP3 ADD SWAP1 POP DUP2 DUP2 SUB PUSH1 0x0 DUP4 ADD MSTORE PUSH2 0x1EAC DUP2 PUSH2 0x1CAD JUMP JUMPDEST SWAP1 POP SWAP2 SWAP1 POP JUMP JUMPDEST PUSH1 0x0 PUSH1 0x20 DUP3 ADD SWAP1 POP PUSH2 0x1EC8 PUSH1 0x0 DUP4 ADD DUP5 PUSH2 0x1CD0 JUMP JUMPDEST SWAP3 SWAP2 POP POP JUMP JUMPDEST PUSH1 0x0 PUSH2 0x1ED8 PUSH2 0x1EE9 JUMP JUMPDEST SWAP1 POP PUSH2 0x1EE4 DUP3 DUP3 PUSH2 0x22BE JUMP JUMPDEST SWAP2 SWAP1 POP JUMP JUMPDEST PUSH1 0x0 PUSH1 0x40 MLOAD SWAP1 POP SWAP1 JUMP JUMPDEST PUSH1 0x0 PUSH8 0xFFFFFFFFFFFFFFFF DUP3 GT ISZERO PUSH2 0x1F0E JUMPI PUSH2 0x1F0D PUSH2 0x2405 JUMP JUMPDEST JUMPDEST PUSH2 0x1F17 DUP3 PUSH2 0x2448 JUMP JUMPDEST SWAP1 POP PUSH1 0x20 DUP2 ADD SWAP1 POP SWAP2 SWAP1 POP JUMP JUMPDEST PUSH1 0x0 DUP2 MLOAD SWAP1 POP SWAP2 SWAP1 POP JUMP JUMPDEST PUSH1 0x0 DUP2 MLOAD SWAP1 POP SWAP2 SWAP1 POP JUMP JUMPDEST PUSH1 0x0 DUP3 DUP3 MSTORE PUSH1 0x20 DUP3 ADD SWAP1 POP SWAP3 SWAP2 POP POP JUMP JUMPDEST PUSH1 0x0 DUP3 DUP3 MSTORE PUSH1 0x20 DUP3 ADD SWAP1 POP SWAP3 SWAP2 POP POP JUMP JUMPDEST PUSH1 0x0 PUSH2 0x1F67 DUP3 PUSH2 0x222F JUMP JUMPDEST SWAP2 POP PUSH2 0x1F72 DUP4 PUSH2 0x222F JUMP JUMPDEST SWAP3 POP DUP3 PUSH32 0xFFFFFFFFFFFFFFFFFFFFFFFFFFFFFFFFFFFFFFFFFFFFFFFFFFFFFFFFFFFFFFFF SUB DUP3 GT ISZERO PUSH2 0x1FA7 JUMPI PUSH2 0x1FA6 PUSH2 0x2378 JUMP JUMPDEST JUMPDEST DUP3 DUP3 ADD SWAP1 POP SWAP3 SWAP2 POP POP JUMP JUMPDEST PUSH1 0x0 DUP1 DUP3 SWAP2 POP DUP4 SWAP1 POP JUMPDEST PUSH1 0x1 DUP6 GT ISZERO PUSH2 0x1FFC JUMPI DUP1 DUP7 DIV DUP2 GT ISZERO PUSH2 0x1FD8 JUMPI PUSH2 0x1FD7 PUSH2 0x2378 JUMP JUMPDEST JUMPDEST PUSH1 0x1 DUP6 AND ISZERO PUSH2 0x1FE7 JUMPI DUP1 DUP3 MUL SWAP2 POP JUMPDEST DUP1 DUP2 MUL SWAP1 POP PUSH2 0x1FF5 DUP6 PUSH2 0x2466 JUMP JUMPDEST SWAP5 POP PUSH2 0x1FBC JUMP JUMPDEST SWAP5 POP SWAP5 SWAP3 POP POP POP JUMP JUMPDEST PUSH1 0x0 PUSH2 0x2010 DUP3 PUSH2 0x222F JUMP JUMPDEST SWAP2 POP PUSH2 0x201B DUP4 PUSH2 0x222F JUMP JUMPDEST SWAP3 POP PUSH2 0x2048 PUSH32 0xFFFFFFFFFFFFFFFFFFFFFFFFFFFFFFFFFFFFFFFFFFFFFFFFFFFFFFFFFFFFFFFF DUP5 DUP5 PUSH2 0x2050 JUMP JUMPDEST SWAP1 POP SWAP3 SWAP2 POP POP JUMP JUMPDEST PUSH1 0x0 DUP3 PUSH2 0x2060 JUMPI PUSH1 0x1 SWAP1 POP PUSH2 0x211C JUMP JUMPDEST DUP2 PUSH2 0x206E JUMPI PUSH1 0x0 SWAP1 POP PUSH2 0x211C JUMP JUMPDEST DUP2 PUSH1 0x1 DUP2 EQ PUSH2 0x2084 JUMPI PUSH1 0x2 DUP2 EQ PUSH2 0x208E JUMPI PUSH2 0x20BD JUMP JUMPDEST PUSH1 0x1 SWAP2 POP POP PUSH2 0x211C JUMP JUMPDEST PUSH1 0xFF DUP5 GT ISZERO PUSH2 0x20A0 JUMPI PUSH2 0x209F PUSH2 0x2378 JUMP JUMPDEST JUMPDEST DUP4 PUSH1 0x2 EXP SWAP2 POP DUP5 DUP3 GT ISZERO PUSH2 0x20B7 JUMPI PUSH2 0x20B6 PUSH2 0x2378 JUMP JUMPDEST JUMPDEST POP PUSH2 0x211C JUMP JUMPDEST POP PUSH1 0x20 DUP4 LT PUSH2 0x133 DUP4 LT AND PUSH1 0x4E DUP5 LT PUSH1 0xB DUP5 LT AND OR ISZERO PUSH2 0x20F2 JUMPI DUP3 DUP3 EXP SWAP1 POP DUP4 DUP2 GT ISZERO PUSH2 0x20ED JUMPI PUSH2 0x20EC PUSH2 0x2378 JUMP JUMPDEST JUMPDEST PUSH2 0x211C JUMP JUMPDEST PUSH2 0x20FF DUP5 DUP5 DUP5 PUSH1 0x1 PUSH2 0x1FB2 JUMP JUMPDEST SWAP3 POP SWAP1 POP DUP2 DUP5 DIV DUP2 GT ISZERO PUSH2 0x2116 JUMPI PUSH2 0x2115 PUSH2 0x2378 JUMP JUMPDEST JUMPDEST DUP2 DUP2 MUL SWAP1 POP JUMPDEST SWAP4 SWAP3 POP POP POP JUMP JUMPDEST PUSH1 0x0 PUSH2 0x212E DUP3 PUSH2 0x222F JUMP JUMPDEST SWAP2 POP PUSH2 0x2139 DUP4 PUSH2 0x222F JUMP JUMPDEST SWAP3 POP DUP2 PUSH32 0xFFFFFFFFFFFFFFFFFFFFFFFFFFFFFFFFFFFFFFFFFFFFFFFFFFFFFFFFFFFFFFFF DIV DUP4 GT DUP3 ISZERO ISZERO AND ISZERO PUSH2 0x2172 JUMPI PUSH2 0x2171 PUSH2 0x2378 JUMP JUMPDEST JUMPDEST DUP3 DUP3 MUL SWAP1 POP SWAP3 SWAP2 POP POP JUMP JUMPDEST PUSH1 0x0 PUSH2 0x2188 DUP3 PUSH2 0x222F JUMP JUMPDEST SWAP2 POP PUSH2 0x2193 DUP4 PUSH2 0x222F JUMP JUMPDEST SWAP3 POP DUP3 DUP3 LT ISZERO PUSH2 0x21A6 JUMPI PUSH2 0x21A5 PUSH2 0x2378 JUMP JUMPDEST JUMPDEST DUP3 DUP3 SUB SWAP1 POP SWAP3 SWAP2 POP POP JUMP JUMPDEST PUSH1 0x0 PUSH2 0x21BC DUP3 PUSH2 0x220F JUMP JUMPDEST SWAP1 POP SWAP2 SWAP1 POP JUMP JUMPDEST PUSH1 0x0 DUP2 ISZERO ISZERO SWAP1 POP SWAP2 SWAP1 POP JUMP JUMPDEST PUSH1 0x0 DUP2 SWAP1 POP SWAP2 SWAP1 POP JUMP JUMPDEST PUSH1 0x0 PUSH32 0xFFFFFFFF00000000000000000000000000000000000000000000000000000000 DUP3 AND SWAP1 POP SWAP2 SWAP1 POP JUMP JUMPDEST PUSH1 0x0 DUP2 SWAP1 POP SWAP2 SWAP1 POP JUMP JUMPDEST PUSH1 0x0 PUSH20 0xFFFFFFFFFFFFFFFFFFFFFFFFFFFFFFFFFFFFFFFF DUP3 AND SWAP1 POP SWAP2 SWAP1 POP JUMP JUMPDEST PUSH1 0x0 DUP2 SWAP1 POP SWAP2 SWAP1 POP JUMP JUMPDEST PUSH1 0x0 PUSH1 0xFF DUP3 AND SWAP1 POP SWAP2 SWAP1 POP JUMP JUMPDEST PUSH1 0x0 PUSH2 0x2251 DUP3 PUSH2 0x2258 JUMP JUMPDEST SWAP1 POP SWAP2 SWAP1 POP JUMP JUMPDEST PUSH1 0x0 PUSH2 0x2263 DUP3 PUSH2 0x226A JUMP JUMPDEST SWAP1 POP SWAP2 SWAP1 POP JUMP JUMPDEST PUSH1 0x0 PUSH2 0x2275 DUP3 PUSH2 0x220F JUMP JUMPDEST SWAP1 POP SWAP2 SWAP1 POP JUMP JUMPDEST DUP3 DUP2 DUP4 CALLDATACOPY PUSH1 0x0 DUP4 DUP4 ADD MSTORE POP POP POP JUMP JUMPDEST PUSH1 0x0 JUMPDEST DUP4 DUP2 LT ISZERO PUSH2 0x22A9 JUMPI DUP1 DUP3 ADD MLOAD DUP2 DUP5 ADD MSTORE PUSH1 0x20 DUP2 ADD SWAP1 POP PUSH2 0x228E JUMP JUMPDEST DUP4 DUP2 GT ISZERO PUSH2 0x22B8 JUMPI PUSH1 0x0 DUP5 DUP5 ADD MSTORE JUMPDEST POP POP POP POP JUMP JUMPDEST PUSH2 0x22C7 DUP3 PUSH2 0x2448 JUMP JUMPDEST DUP2 ADD DUP2 DUP2 LT PUSH8 0xFFFFFFFFFFFFFFFF DUP3 GT OR ISZERO PUSH2 0x22E6 JUMPI PUSH2 0x22E5 PUSH2 0x2405 JUMP JUMPDEST JUMPDEST DUP1 PUSH1 0x40 MSTORE POP POP POP JUMP JUMPDEST PUSH1 0x0 PUSH2 0x22FA DUP3 PUSH2 0x2239 JUMP JUMPDEST SWAP2 POP PUSH1 0xFF DUP3 EQ ISZERO PUSH2 0x230E JUMPI PUSH2 0x230D PUSH2 0x2378 JUMP JUMPDEST JUMPDEST PUSH1 0x1 DUP3 ADD SWAP1 POP SWAP2 SWAP1 POP JUMP JUMPDEST PUSH1 0x0 PUSH2 0x2324 DUP3 PUSH2 0x232B JUMP JUMPDEST SWAP1 POP SWAP2 SWAP1 POP JUMP JUMPDEST PUSH1 0x0 PUSH2 0x2336 DUP3 PUSH2 0x2459 JUMP JUMPDEST SWAP1 POP SWAP2 SWAP1 POP JUMP JUMPDEST PUSH1 0x0 DUP2 SWAP1 POP SWAP2 SWAP1 POP JUMP JUMPDEST PUSH1 0x0 PUSH2 0x2352 DUP3 PUSH2 0x222F JUMP JUMPDEST SWAP2 POP PUSH2 0x235D DUP4 PUSH2 0x222F JUMP JUMPDEST SWAP3 POP DUP3 PUSH2 0x236D JUMPI PUSH2 0x236C PUSH2 0x23A7 JUMP JUMPDEST JUMPDEST DUP3 DUP3 MOD SWAP1 POP SWAP3 SWAP2 POP POP JUMP JUMPDEST PUSH32 0x4E487B7100000000000000000000000000000000000000000000000000000000 PUSH1 0x0 MSTORE PUSH1 0x11 PUSH1 0x4 MSTORE PUSH1 0x24 PUSH1 0x0 REVERT JUMPDEST PUSH32 0x4E487B7100000000000000000000000000000000000000000000000000000000 PUSH1 0x0 MSTORE PUSH1 0x12 PUSH1 0x4 MSTORE PUSH1 0x24 PUSH1 0x0 REVERT JUMPDEST PUSH32 0x4E487B7100000000000000000000000000000000000000000000000000000000 PUSH1 0x0 MSTORE PUSH1 0x32 PUSH1 0x4 MSTORE PUSH1 0x24 PUSH1 0x0 REVERT JUMPDEST PUSH32 0x4E487B7100000000000000000000000000000000000000000000000000000000 PUSH1 0x0 MSTORE PUSH1 0x41 PUSH1 0x4 MSTORE PUSH1 0x24 PUSH1 0x0 REVERT JUMPDEST PUSH1 0x0 DUP1 REVERT JUMPDEST PUSH1 0x0 DUP1 REVERT JUMPDEST PUSH1 0x0 DUP1 REVERT JUMPDEST PUSH1 0x0 DUP1 REVERT JUMPDEST PUSH1 0x0 PUSH1 0x1F NOT PUSH1 0x1F DUP4 ADD AND SWAP1 POP SWAP2 SWAP1 POP JUMP JUMPDEST PUSH1 0x0 DUP2 PUSH1 0x60 SHL SWAP1 POP SWAP2 SWAP1 POP JUMP JUMPDEST PUSH1 0x0 DUP2 PUSH1 0x1 SHR SWAP1 POP SWAP2 SWAP1 POP JUMP JUMPDEST PUSH32 0x756E61626C6520746F207472616E73666572416E6443616C6C20746F206F7261 PUSH1 0x0 DUP3 ADD MSTORE PUSH32 0x636C650000000000000000000000000000000000000000000000000000000000 PUSH1 0x20 DUP3 ADD MSTORE POP JUMP JUMPDEST PUSH32 0x536F75726365206D75737420626520746865206F7261636C65206F6620746865 PUSH1 0x0 DUP3 ADD MSTORE PUSH32 0x2072657175657374000000000000000000000000000000000000000000000000 PUSH1 0x20 DUP3 ADD MSTORE POP JUMP JUMPDEST PUSH2 0x251A DUP2 PUSH2 0x21B1 JUMP JUMPDEST DUP2 EQ PUSH2 0x2525 JUMPI PUSH1 0x0 DUP1 REVERT JUMPDEST POP JUMP JUMPDEST PUSH2 0x2531 DUP2 PUSH2 0x21C3 JUMP JUMPDEST DUP2 EQ PUSH2 0x253C JUMPI PUSH1 0x0 DUP1 REVERT JUMPDEST POP JUMP JUMPDEST PUSH2 0x2548 DUP2 PUSH2 0x21CF JUMP JUMPDEST DUP2 EQ PUSH2 0x2553 JUMPI PUSH1 0x0 DUP1 REVERT JUMPDEST POP JUMP JUMPDEST PUSH2 0x255F DUP2 PUSH2 0x2205 JUMP JUMPDEST DUP2 EQ PUSH2 0x256A JUMPI PUSH1 0x0 DUP1 REVERT JUMPDEST POP JUMP JUMPDEST PUSH2 0x2576 DUP2 PUSH2 0x222F JUMP JUMPDEST DUP2 EQ PUSH2 0x2581 JUMPI PUSH1 0x0 DUP1 REVERT JUMPDEST POP JUMP INVALID LOG2 PUSH5 0x6970667358 0x22 SLT KECCAK256 0x2B PUSH24 0xFAEDDA374DB59AD914E85ED8CCBAF088DE9BAAE7A796BF12 SELFDESTRUCT MUL 0xA8 SWAP12 CALLDATALOAD 0xE9 PUSH5 0x736F6C6343 STOP ADDMOD SMOD STOP CALLER "
        },
        "methodIdentifiers": {
          "boolFullfill(bytes32,bool)": "5d3b29ef",
          "bytes32Fullfill(bytes32,bytes32)": "341a2476",
          "bytes32ToString(bytes32)": "9201de55",
          "chainlinkNode()": "f07029b9",
          "fee()": "ddca3f43",
          "fulfillEthereumPrice(bytes32,uint256)": "92cdaaf3",
          "int256CallAdapter(address,string,uint256,string,string,string,string,string,string)": "a3e69c91",
          "int256Fullfill(bytes32,int256)": "2ee56849",
          "requestEthereumPrice(address,string,uint256)": "63a3cd4c",
          "simpleCallAdapter()": "be4cdc8d",
          "simpleFulfill(bytes32,uint256)": "3fc958ea",
          "uint256Fullfill(bytes32,uint256)": "ff68299a",
          "uninit()": "10dba203"
        }
      }
    }
  }
}