{
  "contracts/GeneratedCodeTest.sol": {
    "GeneratedCodeTest": {
      "abi": [
        {
          "inputs": [],
          "stateMutability": "nonpayable",
          "type": "constructor"
        },
        {
          "anonymous": false,
          "inputs": [
            {
              "indexed": true,
              "internalType": "bytes32",
              "name": "id",
              "type": "bytes32"
            }
          ],
          "name": "ChainlinkCancelled",
          "type": "event"
        },
        {
          "anonymous": false,
          "inputs": [
            {
              "indexed": true,
              "internalType": "bytes32",
              "name": "id",
              "type": "bytes32"
            }
          ],
          "name": "ChainlinkFulfilled",
          "type": "event"
        },
        {
          "anonymous": false,
          "inputs": [
            {
              "indexed": true,
              "internalType": "bytes32",
              "name": "id",
              "type": "bytes32"
            }
          ],
          "name": "ChainlinkRequested",
          "type": "event"
        },
        {
          "anonymous": false,
          "inputs": [
            {
              "indexed": false,
              "internalType": "bytes32",
              "name": "reply",
              "type": "bytes32"
            }
          ],
          "name": "adapterReply",
          "type": "event"
        },
        {
          "inputs": [
            {
              "internalType": "bytes32",
              "name": "_requestId",
              "type": "bytes32"
            },
            {
              "internalType": "bytes32",
              "name": "_reply",
              "type": "bytes32"
            }
          ],
          "name": "fulfill",
          "outputs": [],
          "stateMutability": "nonpayable",
          "type": "function"
        },
        {
          "inputs": [],
          "name": "request",
          "outputs": [
            {
              "internalType": "bytes32",
              "name": "requestId",
              "type": "bytes32"
            }
          ],
          "stateMutability": "nonpayable",
          "type": "function"
        },
        {
          "inputs": [],
          "name": "result",
          "outputs": [
            {
              "internalType": "bytes32",
              "name": "",
              "type": "bytes32"
            }
          ],
          "stateMutability": "view",
          "type": "function"
        }
      ],
      "evm": {
        "bytecode": {
          "linkReferences": {},
          "object": "6080604052600160045534801561001557600080fd5b5061003973326c977e6efc84e512bb9c30f76e30c160ed06fb61003e60201b60201c565b610082565b80600260006101000a81548173ffffffffffffffffffffffffffffffffffffffff021916908373ffffffffffffffffffffffffffffffffffffffff16021790555050565b611407806100916000396000f3fe608060405234801561001057600080fd5b50600436106100415760003560e01c8063042f2b6514610046578063338cdca1146100625780636537214714610080575b600080fd5b610060600480360381019061005b9190610b79565b61009e565b005b61006a6101e6565b6040516100779190610d91565b60405180910390f35b6100886102ad565b6040516100959190610d91565b60405180910390f35b816005600082815260200190815260200160002060009054906101000a900473ffffffffffffffffffffffffffffffffffffffff1673ffffffffffffffffffffffffffffffffffffffff163373ffffffffffffffffffffffffffffffffffffffff1614610140576040517f08c379a000000000000000000000000000000000000000000000000000000000815260040161013790610dcc565b60405180910390fd5b6005600082815260200190815260200160002060006101000a81549073ffffffffffffffffffffffffffffffffffffffff0219169055807f7cc135e0cebb02c3480ae5d74d377283180a2601f8f644edf7987b009316c63a60405160405180910390a2816006819055507f2b10fbaac8c516aade15debefa149bccd9e8c6748952d9e0c7ac04051b450e0e826040516101d99190610d91565b60405180910390a1505050565b60008061021b7f31333032616565346538363034623336383330633830316536313364383038323063042f2b6560e01b6102b3565b90506102806040518060400160405280600181526020017f700000000000000000000000000000000000000000000000000000000000000081525060405180610100016040528060c3815260200161130f60c39139836102e49092919063ffffffff16565b6102a773a8e22a742d39b13d54df6a912fcc7b8e71dfafe082670de0b6b3a7640000610317565b91505090565b60065481565b6102bb610a9b565b6102c3610a9b565b6102da85858584610337909392919063ffffffff16565b9150509392505050565b6102fb8284608001516103e790919063ffffffff16565b6103128184608001516103e790919063ffffffff16565b505050565b600061032e8484846001634042994660e01b61040c565b90509392505050565b61033f610a9b565b61034f8560800151610100610674565b508385600001818152505082856020019073ffffffffffffffffffffffffffffffffffffffff16908173ffffffffffffffffffffffffffffffffffffffff16815250508185604001907bffffffffffffffffffffffffffffffffffffffffffffffffffffffff191690817bffffffffffffffffffffffffffffffffffffffffffffffffffffffff191681525050849050949350505050565b6103f482600383516106de565b610407818361082390919063ffffffff16565b505050565b600030600454604051602001610423929190610ca2565b604051602081830303815290604052805190602001209050600454856060018181525050856005600083815260200190815260200160002060006101000a81548173ffffffffffffffffffffffffffffffffffffffff021916908373ffffffffffffffffffffffffffffffffffffffff160217905550807fb5e6e01e79f91267dc17b4e6314d5d4d03593d2ceee0fbb452b750bd70ea5af960405160405180910390a2600082600080886000015189602001518a604001518b606001518a8d6080015160000151604051602401610501989796959493929190610cce565b604051602081830303815290604052907bffffffffffffffffffffffffffffffffffffffffffffffffffffffff19166020820180517bffffffffffffffffffffffffffffffffffffffffffffffffffffffff83818316178352505050509050600260009054906101000a900473ffffffffffffffffffffffffffffffffffffffff1673ffffffffffffffffffffffffffffffffffffffff16634000aea08887846040518463ffffffff1660e01b81526004016105bf93929190610d53565b602060405180830381600087803b1580156105d957600080fd5b505af11580156105ed573d6000803e3d6000fd5b505050506040513d601f19601f820116820180604052508101906106119190610b4c565b610650576040517f08c379a000000000000000000000000000000000000000000000000000000000815260040161064790610dac565b60405180910390fd5b6001600460008282546106639190610e19565b925050819055505095945050505050565b61067c610b08565b600060208361068b9190611183565b146106b75760208261069d9190611183565b60206106a9919061103a565b826106b49190610e19565b91505b81836020018181525050604051808452600081528281016020016040525082905092915050565b6017811161070b576107058160058460ff16901b60ff16178461084590919063ffffffff16565b5061081e565b60ff811161074d57610730601860058460ff16901b178461084590919063ffffffff16565b50610747816001856108659092919063ffffffff16565b5061081d565b61ffff811161079057610773601960058460ff16901b178461084590919063ffffffff16565b5061078a816002856108659092919063ffffffff16565b5061081c565b63ffffffff81116107d5576107b8601a60058460ff16901b178461084590919063ffffffff16565b506107cf816004856108659092919063ffffffff16565b5061081b565b67ffffffffffffffff811161081a57610801601b60058460ff16901b178461084590919063ffffffff16565b50610818816008856108659092919063ffffffff16565b505b5b5b5b5b505050565b61082b610b08565b61083d83846000015151848551610887565b905092915050565b61084d610b08565b61085d8384600001515184610976565b905092915050565b61086d610b08565b61087e8485600001515185856109cd565b90509392505050565b61088f610b08565b825182111561089d57600080fd5b846020015182856108ae9190610e19565b11156108e3576108e28560026108d3886020015188876108ce9190610e19565b610a5b565b6108dd9190610fe0565b610a77565b5b6000808651805187602083010193508088870111156109025787860182525b60208701925050505b6020841061094957805182526020826109249190610e19565b91506020816109339190610e19565b9050602084610942919061103a565b935061090b565b60006001856020036101000a03905080198251168184511681811785525050508692505050949350505050565b61097e610b08565b836020015183106109a4576109a3846002866020015161099e9190610fe0565b610a77565b5b83518051602085830101848153818614156109c0576001820183525b5050508390509392505050565b6109d5610b08565b846020015184836109e69190610e19565b1115610a0e57610a0d85600286856109fe9190610e19565b610a089190610fe0565b610a77565b5b6000600183610100610a209190610ec2565b610a2a919061103a565b90508551838682010185831982511617815281518588011115610a4d5784870182525b505085915050949350505050565b600081831115610a6d57829050610a71565b8190505b92915050565b600082600001519050610a8a8383610674565b50610a958382610823565b50505050565b6040518060a0016040528060008019168152602001600073ffffffffffffffffffffffffffffffffffffffff16815260200160007bffffffffffffffffffffffffffffffffffffffffffffffffffffffff1916815260200160008152602001610b02610b08565b81525090565b604051806040016040528060608152602001600081525090565b600081519050610b31816112e0565b92915050565b600081359050610b46816112f7565b92915050565b600060208284031215610b6257610b61611212565b5b6000610b7084828501610b22565b91505092915050565b60008060408385031215610b9057610b8f611212565b5b6000610b9e85828601610b37565b9250506020610baf85828601610b37565b9150509250929050565b610bc28161106e565b82525050565b610bd18161108c565b82525050565b610be081611096565b82525050565b6000610bf182610dec565b610bfb8185610df7565b9350610c0b818560208601611122565b610c1481611217565b840191505092915050565b610c30610c2b826110ec565b611155565b82525050565b6000610c43602383610e08565b9150610c4e82611242565b604082019050919050565b6000610c66602883610e08565b9150610c7182611291565b604082019050919050565b610c85816110e2565b82525050565b610c9c610c97826110e2565b611179565b82525050565b6000610cae8285610c1f565b601482019150610cbe8284610c8b565b6020820191508190509392505050565b600061010082019050610ce4600083018b610bb9565b610cf1602083018a610c7c565b610cfe6040830189610bc8565b610d0b6060830188610bb9565b610d186080830187610bd7565b610d2560a0830186610c7c565b610d3260c0830185610c7c565b81810360e0830152610d448184610be6565b90509998505050505050505050565b6000606082019050610d686000830186610bb9565b610d756020830185610c7c565b8181036040830152610d878184610be6565b9050949350505050565b6000602082019050610da66000830184610bc8565b92915050565b60006020820190508181036000830152610dc581610c36565b9050919050565b60006020820190508181036000830152610de581610c59565b9050919050565b600081519050919050565b600082825260208201905092915050565b600082825260208201905092915050565b6000610e24826110e2565b9150610e2f836110e2565b9250827fffffffffffffffffffffffffffffffffffffffffffffffffffffffffffffffff03821115610e6457610e636111b4565b5b828201905092915050565b6000808291508390505b6001851115610eb957808604811115610e9557610e946111b4565b5b6001851615610ea45780820291505b8081029050610eb285611235565b9450610e79565b94509492505050565b6000610ecd826110e2565b9150610ed8836110e2565b9250610f057fffffffffffffffffffffffffffffffffffffffffffffffffffffffffffffffff8484610f0d565b905092915050565b600082610f1d5760019050610fd9565b81610f2b5760009050610fd9565b8160018114610f415760028114610f4b57610f7a565b6001915050610fd9565b60ff841115610f5d57610f5c6111b4565b5b8360020a915084821115610f7457610f736111b4565b5b50610fd9565b5060208310610133831016604e8410600b8410161715610faf5782820a905083811115610faa57610fa96111b4565b5b610fd9565b610fbc8484846001610e6f565b92509050818404811115610fd357610fd26111b4565b5b81810290505b9392505050565b6000610feb826110e2565b9150610ff6836110e2565b9250817fffffffffffffffffffffffffffffffffffffffffffffffffffffffffffffffff048311821515161561102f5761102e6111b4565b5b828202905092915050565b6000611045826110e2565b9150611050836110e2565b925082821015611063576110626111b4565b5b828203905092915050565b6000611079826110c2565b9050919050565b60008115159050919050565b6000819050919050565b60007fffffffff0000000000000000000000000000000000000000000000000000000082169050919050565b600073ffffffffffffffffffffffffffffffffffffffff82169050919050565b6000819050919050565b60006110f7826110fe565b9050919050565b600061110982611110565b9050919050565b600061111b826110c2565b9050919050565b60005b83811015611140578082015181840152602081019050611125565b8381111561114f576000848401525b50505050565b600061116082611167565b9050919050565b600061117282611228565b9050919050565b6000819050919050565b600061118e826110e2565b9150611199836110e2565b9250826111a9576111a86111e3565b5b828206905092915050565b7f4e487b7100000000000000000000000000000000000000000000000000000000600052601160045260246000fd5b7f4e487b7100000000000000000000000000000000000000000000000000000000600052601260045260246000fd5b600080fd5b6000601f19601f8301169050919050565b60008160601b9050919050565b60008160011c9050919050565b7f756e61626c6520746f207472616e73666572416e6443616c6c20746f206f726160008201527f636c650000000000000000000000000000000000000000000000000000000000602082015250565b7f536f75726365206d75737420626520746865206f7261636c65206f662074686560008201527f2072657175657374000000000000000000000000000000000000000000000000602082015250565b6112e981611080565b81146112f457600080fd5b50565b6113008161108c565b811461130b57600080fd5b5056fe7b2274223a2262797465733332222c226d223a22676574222c2275223a2268747470733a2f2f6170692e747769747465722e636f6d2f312e312f73746174757365732f757365725f74696d656c696e652e6a736f6e3f73637265656e5f6e616d653d656c6f6e6d75736b26636f756e743d31222c226a223a2272657475726e20726573706f6e73652e646174615b305d2e746578742e7265706c616365285c22405c222c2022415422292e736c69636528302c333129222c2272223a2231323334227da26469706673582212204c574d76c10c483f13e9fffd739234d52a0fc0d346390a67532f25b9a45d7c6d64736f6c63430008070033",
          "opcodes": "PUSH1 0x80 PUSH1 0x40 MSTORE PUSH1 0x1 PUSH1 0x4 SSTORE CALLVALUE DUP1 ISZERO PUSH2 0x15 JUMPI PUSH1 0x0 DUP1 REVERT JUMPDEST POP PUSH2 0x39 PUSH20 0x326C977E6EFC84E512BB9C30F76E30C160ED06FB PUSH2 0x3E PUSH1 0x20 SHL PUSH1 0x20 SHR JUMP JUMPDEST PUSH2 0x82 JUMP JUMPDEST DUP1 PUSH1 0x2 PUSH1 0x0 PUSH2 0x100 EXP DUP2 SLOAD DUP2 PUSH20 0xFFFFFFFFFFFFFFFFFFFFFFFFFFFFFFFFFFFFFFFF MUL NOT AND SWAP1 DUP4 PUSH20 0xFFFFFFFFFFFFFFFFFFFFFFFFFFFFFFFFFFFFFFFF AND MUL OR SWAP1 SSTORE POP POP JUMP JUMPDEST PUSH2 0x1407 DUP1 PUSH2 0x91 PUSH1 0x0 CODECOPY PUSH1 0x0 RETURN INVALID PUSH1 0x80 PUSH1 0x40 MSTORE CALLVALUE DUP1 ISZERO PUSH2 0x10 JUMPI PUSH1 0x0 DUP1 REVERT JUMPDEST POP PUSH1 0x4 CALLDATASIZE LT PUSH2 0x41 JUMPI PUSH1 0x0 CALLDATALOAD PUSH1 0xE0 SHR DUP1 PUSH4 0x42F2B65 EQ PUSH2 0x46 JUMPI DUP1 PUSH4 0x338CDCA1 EQ PUSH2 0x62 JUMPI DUP1 PUSH4 0x65372147 EQ PUSH2 0x80 JUMPI JUMPDEST PUSH1 0x0 DUP1 REVERT JUMPDEST PUSH2 0x60 PUSH1 0x4 DUP1 CALLDATASIZE SUB DUP2 ADD SWAP1 PUSH2 0x5B SWAP2 SWAP1 PUSH2 0xB79 JUMP JUMPDEST PUSH2 0x9E JUMP JUMPDEST STOP JUMPDEST PUSH2 0x6A PUSH2 0x1E6 JUMP JUMPDEST PUSH1 0x40 MLOAD PUSH2 0x77 SWAP2 SWAP1 PUSH2 0xD91 JUMP JUMPDEST PUSH1 0x40 MLOAD DUP1 SWAP2 SUB SWAP1 RETURN JUMPDEST PUSH2 0x88 PUSH2 0x2AD JUMP JUMPDEST PUSH1 0x40 MLOAD PUSH2 0x95 SWAP2 SWAP1 PUSH2 0xD91 JUMP JUMPDEST PUSH1 0x40 MLOAD DUP1 SWAP2 SUB SWAP1 RETURN JUMPDEST DUP2 PUSH1 0x5 PUSH1 0x0 DUP3 DUP2 MSTORE PUSH1 0x20 ADD SWAP1 DUP2 MSTORE PUSH1 0x20 ADD PUSH1 0x0 KECCAK256 PUSH1 0x0 SWAP1 SLOAD SWAP1 PUSH2 0x100 EXP SWAP1 DIV PUSH20 0xFFFFFFFFFFFFFFFFFFFFFFFFFFFFFFFFFFFFFFFF AND PUSH20 0xFFFFFFFFFFFFFFFFFFFFFFFFFFFFFFFFFFFFFFFF AND CALLER PUSH20 0xFFFFFFFFFFFFFFFFFFFFFFFFFFFFFFFFFFFFFFFF AND EQ PUSH2 0x140 JUMPI PUSH1 0x40 MLOAD PUSH32 0x8C379A000000000000000000000000000000000000000000000000000000000 DUP2 MSTORE PUSH1 0x4 ADD PUSH2 0x137 SWAP1 PUSH2 0xDCC JUMP JUMPDEST PUSH1 0x40 MLOAD DUP1 SWAP2 SUB SWAP1 REVERT JUMPDEST PUSH1 0x5 PUSH1 0x0 DUP3 DUP2 MSTORE PUSH1 0x20 ADD SWAP1 DUP2 MSTORE PUSH1 0x20 ADD PUSH1 0x0 KECCAK256 PUSH1 0x0 PUSH2 0x100 EXP DUP2 SLOAD SWAP1 PUSH20 0xFFFFFFFFFFFFFFFFFFFFFFFFFFFFFFFFFFFFFFFF MUL NOT AND SWAP1 SSTORE DUP1 PUSH32 0x7CC135E0CEBB02C3480AE5D74D377283180A2601F8F644EDF7987B009316C63A PUSH1 0x40 MLOAD PUSH1 0x40 MLOAD DUP1 SWAP2 SUB SWAP1 LOG2 DUP2 PUSH1 0x6 DUP2 SWAP1 SSTORE POP PUSH32 0x2B10FBAAC8C516AADE15DEBEFA149BCCD9E8C6748952D9E0C7AC04051B450E0E DUP3 PUSH1 0x40 MLOAD PUSH2 0x1D9 SWAP2 SWAP1 PUSH2 0xD91 JUMP JUMPDEST PUSH1 0x40 MLOAD DUP1 SWAP2 SUB SWAP1 LOG1 POP POP POP JUMP JUMPDEST PUSH1 0x0 DUP1 PUSH2 0x21B PUSH32 0x3133303261656534653836303462333638333063383031653631336438303832 ADDRESS PUSH4 0x42F2B65 PUSH1 0xE0 SHL PUSH2 0x2B3 JUMP JUMPDEST SWAP1 POP PUSH2 0x280 PUSH1 0x40 MLOAD DUP1 PUSH1 0x40 ADD PUSH1 0x40 MSTORE DUP1 PUSH1 0x1 DUP2 MSTORE PUSH1 0x20 ADD PUSH32 0x7000000000000000000000000000000000000000000000000000000000000000 DUP2 MSTORE POP PUSH1 0x40 MLOAD DUP1 PUSH2 0x100 ADD PUSH1 0x40 MSTORE DUP1 PUSH1 0xC3 DUP2 MSTORE PUSH1 0x20 ADD PUSH2 0x130F PUSH1 0xC3 SWAP2 CODECOPY DUP4 PUSH2 0x2E4 SWAP1 SWAP3 SWAP2 SWAP1 PUSH4 0xFFFFFFFF AND JUMP JUMPDEST PUSH2 0x2A7 PUSH20 0xA8E22A742D39B13D54DF6A912FCC7B8E71DFAFE0 DUP3 PUSH8 0xDE0B6B3A7640000 PUSH2 0x317 JUMP JUMPDEST SWAP2 POP POP SWAP1 JUMP JUMPDEST PUSH1 0x6 SLOAD DUP2 JUMP JUMPDEST PUSH2 0x2BB PUSH2 0xA9B JUMP JUMPDEST PUSH2 0x2C3 PUSH2 0xA9B JUMP JUMPDEST PUSH2 0x2DA DUP6 DUP6 DUP6 DUP5 PUSH2 0x337 SWAP1 SWAP4 SWAP3 SWAP2 SWAP1 PUSH4 0xFFFFFFFF AND JUMP JUMPDEST SWAP2 POP POP SWAP4 SWAP3 POP POP POP JUMP JUMPDEST PUSH2 0x2FB DUP3 DUP5 PUSH1 0x80 ADD MLOAD PUSH2 0x3E7 SWAP1 SWAP2 SWAP1 PUSH4 0xFFFFFFFF AND JUMP JUMPDEST PUSH2 0x312 DUP2 DUP5 PUSH1 0x80 ADD MLOAD PUSH2 0x3E7 SWAP1 SWAP2 SWAP1 PUSH4 0xFFFFFFFF AND JUMP JUMPDEST POP POP POP JUMP JUMPDEST PUSH1 0x0 PUSH2 0x32E DUP5 DUP5 DUP5 PUSH1 0x1 PUSH4 0x40429946 PUSH1 0xE0 SHL PUSH2 0x40C JUMP JUMPDEST SWAP1 POP SWAP4 SWAP3 POP POP POP JUMP JUMPDEST PUSH2 0x33F PUSH2 0xA9B JUMP JUMPDEST PUSH2 0x34F DUP6 PUSH1 0x80 ADD MLOAD PUSH2 0x100 PUSH2 0x674 JUMP JUMPDEST POP DUP4 DUP6 PUSH1 0x0 ADD DUP2 DUP2 MSTORE POP POP DUP3 DUP6 PUSH1 0x20 ADD SWAP1 PUSH20 0xFFFFFFFFFFFFFFFFFFFFFFFFFFFFFFFFFFFFFFFF AND SWAP1 DUP2 PUSH20 0xFFFFFFFFFFFFFFFFFFFFFFFFFFFFFFFFFFFFFFFF AND DUP2 MSTORE POP POP DUP2 DUP6 PUSH1 0x40 ADD SWAP1 PUSH28 0xFFFFFFFFFFFFFFFFFFFFFFFFFFFFFFFFFFFFFFFFFFFFFFFFFFFFFFFF NOT AND SWAP1 DUP2 PUSH28 0xFFFFFFFFFFFFFFFFFFFFFFFFFFFFFFFFFFFFFFFFFFFFFFFFFFFFFFFF NOT AND DUP2 MSTORE POP POP DUP5 SWAP1 POP SWAP5 SWAP4 POP POP POP POP JUMP JUMPDEST PUSH2 0x3F4 DUP3 PUSH1 0x3 DUP4 MLOAD PUSH2 0x6DE JUMP JUMPDEST PUSH2 0x407 DUP2 DUP4 PUSH2 0x823 SWAP1 SWAP2 SWAP1 PUSH4 0xFFFFFFFF AND JUMP JUMPDEST POP POP POP JUMP JUMPDEST PUSH1 0x0 ADDRESS PUSH1 0x4 SLOAD PUSH1 0x40 MLOAD PUSH1 0x20 ADD PUSH2 0x423 SWAP3 SWAP2 SWAP1 PUSH2 0xCA2 JUMP JUMPDEST PUSH1 0x40 MLOAD PUSH1 0x20 DUP2 DUP4 SUB SUB DUP2 MSTORE SWAP1 PUSH1 0x40 MSTORE DUP1 MLOAD SWAP1 PUSH1 0x20 ADD KECCAK256 SWAP1 POP PUSH1 0x4 SLOAD DUP6 PUSH1 0x60 ADD DUP2 DUP2 MSTORE POP POP DUP6 PUSH1 0x5 PUSH1 0x0 DUP4 DUP2 MSTORE PUSH1 0x20 ADD SWAP1 DUP2 MSTORE PUSH1 0x20 ADD PUSH1 0x0 KECCAK256 PUSH1 0x0 PUSH2 0x100 EXP DUP2 SLOAD DUP2 PUSH20 0xFFFFFFFFFFFFFFFFFFFFFFFFFFFFFFFFFFFFFFFF MUL NOT AND SWAP1 DUP4 PUSH20 0xFFFFFFFFFFFFFFFFFFFFFFFFFFFFFFFFFFFFFFFF AND MUL OR SWAP1 SSTORE POP DUP1 PUSH32 0xB5E6E01E79F91267DC17B4E6314D5D4D03593D2CEEE0FBB452B750BD70EA5AF9 PUSH1 0x40 MLOAD PUSH1 0x40 MLOAD DUP1 SWAP2 SUB SWAP1 LOG2 PUSH1 0x0 DUP3 PUSH1 0x0 DUP1 DUP9 PUSH1 0x0 ADD MLOAD DUP10 PUSH1 0x20 ADD MLOAD DUP11 PUSH1 0x40 ADD MLOAD DUP12 PUSH1 0x60 ADD MLOAD DUP11 DUP14 PUSH1 0x80 ADD MLOAD PUSH1 0x0 ADD MLOAD PUSH1 0x40 MLOAD PUSH1 0x24 ADD PUSH2 0x501 SWAP9 SWAP8 SWAP7 SWAP6 SWAP5 SWAP4 SWAP3 SWAP2 SWAP1 PUSH2 0xCCE JUMP JUMPDEST PUSH1 0x40 MLOAD PUSH1 0x20 DUP2 DUP4 SUB SUB DUP2 MSTORE SWAP1 PUSH1 0x40 MSTORE SWAP1 PUSH28 0xFFFFFFFFFFFFFFFFFFFFFFFFFFFFFFFFFFFFFFFFFFFFFFFFFFFFFFFF NOT AND PUSH1 0x20 DUP3 ADD DUP1 MLOAD PUSH28 0xFFFFFFFFFFFFFFFFFFFFFFFFFFFFFFFFFFFFFFFFFFFFFFFFFFFFFFFF DUP4 DUP2 DUP4 AND OR DUP4 MSTORE POP POP POP POP SWAP1 POP PUSH1 0x2 PUSH1 0x0 SWAP1 SLOAD SWAP1 PUSH2 0x100 EXP SWAP1 DIV PUSH20 0xFFFFFFFFFFFFFFFFFFFFFFFFFFFFFFFFFFFFFFFF AND PUSH20 0xFFFFFFFFFFFFFFFFFFFFFFFFFFFFFFFFFFFFFFFF AND PUSH4 0x4000AEA0 DUP9 DUP8 DUP5 PUSH1 0x40 MLOAD DUP5 PUSH4 0xFFFFFFFF AND PUSH1 0xE0 SHL DUP2 MSTORE PUSH1 0x4 ADD PUSH2 0x5BF SWAP4 SWAP3 SWAP2 SWAP1 PUSH2 0xD53 JUMP JUMPDEST PUSH1 0x20 PUSH1 0x40 MLOAD DUP1 DUP4 SUB DUP2 PUSH1 0x0 DUP8 DUP1 EXTCODESIZE ISZERO DUP1 ISZERO PUSH2 0x5D9 JUMPI PUSH1 0x0 DUP1 REVERT JUMPDEST POP GAS CALL ISZERO DUP1 ISZERO PUSH2 0x5ED JUMPI RETURNDATASIZE PUSH1 0x0 DUP1 RETURNDATACOPY RETURNDATASIZE PUSH1 0x0 REVERT JUMPDEST POP POP POP POP PUSH1 0x40 MLOAD RETURNDATASIZE PUSH1 0x1F NOT PUSH1 0x1F DUP3 ADD AND DUP3 ADD DUP1 PUSH1 0x40 MSTORE POP DUP2 ADD SWAP1 PUSH2 0x611 SWAP2 SWAP1 PUSH2 0xB4C JUMP JUMPDEST PUSH2 0x650 JUMPI PUSH1 0x40 MLOAD PUSH32 0x8C379A000000000000000000000000000000000000000000000000000000000 DUP2 MSTORE PUSH1 0x4 ADD PUSH2 0x647 SWAP1 PUSH2 0xDAC JUMP JUMPDEST PUSH1 0x40 MLOAD DUP1 SWAP2 SUB SWAP1 REVERT JUMPDEST PUSH1 0x1 PUSH1 0x4 PUSH1 0x0 DUP3 DUP3 SLOAD PUSH2 0x663 SWAP2 SWAP1 PUSH2 0xE19 JUMP JUMPDEST SWAP3 POP POP DUP2 SWAP1 SSTORE POP POP SWAP6 SWAP5 POP POP POP POP POP JUMP JUMPDEST PUSH2 0x67C PUSH2 0xB08 JUMP JUMPDEST PUSH1 0x0 PUSH1 0x20 DUP4 PUSH2 0x68B SWAP2 SWAP1 PUSH2 0x1183 JUMP JUMPDEST EQ PUSH2 0x6B7 JUMPI PUSH1 0x20 DUP3 PUSH2 0x69D SWAP2 SWAP1 PUSH2 0x1183 JUMP JUMPDEST PUSH1 0x20 PUSH2 0x6A9 SWAP2 SWAP1 PUSH2 0x103A JUMP JUMPDEST DUP3 PUSH2 0x6B4 SWAP2 SWAP1 PUSH2 0xE19 JUMP JUMPDEST SWAP2 POP JUMPDEST DUP2 DUP4 PUSH1 0x20 ADD DUP2 DUP2 MSTORE POP POP PUSH1 0x40 MLOAD DUP1 DUP5 MSTORE PUSH1 0x0 DUP2 MSTORE DUP3 DUP2 ADD PUSH1 0x20 ADD PUSH1 0x40 MSTORE POP DUP3 SWAP1 POP SWAP3 SWAP2 POP POP JUMP JUMPDEST PUSH1 0x17 DUP2 GT PUSH2 0x70B JUMPI PUSH2 0x705 DUP2 PUSH1 0x5 DUP5 PUSH1 0xFF AND SWAP1 SHL PUSH1 0xFF AND OR DUP5 PUSH2 0x845 SWAP1 SWAP2 SWAP1 PUSH4 0xFFFFFFFF AND JUMP JUMPDEST POP PUSH2 0x81E JUMP JUMPDEST PUSH1 0xFF DUP2 GT PUSH2 0x74D JUMPI PUSH2 0x730 PUSH1 0x18 PUSH1 0x5 DUP5 PUSH1 0xFF AND SWAP1 SHL OR DUP5 PUSH2 0x845 SWAP1 SWAP2 SWAP1 PUSH4 0xFFFFFFFF AND JUMP JUMPDEST POP PUSH2 0x747 DUP2 PUSH1 0x1 DUP6 PUSH2 0x865 SWAP1 SWAP3 SWAP2 SWAP1 PUSH4 0xFFFFFFFF AND JUMP JUMPDEST POP PUSH2 0x81D JUMP JUMPDEST PUSH2 0xFFFF DUP2 GT PUSH2 0x790 JUMPI PUSH2 0x773 PUSH1 0x19 PUSH1 0x5 DUP5 PUSH1 0xFF AND SWAP1 SHL OR DUP5 PUSH2 0x845 SWAP1 SWAP2 SWAP1 PUSH4 0xFFFFFFFF AND JUMP JUMPDEST POP PUSH2 0x78A DUP2 PUSH1 0x2 DUP6 PUSH2 0x865 SWAP1 SWAP3 SWAP2 SWAP1 PUSH4 0xFFFFFFFF AND JUMP JUMPDEST POP PUSH2 0x81C JUMP JUMPDEST PUSH4 0xFFFFFFFF DUP2 GT PUSH2 0x7D5 JUMPI PUSH2 0x7B8 PUSH1 0x1A PUSH1 0x5 DUP5 PUSH1 0xFF AND SWAP1 SHL OR DUP5 PUSH2 0x845 SWAP1 SWAP2 SWAP1 PUSH4 0xFFFFFFFF AND JUMP JUMPDEST POP PUSH2 0x7CF DUP2 PUSH1 0x4 DUP6 PUSH2 0x865 SWAP1 SWAP3 SWAP2 SWAP1 PUSH4 0xFFFFFFFF AND JUMP JUMPDEST POP PUSH2 0x81B JUMP JUMPDEST PUSH8 0xFFFFFFFFFFFFFFFF DUP2 GT PUSH2 0x81A JUMPI PUSH2 0x801 PUSH1 0x1B PUSH1 0x5 DUP5 PUSH1 0xFF AND SWAP1 SHL OR DUP5 PUSH2 0x845 SWAP1 SWAP2 SWAP1 PUSH4 0xFFFFFFFF AND JUMP JUMPDEST POP PUSH2 0x818 DUP2 PUSH1 0x8 DUP6 PUSH2 0x865 SWAP1 SWAP3 SWAP2 SWAP1 PUSH4 0xFFFFFFFF AND JUMP JUMPDEST POP JUMPDEST JUMPDEST JUMPDEST JUMPDEST JUMPDEST POP POP POP JUMP JUMPDEST PUSH2 0x82B PUSH2 0xB08 JUMP JUMPDEST PUSH2 0x83D DUP4 DUP5 PUSH1 0x0 ADD MLOAD MLOAD DUP5 DUP6 MLOAD PUSH2 0x887 JUMP JUMPDEST SWAP1 POP SWAP3 SWAP2 POP POP JUMP JUMPDEST PUSH2 0x84D PUSH2 0xB08 JUMP JUMPDEST PUSH2 0x85D DUP4 DUP5 PUSH1 0x0 ADD MLOAD MLOAD DUP5 PUSH2 0x976 JUMP JUMPDEST SWAP1 POP SWAP3 SWAP2 POP POP JUMP JUMPDEST PUSH2 0x86D PUSH2 0xB08 JUMP JUMPDEST PUSH2 0x87E DUP5 DUP6 PUSH1 0x0 ADD MLOAD MLOAD DUP6 DUP6 PUSH2 0x9CD JUMP JUMPDEST SWAP1 POP SWAP4 SWAP3 POP POP POP JUMP JUMPDEST PUSH2 0x88F PUSH2 0xB08 JUMP JUMPDEST DUP3 MLOAD DUP3 GT ISZERO PUSH2 0x89D JUMPI PUSH1 0x0 DUP1 REVERT JUMPDEST DUP5 PUSH1 0x20 ADD MLOAD DUP3 DUP6 PUSH2 0x8AE SWAP2 SWAP1 PUSH2 0xE19 JUMP JUMPDEST GT ISZERO PUSH2 0x8E3 JUMPI PUSH2 0x8E2 DUP6 PUSH1 0x2 PUSH2 0x8D3 DUP9 PUSH1 0x20 ADD MLOAD DUP9 DUP8 PUSH2 0x8CE SWAP2 SWAP1 PUSH2 0xE19 JUMP JUMPDEST PUSH2 0xA5B JUMP JUMPDEST PUSH2 0x8DD SWAP2 SWAP1 PUSH2 0xFE0 JUMP JUMPDEST PUSH2 0xA77 JUMP JUMPDEST JUMPDEST PUSH1 0x0 DUP1 DUP7 MLOAD DUP1 MLOAD DUP8 PUSH1 0x20 DUP4 ADD ADD SWAP4 POP DUP1 DUP9 DUP8 ADD GT ISZERO PUSH2 0x902 JUMPI DUP8 DUP7 ADD DUP3 MSTORE JUMPDEST PUSH1 0x20 DUP8 ADD SWAP3 POP POP POP JUMPDEST PUSH1 0x20 DUP5 LT PUSH2 0x949 JUMPI DUP1 MLOAD DUP3 MSTORE PUSH1 0x20 DUP3 PUSH2 0x924 SWAP2 SWAP1 PUSH2 0xE19 JUMP JUMPDEST SWAP2 POP PUSH1 0x20 DUP2 PUSH2 0x933 SWAP2 SWAP1 PUSH2 0xE19 JUMP JUMPDEST SWAP1 POP PUSH1 0x20 DUP5 PUSH2 0x942 SWAP2 SWAP1 PUSH2 0x103A JUMP JUMPDEST SWAP4 POP PUSH2 0x90B JUMP JUMPDEST PUSH1 0x0 PUSH1 0x1 DUP6 PUSH1 0x20 SUB PUSH2 0x100 EXP SUB SWAP1 POP DUP1 NOT DUP3 MLOAD AND DUP2 DUP5 MLOAD AND DUP2 DUP2 OR DUP6 MSTORE POP POP POP DUP7 SWAP3 POP POP POP SWAP5 SWAP4 POP POP POP POP JUMP JUMPDEST PUSH2 0x97E PUSH2 0xB08 JUMP JUMPDEST DUP4 PUSH1 0x20 ADD MLOAD DUP4 LT PUSH2 0x9A4 JUMPI PUSH2 0x9A3 DUP5 PUSH1 0x2 DUP7 PUSH1 0x20 ADD MLOAD PUSH2 0x99E SWAP2 SWAP1 PUSH2 0xFE0 JUMP JUMPDEST PUSH2 0xA77 JUMP JUMPDEST JUMPDEST DUP4 MLOAD DUP1 MLOAD PUSH1 0x20 DUP6 DUP4 ADD ADD DUP5 DUP2 MSTORE8 DUP2 DUP7 EQ ISZERO PUSH2 0x9C0 JUMPI PUSH1 0x1 DUP3 ADD DUP4 MSTORE JUMPDEST POP POP POP DUP4 SWAP1 POP SWAP4 SWAP3 POP POP POP JUMP JUMPDEST PUSH2 0x9D5 PUSH2 0xB08 JUMP JUMPDEST DUP5 PUSH1 0x20 ADD MLOAD DUP5 DUP4 PUSH2 0x9E6 SWAP2 SWAP1 PUSH2 0xE19 JUMP JUMPDEST GT ISZERO PUSH2 0xA0E JUMPI PUSH2 0xA0D DUP6 PUSH1 0x2 DUP7 DUP6 PUSH2 0x9FE SWAP2 SWAP1 PUSH2 0xE19 JUMP JUMPDEST PUSH2 0xA08 SWAP2 SWAP1 PUSH2 0xFE0 JUMP JUMPDEST PUSH2 0xA77 JUMP JUMPDEST JUMPDEST PUSH1 0x0 PUSH1 0x1 DUP4 PUSH2 0x100 PUSH2 0xA20 SWAP2 SWAP1 PUSH2 0xEC2 JUMP JUMPDEST PUSH2 0xA2A SWAP2 SWAP1 PUSH2 0x103A JUMP JUMPDEST SWAP1 POP DUP6 MLOAD DUP4 DUP7 DUP3 ADD ADD DUP6 DUP4 NOT DUP3 MLOAD AND OR DUP2 MSTORE DUP2 MLOAD DUP6 DUP9 ADD GT ISZERO PUSH2 0xA4D JUMPI DUP5 DUP8 ADD DUP3 MSTORE JUMPDEST POP POP DUP6 SWAP2 POP POP SWAP5 SWAP4 POP POP POP POP JUMP JUMPDEST PUSH1 0x0 DUP2 DUP4 GT ISZERO PUSH2 0xA6D JUMPI DUP3 SWAP1 POP PUSH2 0xA71 JUMP JUMPDEST DUP2 SWAP1 POP JUMPDEST SWAP3 SWAP2 POP POP JUMP JUMPDEST PUSH1 0x0 DUP3 PUSH1 0x0 ADD MLOAD SWAP1 POP PUSH2 0xA8A DUP4 DUP4 PUSH2 0x674 JUMP JUMPDEST POP PUSH2 0xA95 DUP4 DUP3 PUSH2 0x823 JUMP JUMPDEST POP POP POP POP JUMP JUMPDEST PUSH1 0x40 MLOAD DUP1 PUSH1 0xA0 ADD PUSH1 0x40 MSTORE DUP1 PUSH1 0x0 DUP1 NOT AND DUP2 MSTORE PUSH1 0x20 ADD PUSH1 0x0 PUSH20 0xFFFFFFFFFFFFFFFFFFFFFFFFFFFFFFFFFFFFFFFF AND DUP2 MSTORE PUSH1 0x20 ADD PUSH1 0x0 PUSH28 0xFFFFFFFFFFFFFFFFFFFFFFFFFFFFFFFFFFFFFFFFFFFFFFFFFFFFFFFF NOT AND DUP2 MSTORE PUSH1 0x20 ADD PUSH1 0x0 DUP2 MSTORE PUSH1 0x20 ADD PUSH2 0xB02 PUSH2 0xB08 JUMP JUMPDEST DUP2 MSTORE POP SWAP1 JUMP JUMPDEST PUSH1 0x40 MLOAD DUP1 PUSH1 0x40 ADD PUSH1 0x40 MSTORE DUP1 PUSH1 0x60 DUP2 MSTORE PUSH1 0x20 ADD PUSH1 0x0 DUP2 MSTORE POP SWAP1 JUMP JUMPDEST PUSH1 0x0 DUP2 MLOAD SWAP1 POP PUSH2 0xB31 DUP2 PUSH2 0x12E0 JUMP JUMPDEST SWAP3 SWAP2 POP POP JUMP JUMPDEST PUSH1 0x0 DUP2 CALLDATALOAD SWAP1 POP PUSH2 0xB46 DUP2 PUSH2 0x12F7 JUMP JUMPDEST SWAP3 SWAP2 POP POP JUMP JUMPDEST PUSH1 0x0 PUSH1 0x20 DUP3 DUP5 SUB SLT ISZERO PUSH2 0xB62 JUMPI PUSH2 0xB61 PUSH2 0x1212 JUMP JUMPDEST JUMPDEST PUSH1 0x0 PUSH2 0xB70 DUP5 DUP3 DUP6 ADD PUSH2 0xB22 JUMP JUMPDEST SWAP2 POP POP SWAP3 SWAP2 POP POP JUMP JUMPDEST PUSH1 0x0 DUP1 PUSH1 0x40 DUP4 DUP6 SUB SLT ISZERO PUSH2 0xB90 JUMPI PUSH2 0xB8F PUSH2 0x1212 JUMP JUMPDEST JUMPDEST PUSH1 0x0 PUSH2 0xB9E DUP6 DUP3 DUP7 ADD PUSH2 0xB37 JUMP JUMPDEST SWAP3 POP POP PUSH1 0x20 PUSH2 0xBAF DUP6 DUP3 DUP7 ADD PUSH2 0xB37 JUMP JUMPDEST SWAP2 POP POP SWAP3 POP SWAP3 SWAP1 POP JUMP JUMPDEST PUSH2 0xBC2 DUP2 PUSH2 0x106E JUMP JUMPDEST DUP3 MSTORE POP POP JUMP JUMPDEST PUSH2 0xBD1 DUP2 PUSH2 0x108C JUMP JUMPDEST DUP3 MSTORE POP POP JUMP JUMPDEST PUSH2 0xBE0 DUP2 PUSH2 0x1096 JUMP JUMPDEST DUP3 MSTORE POP POP JUMP JUMPDEST PUSH1 0x0 PUSH2 0xBF1 DUP3 PUSH2 0xDEC JUMP JUMPDEST PUSH2 0xBFB DUP2 DUP6 PUSH2 0xDF7 JUMP JUMPDEST SWAP4 POP PUSH2 0xC0B DUP2 DUP6 PUSH1 0x20 DUP7 ADD PUSH2 0x1122 JUMP JUMPDEST PUSH2 0xC14 DUP2 PUSH2 0x1217 JUMP JUMPDEST DUP5 ADD SWAP2 POP POP SWAP3 SWAP2 POP POP JUMP JUMPDEST PUSH2 0xC30 PUSH2 0xC2B DUP3 PUSH2 0x10EC JUMP JUMPDEST PUSH2 0x1155 JUMP JUMPDEST DUP3 MSTORE POP POP JUMP JUMPDEST PUSH1 0x0 PUSH2 0xC43 PUSH1 0x23 DUP4 PUSH2 0xE08 JUMP JUMPDEST SWAP2 POP PUSH2 0xC4E DUP3 PUSH2 0x1242 JUMP JUMPDEST PUSH1 0x40 DUP3 ADD SWAP1 POP SWAP2 SWAP1 POP JUMP JUMPDEST PUSH1 0x0 PUSH2 0xC66 PUSH1 0x28 DUP4 PUSH2 0xE08 JUMP JUMPDEST SWAP2 POP PUSH2 0xC71 DUP3 PUSH2 0x1291 JUMP JUMPDEST PUSH1 0x40 DUP3 ADD SWAP1 POP SWAP2 SWAP1 POP JUMP JUMPDEST PUSH2 0xC85 DUP2 PUSH2 0x10E2 JUMP JUMPDEST DUP3 MSTORE POP POP JUMP JUMPDEST PUSH2 0xC9C PUSH2 0xC97 DUP3 PUSH2 0x10E2 JUMP JUMPDEST PUSH2 0x1179 JUMP JUMPDEST DUP3 MSTORE POP POP JUMP JUMPDEST PUSH1 0x0 PUSH2 0xCAE DUP3 DUP6 PUSH2 0xC1F JUMP JUMPDEST PUSH1 0x14 DUP3 ADD SWAP2 POP PUSH2 0xCBE DUP3 DUP5 PUSH2 0xC8B JUMP JUMPDEST PUSH1 0x20 DUP3 ADD SWAP2 POP DUP2 SWAP1 POP SWAP4 SWAP3 POP POP POP JUMP JUMPDEST PUSH1 0x0 PUSH2 0x100 DUP3 ADD SWAP1 POP PUSH2 0xCE4 PUSH1 0x0 DUP4 ADD DUP12 PUSH2 0xBB9 JUMP JUMPDEST PUSH2 0xCF1 PUSH1 0x20 DUP4 ADD DUP11 PUSH2 0xC7C JUMP JUMPDEST PUSH2 0xCFE PUSH1 0x40 DUP4 ADD DUP10 PUSH2 0xBC8 JUMP JUMPDEST PUSH2 0xD0B PUSH1 0x60 DUP4 ADD DUP9 PUSH2 0xBB9 JUMP JUMPDEST PUSH2 0xD18 PUSH1 0x80 DUP4 ADD DUP8 PUSH2 0xBD7 JUMP JUMPDEST PUSH2 0xD25 PUSH1 0xA0 DUP4 ADD DUP7 PUSH2 0xC7C JUMP JUMPDEST PUSH2 0xD32 PUSH1 0xC0 DUP4 ADD DUP6 PUSH2 0xC7C JUMP JUMPDEST DUP2 DUP2 SUB PUSH1 0xE0 DUP4 ADD MSTORE PUSH2 0xD44 DUP2 DUP5 PUSH2 0xBE6 JUMP JUMPDEST SWAP1 POP SWAP10 SWAP9 POP POP POP POP POP POP POP POP POP JUMP JUMPDEST PUSH1 0x0 PUSH1 0x60 DUP3 ADD SWAP1 POP PUSH2 0xD68 PUSH1 0x0 DUP4 ADD DUP7 PUSH2 0xBB9 JUMP JUMPDEST PUSH2 0xD75 PUSH1 0x20 DUP4 ADD DUP6 PUSH2 0xC7C JUMP JUMPDEST DUP2 DUP2 SUB PUSH1 0x40 DUP4 ADD MSTORE PUSH2 0xD87 DUP2 DUP5 PUSH2 0xBE6 JUMP JUMPDEST SWAP1 POP SWAP5 SWAP4 POP POP POP POP JUMP JUMPDEST PUSH1 0x0 PUSH1 0x20 DUP3 ADD SWAP1 POP PUSH2 0xDA6 PUSH1 0x0 DUP4 ADD DUP5 PUSH2 0xBC8 JUMP JUMPDEST SWAP3 SWAP2 POP POP JUMP JUMPDEST PUSH1 0x0 PUSH1 0x20 DUP3 ADD SWAP1 POP DUP2 DUP2 SUB PUSH1 0x0 DUP4 ADD MSTORE PUSH2 0xDC5 DUP2 PUSH2 0xC36 JUMP JUMPDEST SWAP1 POP SWAP2 SWAP1 POP JUMP JUMPDEST PUSH1 0x0 PUSH1 0x20 DUP3 ADD SWAP1 POP DUP2 DUP2 SUB PUSH1 0x0 DUP4 ADD MSTORE PUSH2 0xDE5 DUP2 PUSH2 0xC59 JUMP JUMPDEST SWAP1 POP SWAP2 SWAP1 POP JUMP JUMPDEST PUSH1 0x0 DUP2 MLOAD SWAP1 POP SWAP2 SWAP1 POP JUMP JUMPDEST PUSH1 0x0 DUP3 DUP3 MSTORE PUSH1 0x20 DUP3 ADD SWAP1 POP SWAP3 SWAP2 POP POP JUMP JUMPDEST PUSH1 0x0 DUP3 DUP3 MSTORE PUSH1 0x20 DUP3 ADD SWAP1 POP SWAP3 SWAP2 POP POP JUMP JUMPDEST PUSH1 0x0 PUSH2 0xE24 DUP3 PUSH2 0x10E2 JUMP JUMPDEST SWAP2 POP PUSH2 0xE2F DUP4 PUSH2 0x10E2 JUMP JUMPDEST SWAP3 POP DUP3 PUSH32 0xFFFFFFFFFFFFFFFFFFFFFFFFFFFFFFFFFFFFFFFFFFFFFFFFFFFFFFFFFFFFFFFF SUB DUP3 GT ISZERO PUSH2 0xE64 JUMPI PUSH2 0xE63 PUSH2 0x11B4 JUMP JUMPDEST JUMPDEST DUP3 DUP3 ADD SWAP1 POP SWAP3 SWAP2 POP POP JUMP JUMPDEST PUSH1 0x0 DUP1 DUP3 SWAP2 POP DUP4 SWAP1 POP JUMPDEST PUSH1 0x1 DUP6 GT ISZERO PUSH2 0xEB9 JUMPI DUP1 DUP7 DIV DUP2 GT ISZERO PUSH2 0xE95 JUMPI PUSH2 0xE94 PUSH2 0x11B4 JUMP JUMPDEST JUMPDEST PUSH1 0x1 DUP6 AND ISZERO PUSH2 0xEA4 JUMPI DUP1 DUP3 MUL SWAP2 POP JUMPDEST DUP1 DUP2 MUL SWAP1 POP PUSH2 0xEB2 DUP6 PUSH2 0x1235 JUMP JUMPDEST SWAP5 POP PUSH2 0xE79 JUMP JUMPDEST SWAP5 POP SWAP5 SWAP3 POP POP POP JUMP JUMPDEST PUSH1 0x0 PUSH2 0xECD DUP3 PUSH2 0x10E2 JUMP JUMPDEST SWAP2 POP PUSH2 0xED8 DUP4 PUSH2 0x10E2 JUMP JUMPDEST SWAP3 POP PUSH2 0xF05 PUSH32 0xFFFFFFFFFFFFFFFFFFFFFFFFFFFFFFFFFFFFFFFFFFFFFFFFFFFFFFFFFFFFFFFF DUP5 DUP5 PUSH2 0xF0D JUMP JUMPDEST SWAP1 POP SWAP3 SWAP2 POP POP JUMP JUMPDEST PUSH1 0x0 DUP3 PUSH2 0xF1D JUMPI PUSH1 0x1 SWAP1 POP PUSH2 0xFD9 JUMP JUMPDEST DUP2 PUSH2 0xF2B JUMPI PUSH1 0x0 SWAP1 POP PUSH2 0xFD9 JUMP JUMPDEST DUP2 PUSH1 0x1 DUP2 EQ PUSH2 0xF41 JUMPI PUSH1 0x2 DUP2 EQ PUSH2 0xF4B JUMPI PUSH2 0xF7A JUMP JUMPDEST PUSH1 0x1 SWAP2 POP POP PUSH2 0xFD9 JUMP JUMPDEST PUSH1 0xFF DUP5 GT ISZERO PUSH2 0xF5D JUMPI PUSH2 0xF5C PUSH2 0x11B4 JUMP JUMPDEST JUMPDEST DUP4 PUSH1 0x2 EXP SWAP2 POP DUP5 DUP3 GT ISZERO PUSH2 0xF74 JUMPI PUSH2 0xF73 PUSH2 0x11B4 JUMP JUMPDEST JUMPDEST POP PUSH2 0xFD9 JUMP JUMPDEST POP PUSH1 0x20 DUP4 LT PUSH2 0x133 DUP4 LT AND PUSH1 0x4E DUP5 LT PUSH1 0xB DUP5 LT AND OR ISZERO PUSH2 0xFAF JUMPI DUP3 DUP3 EXP SWAP1 POP DUP4 DUP2 GT ISZERO PUSH2 0xFAA JUMPI PUSH2 0xFA9 PUSH2 0x11B4 JUMP JUMPDEST JUMPDEST PUSH2 0xFD9 JUMP JUMPDEST PUSH2 0xFBC DUP5 DUP5 DUP5 PUSH1 0x1 PUSH2 0xE6F JUMP JUMPDEST SWAP3 POP SWAP1 POP DUP2 DUP5 DIV DUP2 GT ISZERO PUSH2 0xFD3 JUMPI PUSH2 0xFD2 PUSH2 0x11B4 JUMP JUMPDEST JUMPDEST DUP2 DUP2 MUL SWAP1 POP JUMPDEST SWAP4 SWAP3 POP POP POP JUMP JUMPDEST PUSH1 0x0 PUSH2 0xFEB DUP3 PUSH2 0x10E2 JUMP JUMPDEST SWAP2 POP PUSH2 0xFF6 DUP4 PUSH2 0x10E2 JUMP JUMPDEST SWAP3 POP DUP2 PUSH32 0xFFFFFFFFFFFFFFFFFFFFFFFFFFFFFFFFFFFFFFFFFFFFFFFFFFFFFFFFFFFFFFFF DIV DUP4 GT DUP3 ISZERO ISZERO AND ISZERO PUSH2 0x102F JUMPI PUSH2 0x102E PUSH2 0x11B4 JUMP JUMPDEST JUMPDEST DUP3 DUP3 MUL SWAP1 POP SWAP3 SWAP2 POP POP JUMP JUMPDEST PUSH1 0x0 PUSH2 0x1045 DUP3 PUSH2 0x10E2 JUMP JUMPDEST SWAP2 POP PUSH2 0x1050 DUP4 PUSH2 0x10E2 JUMP JUMPDEST SWAP3 POP DUP3 DUP3 LT ISZERO PUSH2 0x1063 JUMPI PUSH2 0x1062 PUSH2 0x11B4 JUMP JUMPDEST JUMPDEST DUP3 DUP3 SUB SWAP1 POP SWAP3 SWAP2 POP POP JUMP JUMPDEST PUSH1 0x0 PUSH2 0x1079 DUP3 PUSH2 0x10C2 JUMP JUMPDEST SWAP1 POP SWAP2 SWAP1 POP JUMP JUMPDEST PUSH1 0x0 DUP2 ISZERO ISZERO SWAP1 POP SWAP2 SWAP1 POP JUMP JUMPDEST PUSH1 0x0 DUP2 SWAP1 POP SWAP2 SWAP1 POP JUMP JUMPDEST PUSH1 0x0 PUSH32 0xFFFFFFFF00000000000000000000000000000000000000000000000000000000 DUP3 AND SWAP1 POP SWAP2 SWAP1 POP JUMP JUMPDEST PUSH1 0x0 PUSH20 0xFFFFFFFFFFFFFFFFFFFFFFFFFFFFFFFFFFFFFFFF DUP3 AND SWAP1 POP SWAP2 SWAP1 POP JUMP JUMPDEST PUSH1 0x0 DUP2 SWAP1 POP SWAP2 SWAP1 POP JUMP JUMPDEST PUSH1 0x0 PUSH2 0x10F7 DUP3 PUSH2 0x10FE JUMP JUMPDEST SWAP1 POP SWAP2 SWAP1 POP JUMP JUMPDEST PUSH1 0x0 PUSH2 0x1109 DUP3 PUSH2 0x1110 JUMP JUMPDEST SWAP1 POP SWAP2 SWAP1 POP JUMP JUMPDEST PUSH1 0x0 PUSH2 0x111B DUP3 PUSH2 0x10C2 JUMP JUMPDEST SWAP1 POP SWAP2 SWAP1 POP JUMP JUMPDEST PUSH1 0x0 JUMPDEST DUP4 DUP2 LT ISZERO PUSH2 0x1140 JUMPI DUP1 DUP3 ADD MLOAD DUP2 DUP5 ADD MSTORE PUSH1 0x20 DUP2 ADD SWAP1 POP PUSH2 0x1125 JUMP JUMPDEST DUP4 DUP2 GT ISZERO PUSH2 0x114F JUMPI PUSH1 0x0 DUP5 DUP5 ADD MSTORE JUMPDEST POP POP POP POP JUMP JUMPDEST PUSH1 0x0 PUSH2 0x1160 DUP3 PUSH2 0x1167 JUMP JUMPDEST SWAP1 POP SWAP2 SWAP1 POP JUMP JUMPDEST PUSH1 0x0 PUSH2 0x1172 DUP3 PUSH2 0x1228 JUMP JUMPDEST SWAP1 POP SWAP2 SWAP1 POP JUMP JUMPDEST PUSH1 0x0 DUP2 SWAP1 POP SWAP2 SWAP1 POP JUMP JUMPDEST PUSH1 0x0 PUSH2 0x118E DUP3 PUSH2 0x10E2 JUMP JUMPDEST SWAP2 POP PUSH2 0x1199 DUP4 PUSH2 0x10E2 JUMP JUMPDEST SWAP3 POP DUP3 PUSH2 0x11A9 JUMPI PUSH2 0x11A8 PUSH2 0x11E3 JUMP JUMPDEST JUMPDEST DUP3 DUP3 MOD SWAP1 POP SWAP3 SWAP2 POP POP JUMP JUMPDEST PUSH32 0x4E487B7100000000000000000000000000000000000000000000000000000000 PUSH1 0x0 MSTORE PUSH1 0x11 PUSH1 0x4 MSTORE PUSH1 0x24 PUSH1 0x0 REVERT JUMPDEST PUSH32 0x4E487B7100000000000000000000000000000000000000000000000000000000 PUSH1 0x0 MSTORE PUSH1 0x12 PUSH1 0x4 MSTORE PUSH1 0x24 PUSH1 0x0 REVERT JUMPDEST PUSH1 0x0 DUP1 REVERT JUMPDEST PUSH1 0x0 PUSH1 0x1F NOT PUSH1 0x1F DUP4 ADD AND SWAP1 POP SWAP2 SWAP1 POP JUMP JUMPDEST PUSH1 0x0 DUP2 PUSH1 0x60 SHL SWAP1 POP SWAP2 SWAP1 POP JUMP JUMPDEST PUSH1 0x0 DUP2 PUSH1 0x1 SHR SWAP1 POP SWAP2 SWAP1 POP JUMP JUMPDEST PUSH32 0x756E61626C6520746F207472616E73666572416E6443616C6C20746F206F7261 PUSH1 0x0 DUP3 ADD MSTORE PUSH32 0x636C650000000000000000000000000000000000000000000000000000000000 PUSH1 0x20 DUP3 ADD MSTORE POP JUMP JUMPDEST PUSH32 0x536F75726365206D75737420626520746865206F7261636C65206F6620746865 PUSH1 0x0 DUP3 ADD MSTORE PUSH32 0x2072657175657374000000000000000000000000000000000000000000000000 PUSH1 0x20 DUP3 ADD MSTORE POP JUMP JUMPDEST PUSH2 0x12E9 DUP2 PUSH2 0x1080 JUMP JUMPDEST DUP2 EQ PUSH2 0x12F4 JUMPI PUSH1 0x0 DUP1 REVERT JUMPDEST POP JUMP JUMPDEST PUSH2 0x1300 DUP2 PUSH2 0x108C JUMP JUMPDEST DUP2 EQ PUSH2 0x130B JUMPI PUSH1 0x0 DUP1 REVERT JUMPDEST POP JUMP INVALID PUSH28 0x2274223A2262797465733332222C226D223A22676574222C2275223A 0x22 PUSH9 0x747470733A2F2F6170 PUSH10 0x2E747769747465722E63 PUSH16 0x6D2F312E312F73746174757365732F75 PUSH20 0x65725F74696D656C696E652E6A736F6E3F736372 PUSH6 0x656E5F6E616D PUSH6 0x3D656C6F6E6D PUSH22 0x736B26636F756E743D31222C226A223A227265747572 PUSH15 0x20726573706F6E73652E646174615B ADDRESS 0x5D 0x2E PUSH21 0x6578742E7265706C616365285C22405C222C202241 SLOAD 0x22 0x29 0x2E PUSH20 0x6C69636528302C333129222C2272223A22313233 CALLVALUE 0x22 PUSH30 0xA26469706673582212204C574D76C10C483F13E9FFFD739234D52A0FC0D3 CHAINID CODECOPY EXP PUSH8 0x532F25B9A45D7C6D PUSH5 0x736F6C6343 STOP ADDMOD SMOD STOP CALLER "
        },
        "methodIdentifiers": {
          "fulfill(bytes32,bytes32)": "042f2b65",
          "request()": "338cdca1",
          "result()": "65372147"
        }
      }
    }
  }
}