{
  "contracts/AdapterjsTest.sol": {
    "AdapterjsTest": {
      "abi": [
        {
          "inputs": [
            {
              "internalType": "address",
              "name": "linkContractAddress",
              "type": "address"
            }
          ],
          "stateMutability": "nonpayable",
          "type": "constructor"
        },
        {
          "anonymous": false,
          "inputs": [
            {
              "indexed": true,
              "internalType": "bytes32",
              "name": "id",
              "type": "bytes32"
            }
          ],
          "name": "ChainlinkCancelled",
          "type": "event"
        },
        {
          "anonymous": false,
          "inputs": [
            {
              "indexed": true,
              "internalType": "bytes32",
              "name": "id",
              "type": "bytes32"
            }
          ],
          "name": "ChainlinkFulfilled",
          "type": "event"
        },
        {
          "anonymous": false,
          "inputs": [
            {
              "indexed": true,
              "internalType": "bytes32",
              "name": "id",
              "type": "bytes32"
            }
          ],
          "name": "ChainlinkRequested",
          "type": "event"
        },
        {
          "anonymous": false,
          "inputs": [
            {
              "indexed": true,
              "internalType": "string",
              "name": "name",
              "type": "string"
            },
            {
              "indexed": true,
              "internalType": "bool",
              "name": "reply",
              "type": "bool"
            }
          ],
          "name": "boolAdapterReply",
          "type": "event"
        },
        {
          "anonymous": false,
          "inputs": [
            {
              "indexed": true,
              "internalType": "string",
              "name": "name",
              "type": "string"
            },
            {
              "indexed": true,
              "internalType": "bytes32",
              "name": "reply",
              "type": "bytes32"
            }
          ],
          "name": "bytes32AdapterReply",
          "type": "event"
        },
        {
          "anonymous": false,
          "inputs": [
            {
              "indexed": true,
              "internalType": "string",
              "name": "name",
              "type": "string"
            },
            {
              "indexed": true,
              "internalType": "bytes",
              "name": "reply",
              "type": "bytes"
            }
          ],
          "name": "bytesAdapterReply",
          "type": "event"
        },
        {
          "anonymous": false,
          "inputs": [
            {
              "indexed": true,
              "internalType": "string",
              "name": "name",
              "type": "string"
            },
            {
              "indexed": true,
              "internalType": "int256",
              "name": "reply",
              "type": "int256"
            }
          ],
          "name": "intAdapterReply",
          "type": "event"
        },
        {
          "anonymous": false,
          "inputs": [
            {
              "indexed": true,
              "internalType": "string",
              "name": "name",
              "type": "string"
            },
            {
              "indexed": true,
              "internalType": "string",
              "name": "reply",
              "type": "string"
            }
          ],
          "name": "stringAdapterReply",
          "type": "event"
        },
        {
          "anonymous": false,
          "inputs": [
            {
              "indexed": true,
              "internalType": "string",
              "name": "name",
              "type": "string"
            },
            {
              "indexed": true,
              "internalType": "uint256",
              "name": "reply",
              "type": "uint256"
            }
          ],
          "name": "uintAdapterReply",
          "type": "event"
        },
        {
          "inputs": [
            {
              "internalType": "address",
              "name": "_oracle",
              "type": "address"
            },
            {
              "internalType": "string",
              "name": "_jobId",
              "type": "string"
            },
            {
              "internalType": "uint256",
              "name": "_payment",
              "type": "uint256"
            },
            {
              "internalType": "string",
              "name": "_js",
              "type": "string"
            },
            {
              "internalType": "string",
              "name": "_vars",
              "type": "string"
            },
            {
              "internalType": "string",
              "name": "_cid",
              "type": "string"
            },
            {
              "internalType": "string",
              "name": "_ref",
              "type": "string"
            }
          ],
          "name": "boolAdapterCall",
          "outputs": [
            {
              "internalType": "bytes32",
              "name": "requestId",
              "type": "bytes32"
            }
          ],
          "stateMutability": "nonpayable",
          "type": "function"
        },
        {
          "inputs": [],
          "name": "bool_result",
          "outputs": [
            {
              "internalType": "bool",
              "name": "",
              "type": "bool"
            }
          ],
          "stateMutability": "view",
          "type": "function"
        },
        {
          "inputs": [
            {
              "internalType": "address",
              "name": "_oracle",
              "type": "address"
            },
            {
              "internalType": "string",
              "name": "_jobId",
              "type": "string"
            },
            {
              "internalType": "uint256",
              "name": "_payment",
              "type": "uint256"
            },
            {
              "internalType": "string",
              "name": "_js",
              "type": "string"
            },
            {
              "internalType": "string",
              "name": "_vars",
              "type": "string"
            },
            {
              "internalType": "string",
              "name": "_cid",
              "type": "string"
            },
            {
              "internalType": "string",
              "name": "_ref",
              "type": "string"
            }
          ],
          "name": "bytes32AdapterCall",
          "outputs": [
            {
              "internalType": "bytes32",
              "name": "requestId",
              "type": "bytes32"
            }
          ],
          "stateMutability": "nonpayable",
          "type": "function"
        },
        {
          "inputs": [],
          "name": "bytes32_result",
          "outputs": [
            {
              "internalType": "bytes32",
              "name": "",
              "type": "bytes32"
            }
          ],
          "stateMutability": "view",
          "type": "function"
        },
        {
          "inputs": [
            {
              "internalType": "address",
              "name": "_oracle",
              "type": "address"
            },
            {
              "internalType": "string",
              "name": "_jobId",
              "type": "string"
            },
            {
              "internalType": "uint256",
              "name": "_payment",
              "type": "uint256"
            },
            {
              "internalType": "string",
              "name": "_js",
              "type": "string"
            },
            {
              "internalType": "string",
              "name": "_vars",
              "type": "string"
            },
            {
              "internalType": "string",
              "name": "_cid",
              "type": "string"
            },
            {
              "internalType": "string",
              "name": "_ref",
              "type": "string"
            }
          ],
          "name": "bytesAdapterCall",
          "outputs": [
            {
              "internalType": "bytes32",
              "name": "requestId",
              "type": "bytes32"
            }
          ],
          "stateMutability": "nonpayable",
          "type": "function"
        },
        {
          "inputs": [],
          "name": "bytes_result",
          "outputs": [
            {
              "internalType": "bytes",
              "name": "",
              "type": "bytes"
            }
          ],
          "stateMutability": "view",
          "type": "function"
        },
        {
          "inputs": [
            {
              "internalType": "bytes32",
              "name": "_requestId",
              "type": "bytes32"
            },
            {
              "internalType": "bool",
              "name": "_reply",
              "type": "bool"
            }
          ],
          "name": "fulfillBool",
          "outputs": [],
          "stateMutability": "nonpayable",
          "type": "function"
        },
        {
          "inputs": [
            {
              "internalType": "bytes32",
              "name": "_requestId",
              "type": "bytes32"
            },
            {
              "internalType": "bytes",
              "name": "_reply",
              "type": "bytes"
            }
          ],
          "name": "fulfillBytes",
          "outputs": [],
          "stateMutability": "nonpayable",
          "type": "function"
        },
        {
          "inputs": [
            {
              "internalType": "bytes32",
              "name": "_requestId",
              "type": "bytes32"
            },
            {
              "internalType": "bytes32",
              "name": "_reply",
              "type": "bytes32"
            }
          ],
          "name": "fulfillBytes32",
          "outputs": [],
          "stateMutability": "nonpayable",
          "type": "function"
        },
        {
          "inputs": [
            {
              "internalType": "bytes32",
              "name": "_requestId",
              "type": "bytes32"
            },
            {
              "internalType": "int256",
              "name": "_reply",
              "type": "int256"
            }
          ],
          "name": "fulfillInt",
          "outputs": [],
          "stateMutability": "nonpayable",
          "type": "function"
        },
        {
          "inputs": [
            {
              "internalType": "bytes32",
              "name": "_requestId",
              "type": "bytes32"
            },
            {
              "internalType": "string",
              "name": "_reply",
              "type": "string"
            }
          ],
          "name": "fulfillString",
          "outputs": [],
          "stateMutability": "nonpayable",
          "type": "function"
        },
        {
          "inputs": [
            {
              "internalType": "bytes32",
              "name": "_requestId",
              "type": "bytes32"
            },
            {
              "internalType": "uint256",
              "name": "_reply",
              "type": "uint256"
            }
          ],
          "name": "fulfillUint",
          "outputs": [],
          "stateMutability": "nonpayable",
          "type": "function"
        },
        {
          "inputs": [],
          "name": "getInt",
          "outputs": [
            {
              "internalType": "int256",
              "name": "num",
              "type": "int256"
            }
          ],
          "stateMutability": "view",
          "type": "function"
        },
        {
          "inputs": [
            {
              "internalType": "address",
              "name": "_oracle",
              "type": "address"
            },
            {
              "internalType": "string",
              "name": "_jobId",
              "type": "string"
            },
            {
              "internalType": "uint256",
              "name": "_payment",
              "type": "uint256"
            },
            {
              "internalType": "string",
              "name": "_js",
              "type": "string"
            },
            {
              "internalType": "string",
              "name": "_vars",
              "type": "string"
            },
            {
              "internalType": "string",
              "name": "_cid",
              "type": "string"
            },
            {
              "internalType": "string",
              "name": "_ref",
              "type": "string"
            }
          ],
          "name": "intAdapterCall",
          "outputs": [
            {
              "internalType": "bytes32",
              "name": "requestId",
              "type": "bytes32"
            }
          ],
          "stateMutability": "nonpayable",
          "type": "function"
        },
        {
          "inputs": [],
          "name": "int_result",
          "outputs": [
            {
              "internalType": "int256",
              "name": "",
              "type": "int256"
            }
          ],
          "stateMutability": "view",
          "type": "function"
        },
        {
          "inputs": [],
          "name": "js",
          "outputs": [
            {
              "internalType": "string",
              "name": "",
              "type": "string"
            }
          ],
          "stateMutability": "view",
          "type": "function"
        },
        {
          "inputs": [
            {
              "internalType": "address",
              "name": "_oracle",
              "type": "address"
            },
            {
              "internalType": "string",
              "name": "_jobId",
              "type": "string"
            },
            {
              "internalType": "uint256",
              "name": "_payment",
              "type": "uint256"
            },
            {
              "internalType": "string",
              "name": "_js",
              "type": "string"
            },
            {
              "internalType": "string",
              "name": "_vars",
              "type": "string"
            },
            {
              "internalType": "string",
              "name": "_cid",
              "type": "string"
            },
            {
              "internalType": "string",
              "name": "_ref",
              "type": "string"
            }
          ],
          "name": "stringAdapterCall",
          "outputs": [
            {
              "internalType": "bytes32",
              "name": "requestId",
              "type": "bytes32"
            }
          ],
          "stateMutability": "nonpayable",
          "type": "function"
        },
        {
          "inputs": [
            {
              "internalType": "string",
              "name": "source",
              "type": "string"
            }
          ],
          "name": "stringToBytes32",
          "outputs": [
            {
              "internalType": "bytes32",
              "name": "result",
              "type": "bytes32"
            }
          ],
          "stateMutability": "pure",
          "type": "function"
        },
        {
          "inputs": [],
          "name": "string_result",
          "outputs": [
            {
              "internalType": "string",
              "name": "",
              "type": "string"
            }
          ],
          "stateMutability": "view",
          "type": "function"
        },
        {
          "inputs": [
            {
              "internalType": "address",
              "name": "_oracle",
              "type": "address"
            },
            {
              "internalType": "string",
              "name": "_jobId",
              "type": "string"
            },
            {
              "internalType": "uint256",
              "name": "_payment",
              "type": "uint256"
            },
            {
              "internalType": "string",
              "name": "_js",
              "type": "string"
            },
            {
              "internalType": "string",
              "name": "_vars",
              "type": "string"
            },
            {
              "internalType": "string",
              "name": "_cid",
              "type": "string"
            },
            {
              "internalType": "string",
              "name": "_ref",
              "type": "string"
            }
          ],
          "name": "uintAdapterCall",
          "outputs": [
            {
              "internalType": "bytes32",
              "name": "requestId",
              "type": "bytes32"
            }
          ],
          "stateMutability": "nonpayable",
          "type": "function"
        },
        {
          "inputs": [],
          "name": "uint_result",
          "outputs": [
            {
              "internalType": "uint256",
              "name": "",
              "type": "uint256"
            }
          ],
          "stateMutability": "view",
          "type": "function"
        }
      ],
      "evm": {
        "bytecode": {
          "linkReferences": {},
          "object": "608060405260016004553480156200001657600080fd5b50604051620035683803806200356883398181016040528101906200003c919062000102565b6200004d816200005460201b60201c565b5062000134565b80600260006101000a81548173ffffffffffffffffffffffffffffffffffffffff021916908373ffffffffffffffffffffffffffffffffffffffff16021790555050565b600080fd5b600073ffffffffffffffffffffffffffffffffffffffff82169050919050565b6000620000ca826200009d565b9050919050565b620000dc81620000bd565b8114620000e857600080fd5b50565b600081519050620000fc81620000d1565b92915050565b6000602082840312156200011b576200011a62000098565b5b60006200012b84828501620000eb565b91505092915050565b61342480620001446000396000f3fe608060405234801561001057600080fd5b50600436106101375760003560e01c8063922d268b116100b8578063cfb519281161007c578063cfb519281461034e578063d3d8e5281461037e578063d5e6b8221461039c578063d668e1ba146103cc578063edbf55f6146103ea578063ee10c8721461040857610137565b8063922d268b14610286578063a6bdca07146102b6578063a976447f146102d2578063c2fb852314610302578063c36075251461031e57610137565b80634181e55f116100ff5780634181e55f146101ce57806359fc1630146101fe5780635f5567401461021c5780636273899814610238578063668553ce1461025657610137565b80630941dfb31461013c5780631789b906146101585780632ba842881461017657806332146504146101945780633db7fa19146101b0575b600080fd5b6101566004803603810190610151919061226e565b610424565b005b610160610576565b60405161016d91906122c7565b60405180910390f35b61017e61057c565b60405161018b91906122f1565b60405180910390f35b6101ae60048036038101906101a99190612344565b610582565b005b6101b86106e9565b6040516101c5919061241d565b60405180910390f35b6101e860048036038101906101e391906125fe565b610777565b6040516101f591906122f1565b60405180910390f35b610206610906565b6040516102139190612745565b60405180910390f35b61023660048036038101906102319190612760565b61090c565b005b610240610a5e565b60405161024d9190612745565b60405180910390f35b610270600480360381019061026b91906125fe565b610a67565b60405161027d91906122f1565b60405180910390f35b6102a0600480360381019061029b91906125fe565b610bf6565b6040516102ad91906122f1565b60405180910390f35b6102d060048036038101906102cb9190612800565b610d85565b005b6102ec60048036038101906102e791906125fe565b610efa565b6040516102f991906122f1565b60405180910390f35b61031c600480360381019061031791906128b6565b611089565b005b610338600480360381019061033391906125fe565b6111fe565b60405161034591906122f1565b60405180910390f35b61036860048036038101906103639190612916565b6113a4565b60405161037591906122f1565b60405180910390f35b6103866113ce565b60405161039391906129b4565b60405180910390f35b6103b660048036038101906103b191906125fe565b61145c565b6040516103c391906122f1565b60405180910390f35b6103d46115eb565b6040516103e191906129e5565b60405180910390f35b6103f26115fe565b6040516103ff919061241d565b60405180910390f35b610422600480360381019061041d9190612a2c565b61168c565b005b816005600082815260200190815260200160002060009054906101000a900473ffffffffffffffffffffffffffffffffffffffff1673ffffffffffffffffffffffffffffffffffffffff163373ffffffffffffffffffffffffffffffffffffffff16146104c6576040517f08c379a00000000000000000000000000000000000000000000000000000000081526004016104bd90612ade565b60405180910390fd5b6005600082815260200190815260200160002060006101000a81549073ffffffffffffffffffffffffffffffffffffffff0219169055807f7cc135e0cebb02c3480ae5d74d377283180a2601f8f644edf7987b009316c63a60405160405180910390a2816009819055508160405161053d90612b55565b60405180910390207fdbb7bea395204da325e836f2375f392081152b224349387309f865df9c19ce2c60405160405180910390a3505050565b60075481565b60095481565b816005600082815260200190815260200160002060009054906101000a900473ffffffffffffffffffffffffffffffffffffffff1673ffffffffffffffffffffffffffffffffffffffff163373ffffffffffffffffffffffffffffffffffffffff1614610624576040517f08c379a000000000000000000000000000000000000000000000000000000000815260040161061b90612ade565b60405180910390fd5b6005600082815260200190815260200160002060006101000a81549073ffffffffffffffffffffffffffffffffffffffff0219169055807f7cc135e0cebb02c3480ae5d74d377283180a2601f8f644edf7987b009316c63a60405160405180910390a281600660006101000a81548160ff0219169083151502179055508115156040516106b090612bb6565b60405180910390207f622c782522db5098e0f79fccd5c2b5b18a9717cdb1eb12934e4b1beb3b25537760405160405180910390a3505050565b600a80546106f690612bfa565b80601f016020809104026020016040519081016040528092919081815260200182805461072290612bfa565b801561076f5780601f106107445761010080835404028352916020019161076f565b820191906000526020600020905b81548152906001019060200180831161075257829003601f168201915b505050505081565b6000610781611fee565b61079b61078d896113a4565b3063c2fb852360e01b6117de565b905060008651146107f1576107f06040518060400160405280600281526020017f6a73000000000000000000000000000000000000000000000000000000000000815250878361180f9092919063ffffffff16565b5b6000855114610845576108446040518060400160405280600481526020017f7661727300000000000000000000000000000000000000000000000000000000815250868361180f9092919063ffffffff16565b5b6000845114610899576108986040518060400160405280600381526020017f6369640000000000000000000000000000000000000000000000000000000000815250858361180f9092919063ffffffff16565b5b60008351146108ed576108ec6040518060400160405280600381526020017f7265660000000000000000000000000000000000000000000000000000000000815250848361180f9092919063ffffffff16565b5b6108f8898289611842565b915050979650505050505050565b60085481565b816005600082815260200190815260200160002060009054906101000a900473ffffffffffffffffffffffffffffffffffffffff1673ffffffffffffffffffffffffffffffffffffffff163373ffffffffffffffffffffffffffffffffffffffff16146109ae576040517f08c379a00000000000000000000000000000000000000000000000000000000081526004016109a590612ade565b60405180910390fd5b6005600082815260200190815260200160002060006101000a81549073ffffffffffffffffffffffffffffffffffffffff0219169055807f7cc135e0cebb02c3480ae5d74d377283180a2601f8f644edf7987b009316c63a60405160405180910390a28160078190555081604051610a2590612c78565b60405180910390207fc85ac0b7e112a94ead461f1ace17d4adf80203281175a827c146e3b526148dd460405160405180910390a3505050565b60006005905090565b6000610a71611fee565b610a8b610a7d896113a4565b30630941dfb360e01b6117de565b90506000865114610ae157610ae06040518060400160405280600281526020017f6a73000000000000000000000000000000000000000000000000000000000000815250878361180f9092919063ffffffff16565b5b6000855114610b3557610b346040518060400160405280600481526020017f7661727300000000000000000000000000000000000000000000000000000000815250868361180f9092919063ffffffff16565b5b6000845114610b8957610b886040518060400160405280600381526020017f6369640000000000000000000000000000000000000000000000000000000000815250858361180f9092919063ffffffff16565b5b6000835114610bdd57610bdc6040518060400160405280600381526020017f7265660000000000000000000000000000000000000000000000000000000000815250848361180f9092919063ffffffff16565b5b610be8898289611842565b915050979650505050505050565b6000610c00611fee565b610c1a610c0c896113a4565b3063ee10c87260e01b6117de565b90506000865114610c7057610c6f6040518060400160405280600281526020017f6a73000000000000000000000000000000000000000000000000000000000000815250878361180f9092919063ffffffff16565b5b6000855114610cc457610cc36040518060400160405280600481526020017f7661727300000000000000000000000000000000000000000000000000000000815250868361180f9092919063ffffffff16565b5b6000845114610d1857610d176040518060400160405280600381526020017f6369640000000000000000000000000000000000000000000000000000000000815250858361180f9092919063ffffffff16565b5b6000835114610d6c57610d6b6040518060400160405280600381526020017f7265660000000000000000000000000000000000000000000000000000000000815250848361180f9092919063ffffffff16565b5b610d77898289611842565b915050979650505050505050565b826005600082815260200190815260200160002060009054906101000a900473ffffffffffffffffffffffffffffffffffffffff1673ffffffffffffffffffffffffffffffffffffffff163373ffffffffffffffffffffffffffffffffffffffff1614610e27576040517f08c379a0000000000000000000000000000000000000000000000000000000008152600401610e1e90612ade565b60405180910390fd5b6005600082815260200190815260200160002060006101000a81549073ffffffffffffffffffffffffffffffffffffffff0219169055807f7cc135e0cebb02c3480ae5d74d377283180a2601f8f644edf7987b009316c63a60405160405180910390a28282600a9190610e9b92919061205b565b508282604051610eac929190612cb2565b6040518091039020604051610ec090612d17565b60405180910390207f29d3211c98a410378b4a89f05d787a15bdc4e2cae81674329609bb50d3bc592660405160405180910390a350505050565b6000610f04611fee565b610f1e610f10896113a4565b30635f55674060e01b6117de565b90506000865114610f7457610f736040518060400160405280600281526020017f6a73000000000000000000000000000000000000000000000000000000000000815250878361180f9092919063ffffffff16565b5b6000855114610fc857610fc76040518060400160405280600481526020017f7661727300000000000000000000000000000000000000000000000000000000815250868361180f9092919063ffffffff16565b5b600084511461101c5761101b6040518060400160405280600381526020017f6369640000000000000000000000000000000000000000000000000000000000815250858361180f9092919063ffffffff16565b5b60008351146110705761106f6040518060400160405280600381526020017f7265660000000000000000000000000000000000000000000000000000000000815250848361180f9092919063ffffffff16565b5b61107b898289611842565b915050979650505050505050565b826005600082815260200190815260200160002060009054906101000a900473ffffffffffffffffffffffffffffffffffffffff1673ffffffffffffffffffffffffffffffffffffffff163373ffffffffffffffffffffffffffffffffffffffff161461112b576040517f08c379a000000000000000000000000000000000000000000000000000000000815260040161112290612ade565b60405180910390fd5b6005600082815260200190815260200160002060006101000a81549073ffffffffffffffffffffffffffffffffffffffff0219169055807f7cc135e0cebb02c3480ae5d74d377283180a2601f8f644edf7987b009316c63a60405160405180910390a28282600b919061119f9291906120e1565b5082826040516111b0929190612d5c565b60405180910390206040516111c490612dc1565b60405180910390207f5d154487576b6364837e16be9c9b149c65176be29bb2cef4d5dc4f54a406d02f60405160405180910390a350505050565b6000611208611fee565b611222611214896113a4565b30633214650460e01b6117de565b905085600c908051906020019061123a929190612167565b50600086511461128f5761128e6040518060400160405280600281526020017f6a73000000000000000000000000000000000000000000000000000000000000815250878361180f9092919063ffffffff16565b5b60008551146112e3576112e26040518060400160405280600481526020017f7661727300000000000000000000000000000000000000000000000000000000815250868361180f9092919063ffffffff16565b5b6000845114611337576113366040518060400160405280600381526020017f6369640000000000000000000000000000000000000000000000000000000000815250858361180f9092919063ffffffff16565b5b600083511461138b5761138a6040518060400160405280600381526020017f7265660000000000000000000000000000000000000000000000000000000000815250848361180f9092919063ffffffff16565b5b611396898289611842565b915050979650505050505050565b6000808290506000815114156113c0576000801b9150506113c9565b60208301519150505b919050565b600b80546113db90612bfa565b80601f016020809104026020016040519081016040528092919081815260200182805461140790612bfa565b80156114545780601f1061142957610100808354040283529160200191611454565b820191906000526020600020905b81548152906001019060200180831161143757829003601f168201915b505050505081565b6000611466611fee565b611480611472896113a4565b3063a6bdca0760e01b6117de565b905060008651146114d6576114d56040518060400160405280600281526020017f6a73000000000000000000000000000000000000000000000000000000000000815250878361180f9092919063ffffffff16565b5b600085511461152a576115296040518060400160405280600481526020017f7661727300000000000000000000000000000000000000000000000000000000815250868361180f9092919063ffffffff16565b5b600084511461157e5761157d6040518060400160405280600381526020017f6369640000000000000000000000000000000000000000000000000000000000815250858361180f9092919063ffffffff16565b5b60008351146115d2576115d16040518060400160405280600381526020017f7265660000000000000000000000000000000000000000000000000000000000815250848361180f9092919063ffffffff16565b5b6115dd898289611842565b915050979650505050505050565b600660009054906101000a900460ff1681565b600c805461160b90612bfa565b80601f016020809104026020016040519081016040528092919081815260200182805461163790612bfa565b80156116845780601f1061165957610100808354040283529160200191611684565b820191906000526020600020905b81548152906001019060200180831161166757829003601f168201915b505050505081565b816005600082815260200190815260200160002060009054906101000a900473ffffffffffffffffffffffffffffffffffffffff1673ffffffffffffffffffffffffffffffffffffffff163373ffffffffffffffffffffffffffffffffffffffff161461172e576040517f08c379a000000000000000000000000000000000000000000000000000000000815260040161172590612ade565b60405180910390fd5b6005600082815260200190815260200160002060006101000a81549073ffffffffffffffffffffffffffffffffffffffff0219169055807f7cc135e0cebb02c3480ae5d74d377283180a2601f8f644edf7987b009316c63a60405160405180910390a281600881905550816040516117a590612e22565b60405180910390207faecc35363fecbe45fe234ddc41096c0d5b5083d52a2b193f5b59e8837b4f1bcc60405160405180910390a3505050565b6117e6611fee565b6117ee611fee565b6118058585858461190e909392919063ffffffff16565b9150509392505050565b6118268284608001516119be90919063ffffffff16565b61183d8184608001516119be90919063ffffffff16565b505050565b60008060045490506001816118579190612e66565b6004819055506000634042994660e01b60008087600001513089604001518760018c6080015160000151604051602401611898989796959493929190612f06565b604051602081830303815290604052907bffffffffffffffffffffffffffffffffffffffffffffffffffffffff19166020820180517bffffffffffffffffffffffffffffffffffffffffffffffffffffffff83818316178352505050509050611903868386846119e3565b925050509392505050565b611916611fee565b6119268560800151610100611b87565b508385600001818152505082856020019073ffffffffffffffffffffffffffffffffffffffff16908173ffffffffffffffffffffffffffffffffffffffff16815250508185604001907bffffffffffffffffffffffffffffffffffffffffffffffffffffffff191690817bffffffffffffffffffffffffffffffffffffffffffffffffffffffff191681525050849050949350505050565b6119cb8260038351611bf1565b6119de8183611d7690919063ffffffff16565b505050565b600030846040516020016119f8929190613044565b604051602081830303815290604052805190602001209050846005600083815260200190815260200160002060006101000a81548173ffffffffffffffffffffffffffffffffffffffff021916908373ffffffffffffffffffffffffffffffffffffffff160217905550807fb5e6e01e79f91267dc17b4e6314d5d4d03593d2ceee0fbb452b750bd70ea5af960405160405180910390a2600260009054906101000a900473ffffffffffffffffffffffffffffffffffffffff1673ffffffffffffffffffffffffffffffffffffffff16634000aea08685856040518463ffffffff1660e01b8152600401611aee93929190613070565b602060405180830381600087803b158015611b0857600080fd5b505af1158015611b1c573d6000803e3d6000fd5b505050506040513d601f19601f82011682018060405250810190611b4091906130c3565b611b7f576040517f08c379a0000000000000000000000000000000000000000000000000000000008152600401611b7690613162565b60405180910390fd5b949350505050565b611b8f6121ed565b6000602083611b9e91906131b1565b14611bca57602082611bb091906131b1565b6020611bbc91906131e2565b82611bc79190612e66565b91505b81836020018181525050604051808452600081528281016020016040525082905092915050565b60178167ffffffffffffffff1611611c2857611c228160058460ff16901b60ff161784611d9890919063ffffffff16565b50611d71565b60ff8167ffffffffffffffff1611611c7e57611c57601860058460ff16901b1784611d9890919063ffffffff16565b50611c788167ffffffffffffffff16600185611db89092919063ffffffff16565b50611d70565b61ffff8167ffffffffffffffff1611611cd557611cae601960058460ff16901b1784611d9890919063ffffffff16565b50611ccf8167ffffffffffffffff16600285611db89092919063ffffffff16565b50611d6f565b63ffffffff8167ffffffffffffffff1611611d2e57611d07601a60058460ff16901b1784611d9890919063ffffffff16565b50611d288167ffffffffffffffff16600485611db89092919063ffffffff16565b50611d6e565b611d4b601b60058460ff16901b1784611d9890919063ffffffff16565b50611d6c8167ffffffffffffffff16600885611db89092919063ffffffff16565b505b5b5b5b505050565b611d7e6121ed565b611d9083846000015151848551611dda565b905092915050565b611da06121ed565b611db08384600001515184611ec9565b905092915050565b611dc06121ed565b611dd1848560000151518585611f20565b90509392505050565b611de26121ed565b8251821115611df057600080fd5b84602001518285611e019190612e66565b1115611e3657611e35856002611e2688602001518887611e219190612e66565b611fae565b611e309190613216565b611fca565b5b600080865180518760208301019350808887011115611e555787860182525b60208701925050505b60208410611e9c5780518252602082611e779190612e66565b9150602081611e869190612e66565b9050602084611e9591906131e2565b9350611e5e565b60006001856020036101000a03905080198251168184511681811785525050508692505050949350505050565b611ed16121ed565b83602001518310611ef757611ef68460028660200151611ef19190613216565b611fca565b5b8351805160208583010184815381861415611f13576001820183525b5050508390509392505050565b611f286121ed565b84602001518483611f399190612e66565b1115611f6157611f608560028685611f519190612e66565b611f5b9190613216565b611fca565b5b6000600183610100611f7391906133a3565b611f7d91906131e2565b90508551838682010185831982511617815281518588011115611fa05784870182525b505085915050949350505050565b600081831115611fc057829050611fc4565b8190505b92915050565b600082600001519050611fdd8383611b87565b50611fe88382611d76565b50505050565b6040518060a0016040528060008019168152602001600073ffffffffffffffffffffffffffffffffffffffff16815260200160007bffffffffffffffffffffffffffffffffffffffffffffffffffffffff19168152602001600081526020016120556121ed565b81525090565b82805461206790612bfa565b90600052602060002090601f01602090048101928261208957600085556120d0565b82601f106120a257803560ff19168380011785556120d0565b828001600101855582156120d0579182015b828111156120cf5782358255916020019190600101906120b4565b5b5090506120dd9190612207565b5090565b8280546120ed90612bfa565b90600052602060002090601f01602090048101928261210f5760008555612156565b82601f1061212857803560ff1916838001178555612156565b82800160010185558215612156579182015b8281111561215557823582559160200191906001019061213a565b5b5090506121639190612207565b5090565b82805461217390612bfa565b90600052602060002090601f01602090048101928261219557600085556121dc565b82601f106121ae57805160ff19168380011785556121dc565b828001600101855582156121dc579182015b828111156121db5782518255916020019190600101906121c0565b5b5090506121e99190612207565b5090565b604051806040016040528060608152602001600081525090565b5b80821115612220576000816000905550600101612208565b5090565b6000604051905090565b600080fd5b600080fd5b6000819050919050565b61224b81612238565b811461225657600080fd5b50565b60008135905061226881612242565b92915050565b600080604083850312156122855761228461222e565b5b600061229385828601612259565b92505060206122a485828601612259565b9150509250929050565b6000819050919050565b6122c1816122ae565b82525050565b60006020820190506122dc60008301846122b8565b92915050565b6122eb81612238565b82525050565b600060208201905061230660008301846122e2565b92915050565b60008115159050919050565b6123218161230c565b811461232c57600080fd5b50565b60008135905061233e81612318565b92915050565b6000806040838503121561235b5761235a61222e565b5b600061236985828601612259565b925050602061237a8582860161232f565b9150509250929050565b600081519050919050565b600082825260208201905092915050565b60005b838110156123be5780820151818401526020810190506123a3565b838111156123cd576000848401525b50505050565b6000601f19601f8301169050919050565b60006123ef82612384565b6123f9818561238f565b93506124098185602086016123a0565b612412816123d3565b840191505092915050565b6000602082019050818103600083015261243781846123e4565b905092915050565b600073ffffffffffffffffffffffffffffffffffffffff82169050919050565b600061246a8261243f565b9050919050565b61247a8161245f565b811461248557600080fd5b50565b60008135905061249781612471565b92915050565b600080fd5b600080fd5b7f4e487b7100000000000000000000000000000000000000000000000000000000600052604160045260246000fd5b6124df826123d3565b810181811067ffffffffffffffff821117156124fe576124fd6124a7565b5b80604052505050565b6000612511612224565b905061251d82826124d6565b919050565b600067ffffffffffffffff82111561253d5761253c6124a7565b5b612546826123d3565b9050602081019050919050565b82818337600083830152505050565b600061257561257084612522565b612507565b905082815260208101848484011115612591576125906124a2565b5b61259c848285612553565b509392505050565b600082601f8301126125b9576125b861249d565b5b81356125c9848260208601612562565b91505092915050565b6125db816122ae565b81146125e657600080fd5b50565b6000813590506125f8816125d2565b92915050565b600080600080600080600060e0888a03121561261d5761261c61222e565b5b600061262b8a828b01612488565b975050602088013567ffffffffffffffff81111561264c5761264b612233565b5b6126588a828b016125a4565b96505060406126698a828b016125e9565b955050606088013567ffffffffffffffff81111561268a57612689612233565b5b6126968a828b016125a4565b945050608088013567ffffffffffffffff8111156126b7576126b6612233565b5b6126c38a828b016125a4565b93505060a088013567ffffffffffffffff8111156126e4576126e3612233565b5b6126f08a828b016125a4565b92505060c088013567ffffffffffffffff81111561271157612710612233565b5b61271d8a828b016125a4565b91505092959891949750929550565b6000819050919050565b61273f8161272c565b82525050565b600060208201905061275a6000830184612736565b92915050565b600080604083850312156127775761277661222e565b5b600061278585828601612259565b9250506020612796858286016125e9565b9150509250929050565b600080fd5b600080fd5b60008083601f8401126127c0576127bf61249d565b5b8235905067ffffffffffffffff8111156127dd576127dc6127a0565b5b6020830191508360018202830111156127f9576127f86127a5565b5b9250929050565b6000806000604084860312156128195761281861222e565b5b600061282786828701612259565b935050602084013567ffffffffffffffff81111561284857612847612233565b5b612854868287016127aa565b92509250509250925092565b60008083601f8401126128765761287561249d565b5b8235905067ffffffffffffffff811115612893576128926127a0565b5b6020830191508360018202830111156128af576128ae6127a5565b5b9250929050565b6000806000604084860312156128cf576128ce61222e565b5b60006128dd86828701612259565b935050602084013567ffffffffffffffff8111156128fe576128fd612233565b5b61290a86828701612860565b92509250509250925092565b60006020828403121561292c5761292b61222e565b5b600082013567ffffffffffffffff81111561294a57612949612233565b5b612956848285016125a4565b91505092915050565b600081519050919050565b600082825260208201905092915050565b60006129868261295f565b612990818561296a565b93506129a08185602086016123a0565b6129a9816123d3565b840191505092915050565b600060208201905081810360008301526129ce818461297b565b905092915050565b6129df8161230c565b82525050565b60006020820190506129fa60008301846129d6565b92915050565b612a098161272c565b8114612a1457600080fd5b50565b600081359050612a2681612a00565b92915050565b60008060408385031215612a4357612a4261222e565b5b6000612a5185828601612259565b9250506020612a6285828601612a17565b9150509250929050565b7f536f75726365206d75737420626520746865206f7261636c65206f662074686560008201527f2072657175657374000000000000000000000000000000000000000000000000602082015250565b6000612ac860288361238f565b9150612ad382612a6c565b604082019050919050565b60006020820190508181036000830152612af781612abb565b9050919050565b600081905092915050565b7f436861696e6c696e6b206e6f64652072657475726e6564206279746573333200600082015250565b6000612b3f601f83612afe565b9150612b4a82612b09565b601f82019050919050565b6000612b6082612b32565b9150819050919050565b7f436861696e6c696e6b206e6f64652072657475726e6564206120626f6f6c0000600082015250565b6000612ba0601e83612afe565b9150612bab82612b6a565b601e82019050919050565b6000612bc182612b93565b9150819050919050565b7f4e487b7100000000000000000000000000000000000000000000000000000000600052602260045260246000fd5b60006002820490506001821680612c1257607f821691505b60208210811415612c2657612c25612bcb565b5b50919050565b7f436861696e6c696e6b206e6f64652072657475726e656420612075696e740000600082015250565b6000612c62601e83612afe565b9150612c6d82612c2c565b601e82019050919050565b6000612c8382612c55565b9150819050919050565b6000612c998385612afe565b9350612ca6838584612553565b82840190509392505050565b6000612cbf828486612c8d565b91508190509392505050565b7f436861696e6c696e6b206e6f64652072657475726e6564206120737472696e67600082015250565b6000612d01602083612afe565b9150612d0c82612ccb565b602082019050919050565b6000612d2282612cf4565b9150819050919050565b600081905092915050565b6000612d438385612d2c565b9350612d50838584612553565b82840190509392505050565b6000612d69828486612d37565b91508190509392505050565b7f436861696e6c696e6b206e6f64652072657475726e6564206279746573000000600082015250565b6000612dab601d83612afe565b9150612db682612d75565b601d82019050919050565b6000612dcc82612d9e565b9150819050919050565b7f436861696e6c696e6b206e6f64652072657475726e656420616e20696e740000600082015250565b6000612e0c601e83612afe565b9150612e1782612dd6565b601e82019050919050565b6000612e2d82612dff565b9150819050919050565b7f4e487b7100000000000000000000000000000000000000000000000000000000600052601160045260246000fd5b6000612e71826122ae565b9150612e7c836122ae565b9250827fffffffffffffffffffffffffffffffffffffffffffffffffffffffffffffffff03821115612eb157612eb0612e37565b5b828201905092915050565b612ec58161245f565b82525050565b60007fffffffff0000000000000000000000000000000000000000000000000000000082169050919050565b612f0081612ecb565b82525050565b600061010082019050612f1c600083018b612ebc565b612f29602083018a6122b8565b612f3660408301896122e2565b612f436060830188612ebc565b612f506080830187612ef7565b612f5d60a08301866122b8565b612f6a60c08301856122b8565b81810360e0830152612f7c818461297b565b90509998505050505050505050565b6000819050919050565b6000612fb0612fab612fa68461243f565b612f8b565b61243f565b9050919050565b6000612fc282612f95565b9050919050565b6000612fd482612fb7565b9050919050565b60008160601b9050919050565b6000612ff382612fdb565b9050919050565b600061300582612fe8565b9050919050565b61301d61301882612fc9565b612ffa565b82525050565b6000819050919050565b61303e613039826122ae565b613023565b82525050565b6000613050828561300c565b601482019150613060828461302d565b6020820191508190509392505050565b60006060820190506130856000830186612ebc565b61309260208301856122b8565b81810360408301526130a4818461297b565b9050949350505050565b6000815190506130bd81612318565b92915050565b6000602082840312156130d9576130d861222e565b5b60006130e7848285016130ae565b91505092915050565b7f756e61626c6520746f207472616e73666572416e6443616c6c20746f206f726160008201527f636c650000000000000000000000000000000000000000000000000000000000602082015250565b600061314c60238361238f565b9150613157826130f0565b604082019050919050565b6000602082019050818103600083015261317b8161313f565b9050919050565b7f4e487b7100000000000000000000000000000000000000000000000000000000600052601260045260246000fd5b60006131bc826122ae565b91506131c7836122ae565b9250826131d7576131d6613182565b5b828206905092915050565b60006131ed826122ae565b91506131f8836122ae565b92508282101561320b5761320a612e37565b5b828203905092915050565b6000613221826122ae565b915061322c836122ae565b9250817fffffffffffffffffffffffffffffffffffffffffffffffffffffffffffffffff048311821515161561326557613264612e37565b5b828202905092915050565b60008160011c9050919050565b6000808291508390505b60018511156132c7578086048111156132a3576132a2612e37565b5b60018516156132b25780820291505b80810290506132c085613270565b9450613287565b94509492505050565b6000826132e0576001905061339c565b816132ee576000905061339c565b8160018114613304576002811461330e5761333d565b600191505061339c565b60ff8411156133205761331f612e37565b5b8360020a91508482111561333757613336612e37565b5b5061339c565b5060208310610133831016604e8410600b84101617156133725782820a90508381111561336d5761336c612e37565b5b61339c565b61337f848484600161327d565b9250905081840481111561339657613395612e37565b5b81810290505b9392505050565b60006133ae826122ae565b91506133b9836122ae565b92506133e67fffffffffffffffffffffffffffffffffffffffffffffffffffffffffffffffff84846132d0565b90509291505056fea264697066735822122047b52d3d87773244a8ed30884ea819c9d94dfaddc0c8aedd2af821c88e5388ec64736f6c63430008090033",
          "opcodes": "PUSH1 0x80 PUSH1 0x40 MSTORE PUSH1 0x1 PUSH1 0x4 SSTORE CALLVALUE DUP1 ISZERO PUSH3 0x16 JUMPI PUSH1 0x0 DUP1 REVERT JUMPDEST POP PUSH1 0x40 MLOAD PUSH3 0x3568 CODESIZE SUB DUP1 PUSH3 0x3568 DUP4 CODECOPY DUP2 DUP2 ADD PUSH1 0x40 MSTORE DUP2 ADD SWAP1 PUSH3 0x3C SWAP2 SWAP1 PUSH3 0x102 JUMP JUMPDEST PUSH3 0x4D DUP2 PUSH3 0x54 PUSH1 0x20 SHL PUSH1 0x20 SHR JUMP JUMPDEST POP PUSH3 0x134 JUMP JUMPDEST DUP1 PUSH1 0x2 PUSH1 0x0 PUSH2 0x100 EXP DUP2 SLOAD DUP2 PUSH20 0xFFFFFFFFFFFFFFFFFFFFFFFFFFFFFFFFFFFFFFFF MUL NOT AND SWAP1 DUP4 PUSH20 0xFFFFFFFFFFFFFFFFFFFFFFFFFFFFFFFFFFFFFFFF AND MUL OR SWAP1 SSTORE POP POP JUMP JUMPDEST PUSH1 0x0 DUP1 REVERT JUMPDEST PUSH1 0x0 PUSH20 0xFFFFFFFFFFFFFFFFFFFFFFFFFFFFFFFFFFFFFFFF DUP3 AND SWAP1 POP SWAP2 SWAP1 POP JUMP JUMPDEST PUSH1 0x0 PUSH3 0xCA DUP3 PUSH3 0x9D JUMP JUMPDEST SWAP1 POP SWAP2 SWAP1 POP JUMP JUMPDEST PUSH3 0xDC DUP2 PUSH3 0xBD JUMP JUMPDEST DUP2 EQ PUSH3 0xE8 JUMPI PUSH1 0x0 DUP1 REVERT JUMPDEST POP JUMP JUMPDEST PUSH1 0x0 DUP2 MLOAD SWAP1 POP PUSH3 0xFC DUP2 PUSH3 0xD1 JUMP JUMPDEST SWAP3 SWAP2 POP POP JUMP JUMPDEST PUSH1 0x0 PUSH1 0x20 DUP3 DUP5 SUB SLT ISZERO PUSH3 0x11B JUMPI PUSH3 0x11A PUSH3 0x98 JUMP JUMPDEST JUMPDEST PUSH1 0x0 PUSH3 0x12B DUP5 DUP3 DUP6 ADD PUSH3 0xEB JUMP JUMPDEST SWAP2 POP POP SWAP3 SWAP2 POP POP JUMP JUMPDEST PUSH2 0x3424 DUP1 PUSH3 0x144 PUSH1 0x0 CODECOPY PUSH1 0x0 RETURN INVALID PUSH1 0x80 PUSH1 0x40 MSTORE CALLVALUE DUP1 ISZERO PUSH2 0x10 JUMPI PUSH1 0x0 DUP1 REVERT JUMPDEST POP PUSH1 0x4 CALLDATASIZE LT PUSH2 0x137 JUMPI PUSH1 0x0 CALLDATALOAD PUSH1 0xE0 SHR DUP1 PUSH4 0x922D268B GT PUSH2 0xB8 JUMPI DUP1 PUSH4 0xCFB51928 GT PUSH2 0x7C JUMPI DUP1 PUSH4 0xCFB51928 EQ PUSH2 0x34E JUMPI DUP1 PUSH4 0xD3D8E528 EQ PUSH2 0x37E JUMPI DUP1 PUSH4 0xD5E6B822 EQ PUSH2 0x39C JUMPI DUP1 PUSH4 0xD668E1BA EQ PUSH2 0x3CC JUMPI DUP1 PUSH4 0xEDBF55F6 EQ PUSH2 0x3EA JUMPI DUP1 PUSH4 0xEE10C872 EQ PUSH2 0x408 JUMPI PUSH2 0x137 JUMP JUMPDEST DUP1 PUSH4 0x922D268B EQ PUSH2 0x286 JUMPI DUP1 PUSH4 0xA6BDCA07 EQ PUSH2 0x2B6 JUMPI DUP1 PUSH4 0xA976447F EQ PUSH2 0x2D2 JUMPI DUP1 PUSH4 0xC2FB8523 EQ PUSH2 0x302 JUMPI DUP1 PUSH4 0xC3607525 EQ PUSH2 0x31E JUMPI PUSH2 0x137 JUMP JUMPDEST DUP1 PUSH4 0x4181E55F GT PUSH2 0xFF JUMPI DUP1 PUSH4 0x4181E55F EQ PUSH2 0x1CE JUMPI DUP1 PUSH4 0x59FC1630 EQ PUSH2 0x1FE JUMPI DUP1 PUSH4 0x5F556740 EQ PUSH2 0x21C JUMPI DUP1 PUSH4 0x62738998 EQ PUSH2 0x238 JUMPI DUP1 PUSH4 0x668553CE EQ PUSH2 0x256 JUMPI PUSH2 0x137 JUMP JUMPDEST DUP1 PUSH4 0x941DFB3 EQ PUSH2 0x13C JUMPI DUP1 PUSH4 0x1789B906 EQ PUSH2 0x158 JUMPI DUP1 PUSH4 0x2BA84288 EQ PUSH2 0x176 JUMPI DUP1 PUSH4 0x32146504 EQ PUSH2 0x194 JUMPI DUP1 PUSH4 0x3DB7FA19 EQ PUSH2 0x1B0 JUMPI JUMPDEST PUSH1 0x0 DUP1 REVERT JUMPDEST PUSH2 0x156 PUSH1 0x4 DUP1 CALLDATASIZE SUB DUP2 ADD SWAP1 PUSH2 0x151 SWAP2 SWAP1 PUSH2 0x226E JUMP JUMPDEST PUSH2 0x424 JUMP JUMPDEST STOP JUMPDEST PUSH2 0x160 PUSH2 0x576 JUMP JUMPDEST PUSH1 0x40 MLOAD PUSH2 0x16D SWAP2 SWAP1 PUSH2 0x22C7 JUMP JUMPDEST PUSH1 0x40 MLOAD DUP1 SWAP2 SUB SWAP1 RETURN JUMPDEST PUSH2 0x17E PUSH2 0x57C JUMP JUMPDEST PUSH1 0x40 MLOAD PUSH2 0x18B SWAP2 SWAP1 PUSH2 0x22F1 JUMP JUMPDEST PUSH1 0x40 MLOAD DUP1 SWAP2 SUB SWAP1 RETURN JUMPDEST PUSH2 0x1AE PUSH1 0x4 DUP1 CALLDATASIZE SUB DUP2 ADD SWAP1 PUSH2 0x1A9 SWAP2 SWAP1 PUSH2 0x2344 JUMP JUMPDEST PUSH2 0x582 JUMP JUMPDEST STOP JUMPDEST PUSH2 0x1B8 PUSH2 0x6E9 JUMP JUMPDEST PUSH1 0x40 MLOAD PUSH2 0x1C5 SWAP2 SWAP1 PUSH2 0x241D JUMP JUMPDEST PUSH1 0x40 MLOAD DUP1 SWAP2 SUB SWAP1 RETURN JUMPDEST PUSH2 0x1E8 PUSH1 0x4 DUP1 CALLDATASIZE SUB DUP2 ADD SWAP1 PUSH2 0x1E3 SWAP2 SWAP1 PUSH2 0x25FE JUMP JUMPDEST PUSH2 0x777 JUMP JUMPDEST PUSH1 0x40 MLOAD PUSH2 0x1F5 SWAP2 SWAP1 PUSH2 0x22F1 JUMP JUMPDEST PUSH1 0x40 MLOAD DUP1 SWAP2 SUB SWAP1 RETURN JUMPDEST PUSH2 0x206 PUSH2 0x906 JUMP JUMPDEST PUSH1 0x40 MLOAD PUSH2 0x213 SWAP2 SWAP1 PUSH2 0x2745 JUMP JUMPDEST PUSH1 0x40 MLOAD DUP1 SWAP2 SUB SWAP1 RETURN JUMPDEST PUSH2 0x236 PUSH1 0x4 DUP1 CALLDATASIZE SUB DUP2 ADD SWAP1 PUSH2 0x231 SWAP2 SWAP1 PUSH2 0x2760 JUMP JUMPDEST PUSH2 0x90C JUMP JUMPDEST STOP JUMPDEST PUSH2 0x240 PUSH2 0xA5E JUMP JUMPDEST PUSH1 0x40 MLOAD PUSH2 0x24D SWAP2 SWAP1 PUSH2 0x2745 JUMP JUMPDEST PUSH1 0x40 MLOAD DUP1 SWAP2 SUB SWAP1 RETURN JUMPDEST PUSH2 0x270 PUSH1 0x4 DUP1 CALLDATASIZE SUB DUP2 ADD SWAP1 PUSH2 0x26B SWAP2 SWAP1 PUSH2 0x25FE JUMP JUMPDEST PUSH2 0xA67 JUMP JUMPDEST PUSH1 0x40 MLOAD PUSH2 0x27D SWAP2 SWAP1 PUSH2 0x22F1 JUMP JUMPDEST PUSH1 0x40 MLOAD DUP1 SWAP2 SUB SWAP1 RETURN JUMPDEST PUSH2 0x2A0 PUSH1 0x4 DUP1 CALLDATASIZE SUB DUP2 ADD SWAP1 PUSH2 0x29B SWAP2 SWAP1 PUSH2 0x25FE JUMP JUMPDEST PUSH2 0xBF6 JUMP JUMPDEST PUSH1 0x40 MLOAD PUSH2 0x2AD SWAP2 SWAP1 PUSH2 0x22F1 JUMP JUMPDEST PUSH1 0x40 MLOAD DUP1 SWAP2 SUB SWAP1 RETURN JUMPDEST PUSH2 0x2D0 PUSH1 0x4 DUP1 CALLDATASIZE SUB DUP2 ADD SWAP1 PUSH2 0x2CB SWAP2 SWAP1 PUSH2 0x2800 JUMP JUMPDEST PUSH2 0xD85 JUMP JUMPDEST STOP JUMPDEST PUSH2 0x2EC PUSH1 0x4 DUP1 CALLDATASIZE SUB DUP2 ADD SWAP1 PUSH2 0x2E7 SWAP2 SWAP1 PUSH2 0x25FE JUMP JUMPDEST PUSH2 0xEFA JUMP JUMPDEST PUSH1 0x40 MLOAD PUSH2 0x2F9 SWAP2 SWAP1 PUSH2 0x22F1 JUMP JUMPDEST PUSH1 0x40 MLOAD DUP1 SWAP2 SUB SWAP1 RETURN JUMPDEST PUSH2 0x31C PUSH1 0x4 DUP1 CALLDATASIZE SUB DUP2 ADD SWAP1 PUSH2 0x317 SWAP2 SWAP1 PUSH2 0x28B6 JUMP JUMPDEST PUSH2 0x1089 JUMP JUMPDEST STOP JUMPDEST PUSH2 0x338 PUSH1 0x4 DUP1 CALLDATASIZE SUB DUP2 ADD SWAP1 PUSH2 0x333 SWAP2 SWAP1 PUSH2 0x25FE JUMP JUMPDEST PUSH2 0x11FE JUMP JUMPDEST PUSH1 0x40 MLOAD PUSH2 0x345 SWAP2 SWAP1 PUSH2 0x22F1 JUMP JUMPDEST PUSH1 0x40 MLOAD DUP1 SWAP2 SUB SWAP1 RETURN JUMPDEST PUSH2 0x368 PUSH1 0x4 DUP1 CALLDATASIZE SUB DUP2 ADD SWAP1 PUSH2 0x363 SWAP2 SWAP1 PUSH2 0x2916 JUMP JUMPDEST PUSH2 0x13A4 JUMP JUMPDEST PUSH1 0x40 MLOAD PUSH2 0x375 SWAP2 SWAP1 PUSH2 0x22F1 JUMP JUMPDEST PUSH1 0x40 MLOAD DUP1 SWAP2 SUB SWAP1 RETURN JUMPDEST PUSH2 0x386 PUSH2 0x13CE JUMP JUMPDEST PUSH1 0x40 MLOAD PUSH2 0x393 SWAP2 SWAP1 PUSH2 0x29B4 JUMP JUMPDEST PUSH1 0x40 MLOAD DUP1 SWAP2 SUB SWAP1 RETURN JUMPDEST PUSH2 0x3B6 PUSH1 0x4 DUP1 CALLDATASIZE SUB DUP2 ADD SWAP1 PUSH2 0x3B1 SWAP2 SWAP1 PUSH2 0x25FE JUMP JUMPDEST PUSH2 0x145C JUMP JUMPDEST PUSH1 0x40 MLOAD PUSH2 0x3C3 SWAP2 SWAP1 PUSH2 0x22F1 JUMP JUMPDEST PUSH1 0x40 MLOAD DUP1 SWAP2 SUB SWAP1 RETURN JUMPDEST PUSH2 0x3D4 PUSH2 0x15EB JUMP JUMPDEST PUSH1 0x40 MLOAD PUSH2 0x3E1 SWAP2 SWAP1 PUSH2 0x29E5 JUMP JUMPDEST PUSH1 0x40 MLOAD DUP1 SWAP2 SUB SWAP1 RETURN JUMPDEST PUSH2 0x3F2 PUSH2 0x15FE JUMP JUMPDEST PUSH1 0x40 MLOAD PUSH2 0x3FF SWAP2 SWAP1 PUSH2 0x241D JUMP JUMPDEST PUSH1 0x40 MLOAD DUP1 SWAP2 SUB SWAP1 RETURN JUMPDEST PUSH2 0x422 PUSH1 0x4 DUP1 CALLDATASIZE SUB DUP2 ADD SWAP1 PUSH2 0x41D SWAP2 SWAP1 PUSH2 0x2A2C JUMP JUMPDEST PUSH2 0x168C JUMP JUMPDEST STOP JUMPDEST DUP2 PUSH1 0x5 PUSH1 0x0 DUP3 DUP2 MSTORE PUSH1 0x20 ADD SWAP1 DUP2 MSTORE PUSH1 0x20 ADD PUSH1 0x0 KECCAK256 PUSH1 0x0 SWAP1 SLOAD SWAP1 PUSH2 0x100 EXP SWAP1 DIV PUSH20 0xFFFFFFFFFFFFFFFFFFFFFFFFFFFFFFFFFFFFFFFF AND PUSH20 0xFFFFFFFFFFFFFFFFFFFFFFFFFFFFFFFFFFFFFFFF AND CALLER PUSH20 0xFFFFFFFFFFFFFFFFFFFFFFFFFFFFFFFFFFFFFFFF AND EQ PUSH2 0x4C6 JUMPI PUSH1 0x40 MLOAD PUSH32 0x8C379A000000000000000000000000000000000000000000000000000000000 DUP2 MSTORE PUSH1 0x4 ADD PUSH2 0x4BD SWAP1 PUSH2 0x2ADE JUMP JUMPDEST PUSH1 0x40 MLOAD DUP1 SWAP2 SUB SWAP1 REVERT JUMPDEST PUSH1 0x5 PUSH1 0x0 DUP3 DUP2 MSTORE PUSH1 0x20 ADD SWAP1 DUP2 MSTORE PUSH1 0x20 ADD PUSH1 0x0 KECCAK256 PUSH1 0x0 PUSH2 0x100 EXP DUP2 SLOAD SWAP1 PUSH20 0xFFFFFFFFFFFFFFFFFFFFFFFFFFFFFFFFFFFFFFFF MUL NOT AND SWAP1 SSTORE DUP1 PUSH32 0x7CC135E0CEBB02C3480AE5D74D377283180A2601F8F644EDF7987B009316C63A PUSH1 0x40 MLOAD PUSH1 0x40 MLOAD DUP1 SWAP2 SUB SWAP1 LOG2 DUP2 PUSH1 0x9 DUP2 SWAP1 SSTORE POP DUP2 PUSH1 0x40 MLOAD PUSH2 0x53D SWAP1 PUSH2 0x2B55 JUMP JUMPDEST PUSH1 0x40 MLOAD DUP1 SWAP2 SUB SWAP1 KECCAK256 PUSH32 0xDBB7BEA395204DA325E836F2375F392081152B224349387309F865DF9C19CE2C PUSH1 0x40 MLOAD PUSH1 0x40 MLOAD DUP1 SWAP2 SUB SWAP1 LOG3 POP POP POP JUMP JUMPDEST PUSH1 0x7 SLOAD DUP2 JUMP JUMPDEST PUSH1 0x9 SLOAD DUP2 JUMP JUMPDEST DUP2 PUSH1 0x5 PUSH1 0x0 DUP3 DUP2 MSTORE PUSH1 0x20 ADD SWAP1 DUP2 MSTORE PUSH1 0x20 ADD PUSH1 0x0 KECCAK256 PUSH1 0x0 SWAP1 SLOAD SWAP1 PUSH2 0x100 EXP SWAP1 DIV PUSH20 0xFFFFFFFFFFFFFFFFFFFFFFFFFFFFFFFFFFFFFFFF AND PUSH20 0xFFFFFFFFFFFFFFFFFFFFFFFFFFFFFFFFFFFFFFFF AND CALLER PUSH20 0xFFFFFFFFFFFFFFFFFFFFFFFFFFFFFFFFFFFFFFFF AND EQ PUSH2 0x624 JUMPI PUSH1 0x40 MLOAD PUSH32 0x8C379A000000000000000000000000000000000000000000000000000000000 DUP2 MSTORE PUSH1 0x4 ADD PUSH2 0x61B SWAP1 PUSH2 0x2ADE JUMP JUMPDEST PUSH1 0x40 MLOAD DUP1 SWAP2 SUB SWAP1 REVERT JUMPDEST PUSH1 0x5 PUSH1 0x0 DUP3 DUP2 MSTORE PUSH1 0x20 ADD SWAP1 DUP2 MSTORE PUSH1 0x20 ADD PUSH1 0x0 KECCAK256 PUSH1 0x0 PUSH2 0x100 EXP DUP2 SLOAD SWAP1 PUSH20 0xFFFFFFFFFFFFFFFFFFFFFFFFFFFFFFFFFFFFFFFF MUL NOT AND SWAP1 SSTORE DUP1 PUSH32 0x7CC135E0CEBB02C3480AE5D74D377283180A2601F8F644EDF7987B009316C63A PUSH1 0x40 MLOAD PUSH1 0x40 MLOAD DUP1 SWAP2 SUB SWAP1 LOG2 DUP2 PUSH1 0x6 PUSH1 0x0 PUSH2 0x100 EXP DUP2 SLOAD DUP2 PUSH1 0xFF MUL NOT AND SWAP1 DUP4 ISZERO ISZERO MUL OR SWAP1 SSTORE POP DUP2 ISZERO ISZERO PUSH1 0x40 MLOAD PUSH2 0x6B0 SWAP1 PUSH2 0x2BB6 JUMP JUMPDEST PUSH1 0x40 MLOAD DUP1 SWAP2 SUB SWAP1 KECCAK256 PUSH32 0x622C782522DB5098E0F79FCCD5C2B5B18A9717CDB1EB12934E4B1BEB3B255377 PUSH1 0x40 MLOAD PUSH1 0x40 MLOAD DUP1 SWAP2 SUB SWAP1 LOG3 POP POP POP JUMP JUMPDEST PUSH1 0xA DUP1 SLOAD PUSH2 0x6F6 SWAP1 PUSH2 0x2BFA JUMP JUMPDEST DUP1 PUSH1 0x1F ADD PUSH1 0x20 DUP1 SWAP2 DIV MUL PUSH1 0x20 ADD PUSH1 0x40 MLOAD SWAP1 DUP2 ADD PUSH1 0x40 MSTORE DUP1 SWAP3 SWAP2 SWAP1 DUP2 DUP2 MSTORE PUSH1 0x20 ADD DUP3 DUP1 SLOAD PUSH2 0x722 SWAP1 PUSH2 0x2BFA JUMP JUMPDEST DUP1 ISZERO PUSH2 0x76F JUMPI DUP1 PUSH1 0x1F LT PUSH2 0x744 JUMPI PUSH2 0x100 DUP1 DUP4 SLOAD DIV MUL DUP4 MSTORE SWAP2 PUSH1 0x20 ADD SWAP2 PUSH2 0x76F JUMP JUMPDEST DUP3 ADD SWAP2 SWAP1 PUSH1 0x0 MSTORE PUSH1 0x20 PUSH1 0x0 KECCAK256 SWAP1 JUMPDEST DUP2 SLOAD DUP2 MSTORE SWAP1 PUSH1 0x1 ADD SWAP1 PUSH1 0x20 ADD DUP1 DUP4 GT PUSH2 0x752 JUMPI DUP3 SWAP1 SUB PUSH1 0x1F AND DUP3 ADD SWAP2 JUMPDEST POP POP POP POP POP DUP2 JUMP JUMPDEST PUSH1 0x0 PUSH2 0x781 PUSH2 0x1FEE JUMP JUMPDEST PUSH2 0x79B PUSH2 0x78D DUP10 PUSH2 0x13A4 JUMP JUMPDEST ADDRESS PUSH4 0xC2FB8523 PUSH1 0xE0 SHL PUSH2 0x17DE JUMP JUMPDEST SWAP1 POP PUSH1 0x0 DUP7 MLOAD EQ PUSH2 0x7F1 JUMPI PUSH2 0x7F0 PUSH1 0x40 MLOAD DUP1 PUSH1 0x40 ADD PUSH1 0x40 MSTORE DUP1 PUSH1 0x2 DUP2 MSTORE PUSH1 0x20 ADD PUSH32 0x6A73000000000000000000000000000000000000000000000000000000000000 DUP2 MSTORE POP DUP8 DUP4 PUSH2 0x180F SWAP1 SWAP3 SWAP2 SWAP1 PUSH4 0xFFFFFFFF AND JUMP JUMPDEST JUMPDEST PUSH1 0x0 DUP6 MLOAD EQ PUSH2 0x845 JUMPI PUSH2 0x844 PUSH1 0x40 MLOAD DUP1 PUSH1 0x40 ADD PUSH1 0x40 MSTORE DUP1 PUSH1 0x4 DUP2 MSTORE PUSH1 0x20 ADD PUSH32 0x7661727300000000000000000000000000000000000000000000000000000000 DUP2 MSTORE POP DUP7 DUP4 PUSH2 0x180F SWAP1 SWAP3 SWAP2 SWAP1 PUSH4 0xFFFFFFFF AND JUMP JUMPDEST JUMPDEST PUSH1 0x0 DUP5 MLOAD EQ PUSH2 0x899 JUMPI PUSH2 0x898 PUSH1 0x40 MLOAD DUP1 PUSH1 0x40 ADD PUSH1 0x40 MSTORE DUP1 PUSH1 0x3 DUP2 MSTORE PUSH1 0x20 ADD PUSH32 0x6369640000000000000000000000000000000000000000000000000000000000 DUP2 MSTORE POP DUP6 DUP4 PUSH2 0x180F SWAP1 SWAP3 SWAP2 SWAP1 PUSH4 0xFFFFFFFF AND JUMP JUMPDEST JUMPDEST PUSH1 0x0 DUP4 MLOAD EQ PUSH2 0x8ED JUMPI PUSH2 0x8EC PUSH1 0x40 MLOAD DUP1 PUSH1 0x40 ADD PUSH1 0x40 MSTORE DUP1 PUSH1 0x3 DUP2 MSTORE PUSH1 0x20 ADD PUSH32 0x7265660000000000000000000000000000000000000000000000000000000000 DUP2 MSTORE POP DUP5 DUP4 PUSH2 0x180F SWAP1 SWAP3 SWAP2 SWAP1 PUSH4 0xFFFFFFFF AND JUMP JUMPDEST JUMPDEST PUSH2 0x8F8 DUP10 DUP3 DUP10 PUSH2 0x1842 JUMP JUMPDEST SWAP2 POP POP SWAP8 SWAP7 POP POP POP POP POP POP POP JUMP JUMPDEST PUSH1 0x8 SLOAD DUP2 JUMP JUMPDEST DUP2 PUSH1 0x5 PUSH1 0x0 DUP3 DUP2 MSTORE PUSH1 0x20 ADD SWAP1 DUP2 MSTORE PUSH1 0x20 ADD PUSH1 0x0 KECCAK256 PUSH1 0x0 SWAP1 SLOAD SWAP1 PUSH2 0x100 EXP SWAP1 DIV PUSH20 0xFFFFFFFFFFFFFFFFFFFFFFFFFFFFFFFFFFFFFFFF AND PUSH20 0xFFFFFFFFFFFFFFFFFFFFFFFFFFFFFFFFFFFFFFFF AND CALLER PUSH20 0xFFFFFFFFFFFFFFFFFFFFFFFFFFFFFFFFFFFFFFFF AND EQ PUSH2 0x9AE JUMPI PUSH1 0x40 MLOAD PUSH32 0x8C379A000000000000000000000000000000000000000000000000000000000 DUP2 MSTORE PUSH1 0x4 ADD PUSH2 0x9A5 SWAP1 PUSH2 0x2ADE JUMP JUMPDEST PUSH1 0x40 MLOAD DUP1 SWAP2 SUB SWAP1 REVERT JUMPDEST PUSH1 0x5 PUSH1 0x0 DUP3 DUP2 MSTORE PUSH1 0x20 ADD SWAP1 DUP2 MSTORE PUSH1 0x20 ADD PUSH1 0x0 KECCAK256 PUSH1 0x0 PUSH2 0x100 EXP DUP2 SLOAD SWAP1 PUSH20 0xFFFFFFFFFFFFFFFFFFFFFFFFFFFFFFFFFFFFFFFF MUL NOT AND SWAP1 SSTORE DUP1 PUSH32 0x7CC135E0CEBB02C3480AE5D74D377283180A2601F8F644EDF7987B009316C63A PUSH1 0x40 MLOAD PUSH1 0x40 MLOAD DUP1 SWAP2 SUB SWAP1 LOG2 DUP2 PUSH1 0x7 DUP2 SWAP1 SSTORE POP DUP2 PUSH1 0x40 MLOAD PUSH2 0xA25 SWAP1 PUSH2 0x2C78 JUMP JUMPDEST PUSH1 0x40 MLOAD DUP1 SWAP2 SUB SWAP1 KECCAK256 PUSH32 0xC85AC0B7E112A94EAD461F1ACE17D4ADF80203281175A827C146E3B526148DD4 PUSH1 0x40 MLOAD PUSH1 0x40 MLOAD DUP1 SWAP2 SUB SWAP1 LOG3 POP POP POP JUMP JUMPDEST PUSH1 0x0 PUSH1 0x5 SWAP1 POP SWAP1 JUMP JUMPDEST PUSH1 0x0 PUSH2 0xA71 PUSH2 0x1FEE JUMP JUMPDEST PUSH2 0xA8B PUSH2 0xA7D DUP10 PUSH2 0x13A4 JUMP JUMPDEST ADDRESS PUSH4 0x941DFB3 PUSH1 0xE0 SHL PUSH2 0x17DE JUMP JUMPDEST SWAP1 POP PUSH1 0x0 DUP7 MLOAD EQ PUSH2 0xAE1 JUMPI PUSH2 0xAE0 PUSH1 0x40 MLOAD DUP1 PUSH1 0x40 ADD PUSH1 0x40 MSTORE DUP1 PUSH1 0x2 DUP2 MSTORE PUSH1 0x20 ADD PUSH32 0x6A73000000000000000000000000000000000000000000000000000000000000 DUP2 MSTORE POP DUP8 DUP4 PUSH2 0x180F SWAP1 SWAP3 SWAP2 SWAP1 PUSH4 0xFFFFFFFF AND JUMP JUMPDEST JUMPDEST PUSH1 0x0 DUP6 MLOAD EQ PUSH2 0xB35 JUMPI PUSH2 0xB34 PUSH1 0x40 MLOAD DUP1 PUSH1 0x40 ADD PUSH1 0x40 MSTORE DUP1 PUSH1 0x4 DUP2 MSTORE PUSH1 0x20 ADD PUSH32 0x7661727300000000000000000000000000000000000000000000000000000000 DUP2 MSTORE POP DUP7 DUP4 PUSH2 0x180F SWAP1 SWAP3 SWAP2 SWAP1 PUSH4 0xFFFFFFFF AND JUMP JUMPDEST JUMPDEST PUSH1 0x0 DUP5 MLOAD EQ PUSH2 0xB89 JUMPI PUSH2 0xB88 PUSH1 0x40 MLOAD DUP1 PUSH1 0x40 ADD PUSH1 0x40 MSTORE DUP1 PUSH1 0x3 DUP2 MSTORE PUSH1 0x20 ADD PUSH32 0x6369640000000000000000000000000000000000000000000000000000000000 DUP2 MSTORE POP DUP6 DUP4 PUSH2 0x180F SWAP1 SWAP3 SWAP2 SWAP1 PUSH4 0xFFFFFFFF AND JUMP JUMPDEST JUMPDEST PUSH1 0x0 DUP4 MLOAD EQ PUSH2 0xBDD JUMPI PUSH2 0xBDC PUSH1 0x40 MLOAD DUP1 PUSH1 0x40 ADD PUSH1 0x40 MSTORE DUP1 PUSH1 0x3 DUP2 MSTORE PUSH1 0x20 ADD PUSH32 0x7265660000000000000000000000000000000000000000000000000000000000 DUP2 MSTORE POP DUP5 DUP4 PUSH2 0x180F SWAP1 SWAP3 SWAP2 SWAP1 PUSH4 0xFFFFFFFF AND JUMP JUMPDEST JUMPDEST PUSH2 0xBE8 DUP10 DUP3 DUP10 PUSH2 0x1842 JUMP JUMPDEST SWAP2 POP POP SWAP8 SWAP7 POP POP POP POP POP POP POP JUMP JUMPDEST PUSH1 0x0 PUSH2 0xC00 PUSH2 0x1FEE JUMP JUMPDEST PUSH2 0xC1A PUSH2 0xC0C DUP10 PUSH2 0x13A4 JUMP JUMPDEST ADDRESS PUSH4 0xEE10C872 PUSH1 0xE0 SHL PUSH2 0x17DE JUMP JUMPDEST SWAP1 POP PUSH1 0x0 DUP7 MLOAD EQ PUSH2 0xC70 JUMPI PUSH2 0xC6F PUSH1 0x40 MLOAD DUP1 PUSH1 0x40 ADD PUSH1 0x40 MSTORE DUP1 PUSH1 0x2 DUP2 MSTORE PUSH1 0x20 ADD PUSH32 0x6A73000000000000000000000000000000000000000000000000000000000000 DUP2 MSTORE POP DUP8 DUP4 PUSH2 0x180F SWAP1 SWAP3 SWAP2 SWAP1 PUSH4 0xFFFFFFFF AND JUMP JUMPDEST JUMPDEST PUSH1 0x0 DUP6 MLOAD EQ PUSH2 0xCC4 JUMPI PUSH2 0xCC3 PUSH1 0x40 MLOAD DUP1 PUSH1 0x40 ADD PUSH1 0x40 MSTORE DUP1 PUSH1 0x4 DUP2 MSTORE PUSH1 0x20 ADD PUSH32 0x7661727300000000000000000000000000000000000000000000000000000000 DUP2 MSTORE POP DUP7 DUP4 PUSH2 0x180F SWAP1 SWAP3 SWAP2 SWAP1 PUSH4 0xFFFFFFFF AND JUMP JUMPDEST JUMPDEST PUSH1 0x0 DUP5 MLOAD EQ PUSH2 0xD18 JUMPI PUSH2 0xD17 PUSH1 0x40 MLOAD DUP1 PUSH1 0x40 ADD PUSH1 0x40 MSTORE DUP1 PUSH1 0x3 DUP2 MSTORE PUSH1 0x20 ADD PUSH32 0x6369640000000000000000000000000000000000000000000000000000000000 DUP2 MSTORE POP DUP6 DUP4 PUSH2 0x180F SWAP1 SWAP3 SWAP2 SWAP1 PUSH4 0xFFFFFFFF AND JUMP JUMPDEST JUMPDEST PUSH1 0x0 DUP4 MLOAD EQ PUSH2 0xD6C JUMPI PUSH2 0xD6B PUSH1 0x40 MLOAD DUP1 PUSH1 0x40 ADD PUSH1 0x40 MSTORE DUP1 PUSH1 0x3 DUP2 MSTORE PUSH1 0x20 ADD PUSH32 0x7265660000000000000000000000000000000000000000000000000000000000 DUP2 MSTORE POP DUP5 DUP4 PUSH2 0x180F SWAP1 SWAP3 SWAP2 SWAP1 PUSH4 0xFFFFFFFF AND JUMP JUMPDEST JUMPDEST PUSH2 0xD77 DUP10 DUP3 DUP10 PUSH2 0x1842 JUMP JUMPDEST SWAP2 POP POP SWAP8 SWAP7 POP POP POP POP POP POP POP JUMP JUMPDEST DUP3 PUSH1 0x5 PUSH1 0x0 DUP3 DUP2 MSTORE PUSH1 0x20 ADD SWAP1 DUP2 MSTORE PUSH1 0x20 ADD PUSH1 0x0 KECCAK256 PUSH1 0x0 SWAP1 SLOAD SWAP1 PUSH2 0x100 EXP SWAP1 DIV PUSH20 0xFFFFFFFFFFFFFFFFFFFFFFFFFFFFFFFFFFFFFFFF AND PUSH20 0xFFFFFFFFFFFFFFFFFFFFFFFFFFFFFFFFFFFFFFFF AND CALLER PUSH20 0xFFFFFFFFFFFFFFFFFFFFFFFFFFFFFFFFFFFFFFFF AND EQ PUSH2 0xE27 JUMPI PUSH1 0x40 MLOAD PUSH32 0x8C379A000000000000000000000000000000000000000000000000000000000 DUP2 MSTORE PUSH1 0x4 ADD PUSH2 0xE1E SWAP1 PUSH2 0x2ADE JUMP JUMPDEST PUSH1 0x40 MLOAD DUP1 SWAP2 SUB SWAP1 REVERT JUMPDEST PUSH1 0x5 PUSH1 0x0 DUP3 DUP2 MSTORE PUSH1 0x20 ADD SWAP1 DUP2 MSTORE PUSH1 0x20 ADD PUSH1 0x0 KECCAK256 PUSH1 0x0 PUSH2 0x100 EXP DUP2 SLOAD SWAP1 PUSH20 0xFFFFFFFFFFFFFFFFFFFFFFFFFFFFFFFFFFFFFFFF MUL NOT AND SWAP1 SSTORE DUP1 PUSH32 0x7CC135E0CEBB02C3480AE5D74D377283180A2601F8F644EDF7987B009316C63A PUSH1 0x40 MLOAD PUSH1 0x40 MLOAD DUP1 SWAP2 SUB SWAP1 LOG2 DUP3 DUP3 PUSH1 0xA SWAP2 SWAP1 PUSH2 0xE9B SWAP3 SWAP2 SWAP1 PUSH2 0x205B JUMP JUMPDEST POP DUP3 DUP3 PUSH1 0x40 MLOAD PUSH2 0xEAC SWAP3 SWAP2 SWAP1 PUSH2 0x2CB2 JUMP JUMPDEST PUSH1 0x40 MLOAD DUP1 SWAP2 SUB SWAP1 KECCAK256 PUSH1 0x40 MLOAD PUSH2 0xEC0 SWAP1 PUSH2 0x2D17 JUMP JUMPDEST PUSH1 0x40 MLOAD DUP1 SWAP2 SUB SWAP1 KECCAK256 PUSH32 0x29D3211C98A410378B4A89F05D787A15BDC4E2CAE81674329609BB50D3BC5926 PUSH1 0x40 MLOAD PUSH1 0x40 MLOAD DUP1 SWAP2 SUB SWAP1 LOG3 POP POP POP POP JUMP JUMPDEST PUSH1 0x0 PUSH2 0xF04 PUSH2 0x1FEE JUMP JUMPDEST PUSH2 0xF1E PUSH2 0xF10 DUP10 PUSH2 0x13A4 JUMP JUMPDEST ADDRESS PUSH4 0x5F556740 PUSH1 0xE0 SHL PUSH2 0x17DE JUMP JUMPDEST SWAP1 POP PUSH1 0x0 DUP7 MLOAD EQ PUSH2 0xF74 JUMPI PUSH2 0xF73 PUSH1 0x40 MLOAD DUP1 PUSH1 0x40 ADD PUSH1 0x40 MSTORE DUP1 PUSH1 0x2 DUP2 MSTORE PUSH1 0x20 ADD PUSH32 0x6A73000000000000000000000000000000000000000000000000000000000000 DUP2 MSTORE POP DUP8 DUP4 PUSH2 0x180F SWAP1 SWAP3 SWAP2 SWAP1 PUSH4 0xFFFFFFFF AND JUMP JUMPDEST JUMPDEST PUSH1 0x0 DUP6 MLOAD EQ PUSH2 0xFC8 JUMPI PUSH2 0xFC7 PUSH1 0x40 MLOAD DUP1 PUSH1 0x40 ADD PUSH1 0x40 MSTORE DUP1 PUSH1 0x4 DUP2 MSTORE PUSH1 0x20 ADD PUSH32 0x7661727300000000000000000000000000000000000000000000000000000000 DUP2 MSTORE POP DUP7 DUP4 PUSH2 0x180F SWAP1 SWAP3 SWAP2 SWAP1 PUSH4 0xFFFFFFFF AND JUMP JUMPDEST JUMPDEST PUSH1 0x0 DUP5 MLOAD EQ PUSH2 0x101C JUMPI PUSH2 0x101B PUSH1 0x40 MLOAD DUP1 PUSH1 0x40 ADD PUSH1 0x40 MSTORE DUP1 PUSH1 0x3 DUP2 MSTORE PUSH1 0x20 ADD PUSH32 0x6369640000000000000000000000000000000000000000000000000000000000 DUP2 MSTORE POP DUP6 DUP4 PUSH2 0x180F SWAP1 SWAP3 SWAP2 SWAP1 PUSH4 0xFFFFFFFF AND JUMP JUMPDEST JUMPDEST PUSH1 0x0 DUP4 MLOAD EQ PUSH2 0x1070 JUMPI PUSH2 0x106F PUSH1 0x40 MLOAD DUP1 PUSH1 0x40 ADD PUSH1 0x40 MSTORE DUP1 PUSH1 0x3 DUP2 MSTORE PUSH1 0x20 ADD PUSH32 0x7265660000000000000000000000000000000000000000000000000000000000 DUP2 MSTORE POP DUP5 DUP4 PUSH2 0x180F SWAP1 SWAP3 SWAP2 SWAP1 PUSH4 0xFFFFFFFF AND JUMP JUMPDEST JUMPDEST PUSH2 0x107B DUP10 DUP3 DUP10 PUSH2 0x1842 JUMP JUMPDEST SWAP2 POP POP SWAP8 SWAP7 POP POP POP POP POP POP POP JUMP JUMPDEST DUP3 PUSH1 0x5 PUSH1 0x0 DUP3 DUP2 MSTORE PUSH1 0x20 ADD SWAP1 DUP2 MSTORE PUSH1 0x20 ADD PUSH1 0x0 KECCAK256 PUSH1 0x0 SWAP1 SLOAD SWAP1 PUSH2 0x100 EXP SWAP1 DIV PUSH20 0xFFFFFFFFFFFFFFFFFFFFFFFFFFFFFFFFFFFFFFFF AND PUSH20 0xFFFFFFFFFFFFFFFFFFFFFFFFFFFFFFFFFFFFFFFF AND CALLER PUSH20 0xFFFFFFFFFFFFFFFFFFFFFFFFFFFFFFFFFFFFFFFF AND EQ PUSH2 0x112B JUMPI PUSH1 0x40 MLOAD PUSH32 0x8C379A000000000000000000000000000000000000000000000000000000000 DUP2 MSTORE PUSH1 0x4 ADD PUSH2 0x1122 SWAP1 PUSH2 0x2ADE JUMP JUMPDEST PUSH1 0x40 MLOAD DUP1 SWAP2 SUB SWAP1 REVERT JUMPDEST PUSH1 0x5 PUSH1 0x0 DUP3 DUP2 MSTORE PUSH1 0x20 ADD SWAP1 DUP2 MSTORE PUSH1 0x20 ADD PUSH1 0x0 KECCAK256 PUSH1 0x0 PUSH2 0x100 EXP DUP2 SLOAD SWAP1 PUSH20 0xFFFFFFFFFFFFFFFFFFFFFFFFFFFFFFFFFFFFFFFF MUL NOT AND SWAP1 SSTORE DUP1 PUSH32 0x7CC135E0CEBB02C3480AE5D74D377283180A2601F8F644EDF7987B009316C63A PUSH1 0x40 MLOAD PUSH1 0x40 MLOAD DUP1 SWAP2 SUB SWAP1 LOG2 DUP3 DUP3 PUSH1 0xB SWAP2 SWAP1 PUSH2 0x119F SWAP3 SWAP2 SWAP1 PUSH2 0x20E1 JUMP JUMPDEST POP DUP3 DUP3 PUSH1 0x40 MLOAD PUSH2 0x11B0 SWAP3 SWAP2 SWAP1 PUSH2 0x2D5C JUMP JUMPDEST PUSH1 0x40 MLOAD DUP1 SWAP2 SUB SWAP1 KECCAK256 PUSH1 0x40 MLOAD PUSH2 0x11C4 SWAP1 PUSH2 0x2DC1 JUMP JUMPDEST PUSH1 0x40 MLOAD DUP1 SWAP2 SUB SWAP1 KECCAK256 PUSH32 0x5D154487576B6364837E16BE9C9B149C65176BE29BB2CEF4D5DC4F54A406D02F PUSH1 0x40 MLOAD PUSH1 0x40 MLOAD DUP1 SWAP2 SUB SWAP1 LOG3 POP POP POP POP JUMP JUMPDEST PUSH1 0x0 PUSH2 0x1208 PUSH2 0x1FEE JUMP JUMPDEST PUSH2 0x1222 PUSH2 0x1214 DUP10 PUSH2 0x13A4 JUMP JUMPDEST ADDRESS PUSH4 0x32146504 PUSH1 0xE0 SHL PUSH2 0x17DE JUMP JUMPDEST SWAP1 POP DUP6 PUSH1 0xC SWAP1 DUP1 MLOAD SWAP1 PUSH1 0x20 ADD SWAP1 PUSH2 0x123A SWAP3 SWAP2 SWAP1 PUSH2 0x2167 JUMP JUMPDEST POP PUSH1 0x0 DUP7 MLOAD EQ PUSH2 0x128F JUMPI PUSH2 0x128E PUSH1 0x40 MLOAD DUP1 PUSH1 0x40 ADD PUSH1 0x40 MSTORE DUP1 PUSH1 0x2 DUP2 MSTORE PUSH1 0x20 ADD PUSH32 0x6A73000000000000000000000000000000000000000000000000000000000000 DUP2 MSTORE POP DUP8 DUP4 PUSH2 0x180F SWAP1 SWAP3 SWAP2 SWAP1 PUSH4 0xFFFFFFFF AND JUMP JUMPDEST JUMPDEST PUSH1 0x0 DUP6 MLOAD EQ PUSH2 0x12E3 JUMPI PUSH2 0x12E2 PUSH1 0x40 MLOAD DUP1 PUSH1 0x40 ADD PUSH1 0x40 MSTORE DUP1 PUSH1 0x4 DUP2 MSTORE PUSH1 0x20 ADD PUSH32 0x7661727300000000000000000000000000000000000000000000000000000000 DUP2 MSTORE POP DUP7 DUP4 PUSH2 0x180F SWAP1 SWAP3 SWAP2 SWAP1 PUSH4 0xFFFFFFFF AND JUMP JUMPDEST JUMPDEST PUSH1 0x0 DUP5 MLOAD EQ PUSH2 0x1337 JUMPI PUSH2 0x1336 PUSH1 0x40 MLOAD DUP1 PUSH1 0x40 ADD PUSH1 0x40 MSTORE DUP1 PUSH1 0x3 DUP2 MSTORE PUSH1 0x20 ADD PUSH32 0x6369640000000000000000000000000000000000000000000000000000000000 DUP2 MSTORE POP DUP6 DUP4 PUSH2 0x180F SWAP1 SWAP3 SWAP2 SWAP1 PUSH4 0xFFFFFFFF AND JUMP JUMPDEST JUMPDEST PUSH1 0x0 DUP4 MLOAD EQ PUSH2 0x138B JUMPI PUSH2 0x138A PUSH1 0x40 MLOAD DUP1 PUSH1 0x40 ADD PUSH1 0x40 MSTORE DUP1 PUSH1 0x3 DUP2 MSTORE PUSH1 0x20 ADD PUSH32 0x7265660000000000000000000000000000000000000000000000000000000000 DUP2 MSTORE POP DUP5 DUP4 PUSH2 0x180F SWAP1 SWAP3 SWAP2 SWAP1 PUSH4 0xFFFFFFFF AND JUMP JUMPDEST JUMPDEST PUSH2 0x1396 DUP10 DUP3 DUP10 PUSH2 0x1842 JUMP JUMPDEST SWAP2 POP POP SWAP8 SWAP7 POP POP POP POP POP POP POP JUMP JUMPDEST PUSH1 0x0 DUP1 DUP3 SWAP1 POP PUSH1 0x0 DUP2 MLOAD EQ ISZERO PUSH2 0x13C0 JUMPI PUSH1 0x0 DUP1 SHL SWAP2 POP POP PUSH2 0x13C9 JUMP JUMPDEST PUSH1 0x20 DUP4 ADD MLOAD SWAP2 POP POP JUMPDEST SWAP2 SWAP1 POP JUMP JUMPDEST PUSH1 0xB DUP1 SLOAD PUSH2 0x13DB SWAP1 PUSH2 0x2BFA JUMP JUMPDEST DUP1 PUSH1 0x1F ADD PUSH1 0x20 DUP1 SWAP2 DIV MUL PUSH1 0x20 ADD PUSH1 0x40 MLOAD SWAP1 DUP2 ADD PUSH1 0x40 MSTORE DUP1 SWAP3 SWAP2 SWAP1 DUP2 DUP2 MSTORE PUSH1 0x20 ADD DUP3 DUP1 SLOAD PUSH2 0x1407 SWAP1 PUSH2 0x2BFA JUMP JUMPDEST DUP1 ISZERO PUSH2 0x1454 JUMPI DUP1 PUSH1 0x1F LT PUSH2 0x1429 JUMPI PUSH2 0x100 DUP1 DUP4 SLOAD DIV MUL DUP4 MSTORE SWAP2 PUSH1 0x20 ADD SWAP2 PUSH2 0x1454 JUMP JUMPDEST DUP3 ADD SWAP2 SWAP1 PUSH1 0x0 MSTORE PUSH1 0x20 PUSH1 0x0 KECCAK256 SWAP1 JUMPDEST DUP2 SLOAD DUP2 MSTORE SWAP1 PUSH1 0x1 ADD SWAP1 PUSH1 0x20 ADD DUP1 DUP4 GT PUSH2 0x1437 JUMPI DUP3 SWAP1 SUB PUSH1 0x1F AND DUP3 ADD SWAP2 JUMPDEST POP POP POP POP POP DUP2 JUMP JUMPDEST PUSH1 0x0 PUSH2 0x1466 PUSH2 0x1FEE JUMP JUMPDEST PUSH2 0x1480 PUSH2 0x1472 DUP10 PUSH2 0x13A4 JUMP JUMPDEST ADDRESS PUSH4 0xA6BDCA07 PUSH1 0xE0 SHL PUSH2 0x17DE JUMP JUMPDEST SWAP1 POP PUSH1 0x0 DUP7 MLOAD EQ PUSH2 0x14D6 JUMPI PUSH2 0x14D5 PUSH1 0x40 MLOAD DUP1 PUSH1 0x40 ADD PUSH1 0x40 MSTORE DUP1 PUSH1 0x2 DUP2 MSTORE PUSH1 0x20 ADD PUSH32 0x6A73000000000000000000000000000000000000000000000000000000000000 DUP2 MSTORE POP DUP8 DUP4 PUSH2 0x180F SWAP1 SWAP3 SWAP2 SWAP1 PUSH4 0xFFFFFFFF AND JUMP JUMPDEST JUMPDEST PUSH1 0x0 DUP6 MLOAD EQ PUSH2 0x152A JUMPI PUSH2 0x1529 PUSH1 0x40 MLOAD DUP1 PUSH1 0x40 ADD PUSH1 0x40 MSTORE DUP1 PUSH1 0x4 DUP2 MSTORE PUSH1 0x20 ADD PUSH32 0x7661727300000000000000000000000000000000000000000000000000000000 DUP2 MSTORE POP DUP7 DUP4 PUSH2 0x180F SWAP1 SWAP3 SWAP2 SWAP1 PUSH4 0xFFFFFFFF AND JUMP JUMPDEST JUMPDEST PUSH1 0x0 DUP5 MLOAD EQ PUSH2 0x157E JUMPI PUSH2 0x157D PUSH1 0x40 MLOAD DUP1 PUSH1 0x40 ADD PUSH1 0x40 MSTORE DUP1 PUSH1 0x3 DUP2 MSTORE PUSH1 0x20 ADD PUSH32 0x6369640000000000000000000000000000000000000000000000000000000000 DUP2 MSTORE POP DUP6 DUP4 PUSH2 0x180F SWAP1 SWAP3 SWAP2 SWAP1 PUSH4 0xFFFFFFFF AND JUMP JUMPDEST JUMPDEST PUSH1 0x0 DUP4 MLOAD EQ PUSH2 0x15D2 JUMPI PUSH2 0x15D1 PUSH1 0x40 MLOAD DUP1 PUSH1 0x40 ADD PUSH1 0x40 MSTORE DUP1 PUSH1 0x3 DUP2 MSTORE PUSH1 0x20 ADD PUSH32 0x7265660000000000000000000000000000000000000000000000000000000000 DUP2 MSTORE POP DUP5 DUP4 PUSH2 0x180F SWAP1 SWAP3 SWAP2 SWAP1 PUSH4 0xFFFFFFFF AND JUMP JUMPDEST JUMPDEST PUSH2 0x15DD DUP10 DUP3 DUP10 PUSH2 0x1842 JUMP JUMPDEST SWAP2 POP POP SWAP8 SWAP7 POP POP POP POP POP POP POP JUMP JUMPDEST PUSH1 0x6 PUSH1 0x0 SWAP1 SLOAD SWAP1 PUSH2 0x100 EXP SWAP1 DIV PUSH1 0xFF AND DUP2 JUMP JUMPDEST PUSH1 0xC DUP1 SLOAD PUSH2 0x160B SWAP1 PUSH2 0x2BFA JUMP JUMPDEST DUP1 PUSH1 0x1F ADD PUSH1 0x20 DUP1 SWAP2 DIV MUL PUSH1 0x20 ADD PUSH1 0x40 MLOAD SWAP1 DUP2 ADD PUSH1 0x40 MSTORE DUP1 SWAP3 SWAP2 SWAP1 DUP2 DUP2 MSTORE PUSH1 0x20 ADD DUP3 DUP1 SLOAD PUSH2 0x1637 SWAP1 PUSH2 0x2BFA JUMP JUMPDEST DUP1 ISZERO PUSH2 0x1684 JUMPI DUP1 PUSH1 0x1F LT PUSH2 0x1659 JUMPI PUSH2 0x100 DUP1 DUP4 SLOAD DIV MUL DUP4 MSTORE SWAP2 PUSH1 0x20 ADD SWAP2 PUSH2 0x1684 JUMP JUMPDEST DUP3 ADD SWAP2 SWAP1 PUSH1 0x0 MSTORE PUSH1 0x20 PUSH1 0x0 KECCAK256 SWAP1 JUMPDEST DUP2 SLOAD DUP2 MSTORE SWAP1 PUSH1 0x1 ADD SWAP1 PUSH1 0x20 ADD DUP1 DUP4 GT PUSH2 0x1667 JUMPI DUP3 SWAP1 SUB PUSH1 0x1F AND DUP3 ADD SWAP2 JUMPDEST POP POP POP POP POP DUP2 JUMP JUMPDEST DUP2 PUSH1 0x5 PUSH1 0x0 DUP3 DUP2 MSTORE PUSH1 0x20 ADD SWAP1 DUP2 MSTORE PUSH1 0x20 ADD PUSH1 0x0 KECCAK256 PUSH1 0x0 SWAP1 SLOAD SWAP1 PUSH2 0x100 EXP SWAP1 DIV PUSH20 0xFFFFFFFFFFFFFFFFFFFFFFFFFFFFFFFFFFFFFFFF AND PUSH20 0xFFFFFFFFFFFFFFFFFFFFFFFFFFFFFFFFFFFFFFFF AND CALLER PUSH20 0xFFFFFFFFFFFFFFFFFFFFFFFFFFFFFFFFFFFFFFFF AND EQ PUSH2 0x172E JUMPI PUSH1 0x40 MLOAD PUSH32 0x8C379A000000000000000000000000000000000000000000000000000000000 DUP2 MSTORE PUSH1 0x4 ADD PUSH2 0x1725 SWAP1 PUSH2 0x2ADE JUMP JUMPDEST PUSH1 0x40 MLOAD DUP1 SWAP2 SUB SWAP1 REVERT JUMPDEST PUSH1 0x5 PUSH1 0x0 DUP3 DUP2 MSTORE PUSH1 0x20 ADD SWAP1 DUP2 MSTORE PUSH1 0x20 ADD PUSH1 0x0 KECCAK256 PUSH1 0x0 PUSH2 0x100 EXP DUP2 SLOAD SWAP1 PUSH20 0xFFFFFFFFFFFFFFFFFFFFFFFFFFFFFFFFFFFFFFFF MUL NOT AND SWAP1 SSTORE DUP1 PUSH32 0x7CC135E0CEBB02C3480AE5D74D377283180A2601F8F644EDF7987B009316C63A PUSH1 0x40 MLOAD PUSH1 0x40 MLOAD DUP1 SWAP2 SUB SWAP1 LOG2 DUP2 PUSH1 0x8 DUP2 SWAP1 SSTORE POP DUP2 PUSH1 0x40 MLOAD PUSH2 0x17A5 SWAP1 PUSH2 0x2E22 JUMP JUMPDEST PUSH1 0x40 MLOAD DUP1 SWAP2 SUB SWAP1 KECCAK256 PUSH32 0xAECC35363FECBE45FE234DDC41096C0D5B5083D52A2B193F5B59E8837B4F1BCC PUSH1 0x40 MLOAD PUSH1 0x40 MLOAD DUP1 SWAP2 SUB SWAP1 LOG3 POP POP POP JUMP JUMPDEST PUSH2 0x17E6 PUSH2 0x1FEE JUMP JUMPDEST PUSH2 0x17EE PUSH2 0x1FEE JUMP JUMPDEST PUSH2 0x1805 DUP6 DUP6 DUP6 DUP5 PUSH2 0x190E SWAP1 SWAP4 SWAP3 SWAP2 SWAP1 PUSH4 0xFFFFFFFF AND JUMP JUMPDEST SWAP2 POP POP SWAP4 SWAP3 POP POP POP JUMP JUMPDEST PUSH2 0x1826 DUP3 DUP5 PUSH1 0x80 ADD MLOAD PUSH2 0x19BE SWAP1 SWAP2 SWAP1 PUSH4 0xFFFFFFFF AND JUMP JUMPDEST PUSH2 0x183D DUP2 DUP5 PUSH1 0x80 ADD MLOAD PUSH2 0x19BE SWAP1 SWAP2 SWAP1 PUSH4 0xFFFFFFFF AND JUMP JUMPDEST POP POP POP JUMP JUMPDEST PUSH1 0x0 DUP1 PUSH1 0x4 SLOAD SWAP1 POP PUSH1 0x1 DUP2 PUSH2 0x1857 SWAP2 SWAP1 PUSH2 0x2E66 JUMP JUMPDEST PUSH1 0x4 DUP2 SWAP1 SSTORE POP PUSH1 0x0 PUSH4 0x40429946 PUSH1 0xE0 SHL PUSH1 0x0 DUP1 DUP8 PUSH1 0x0 ADD MLOAD ADDRESS DUP10 PUSH1 0x40 ADD MLOAD DUP8 PUSH1 0x1 DUP13 PUSH1 0x80 ADD MLOAD PUSH1 0x0 ADD MLOAD PUSH1 0x40 MLOAD PUSH1 0x24 ADD PUSH2 0x1898 SWAP9 SWAP8 SWAP7 SWAP6 SWAP5 SWAP4 SWAP3 SWAP2 SWAP1 PUSH2 0x2F06 JUMP JUMPDEST PUSH1 0x40 MLOAD PUSH1 0x20 DUP2 DUP4 SUB SUB DUP2 MSTORE SWAP1 PUSH1 0x40 MSTORE SWAP1 PUSH28 0xFFFFFFFFFFFFFFFFFFFFFFFFFFFFFFFFFFFFFFFFFFFFFFFFFFFFFFFF NOT AND PUSH1 0x20 DUP3 ADD DUP1 MLOAD PUSH28 0xFFFFFFFFFFFFFFFFFFFFFFFFFFFFFFFFFFFFFFFFFFFFFFFFFFFFFFFF DUP4 DUP2 DUP4 AND OR DUP4 MSTORE POP POP POP POP SWAP1 POP PUSH2 0x1903 DUP7 DUP4 DUP7 DUP5 PUSH2 0x19E3 JUMP JUMPDEST SWAP3 POP POP POP SWAP4 SWAP3 POP POP POP JUMP JUMPDEST PUSH2 0x1916 PUSH2 0x1FEE JUMP JUMPDEST PUSH2 0x1926 DUP6 PUSH1 0x80 ADD MLOAD PUSH2 0x100 PUSH2 0x1B87 JUMP JUMPDEST POP DUP4 DUP6 PUSH1 0x0 ADD DUP2 DUP2 MSTORE POP POP DUP3 DUP6 PUSH1 0x20 ADD SWAP1 PUSH20 0xFFFFFFFFFFFFFFFFFFFFFFFFFFFFFFFFFFFFFFFF AND SWAP1 DUP2 PUSH20 0xFFFFFFFFFFFFFFFFFFFFFFFFFFFFFFFFFFFFFFFF AND DUP2 MSTORE POP POP DUP2 DUP6 PUSH1 0x40 ADD SWAP1 PUSH28 0xFFFFFFFFFFFFFFFFFFFFFFFFFFFFFFFFFFFFFFFFFFFFFFFFFFFFFFFF NOT AND SWAP1 DUP2 PUSH28 0xFFFFFFFFFFFFFFFFFFFFFFFFFFFFFFFFFFFFFFFFFFFFFFFFFFFFFFFF NOT AND DUP2 MSTORE POP POP DUP5 SWAP1 POP SWAP5 SWAP4 POP POP POP POP JUMP JUMPDEST PUSH2 0x19CB DUP3 PUSH1 0x3 DUP4 MLOAD PUSH2 0x1BF1 JUMP JUMPDEST PUSH2 0x19DE DUP2 DUP4 PUSH2 0x1D76 SWAP1 SWAP2 SWAP1 PUSH4 0xFFFFFFFF AND JUMP JUMPDEST POP POP POP JUMP JUMPDEST PUSH1 0x0 ADDRESS DUP5 PUSH1 0x40 MLOAD PUSH1 0x20 ADD PUSH2 0x19F8 SWAP3 SWAP2 SWAP1 PUSH2 0x3044 JUMP JUMPDEST PUSH1 0x40 MLOAD PUSH1 0x20 DUP2 DUP4 SUB SUB DUP2 MSTORE SWAP1 PUSH1 0x40 MSTORE DUP1 MLOAD SWAP1 PUSH1 0x20 ADD KECCAK256 SWAP1 POP DUP5 PUSH1 0x5 PUSH1 0x0 DUP4 DUP2 MSTORE PUSH1 0x20 ADD SWAP1 DUP2 MSTORE PUSH1 0x20 ADD PUSH1 0x0 KECCAK256 PUSH1 0x0 PUSH2 0x100 EXP DUP2 SLOAD DUP2 PUSH20 0xFFFFFFFFFFFFFFFFFFFFFFFFFFFFFFFFFFFFFFFF MUL NOT AND SWAP1 DUP4 PUSH20 0xFFFFFFFFFFFFFFFFFFFFFFFFFFFFFFFFFFFFFFFF AND MUL OR SWAP1 SSTORE POP DUP1 PUSH32 0xB5E6E01E79F91267DC17B4E6314D5D4D03593D2CEEE0FBB452B750BD70EA5AF9 PUSH1 0x40 MLOAD PUSH1 0x40 MLOAD DUP1 SWAP2 SUB SWAP1 LOG2 PUSH1 0x2 PUSH1 0x0 SWAP1 SLOAD SWAP1 PUSH2 0x100 EXP SWAP1 DIV PUSH20 0xFFFFFFFFFFFFFFFFFFFFFFFFFFFFFFFFFFFFFFFF AND PUSH20 0xFFFFFFFFFFFFFFFFFFFFFFFFFFFFFFFFFFFFFFFF AND PUSH4 0x4000AEA0 DUP7 DUP6 DUP6 PUSH1 0x40 MLOAD DUP5 PUSH4 0xFFFFFFFF AND PUSH1 0xE0 SHL DUP2 MSTORE PUSH1 0x4 ADD PUSH2 0x1AEE SWAP4 SWAP3 SWAP2 SWAP1 PUSH2 0x3070 JUMP JUMPDEST PUSH1 0x20 PUSH1 0x40 MLOAD DUP1 DUP4 SUB DUP2 PUSH1 0x0 DUP8 DUP1 EXTCODESIZE ISZERO DUP1 ISZERO PUSH2 0x1B08 JUMPI PUSH1 0x0 DUP1 REVERT JUMPDEST POP GAS CALL ISZERO DUP1 ISZERO PUSH2 0x1B1C JUMPI RETURNDATASIZE PUSH1 0x0 DUP1 RETURNDATACOPY RETURNDATASIZE PUSH1 0x0 REVERT JUMPDEST POP POP POP POP PUSH1 0x40 MLOAD RETURNDATASIZE PUSH1 0x1F NOT PUSH1 0x1F DUP3 ADD AND DUP3 ADD DUP1 PUSH1 0x40 MSTORE POP DUP2 ADD SWAP1 PUSH2 0x1B40 SWAP2 SWAP1 PUSH2 0x30C3 JUMP JUMPDEST PUSH2 0x1B7F JUMPI PUSH1 0x40 MLOAD PUSH32 0x8C379A000000000000000000000000000000000000000000000000000000000 DUP2 MSTORE PUSH1 0x4 ADD PUSH2 0x1B76 SWAP1 PUSH2 0x3162 JUMP JUMPDEST PUSH1 0x40 MLOAD DUP1 SWAP2 SUB SWAP1 REVERT JUMPDEST SWAP5 SWAP4 POP POP POP POP JUMP JUMPDEST PUSH2 0x1B8F PUSH2 0x21ED JUMP JUMPDEST PUSH1 0x0 PUSH1 0x20 DUP4 PUSH2 0x1B9E SWAP2 SWAP1 PUSH2 0x31B1 JUMP JUMPDEST EQ PUSH2 0x1BCA JUMPI PUSH1 0x20 DUP3 PUSH2 0x1BB0 SWAP2 SWAP1 PUSH2 0x31B1 JUMP JUMPDEST PUSH1 0x20 PUSH2 0x1BBC SWAP2 SWAP1 PUSH2 0x31E2 JUMP JUMPDEST DUP3 PUSH2 0x1BC7 SWAP2 SWAP1 PUSH2 0x2E66 JUMP JUMPDEST SWAP2 POP JUMPDEST DUP2 DUP4 PUSH1 0x20 ADD DUP2 DUP2 MSTORE POP POP PUSH1 0x40 MLOAD DUP1 DUP5 MSTORE PUSH1 0x0 DUP2 MSTORE DUP3 DUP2 ADD PUSH1 0x20 ADD PUSH1 0x40 MSTORE POP DUP3 SWAP1 POP SWAP3 SWAP2 POP POP JUMP JUMPDEST PUSH1 0x17 DUP2 PUSH8 0xFFFFFFFFFFFFFFFF AND GT PUSH2 0x1C28 JUMPI PUSH2 0x1C22 DUP2 PUSH1 0x5 DUP5 PUSH1 0xFF AND SWAP1 SHL PUSH1 0xFF AND OR DUP5 PUSH2 0x1D98 SWAP1 SWAP2 SWAP1 PUSH4 0xFFFFFFFF AND JUMP JUMPDEST POP PUSH2 0x1D71 JUMP JUMPDEST PUSH1 0xFF DUP2 PUSH8 0xFFFFFFFFFFFFFFFF AND GT PUSH2 0x1C7E JUMPI PUSH2 0x1C57 PUSH1 0x18 PUSH1 0x5 DUP5 PUSH1 0xFF AND SWAP1 SHL OR DUP5 PUSH2 0x1D98 SWAP1 SWAP2 SWAP1 PUSH4 0xFFFFFFFF AND JUMP JUMPDEST POP PUSH2 0x1C78 DUP2 PUSH8 0xFFFFFFFFFFFFFFFF AND PUSH1 0x1 DUP6 PUSH2 0x1DB8 SWAP1 SWAP3 SWAP2 SWAP1 PUSH4 0xFFFFFFFF AND JUMP JUMPDEST POP PUSH2 0x1D70 JUMP JUMPDEST PUSH2 0xFFFF DUP2 PUSH8 0xFFFFFFFFFFFFFFFF AND GT PUSH2 0x1CD5 JUMPI PUSH2 0x1CAE PUSH1 0x19 PUSH1 0x5 DUP5 PUSH1 0xFF AND SWAP1 SHL OR DUP5 PUSH2 0x1D98 SWAP1 SWAP2 SWAP1 PUSH4 0xFFFFFFFF AND JUMP JUMPDEST POP PUSH2 0x1CCF DUP2 PUSH8 0xFFFFFFFFFFFFFFFF AND PUSH1 0x2 DUP6 PUSH2 0x1DB8 SWAP1 SWAP3 SWAP2 SWAP1 PUSH4 0xFFFFFFFF AND JUMP JUMPDEST POP PUSH2 0x1D6F JUMP JUMPDEST PUSH4 0xFFFFFFFF DUP2 PUSH8 0xFFFFFFFFFFFFFFFF AND GT PUSH2 0x1D2E JUMPI PUSH2 0x1D07 PUSH1 0x1A PUSH1 0x5 DUP5 PUSH1 0xFF AND SWAP1 SHL OR DUP5 PUSH2 0x1D98 SWAP1 SWAP2 SWAP1 PUSH4 0xFFFFFFFF AND JUMP JUMPDEST POP PUSH2 0x1D28 DUP2 PUSH8 0xFFFFFFFFFFFFFFFF AND PUSH1 0x4 DUP6 PUSH2 0x1DB8 SWAP1 SWAP3 SWAP2 SWAP1 PUSH4 0xFFFFFFFF AND JUMP JUMPDEST POP PUSH2 0x1D6E JUMP JUMPDEST PUSH2 0x1D4B PUSH1 0x1B PUSH1 0x5 DUP5 PUSH1 0xFF AND SWAP1 SHL OR DUP5 PUSH2 0x1D98 SWAP1 SWAP2 SWAP1 PUSH4 0xFFFFFFFF AND JUMP JUMPDEST POP PUSH2 0x1D6C DUP2 PUSH8 0xFFFFFFFFFFFFFFFF AND PUSH1 0x8 DUP6 PUSH2 0x1DB8 SWAP1 SWAP3 SWAP2 SWAP1 PUSH4 0xFFFFFFFF AND JUMP JUMPDEST POP JUMPDEST JUMPDEST JUMPDEST JUMPDEST POP POP POP JUMP JUMPDEST PUSH2 0x1D7E PUSH2 0x21ED JUMP JUMPDEST PUSH2 0x1D90 DUP4 DUP5 PUSH1 0x0 ADD MLOAD MLOAD DUP5 DUP6 MLOAD PUSH2 0x1DDA JUMP JUMPDEST SWAP1 POP SWAP3 SWAP2 POP POP JUMP JUMPDEST PUSH2 0x1DA0 PUSH2 0x21ED JUMP JUMPDEST PUSH2 0x1DB0 DUP4 DUP5 PUSH1 0x0 ADD MLOAD MLOAD DUP5 PUSH2 0x1EC9 JUMP JUMPDEST SWAP1 POP SWAP3 SWAP2 POP POP JUMP JUMPDEST PUSH2 0x1DC0 PUSH2 0x21ED JUMP JUMPDEST PUSH2 0x1DD1 DUP5 DUP6 PUSH1 0x0 ADD MLOAD MLOAD DUP6 DUP6 PUSH2 0x1F20 JUMP JUMPDEST SWAP1 POP SWAP4 SWAP3 POP POP POP JUMP JUMPDEST PUSH2 0x1DE2 PUSH2 0x21ED JUMP JUMPDEST DUP3 MLOAD DUP3 GT ISZERO PUSH2 0x1DF0 JUMPI PUSH1 0x0 DUP1 REVERT JUMPDEST DUP5 PUSH1 0x20 ADD MLOAD DUP3 DUP6 PUSH2 0x1E01 SWAP2 SWAP1 PUSH2 0x2E66 JUMP JUMPDEST GT ISZERO PUSH2 0x1E36 JUMPI PUSH2 0x1E35 DUP6 PUSH1 0x2 PUSH2 0x1E26 DUP9 PUSH1 0x20 ADD MLOAD DUP9 DUP8 PUSH2 0x1E21 SWAP2 SWAP1 PUSH2 0x2E66 JUMP JUMPDEST PUSH2 0x1FAE JUMP JUMPDEST PUSH2 0x1E30 SWAP2 SWAP1 PUSH2 0x3216 JUMP JUMPDEST PUSH2 0x1FCA JUMP JUMPDEST JUMPDEST PUSH1 0x0 DUP1 DUP7 MLOAD DUP1 MLOAD DUP8 PUSH1 0x20 DUP4 ADD ADD SWAP4 POP DUP1 DUP9 DUP8 ADD GT ISZERO PUSH2 0x1E55 JUMPI DUP8 DUP7 ADD DUP3 MSTORE JUMPDEST PUSH1 0x20 DUP8 ADD SWAP3 POP POP POP JUMPDEST PUSH1 0x20 DUP5 LT PUSH2 0x1E9C JUMPI DUP1 MLOAD DUP3 MSTORE PUSH1 0x20 DUP3 PUSH2 0x1E77 SWAP2 SWAP1 PUSH2 0x2E66 JUMP JUMPDEST SWAP2 POP PUSH1 0x20 DUP2 PUSH2 0x1E86 SWAP2 SWAP1 PUSH2 0x2E66 JUMP JUMPDEST SWAP1 POP PUSH1 0x20 DUP5 PUSH2 0x1E95 SWAP2 SWAP1 PUSH2 0x31E2 JUMP JUMPDEST SWAP4 POP PUSH2 0x1E5E JUMP JUMPDEST PUSH1 0x0 PUSH1 0x1 DUP6 PUSH1 0x20 SUB PUSH2 0x100 EXP SUB SWAP1 POP DUP1 NOT DUP3 MLOAD AND DUP2 DUP5 MLOAD AND DUP2 DUP2 OR DUP6 MSTORE POP POP POP DUP7 SWAP3 POP POP POP SWAP5 SWAP4 POP POP POP POP JUMP JUMPDEST PUSH2 0x1ED1 PUSH2 0x21ED JUMP JUMPDEST DUP4 PUSH1 0x20 ADD MLOAD DUP4 LT PUSH2 0x1EF7 JUMPI PUSH2 0x1EF6 DUP5 PUSH1 0x2 DUP7 PUSH1 0x20 ADD MLOAD PUSH2 0x1EF1 SWAP2 SWAP1 PUSH2 0x3216 JUMP JUMPDEST PUSH2 0x1FCA JUMP JUMPDEST JUMPDEST DUP4 MLOAD DUP1 MLOAD PUSH1 0x20 DUP6 DUP4 ADD ADD DUP5 DUP2 MSTORE8 DUP2 DUP7 EQ ISZERO PUSH2 0x1F13 JUMPI PUSH1 0x1 DUP3 ADD DUP4 MSTORE JUMPDEST POP POP POP DUP4 SWAP1 POP SWAP4 SWAP3 POP POP POP JUMP JUMPDEST PUSH2 0x1F28 PUSH2 0x21ED JUMP JUMPDEST DUP5 PUSH1 0x20 ADD MLOAD DUP5 DUP4 PUSH2 0x1F39 SWAP2 SWAP1 PUSH2 0x2E66 JUMP JUMPDEST GT ISZERO PUSH2 0x1F61 JUMPI PUSH2 0x1F60 DUP6 PUSH1 0x2 DUP7 DUP6 PUSH2 0x1F51 SWAP2 SWAP1 PUSH2 0x2E66 JUMP JUMPDEST PUSH2 0x1F5B SWAP2 SWAP1 PUSH2 0x3216 JUMP JUMPDEST PUSH2 0x1FCA JUMP JUMPDEST JUMPDEST PUSH1 0x0 PUSH1 0x1 DUP4 PUSH2 0x100 PUSH2 0x1F73 SWAP2 SWAP1 PUSH2 0x33A3 JUMP JUMPDEST PUSH2 0x1F7D SWAP2 SWAP1 PUSH2 0x31E2 JUMP JUMPDEST SWAP1 POP DUP6 MLOAD DUP4 DUP7 DUP3 ADD ADD DUP6 DUP4 NOT DUP3 MLOAD AND OR DUP2 MSTORE DUP2 MLOAD DUP6 DUP9 ADD GT ISZERO PUSH2 0x1FA0 JUMPI DUP5 DUP8 ADD DUP3 MSTORE JUMPDEST POP POP DUP6 SWAP2 POP POP SWAP5 SWAP4 POP POP POP POP JUMP JUMPDEST PUSH1 0x0 DUP2 DUP4 GT ISZERO PUSH2 0x1FC0 JUMPI DUP3 SWAP1 POP PUSH2 0x1FC4 JUMP JUMPDEST DUP2 SWAP1 POP JUMPDEST SWAP3 SWAP2 POP POP JUMP JUMPDEST PUSH1 0x0 DUP3 PUSH1 0x0 ADD MLOAD SWAP1 POP PUSH2 0x1FDD DUP4 DUP4 PUSH2 0x1B87 JUMP JUMPDEST POP PUSH2 0x1FE8 DUP4 DUP3 PUSH2 0x1D76 JUMP JUMPDEST POP POP POP POP JUMP JUMPDEST PUSH1 0x40 MLOAD DUP1 PUSH1 0xA0 ADD PUSH1 0x40 MSTORE DUP1 PUSH1 0x0 DUP1 NOT AND DUP2 MSTORE PUSH1 0x20 ADD PUSH1 0x0 PUSH20 0xFFFFFFFFFFFFFFFFFFFFFFFFFFFFFFFFFFFFFFFF AND DUP2 MSTORE PUSH1 0x20 ADD PUSH1 0x0 PUSH28 0xFFFFFFFFFFFFFFFFFFFFFFFFFFFFFFFFFFFFFFFFFFFFFFFFFFFFFFFF NOT AND DUP2 MSTORE PUSH1 0x20 ADD PUSH1 0x0 DUP2 MSTORE PUSH1 0x20 ADD PUSH2 0x2055 PUSH2 0x21ED JUMP JUMPDEST DUP2 MSTORE POP SWAP1 JUMP JUMPDEST DUP3 DUP1 SLOAD PUSH2 0x2067 SWAP1 PUSH2 0x2BFA JUMP JUMPDEST SWAP1 PUSH1 0x0 MSTORE PUSH1 0x20 PUSH1 0x0 KECCAK256 SWAP1 PUSH1 0x1F ADD PUSH1 0x20 SWAP1 DIV DUP2 ADD SWAP3 DUP3 PUSH2 0x2089 JUMPI PUSH1 0x0 DUP6 SSTORE PUSH2 0x20D0 JUMP JUMPDEST DUP3 PUSH1 0x1F LT PUSH2 0x20A2 JUMPI DUP1 CALLDATALOAD PUSH1 0xFF NOT AND DUP4 DUP1 ADD OR DUP6 SSTORE PUSH2 0x20D0 JUMP JUMPDEST DUP3 DUP1 ADD PUSH1 0x1 ADD DUP6 SSTORE DUP3 ISZERO PUSH2 0x20D0 JUMPI SWAP2 DUP3 ADD JUMPDEST DUP3 DUP2 GT ISZERO PUSH2 0x20CF JUMPI DUP3 CALLDATALOAD DUP3 SSTORE SWAP2 PUSH1 0x20 ADD SWAP2 SWAP1 PUSH1 0x1 ADD SWAP1 PUSH2 0x20B4 JUMP JUMPDEST JUMPDEST POP SWAP1 POP PUSH2 0x20DD SWAP2 SWAP1 PUSH2 0x2207 JUMP JUMPDEST POP SWAP1 JUMP JUMPDEST DUP3 DUP1 SLOAD PUSH2 0x20ED SWAP1 PUSH2 0x2BFA JUMP JUMPDEST SWAP1 PUSH1 0x0 MSTORE PUSH1 0x20 PUSH1 0x0 KECCAK256 SWAP1 PUSH1 0x1F ADD PUSH1 0x20 SWAP1 DIV DUP2 ADD SWAP3 DUP3 PUSH2 0x210F JUMPI PUSH1 0x0 DUP6 SSTORE PUSH2 0x2156 JUMP JUMPDEST DUP3 PUSH1 0x1F LT PUSH2 0x2128 JUMPI DUP1 CALLDATALOAD PUSH1 0xFF NOT AND DUP4 DUP1 ADD OR DUP6 SSTORE PUSH2 0x2156 JUMP JUMPDEST DUP3 DUP1 ADD PUSH1 0x1 ADD DUP6 SSTORE DUP3 ISZERO PUSH2 0x2156 JUMPI SWAP2 DUP3 ADD JUMPDEST DUP3 DUP2 GT ISZERO PUSH2 0x2155 JUMPI DUP3 CALLDATALOAD DUP3 SSTORE SWAP2 PUSH1 0x20 ADD SWAP2 SWAP1 PUSH1 0x1 ADD SWAP1 PUSH2 0x213A JUMP JUMPDEST JUMPDEST POP SWAP1 POP PUSH2 0x2163 SWAP2 SWAP1 PUSH2 0x2207 JUMP JUMPDEST POP SWAP1 JUMP JUMPDEST DUP3 DUP1 SLOAD PUSH2 0x2173 SWAP1 PUSH2 0x2BFA JUMP JUMPDEST SWAP1 PUSH1 0x0 MSTORE PUSH1 0x20 PUSH1 0x0 KECCAK256 SWAP1 PUSH1 0x1F ADD PUSH1 0x20 SWAP1 DIV DUP2 ADD SWAP3 DUP3 PUSH2 0x2195 JUMPI PUSH1 0x0 DUP6 SSTORE PUSH2 0x21DC JUMP JUMPDEST DUP3 PUSH1 0x1F LT PUSH2 0x21AE JUMPI DUP1 MLOAD PUSH1 0xFF NOT AND DUP4 DUP1 ADD OR DUP6 SSTORE PUSH2 0x21DC JUMP JUMPDEST DUP3 DUP1 ADD PUSH1 0x1 ADD DUP6 SSTORE DUP3 ISZERO PUSH2 0x21DC JUMPI SWAP2 DUP3 ADD JUMPDEST DUP3 DUP2 GT ISZERO PUSH2 0x21DB JUMPI DUP3 MLOAD DUP3 SSTORE SWAP2 PUSH1 0x20 ADD SWAP2 SWAP1 PUSH1 0x1 ADD SWAP1 PUSH2 0x21C0 JUMP JUMPDEST JUMPDEST POP SWAP1 POP PUSH2 0x21E9 SWAP2 SWAP1 PUSH2 0x2207 JUMP JUMPDEST POP SWAP1 JUMP JUMPDEST PUSH1 0x40 MLOAD DUP1 PUSH1 0x40 ADD PUSH1 0x40 MSTORE DUP1 PUSH1 0x60 DUP2 MSTORE PUSH1 0x20 ADD PUSH1 0x0 DUP2 MSTORE POP SWAP1 JUMP JUMPDEST JUMPDEST DUP1 DUP3 GT ISZERO PUSH2 0x2220 JUMPI PUSH1 0x0 DUP2 PUSH1 0x0 SWAP1 SSTORE POP PUSH1 0x1 ADD PUSH2 0x2208 JUMP JUMPDEST POP SWAP1 JUMP JUMPDEST PUSH1 0x0 PUSH1 0x40 MLOAD SWAP1 POP SWAP1 JUMP JUMPDEST PUSH1 0x0 DUP1 REVERT JUMPDEST PUSH1 0x0 DUP1 REVERT JUMPDEST PUSH1 0x0 DUP2 SWAP1 POP SWAP2 SWAP1 POP JUMP JUMPDEST PUSH2 0x224B DUP2 PUSH2 0x2238 JUMP JUMPDEST DUP2 EQ PUSH2 0x2256 JUMPI PUSH1 0x0 DUP1 REVERT JUMPDEST POP JUMP JUMPDEST PUSH1 0x0 DUP2 CALLDATALOAD SWAP1 POP PUSH2 0x2268 DUP2 PUSH2 0x2242 JUMP JUMPDEST SWAP3 SWAP2 POP POP JUMP JUMPDEST PUSH1 0x0 DUP1 PUSH1 0x40 DUP4 DUP6 SUB SLT ISZERO PUSH2 0x2285 JUMPI PUSH2 0x2284 PUSH2 0x222E JUMP JUMPDEST JUMPDEST PUSH1 0x0 PUSH2 0x2293 DUP6 DUP3 DUP7 ADD PUSH2 0x2259 JUMP JUMPDEST SWAP3 POP POP PUSH1 0x20 PUSH2 0x22A4 DUP6 DUP3 DUP7 ADD PUSH2 0x2259 JUMP JUMPDEST SWAP2 POP POP SWAP3 POP SWAP3 SWAP1 POP JUMP JUMPDEST PUSH1 0x0 DUP2 SWAP1 POP SWAP2 SWAP1 POP JUMP JUMPDEST PUSH2 0x22C1 DUP2 PUSH2 0x22AE JUMP JUMPDEST DUP3 MSTORE POP POP JUMP JUMPDEST PUSH1 0x0 PUSH1 0x20 DUP3 ADD SWAP1 POP PUSH2 0x22DC PUSH1 0x0 DUP4 ADD DUP5 PUSH2 0x22B8 JUMP JUMPDEST SWAP3 SWAP2 POP POP JUMP JUMPDEST PUSH2 0x22EB DUP2 PUSH2 0x2238 JUMP JUMPDEST DUP3 MSTORE POP POP JUMP JUMPDEST PUSH1 0x0 PUSH1 0x20 DUP3 ADD SWAP1 POP PUSH2 0x2306 PUSH1 0x0 DUP4 ADD DUP5 PUSH2 0x22E2 JUMP JUMPDEST SWAP3 SWAP2 POP POP JUMP JUMPDEST PUSH1 0x0 DUP2 ISZERO ISZERO SWAP1 POP SWAP2 SWAP1 POP JUMP JUMPDEST PUSH2 0x2321 DUP2 PUSH2 0x230C JUMP JUMPDEST DUP2 EQ PUSH2 0x232C JUMPI PUSH1 0x0 DUP1 REVERT JUMPDEST POP JUMP JUMPDEST PUSH1 0x0 DUP2 CALLDATALOAD SWAP1 POP PUSH2 0x233E DUP2 PUSH2 0x2318 JUMP JUMPDEST SWAP3 SWAP2 POP POP JUMP JUMPDEST PUSH1 0x0 DUP1 PUSH1 0x40 DUP4 DUP6 SUB SLT ISZERO PUSH2 0x235B JUMPI PUSH2 0x235A PUSH2 0x222E JUMP JUMPDEST JUMPDEST PUSH1 0x0 PUSH2 0x2369 DUP6 DUP3 DUP7 ADD PUSH2 0x2259 JUMP JUMPDEST SWAP3 POP POP PUSH1 0x20 PUSH2 0x237A DUP6 DUP3 DUP7 ADD PUSH2 0x232F JUMP JUMPDEST SWAP2 POP POP SWAP3 POP SWAP3 SWAP1 POP JUMP JUMPDEST PUSH1 0x0 DUP2 MLOAD SWAP1 POP SWAP2 SWAP1 POP JUMP JUMPDEST PUSH1 0x0 DUP3 DUP3 MSTORE PUSH1 0x20 DUP3 ADD SWAP1 POP SWAP3 SWAP2 POP POP JUMP JUMPDEST PUSH1 0x0 JUMPDEST DUP4 DUP2 LT ISZERO PUSH2 0x23BE JUMPI DUP1 DUP3 ADD MLOAD DUP2 DUP5 ADD MSTORE PUSH1 0x20 DUP2 ADD SWAP1 POP PUSH2 0x23A3 JUMP JUMPDEST DUP4 DUP2 GT ISZERO PUSH2 0x23CD JUMPI PUSH1 0x0 DUP5 DUP5 ADD MSTORE JUMPDEST POP POP POP POP JUMP JUMPDEST PUSH1 0x0 PUSH1 0x1F NOT PUSH1 0x1F DUP4 ADD AND SWAP1 POP SWAP2 SWAP1 POP JUMP JUMPDEST PUSH1 0x0 PUSH2 0x23EF DUP3 PUSH2 0x2384 JUMP JUMPDEST PUSH2 0x23F9 DUP2 DUP6 PUSH2 0x238F JUMP JUMPDEST SWAP4 POP PUSH2 0x2409 DUP2 DUP6 PUSH1 0x20 DUP7 ADD PUSH2 0x23A0 JUMP JUMPDEST PUSH2 0x2412 DUP2 PUSH2 0x23D3 JUMP JUMPDEST DUP5 ADD SWAP2 POP POP SWAP3 SWAP2 POP POP JUMP JUMPDEST PUSH1 0x0 PUSH1 0x20 DUP3 ADD SWAP1 POP DUP2 DUP2 SUB PUSH1 0x0 DUP4 ADD MSTORE PUSH2 0x2437 DUP2 DUP5 PUSH2 0x23E4 JUMP JUMPDEST SWAP1 POP SWAP3 SWAP2 POP POP JUMP JUMPDEST PUSH1 0x0 PUSH20 0xFFFFFFFFFFFFFFFFFFFFFFFFFFFFFFFFFFFFFFFF DUP3 AND SWAP1 POP SWAP2 SWAP1 POP JUMP JUMPDEST PUSH1 0x0 PUSH2 0x246A DUP3 PUSH2 0x243F JUMP JUMPDEST SWAP1 POP SWAP2 SWAP1 POP JUMP JUMPDEST PUSH2 0x247A DUP2 PUSH2 0x245F JUMP JUMPDEST DUP2 EQ PUSH2 0x2485 JUMPI PUSH1 0x0 DUP1 REVERT JUMPDEST POP JUMP JUMPDEST PUSH1 0x0 DUP2 CALLDATALOAD SWAP1 POP PUSH2 0x2497 DUP2 PUSH2 0x2471 JUMP JUMPDEST SWAP3 SWAP2 POP POP JUMP JUMPDEST PUSH1 0x0 DUP1 REVERT JUMPDEST PUSH1 0x0 DUP1 REVERT JUMPDEST PUSH32 0x4E487B7100000000000000000000000000000000000000000000000000000000 PUSH1 0x0 MSTORE PUSH1 0x41 PUSH1 0x4 MSTORE PUSH1 0x24 PUSH1 0x0 REVERT JUMPDEST PUSH2 0x24DF DUP3 PUSH2 0x23D3 JUMP JUMPDEST DUP2 ADD DUP2 DUP2 LT PUSH8 0xFFFFFFFFFFFFFFFF DUP3 GT OR ISZERO PUSH2 0x24FE JUMPI PUSH2 0x24FD PUSH2 0x24A7 JUMP JUMPDEST JUMPDEST DUP1 PUSH1 0x40 MSTORE POP POP POP JUMP JUMPDEST PUSH1 0x0 PUSH2 0x2511 PUSH2 0x2224 JUMP JUMPDEST SWAP1 POP PUSH2 0x251D DUP3 DUP3 PUSH2 0x24D6 JUMP JUMPDEST SWAP2 SWAP1 POP JUMP JUMPDEST PUSH1 0x0 PUSH8 0xFFFFFFFFFFFFFFFF DUP3 GT ISZERO PUSH2 0x253D JUMPI PUSH2 0x253C PUSH2 0x24A7 JUMP JUMPDEST JUMPDEST PUSH2 0x2546 DUP3 PUSH2 0x23D3 JUMP JUMPDEST SWAP1 POP PUSH1 0x20 DUP2 ADD SWAP1 POP SWAP2 SWAP1 POP JUMP JUMPDEST DUP3 DUP2 DUP4 CALLDATACOPY PUSH1 0x0 DUP4 DUP4 ADD MSTORE POP POP POP JUMP JUMPDEST PUSH1 0x0 PUSH2 0x2575 PUSH2 0x2570 DUP5 PUSH2 0x2522 JUMP JUMPDEST PUSH2 0x2507 JUMP JUMPDEST SWAP1 POP DUP3 DUP2 MSTORE PUSH1 0x20 DUP2 ADD DUP5 DUP5 DUP5 ADD GT ISZERO PUSH2 0x2591 JUMPI PUSH2 0x2590 PUSH2 0x24A2 JUMP JUMPDEST JUMPDEST PUSH2 0x259C DUP5 DUP3 DUP6 PUSH2 0x2553 JUMP JUMPDEST POP SWAP4 SWAP3 POP POP POP JUMP JUMPDEST PUSH1 0x0 DUP3 PUSH1 0x1F DUP4 ADD SLT PUSH2 0x25B9 JUMPI PUSH2 0x25B8 PUSH2 0x249D JUMP JUMPDEST JUMPDEST DUP2 CALLDATALOAD PUSH2 0x25C9 DUP5 DUP3 PUSH1 0x20 DUP7 ADD PUSH2 0x2562 JUMP JUMPDEST SWAP2 POP POP SWAP3 SWAP2 POP POP JUMP JUMPDEST PUSH2 0x25DB DUP2 PUSH2 0x22AE JUMP JUMPDEST DUP2 EQ PUSH2 0x25E6 JUMPI PUSH1 0x0 DUP1 REVERT JUMPDEST POP JUMP JUMPDEST PUSH1 0x0 DUP2 CALLDATALOAD SWAP1 POP PUSH2 0x25F8 DUP2 PUSH2 0x25D2 JUMP JUMPDEST SWAP3 SWAP2 POP POP JUMP JUMPDEST PUSH1 0x0 DUP1 PUSH1 0x0 DUP1 PUSH1 0x0 DUP1 PUSH1 0x0 PUSH1 0xE0 DUP9 DUP11 SUB SLT ISZERO PUSH2 0x261D JUMPI PUSH2 0x261C PUSH2 0x222E JUMP JUMPDEST JUMPDEST PUSH1 0x0 PUSH2 0x262B DUP11 DUP3 DUP12 ADD PUSH2 0x2488 JUMP JUMPDEST SWAP8 POP POP PUSH1 0x20 DUP9 ADD CALLDATALOAD PUSH8 0xFFFFFFFFFFFFFFFF DUP2 GT ISZERO PUSH2 0x264C JUMPI PUSH2 0x264B PUSH2 0x2233 JUMP JUMPDEST JUMPDEST PUSH2 0x2658 DUP11 DUP3 DUP12 ADD PUSH2 0x25A4 JUMP JUMPDEST SWAP7 POP POP PUSH1 0x40 PUSH2 0x2669 DUP11 DUP3 DUP12 ADD PUSH2 0x25E9 JUMP JUMPDEST SWAP6 POP POP PUSH1 0x60 DUP9 ADD CALLDATALOAD PUSH8 0xFFFFFFFFFFFFFFFF DUP2 GT ISZERO PUSH2 0x268A JUMPI PUSH2 0x2689 PUSH2 0x2233 JUMP JUMPDEST JUMPDEST PUSH2 0x2696 DUP11 DUP3 DUP12 ADD PUSH2 0x25A4 JUMP JUMPDEST SWAP5 POP POP PUSH1 0x80 DUP9 ADD CALLDATALOAD PUSH8 0xFFFFFFFFFFFFFFFF DUP2 GT ISZERO PUSH2 0x26B7 JUMPI PUSH2 0x26B6 PUSH2 0x2233 JUMP JUMPDEST JUMPDEST PUSH2 0x26C3 DUP11 DUP3 DUP12 ADD PUSH2 0x25A4 JUMP JUMPDEST SWAP4 POP POP PUSH1 0xA0 DUP9 ADD CALLDATALOAD PUSH8 0xFFFFFFFFFFFFFFFF DUP2 GT ISZERO PUSH2 0x26E4 JUMPI PUSH2 0x26E3 PUSH2 0x2233 JUMP JUMPDEST JUMPDEST PUSH2 0x26F0 DUP11 DUP3 DUP12 ADD PUSH2 0x25A4 JUMP JUMPDEST SWAP3 POP POP PUSH1 0xC0 DUP9 ADD CALLDATALOAD PUSH8 0xFFFFFFFFFFFFFFFF DUP2 GT ISZERO PUSH2 0x2711 JUMPI PUSH2 0x2710 PUSH2 0x2233 JUMP JUMPDEST JUMPDEST PUSH2 0x271D DUP11 DUP3 DUP12 ADD PUSH2 0x25A4 JUMP JUMPDEST SWAP2 POP POP SWAP3 SWAP6 SWAP9 SWAP2 SWAP5 SWAP8 POP SWAP3 SWAP6 POP JUMP JUMPDEST PUSH1 0x0 DUP2 SWAP1 POP SWAP2 SWAP1 POP JUMP JUMPDEST PUSH2 0x273F DUP2 PUSH2 0x272C JUMP JUMPDEST DUP3 MSTORE POP POP JUMP JUMPDEST PUSH1 0x0 PUSH1 0x20 DUP3 ADD SWAP1 POP PUSH2 0x275A PUSH1 0x0 DUP4 ADD DUP5 PUSH2 0x2736 JUMP JUMPDEST SWAP3 SWAP2 POP POP JUMP JUMPDEST PUSH1 0x0 DUP1 PUSH1 0x40 DUP4 DUP6 SUB SLT ISZERO PUSH2 0x2777 JUMPI PUSH2 0x2776 PUSH2 0x222E JUMP JUMPDEST JUMPDEST PUSH1 0x0 PUSH2 0x2785 DUP6 DUP3 DUP7 ADD PUSH2 0x2259 JUMP JUMPDEST SWAP3 POP POP PUSH1 0x20 PUSH2 0x2796 DUP6 DUP3 DUP7 ADD PUSH2 0x25E9 JUMP JUMPDEST SWAP2 POP POP SWAP3 POP SWAP3 SWAP1 POP JUMP JUMPDEST PUSH1 0x0 DUP1 REVERT JUMPDEST PUSH1 0x0 DUP1 REVERT JUMPDEST PUSH1 0x0 DUP1 DUP4 PUSH1 0x1F DUP5 ADD SLT PUSH2 0x27C0 JUMPI PUSH2 0x27BF PUSH2 0x249D JUMP JUMPDEST JUMPDEST DUP3 CALLDATALOAD SWAP1 POP PUSH8 0xFFFFFFFFFFFFFFFF DUP2 GT ISZERO PUSH2 0x27DD JUMPI PUSH2 0x27DC PUSH2 0x27A0 JUMP JUMPDEST JUMPDEST PUSH1 0x20 DUP4 ADD SWAP2 POP DUP4 PUSH1 0x1 DUP3 MUL DUP4 ADD GT ISZERO PUSH2 0x27F9 JUMPI PUSH2 0x27F8 PUSH2 0x27A5 JUMP JUMPDEST JUMPDEST SWAP3 POP SWAP3 SWAP1 POP JUMP JUMPDEST PUSH1 0x0 DUP1 PUSH1 0x0 PUSH1 0x40 DUP5 DUP7 SUB SLT ISZERO PUSH2 0x2819 JUMPI PUSH2 0x2818 PUSH2 0x222E JUMP JUMPDEST JUMPDEST PUSH1 0x0 PUSH2 0x2827 DUP7 DUP3 DUP8 ADD PUSH2 0x2259 JUMP JUMPDEST SWAP4 POP POP PUSH1 0x20 DUP5 ADD CALLDATALOAD PUSH8 0xFFFFFFFFFFFFFFFF DUP2 GT ISZERO PUSH2 0x2848 JUMPI PUSH2 0x2847 PUSH2 0x2233 JUMP JUMPDEST JUMPDEST PUSH2 0x2854 DUP7 DUP3 DUP8 ADD PUSH2 0x27AA JUMP JUMPDEST SWAP3 POP SWAP3 POP POP SWAP3 POP SWAP3 POP SWAP3 JUMP JUMPDEST PUSH1 0x0 DUP1 DUP4 PUSH1 0x1F DUP5 ADD SLT PUSH2 0x2876 JUMPI PUSH2 0x2875 PUSH2 0x249D JUMP JUMPDEST JUMPDEST DUP3 CALLDATALOAD SWAP1 POP PUSH8 0xFFFFFFFFFFFFFFFF DUP2 GT ISZERO PUSH2 0x2893 JUMPI PUSH2 0x2892 PUSH2 0x27A0 JUMP JUMPDEST JUMPDEST PUSH1 0x20 DUP4 ADD SWAP2 POP DUP4 PUSH1 0x1 DUP3 MUL DUP4 ADD GT ISZERO PUSH2 0x28AF JUMPI PUSH2 0x28AE PUSH2 0x27A5 JUMP JUMPDEST JUMPDEST SWAP3 POP SWAP3 SWAP1 POP JUMP JUMPDEST PUSH1 0x0 DUP1 PUSH1 0x0 PUSH1 0x40 DUP5 DUP7 SUB SLT ISZERO PUSH2 0x28CF JUMPI PUSH2 0x28CE PUSH2 0x222E JUMP JUMPDEST JUMPDEST PUSH1 0x0 PUSH2 0x28DD DUP7 DUP3 DUP8 ADD PUSH2 0x2259 JUMP JUMPDEST SWAP4 POP POP PUSH1 0x20 DUP5 ADD CALLDATALOAD PUSH8 0xFFFFFFFFFFFFFFFF DUP2 GT ISZERO PUSH2 0x28FE JUMPI PUSH2 0x28FD PUSH2 0x2233 JUMP JUMPDEST JUMPDEST PUSH2 0x290A DUP7 DUP3 DUP8 ADD PUSH2 0x2860 JUMP JUMPDEST SWAP3 POP SWAP3 POP POP SWAP3 POP SWAP3 POP SWAP3 JUMP JUMPDEST PUSH1 0x0 PUSH1 0x20 DUP3 DUP5 SUB SLT ISZERO PUSH2 0x292C JUMPI PUSH2 0x292B PUSH2 0x222E JUMP JUMPDEST JUMPDEST PUSH1 0x0 DUP3 ADD CALLDATALOAD PUSH8 0xFFFFFFFFFFFFFFFF DUP2 GT ISZERO PUSH2 0x294A JUMPI PUSH2 0x2949 PUSH2 0x2233 JUMP JUMPDEST JUMPDEST PUSH2 0x2956 DUP5 DUP3 DUP6 ADD PUSH2 0x25A4 JUMP JUMPDEST SWAP2 POP POP SWAP3 SWAP2 POP POP JUMP JUMPDEST PUSH1 0x0 DUP2 MLOAD SWAP1 POP SWAP2 SWAP1 POP JUMP JUMPDEST PUSH1 0x0 DUP3 DUP3 MSTORE PUSH1 0x20 DUP3 ADD SWAP1 POP SWAP3 SWAP2 POP POP JUMP JUMPDEST PUSH1 0x0 PUSH2 0x2986 DUP3 PUSH2 0x295F JUMP JUMPDEST PUSH2 0x2990 DUP2 DUP6 PUSH2 0x296A JUMP JUMPDEST SWAP4 POP PUSH2 0x29A0 DUP2 DUP6 PUSH1 0x20 DUP7 ADD PUSH2 0x23A0 JUMP JUMPDEST PUSH2 0x29A9 DUP2 PUSH2 0x23D3 JUMP JUMPDEST DUP5 ADD SWAP2 POP POP SWAP3 SWAP2 POP POP JUMP JUMPDEST PUSH1 0x0 PUSH1 0x20 DUP3 ADD SWAP1 POP DUP2 DUP2 SUB PUSH1 0x0 DUP4 ADD MSTORE PUSH2 0x29CE DUP2 DUP5 PUSH2 0x297B JUMP JUMPDEST SWAP1 POP SWAP3 SWAP2 POP POP JUMP JUMPDEST PUSH2 0x29DF DUP2 PUSH2 0x230C JUMP JUMPDEST DUP3 MSTORE POP POP JUMP JUMPDEST PUSH1 0x0 PUSH1 0x20 DUP3 ADD SWAP1 POP PUSH2 0x29FA PUSH1 0x0 DUP4 ADD DUP5 PUSH2 0x29D6 JUMP JUMPDEST SWAP3 SWAP2 POP POP JUMP JUMPDEST PUSH2 0x2A09 DUP2 PUSH2 0x272C JUMP JUMPDEST DUP2 EQ PUSH2 0x2A14 JUMPI PUSH1 0x0 DUP1 REVERT JUMPDEST POP JUMP JUMPDEST PUSH1 0x0 DUP2 CALLDATALOAD SWAP1 POP PUSH2 0x2A26 DUP2 PUSH2 0x2A00 JUMP JUMPDEST SWAP3 SWAP2 POP POP JUMP JUMPDEST PUSH1 0x0 DUP1 PUSH1 0x40 DUP4 DUP6 SUB SLT ISZERO PUSH2 0x2A43 JUMPI PUSH2 0x2A42 PUSH2 0x222E JUMP JUMPDEST JUMPDEST PUSH1 0x0 PUSH2 0x2A51 DUP6 DUP3 DUP7 ADD PUSH2 0x2259 JUMP JUMPDEST SWAP3 POP POP PUSH1 0x20 PUSH2 0x2A62 DUP6 DUP3 DUP7 ADD PUSH2 0x2A17 JUMP JUMPDEST SWAP2 POP POP SWAP3 POP SWAP3 SWAP1 POP JUMP JUMPDEST PUSH32 0x536F75726365206D75737420626520746865206F7261636C65206F6620746865 PUSH1 0x0 DUP3 ADD MSTORE PUSH32 0x2072657175657374000000000000000000000000000000000000000000000000 PUSH1 0x20 DUP3 ADD MSTORE POP JUMP JUMPDEST PUSH1 0x0 PUSH2 0x2AC8 PUSH1 0x28 DUP4 PUSH2 0x238F JUMP JUMPDEST SWAP2 POP PUSH2 0x2AD3 DUP3 PUSH2 0x2A6C JUMP JUMPDEST PUSH1 0x40 DUP3 ADD SWAP1 POP SWAP2 SWAP1 POP JUMP JUMPDEST PUSH1 0x0 PUSH1 0x20 DUP3 ADD SWAP1 POP DUP2 DUP2 SUB PUSH1 0x0 DUP4 ADD MSTORE PUSH2 0x2AF7 DUP2 PUSH2 0x2ABB JUMP JUMPDEST SWAP1 POP SWAP2 SWAP1 POP JUMP JUMPDEST PUSH1 0x0 DUP2 SWAP1 POP SWAP3 SWAP2 POP POP JUMP JUMPDEST PUSH32 0x436861696E6C696E6B206E6F64652072657475726E6564206279746573333200 PUSH1 0x0 DUP3 ADD MSTORE POP JUMP JUMPDEST PUSH1 0x0 PUSH2 0x2B3F PUSH1 0x1F DUP4 PUSH2 0x2AFE JUMP JUMPDEST SWAP2 POP PUSH2 0x2B4A DUP3 PUSH2 0x2B09 JUMP JUMPDEST PUSH1 0x1F DUP3 ADD SWAP1 POP SWAP2 SWAP1 POP JUMP JUMPDEST PUSH1 0x0 PUSH2 0x2B60 DUP3 PUSH2 0x2B32 JUMP JUMPDEST SWAP2 POP DUP2 SWAP1 POP SWAP2 SWAP1 POP JUMP JUMPDEST PUSH32 0x436861696E6C696E6B206E6F64652072657475726E6564206120626F6F6C0000 PUSH1 0x0 DUP3 ADD MSTORE POP JUMP JUMPDEST PUSH1 0x0 PUSH2 0x2BA0 PUSH1 0x1E DUP4 PUSH2 0x2AFE JUMP JUMPDEST SWAP2 POP PUSH2 0x2BAB DUP3 PUSH2 0x2B6A JUMP JUMPDEST PUSH1 0x1E DUP3 ADD SWAP1 POP SWAP2 SWAP1 POP JUMP JUMPDEST PUSH1 0x0 PUSH2 0x2BC1 DUP3 PUSH2 0x2B93 JUMP JUMPDEST SWAP2 POP DUP2 SWAP1 POP SWAP2 SWAP1 POP JUMP JUMPDEST PUSH32 0x4E487B7100000000000000000000000000000000000000000000000000000000 PUSH1 0x0 MSTORE PUSH1 0x22 PUSH1 0x4 MSTORE PUSH1 0x24 PUSH1 0x0 REVERT JUMPDEST PUSH1 0x0 PUSH1 0x2 DUP3 DIV SWAP1 POP PUSH1 0x1 DUP3 AND DUP1 PUSH2 0x2C12 JUMPI PUSH1 0x7F DUP3 AND SWAP2 POP JUMPDEST PUSH1 0x20 DUP3 LT DUP2 EQ ISZERO PUSH2 0x2C26 JUMPI PUSH2 0x2C25 PUSH2 0x2BCB JUMP JUMPDEST JUMPDEST POP SWAP2 SWAP1 POP JUMP JUMPDEST PUSH32 0x436861696E6C696E6B206E6F64652072657475726E656420612075696E740000 PUSH1 0x0 DUP3 ADD MSTORE POP JUMP JUMPDEST PUSH1 0x0 PUSH2 0x2C62 PUSH1 0x1E DUP4 PUSH2 0x2AFE JUMP JUMPDEST SWAP2 POP PUSH2 0x2C6D DUP3 PUSH2 0x2C2C JUMP JUMPDEST PUSH1 0x1E DUP3 ADD SWAP1 POP SWAP2 SWAP1 POP JUMP JUMPDEST PUSH1 0x0 PUSH2 0x2C83 DUP3 PUSH2 0x2C55 JUMP JUMPDEST SWAP2 POP DUP2 SWAP1 POP SWAP2 SWAP1 POP JUMP JUMPDEST PUSH1 0x0 PUSH2 0x2C99 DUP4 DUP6 PUSH2 0x2AFE JUMP JUMPDEST SWAP4 POP PUSH2 0x2CA6 DUP4 DUP6 DUP5 PUSH2 0x2553 JUMP JUMPDEST DUP3 DUP5 ADD SWAP1 POP SWAP4 SWAP3 POP POP POP JUMP JUMPDEST PUSH1 0x0 PUSH2 0x2CBF DUP3 DUP5 DUP7 PUSH2 0x2C8D JUMP JUMPDEST SWAP2 POP DUP2 SWAP1 POP SWAP4 SWAP3 POP POP POP JUMP JUMPDEST PUSH32 0x436861696E6C696E6B206E6F64652072657475726E6564206120737472696E67 PUSH1 0x0 DUP3 ADD MSTORE POP JUMP JUMPDEST PUSH1 0x0 PUSH2 0x2D01 PUSH1 0x20 DUP4 PUSH2 0x2AFE JUMP JUMPDEST SWAP2 POP PUSH2 0x2D0C DUP3 PUSH2 0x2CCB JUMP JUMPDEST PUSH1 0x20 DUP3 ADD SWAP1 POP SWAP2 SWAP1 POP JUMP JUMPDEST PUSH1 0x0 PUSH2 0x2D22 DUP3 PUSH2 0x2CF4 JUMP JUMPDEST SWAP2 POP DUP2 SWAP1 POP SWAP2 SWAP1 POP JUMP JUMPDEST PUSH1 0x0 DUP2 SWAP1 POP SWAP3 SWAP2 POP POP JUMP JUMPDEST PUSH1 0x0 PUSH2 0x2D43 DUP4 DUP6 PUSH2 0x2D2C JUMP JUMPDEST SWAP4 POP PUSH2 0x2D50 DUP4 DUP6 DUP5 PUSH2 0x2553 JUMP JUMPDEST DUP3 DUP5 ADD SWAP1 POP SWAP4 SWAP3 POP POP POP JUMP JUMPDEST PUSH1 0x0 PUSH2 0x2D69 DUP3 DUP5 DUP7 PUSH2 0x2D37 JUMP JUMPDEST SWAP2 POP DUP2 SWAP1 POP SWAP4 SWAP3 POP POP POP JUMP JUMPDEST PUSH32 0x436861696E6C696E6B206E6F64652072657475726E6564206279746573000000 PUSH1 0x0 DUP3 ADD MSTORE POP JUMP JUMPDEST PUSH1 0x0 PUSH2 0x2DAB PUSH1 0x1D DUP4 PUSH2 0x2AFE JUMP JUMPDEST SWAP2 POP PUSH2 0x2DB6 DUP3 PUSH2 0x2D75 JUMP JUMPDEST PUSH1 0x1D DUP3 ADD SWAP1 POP SWAP2 SWAP1 POP JUMP JUMPDEST PUSH1 0x0 PUSH2 0x2DCC DUP3 PUSH2 0x2D9E JUMP JUMPDEST SWAP2 POP DUP2 SWAP1 POP SWAP2 SWAP1 POP JUMP JUMPDEST PUSH32 0x436861696E6C696E6B206E6F64652072657475726E656420616E20696E740000 PUSH1 0x0 DUP3 ADD MSTORE POP JUMP JUMPDEST PUSH1 0x0 PUSH2 0x2E0C PUSH1 0x1E DUP4 PUSH2 0x2AFE JUMP JUMPDEST SWAP2 POP PUSH2 0x2E17 DUP3 PUSH2 0x2DD6 JUMP JUMPDEST PUSH1 0x1E DUP3 ADD SWAP1 POP SWAP2 SWAP1 POP JUMP JUMPDEST PUSH1 0x0 PUSH2 0x2E2D DUP3 PUSH2 0x2DFF JUMP JUMPDEST SWAP2 POP DUP2 SWAP1 POP SWAP2 SWAP1 POP JUMP JUMPDEST PUSH32 0x4E487B7100000000000000000000000000000000000000000000000000000000 PUSH1 0x0 MSTORE PUSH1 0x11 PUSH1 0x4 MSTORE PUSH1 0x24 PUSH1 0x0 REVERT JUMPDEST PUSH1 0x0 PUSH2 0x2E71 DUP3 PUSH2 0x22AE JUMP JUMPDEST SWAP2 POP PUSH2 0x2E7C DUP4 PUSH2 0x22AE JUMP JUMPDEST SWAP3 POP DUP3 PUSH32 0xFFFFFFFFFFFFFFFFFFFFFFFFFFFFFFFFFFFFFFFFFFFFFFFFFFFFFFFFFFFFFFFF SUB DUP3 GT ISZERO PUSH2 0x2EB1 JUMPI PUSH2 0x2EB0 PUSH2 0x2E37 JUMP JUMPDEST JUMPDEST DUP3 DUP3 ADD SWAP1 POP SWAP3 SWAP2 POP POP JUMP JUMPDEST PUSH2 0x2EC5 DUP2 PUSH2 0x245F JUMP JUMPDEST DUP3 MSTORE POP POP JUMP JUMPDEST PUSH1 0x0 PUSH32 0xFFFFFFFF00000000000000000000000000000000000000000000000000000000 DUP3 AND SWAP1 POP SWAP2 SWAP1 POP JUMP JUMPDEST PUSH2 0x2F00 DUP2 PUSH2 0x2ECB JUMP JUMPDEST DUP3 MSTORE POP POP JUMP JUMPDEST PUSH1 0x0 PUSH2 0x100 DUP3 ADD SWAP1 POP PUSH2 0x2F1C PUSH1 0x0 DUP4 ADD DUP12 PUSH2 0x2EBC JUMP JUMPDEST PUSH2 0x2F29 PUSH1 0x20 DUP4 ADD DUP11 PUSH2 0x22B8 JUMP JUMPDEST PUSH2 0x2F36 PUSH1 0x40 DUP4 ADD DUP10 PUSH2 0x22E2 JUMP JUMPDEST PUSH2 0x2F43 PUSH1 0x60 DUP4 ADD DUP9 PUSH2 0x2EBC JUMP JUMPDEST PUSH2 0x2F50 PUSH1 0x80 DUP4 ADD DUP8 PUSH2 0x2EF7 JUMP JUMPDEST PUSH2 0x2F5D PUSH1 0xA0 DUP4 ADD DUP7 PUSH2 0x22B8 JUMP JUMPDEST PUSH2 0x2F6A PUSH1 0xC0 DUP4 ADD DUP6 PUSH2 0x22B8 JUMP JUMPDEST DUP2 DUP2 SUB PUSH1 0xE0 DUP4 ADD MSTORE PUSH2 0x2F7C DUP2 DUP5 PUSH2 0x297B JUMP JUMPDEST SWAP1 POP SWAP10 SWAP9 POP POP POP POP POP POP POP POP POP JUMP JUMPDEST PUSH1 0x0 DUP2 SWAP1 POP SWAP2 SWAP1 POP JUMP JUMPDEST PUSH1 0x0 PUSH2 0x2FB0 PUSH2 0x2FAB PUSH2 0x2FA6 DUP5 PUSH2 0x243F JUMP JUMPDEST PUSH2 0x2F8B JUMP JUMPDEST PUSH2 0x243F JUMP JUMPDEST SWAP1 POP SWAP2 SWAP1 POP JUMP JUMPDEST PUSH1 0x0 PUSH2 0x2FC2 DUP3 PUSH2 0x2F95 JUMP JUMPDEST SWAP1 POP SWAP2 SWAP1 POP JUMP JUMPDEST PUSH1 0x0 PUSH2 0x2FD4 DUP3 PUSH2 0x2FB7 JUMP JUMPDEST SWAP1 POP SWAP2 SWAP1 POP JUMP JUMPDEST PUSH1 0x0 DUP2 PUSH1 0x60 SHL SWAP1 POP SWAP2 SWAP1 POP JUMP JUMPDEST PUSH1 0x0 PUSH2 0x2FF3 DUP3 PUSH2 0x2FDB JUMP JUMPDEST SWAP1 POP SWAP2 SWAP1 POP JUMP JUMPDEST PUSH1 0x0 PUSH2 0x3005 DUP3 PUSH2 0x2FE8 JUMP JUMPDEST SWAP1 POP SWAP2 SWAP1 POP JUMP JUMPDEST PUSH2 0x301D PUSH2 0x3018 DUP3 PUSH2 0x2FC9 JUMP JUMPDEST PUSH2 0x2FFA JUMP JUMPDEST DUP3 MSTORE POP POP JUMP JUMPDEST PUSH1 0x0 DUP2 SWAP1 POP SWAP2 SWAP1 POP JUMP JUMPDEST PUSH2 0x303E PUSH2 0x3039 DUP3 PUSH2 0x22AE JUMP JUMPDEST PUSH2 0x3023 JUMP JUMPDEST DUP3 MSTORE POP POP JUMP JUMPDEST PUSH1 0x0 PUSH2 0x3050 DUP3 DUP6 PUSH2 0x300C JUMP JUMPDEST PUSH1 0x14 DUP3 ADD SWAP2 POP PUSH2 0x3060 DUP3 DUP5 PUSH2 0x302D JUMP JUMPDEST PUSH1 0x20 DUP3 ADD SWAP2 POP DUP2 SWAP1 POP SWAP4 SWAP3 POP POP POP JUMP JUMPDEST PUSH1 0x0 PUSH1 0x60 DUP3 ADD SWAP1 POP PUSH2 0x3085 PUSH1 0x0 DUP4 ADD DUP7 PUSH2 0x2EBC JUMP JUMPDEST PUSH2 0x3092 PUSH1 0x20 DUP4 ADD DUP6 PUSH2 0x22B8 JUMP JUMPDEST DUP2 DUP2 SUB PUSH1 0x40 DUP4 ADD MSTORE PUSH2 0x30A4 DUP2 DUP5 PUSH2 0x297B JUMP JUMPDEST SWAP1 POP SWAP5 SWAP4 POP POP POP POP JUMP JUMPDEST PUSH1 0x0 DUP2 MLOAD SWAP1 POP PUSH2 0x30BD DUP2 PUSH2 0x2318 JUMP JUMPDEST SWAP3 SWAP2 POP POP JUMP JUMPDEST PUSH1 0x0 PUSH1 0x20 DUP3 DUP5 SUB SLT ISZERO PUSH2 0x30D9 JUMPI PUSH2 0x30D8 PUSH2 0x222E JUMP JUMPDEST JUMPDEST PUSH1 0x0 PUSH2 0x30E7 DUP5 DUP3 DUP6 ADD PUSH2 0x30AE JUMP JUMPDEST SWAP2 POP POP SWAP3 SWAP2 POP POP JUMP JUMPDEST PUSH32 0x756E61626C6520746F207472616E73666572416E6443616C6C20746F206F7261 PUSH1 0x0 DUP3 ADD MSTORE PUSH32 0x636C650000000000000000000000000000000000000000000000000000000000 PUSH1 0x20 DUP3 ADD MSTORE POP JUMP JUMPDEST PUSH1 0x0 PUSH2 0x314C PUSH1 0x23 DUP4 PUSH2 0x238F JUMP JUMPDEST SWAP2 POP PUSH2 0x3157 DUP3 PUSH2 0x30F0 JUMP JUMPDEST PUSH1 0x40 DUP3 ADD SWAP1 POP SWAP2 SWAP1 POP JUMP JUMPDEST PUSH1 0x0 PUSH1 0x20 DUP3 ADD SWAP1 POP DUP2 DUP2 SUB PUSH1 0x0 DUP4 ADD MSTORE PUSH2 0x317B DUP2 PUSH2 0x313F JUMP JUMPDEST SWAP1 POP SWAP2 SWAP1 POP JUMP JUMPDEST PUSH32 0x4E487B7100000000000000000000000000000000000000000000000000000000 PUSH1 0x0 MSTORE PUSH1 0x12 PUSH1 0x4 MSTORE PUSH1 0x24 PUSH1 0x0 REVERT JUMPDEST PUSH1 0x0 PUSH2 0x31BC DUP3 PUSH2 0x22AE JUMP JUMPDEST SWAP2 POP PUSH2 0x31C7 DUP4 PUSH2 0x22AE JUMP JUMPDEST SWAP3 POP DUP3 PUSH2 0x31D7 JUMPI PUSH2 0x31D6 PUSH2 0x3182 JUMP JUMPDEST JUMPDEST DUP3 DUP3 MOD SWAP1 POP SWAP3 SWAP2 POP POP JUMP JUMPDEST PUSH1 0x0 PUSH2 0x31ED DUP3 PUSH2 0x22AE JUMP JUMPDEST SWAP2 POP PUSH2 0x31F8 DUP4 PUSH2 0x22AE JUMP JUMPDEST SWAP3 POP DUP3 DUP3 LT ISZERO PUSH2 0x320B JUMPI PUSH2 0x320A PUSH2 0x2E37 JUMP JUMPDEST JUMPDEST DUP3 DUP3 SUB SWAP1 POP SWAP3 SWAP2 POP POP JUMP JUMPDEST PUSH1 0x0 PUSH2 0x3221 DUP3 PUSH2 0x22AE JUMP JUMPDEST SWAP2 POP PUSH2 0x322C DUP4 PUSH2 0x22AE JUMP JUMPDEST SWAP3 POP DUP2 PUSH32 0xFFFFFFFFFFFFFFFFFFFFFFFFFFFFFFFFFFFFFFFFFFFFFFFFFFFFFFFFFFFFFFFF DIV DUP4 GT DUP3 ISZERO ISZERO AND ISZERO PUSH2 0x3265 JUMPI PUSH2 0x3264 PUSH2 0x2E37 JUMP JUMPDEST JUMPDEST DUP3 DUP3 MUL SWAP1 POP SWAP3 SWAP2 POP POP JUMP JUMPDEST PUSH1 0x0 DUP2 PUSH1 0x1 SHR SWAP1 POP SWAP2 SWAP1 POP JUMP JUMPDEST PUSH1 0x0 DUP1 DUP3 SWAP2 POP DUP4 SWAP1 POP JUMPDEST PUSH1 0x1 DUP6 GT ISZERO PUSH2 0x32C7 JUMPI DUP1 DUP7 DIV DUP2 GT ISZERO PUSH2 0x32A3 JUMPI PUSH2 0x32A2 PUSH2 0x2E37 JUMP JUMPDEST JUMPDEST PUSH1 0x1 DUP6 AND ISZERO PUSH2 0x32B2 JUMPI DUP1 DUP3 MUL SWAP2 POP JUMPDEST DUP1 DUP2 MUL SWAP1 POP PUSH2 0x32C0 DUP6 PUSH2 0x3270 JUMP JUMPDEST SWAP5 POP PUSH2 0x3287 JUMP JUMPDEST SWAP5 POP SWAP5 SWAP3 POP POP POP JUMP JUMPDEST PUSH1 0x0 DUP3 PUSH2 0x32E0 JUMPI PUSH1 0x1 SWAP1 POP PUSH2 0x339C JUMP JUMPDEST DUP2 PUSH2 0x32EE JUMPI PUSH1 0x0 SWAP1 POP PUSH2 0x339C JUMP JUMPDEST DUP2 PUSH1 0x1 DUP2 EQ PUSH2 0x3304 JUMPI PUSH1 0x2 DUP2 EQ PUSH2 0x330E JUMPI PUSH2 0x333D JUMP JUMPDEST PUSH1 0x1 SWAP2 POP POP PUSH2 0x339C JUMP JUMPDEST PUSH1 0xFF DUP5 GT ISZERO PUSH2 0x3320 JUMPI PUSH2 0x331F PUSH2 0x2E37 JUMP JUMPDEST JUMPDEST DUP4 PUSH1 0x2 EXP SWAP2 POP DUP5 DUP3 GT ISZERO PUSH2 0x3337 JUMPI PUSH2 0x3336 PUSH2 0x2E37 JUMP JUMPDEST JUMPDEST POP PUSH2 0x339C JUMP JUMPDEST POP PUSH1 0x20 DUP4 LT PUSH2 0x133 DUP4 LT AND PUSH1 0x4E DUP5 LT PUSH1 0xB DUP5 LT AND OR ISZERO PUSH2 0x3372 JUMPI DUP3 DUP3 EXP SWAP1 POP DUP4 DUP2 GT ISZERO PUSH2 0x336D JUMPI PUSH2 0x336C PUSH2 0x2E37 JUMP JUMPDEST JUMPDEST PUSH2 0x339C JUMP JUMPDEST PUSH2 0x337F DUP5 DUP5 DUP5 PUSH1 0x1 PUSH2 0x327D JUMP JUMPDEST SWAP3 POP SWAP1 POP DUP2 DUP5 DIV DUP2 GT ISZERO PUSH2 0x3396 JUMPI PUSH2 0x3395 PUSH2 0x2E37 JUMP JUMPDEST JUMPDEST DUP2 DUP2 MUL SWAP1 POP JUMPDEST SWAP4 SWAP3 POP POP POP JUMP JUMPDEST PUSH1 0x0 PUSH2 0x33AE DUP3 PUSH2 0x22AE JUMP JUMPDEST SWAP2 POP PUSH2 0x33B9 DUP4 PUSH2 0x22AE JUMP JUMPDEST SWAP3 POP PUSH2 0x33E6 PUSH32 0xFFFFFFFFFFFFFFFFFFFFFFFFFFFFFFFFFFFFFFFFFFFFFFFFFFFFFFFFFFFFFFFF DUP5 DUP5 PUSH2 0x32D0 JUMP JUMPDEST SWAP1 POP SWAP3 SWAP2 POP POP JUMP INVALID LOG2 PUSH5 0x6970667358 0x22 SLT KECCAK256 SELFBALANCE 0xB5 0x2D RETURNDATASIZE DUP8 PUSH24 0x3244A8ED30884EA819C9D94DFADDC0C8AEDD2AF821C88E53 DUP9 0xEC PUSH5 0x736F6C6343 STOP ADDMOD MULMOD STOP CALLER "
        },
        "methodIdentifiers": {
          "boolAdapterCall(address,string,uint256,string,string,string,string)": "c3607525",
          "bool_result()": "d668e1ba",
          "bytes32AdapterCall(address,string,uint256,string,string,string,string)": "668553ce",
          "bytes32_result()": "2ba84288",
          "bytesAdapterCall(address,string,uint256,string,string,string,string)": "4181e55f",
          "bytes_result()": "d3d8e528",
          "fulfillBool(bytes32,bool)": "32146504",
          "fulfillBytes(bytes32,bytes)": "c2fb8523",
          "fulfillBytes32(bytes32,bytes32)": "0941dfb3",
          "fulfillInt(bytes32,int256)": "ee10c872",
          "fulfillString(bytes32,string)": "a6bdca07",
          "fulfillUint(bytes32,uint256)": "5f556740",
          "getInt()": "62738998",
          "intAdapterCall(address,string,uint256,string,string,string,string)": "922d268b",
          "int_result()": "59fc1630",
          "js()": "edbf55f6",
          "stringAdapterCall(address,string,uint256,string,string,string,string)": "d5e6b822",
          "stringToBytes32(string)": "cfb51928",
          "string_result()": "3db7fa19",
          "uintAdapterCall(address,string,uint256,string,string,string,string)": "a976447f",
          "uint_result()": "1789b906"
        }
      }
    }
  }
}