{
  "contracts/GeneratedCodeTest.sol": {
    "GeneratedCodeTest": {
      "abi": [
        {
          "inputs": [],
          "stateMutability": "nonpayable",
          "type": "constructor"
        },
        {
          "anonymous": false,
          "inputs": [
            {
              "indexed": true,
              "internalType": "bytes32",
              "name": "id",
              "type": "bytes32"
            }
          ],
          "name": "ChainlinkCancelled",
          "type": "event"
        },
        {
          "anonymous": false,
          "inputs": [
            {
              "indexed": true,
              "internalType": "bytes32",
              "name": "id",
              "type": "bytes32"
            }
          ],
          "name": "ChainlinkFulfilled",
          "type": "event"
        },
        {
          "anonymous": false,
          "inputs": [
            {
              "indexed": true,
              "internalType": "bytes32",
              "name": "id",
              "type": "bytes32"
            }
          ],
          "name": "ChainlinkRequested",
          "type": "event"
        },
        {
          "anonymous": false,
          "inputs": [
            {
              "indexed": false,
              "internalType": "bytes32",
              "name": "reply",
              "type": "bytes32"
            }
          ],
          "name": "adapterReply",
          "type": "event"
        },
        {
          "inputs": [
            {
              "internalType": "bytes32",
              "name": "_requestId",
              "type": "bytes32"
            },
            {
              "internalType": "bytes32",
              "name": "_reply",
              "type": "bytes32"
            }
          ],
          "name": "fulfill",
          "outputs": [],
          "stateMutability": "nonpayable",
          "type": "function"
        },
        {
          "inputs": [],
          "name": "request",
          "outputs": [
            {
              "internalType": "bytes32",
              "name": "requestId",
              "type": "bytes32"
            }
          ],
          "stateMutability": "nonpayable",
          "type": "function"
        },
        {
          "inputs": [],
          "name": "result",
          "outputs": [
            {
              "internalType": "bytes32",
              "name": "",
              "type": "bytes32"
            }
          ],
          "stateMutability": "view",
          "type": "function"
        }
      ],
      "evm": {
        "bytecode": {
          "linkReferences": {},
          "object": "6080604052600160045534801561001557600080fd5b5061003973326c977e6efc84e512bb9c30f76e30c160ed06fb61003e60201b60201c565b610082565b80600260006101000a81548173ffffffffffffffffffffffffffffffffffffffff021916908373ffffffffffffffffffffffffffffffffffffffff16021790555050565b6113cb806100916000396000f3fe608060405234801561001057600080fd5b50600436106100415760003560e01c8063042f2b6514610046578063338cdca1146100625780636537214714610080575b600080fd5b610060600480360381019061005b9190610b78565b61009e565b005b61006a6101e6565b6040516100779190610d90565b60405180910390f35b6100886102ac565b6040516100959190610d90565b60405180910390f35b816005600082815260200190815260200160002060009054906101000a900473ffffffffffffffffffffffffffffffffffffffff1673ffffffffffffffffffffffffffffffffffffffff163373ffffffffffffffffffffffffffffffffffffffff1614610140576040517f08c379a000000000000000000000000000000000000000000000000000000000815260040161013790610dcb565b60405180910390fd5b6005600082815260200190815260200160002060006101000a81549073ffffffffffffffffffffffffffffffffffffffff0219169055807f7cc135e0cebb02c3480ae5d74d377283180a2601f8f644edf7987b009316c63a60405160405180910390a2816006819055507f2b10fbaac8c516aade15debefa149bccd9e8c6748952d9e0c7ac04051b450e0e826040516101d99190610d90565b60405180910390a1505050565b60008061021b7f31333032616565346538363034623336383330633830316536313364383038323063042f2b6560e01b6102b2565b905061027f6040518060400160405280600181526020017f70000000000000000000000000000000000000000000000000000000000000008152506040518060c001604052806088815260200161130e60889139836102e39092919063ffffffff16565b6102a673a8e22a742d39b13d54df6a912fcc7b8e71dfafe082670de0b6b3a7640000610316565b91505090565b60065481565b6102ba610a9a565b6102c2610a9a565b6102d985858584610336909392919063ffffffff16565b9150509392505050565b6102fa8284608001516103e690919063ffffffff16565b6103118184608001516103e690919063ffffffff16565b505050565b600061032d8484846001634042994660e01b61040b565b90509392505050565b61033e610a9a565b61034e8560800151610100610673565b508385600001818152505082856020019073ffffffffffffffffffffffffffffffffffffffff16908173ffffffffffffffffffffffffffffffffffffffff16815250508185604001907bffffffffffffffffffffffffffffffffffffffffffffffffffffffff191690817bffffffffffffffffffffffffffffffffffffffffffffffffffffffff191681525050849050949350505050565b6103f382600383516106dd565b610406818361082290919063ffffffff16565b505050565b600030600454604051602001610422929190610ca1565b604051602081830303815290604052805190602001209050600454856060018181525050856005600083815260200190815260200160002060006101000a81548173ffffffffffffffffffffffffffffffffffffffff021916908373ffffffffffffffffffffffffffffffffffffffff160217905550807fb5e6e01e79f91267dc17b4e6314d5d4d03593d2ceee0fbb452b750bd70ea5af960405160405180910390a2600082600080886000015189602001518a604001518b606001518a8d6080015160000151604051602401610500989796959493929190610ccd565b604051602081830303815290604052907bffffffffffffffffffffffffffffffffffffffffffffffffffffffff19166020820180517bffffffffffffffffffffffffffffffffffffffffffffffffffffffff83818316178352505050509050600260009054906101000a900473ffffffffffffffffffffffffffffffffffffffff1673ffffffffffffffffffffffffffffffffffffffff16634000aea08887846040518463ffffffff1660e01b81526004016105be93929190610d52565b602060405180830381600087803b1580156105d857600080fd5b505af11580156105ec573d6000803e3d6000fd5b505050506040513d601f19601f820116820180604052508101906106109190610b4b565b61064f576040517f08c379a000000000000000000000000000000000000000000000000000000000815260040161064690610dab565b60405180910390fd5b6001600460008282546106629190610e18565b925050819055505095945050505050565b61067b610b07565b600060208361068a9190611182565b146106b65760208261069c9190611182565b60206106a89190611039565b826106b39190610e18565b91505b81836020018181525050604051808452600081528281016020016040525082905092915050565b6017811161070a576107048160058460ff16901b60ff16178461084490919063ffffffff16565b5061081d565b60ff811161074c5761072f601860058460ff16901b178461084490919063ffffffff16565b50610746816001856108649092919063ffffffff16565b5061081c565b61ffff811161078f57610772601960058460ff16901b178461084490919063ffffffff16565b50610789816002856108649092919063ffffffff16565b5061081b565b63ffffffff81116107d4576107b7601a60058460ff16901b178461084490919063ffffffff16565b506107ce816004856108649092919063ffffffff16565b5061081a565b67ffffffffffffffff811161081957610800601b60058460ff16901b178461084490919063ffffffff16565b50610817816008856108649092919063ffffffff16565b505b5b5b5b5b505050565b61082a610b07565b61083c83846000015151848551610886565b905092915050565b61084c610b07565b61085c8384600001515184610975565b905092915050565b61086c610b07565b61087d8485600001515185856109cc565b90509392505050565b61088e610b07565b825182111561089c57600080fd5b846020015182856108ad9190610e18565b11156108e2576108e18560026108d2886020015188876108cd9190610e18565b610a5a565b6108dc9190610fdf565b610a76565b5b6000808651805187602083010193508088870111156109015787860182525b60208701925050505b6020841061094857805182526020826109239190610e18565b91506020816109329190610e18565b90506020846109419190611039565b935061090a565b60006001856020036101000a03905080198251168184511681811785525050508692505050949350505050565b61097d610b07565b836020015183106109a3576109a2846002866020015161099d9190610fdf565b610a76565b5b83518051602085830101848153818614156109bf576001820183525b5050508390509392505050565b6109d4610b07565b846020015184836109e59190610e18565b1115610a0d57610a0c85600286856109fd9190610e18565b610a079190610fdf565b610a76565b5b6000600183610100610a1f9190610ec1565b610a299190611039565b90508551838682010185831982511617815281518588011115610a4c5784870182525b505085915050949350505050565b600081831115610a6c57829050610a70565b8190505b92915050565b600082600001519050610a898383610673565b50610a948382610822565b50505050565b6040518060a0016040528060008019168152602001600073ffffffffffffffffffffffffffffffffffffffff16815260200160007bffffffffffffffffffffffffffffffffffffffffffffffffffffffff1916815260200160008152602001610b01610b07565b81525090565b604051806040016040528060608152602001600081525090565b600081519050610b30816112df565b92915050565b600081359050610b45816112f6565b92915050565b600060208284031215610b6157610b60611211565b5b6000610b6f84828501610b21565b91505092915050565b60008060408385031215610b8f57610b8e611211565b5b6000610b9d85828601610b36565b9250506020610bae85828601610b36565b9150509250929050565b610bc18161106d565b82525050565b610bd08161108b565b82525050565b610bdf81611095565b82525050565b6000610bf082610deb565b610bfa8185610df6565b9350610c0a818560208601611121565b610c1381611216565b840191505092915050565b610c2f610c2a826110eb565b611154565b82525050565b6000610c42602383610e07565b9150610c4d82611241565b604082019050919050565b6000610c65602883610e07565b9150610c7082611290565b604082019050919050565b610c84816110e1565b82525050565b610c9b610c96826110e1565b611178565b82525050565b6000610cad8285610c1e565b601482019150610cbd8284610c8a565b6020820191508190509392505050565b600061010082019050610ce3600083018b610bb8565b610cf0602083018a610c7b565b610cfd6040830189610bc7565b610d0a6060830188610bb8565b610d176080830187610bd6565b610d2460a0830186610c7b565b610d3160c0830185610c7b565b81810360e0830152610d438184610be5565b90509998505050505050505050565b6000606082019050610d676000830186610bb8565b610d746020830185610c7b565b8181036040830152610d868184610be5565b9050949350505050565b6000602082019050610da56000830184610bc7565b92915050565b60006020820190508181036000830152610dc481610c35565b9050919050565b60006020820190508181036000830152610de481610c58565b9050919050565b600081519050919050565b600082825260208201905092915050565b600082825260208201905092915050565b6000610e23826110e1565b9150610e2e836110e1565b9250827fffffffffffffffffffffffffffffffffffffffffffffffffffffffffffffffff03821115610e6357610e626111b3565b5b828201905092915050565b6000808291508390505b6001851115610eb857808604811115610e9457610e936111b3565b5b6001851615610ea35780820291505b8081029050610eb185611234565b9450610e78565b94509492505050565b6000610ecc826110e1565b9150610ed7836110e1565b9250610f047fffffffffffffffffffffffffffffffffffffffffffffffffffffffffffffffff8484610f0c565b905092915050565b600082610f1c5760019050610fd8565b81610f2a5760009050610fd8565b8160018114610f405760028114610f4a57610f79565b6001915050610fd8565b60ff841115610f5c57610f5b6111b3565b5b8360020a915084821115610f7357610f726111b3565b5b50610fd8565b5060208310610133831016604e8410600b8410161715610fae5782820a905083811115610fa957610fa86111b3565b5b610fd8565b610fbb8484846001610e6e565b92509050818404811115610fd257610fd16111b3565b5b81810290505b9392505050565b6000610fea826110e1565b9150610ff5836110e1565b9250817fffffffffffffffffffffffffffffffffffffffffffffffffffffffffffffffff048311821515161561102e5761102d6111b3565b5b828202905092915050565b6000611044826110e1565b915061104f836110e1565b925082821015611062576110616111b3565b5b828203905092915050565b6000611078826110c1565b9050919050565b60008115159050919050565b6000819050919050565b60007fffffffff0000000000000000000000000000000000000000000000000000000082169050919050565b600073ffffffffffffffffffffffffffffffffffffffff82169050919050565b6000819050919050565b60006110f6826110fd565b9050919050565b60006111088261110f565b9050919050565b600061111a826110c1565b9050919050565b60005b8381101561113f578082015181840152602081019050611124565b8381111561114e576000848401525b50505050565b600061115f82611166565b9050919050565b600061117182611227565b9050919050565b6000819050919050565b600061118d826110e1565b9150611198836110e1565b9250826111a8576111a76111e2565b5b828206905092915050565b7f4e487b7100000000000000000000000000000000000000000000000000000000600052601160045260246000fd5b7f4e487b7100000000000000000000000000000000000000000000000000000000600052601260045260246000fd5b600080fd5b6000601f19601f8301169050919050565b60008160601b9050919050565b60008160011c9050919050565b7f756e61626c6520746f207472616e73666572416e6443616c6c20746f206f726160008201527f636c650000000000000000000000000000000000000000000000000000000000602082015250565b7f536f75726365206d75737420626520746865206f7261636c65206f662074686560008201527f2072657175657374000000000000000000000000000000000000000000000000602082015250565b6112e88161107f565b81146112f357600080fd5b50565b6112ff8161108b565b811461130a57600080fd5b5056fe7b2274223a2262797465733332222c226d223a22676574222c2275223a2268747470733a2f2f636f696e74656c6567726170682e636f6d2f746167732f616c74636f696e222c2269223a22626166796265696172786b6b7a7a663463706d76626e326a773770796368786763656933796d647a6c7933786969747479667368787a3274337661227da26469706673582212204513d7b8ac054868cf76bc5c66f78302dd0f9e1f95504a38564fe3a86a57b7b664736f6c63430008070033",
          "opcodes": "PUSH1 0x80 PUSH1 0x40 MSTORE PUSH1 0x1 PUSH1 0x4 SSTORE CALLVALUE DUP1 ISZERO PUSH2 0x15 JUMPI PUSH1 0x0 DUP1 REVERT JUMPDEST POP PUSH2 0x39 PUSH20 0x326C977E6EFC84E512BB9C30F76E30C160ED06FB PUSH2 0x3E PUSH1 0x20 SHL PUSH1 0x20 SHR JUMP JUMPDEST PUSH2 0x82 JUMP JUMPDEST DUP1 PUSH1 0x2 PUSH1 0x0 PUSH2 0x100 EXP DUP2 SLOAD DUP2 PUSH20 0xFFFFFFFFFFFFFFFFFFFFFFFFFFFFFFFFFFFFFFFF MUL NOT AND SWAP1 DUP4 PUSH20 0xFFFFFFFFFFFFFFFFFFFFFFFFFFFFFFFFFFFFFFFF AND MUL OR SWAP1 SSTORE POP POP JUMP JUMPDEST PUSH2 0x13CB DUP1 PUSH2 0x91 PUSH1 0x0 CODECOPY PUSH1 0x0 RETURN INVALID PUSH1 0x80 PUSH1 0x40 MSTORE CALLVALUE DUP1 ISZERO PUSH2 0x10 JUMPI PUSH1 0x0 DUP1 REVERT JUMPDEST POP PUSH1 0x4 CALLDATASIZE LT PUSH2 0x41 JUMPI PUSH1 0x0 CALLDATALOAD PUSH1 0xE0 SHR DUP1 PUSH4 0x42F2B65 EQ PUSH2 0x46 JUMPI DUP1 PUSH4 0x338CDCA1 EQ PUSH2 0x62 JUMPI DUP1 PUSH4 0x65372147 EQ PUSH2 0x80 JUMPI JUMPDEST PUSH1 0x0 DUP1 REVERT JUMPDEST PUSH2 0x60 PUSH1 0x4 DUP1 CALLDATASIZE SUB DUP2 ADD SWAP1 PUSH2 0x5B SWAP2 SWAP1 PUSH2 0xB78 JUMP JUMPDEST PUSH2 0x9E JUMP JUMPDEST STOP JUMPDEST PUSH2 0x6A PUSH2 0x1E6 JUMP JUMPDEST PUSH1 0x40 MLOAD PUSH2 0x77 SWAP2 SWAP1 PUSH2 0xD90 JUMP JUMPDEST PUSH1 0x40 MLOAD DUP1 SWAP2 SUB SWAP1 RETURN JUMPDEST PUSH2 0x88 PUSH2 0x2AC JUMP JUMPDEST PUSH1 0x40 MLOAD PUSH2 0x95 SWAP2 SWAP1 PUSH2 0xD90 JUMP JUMPDEST PUSH1 0x40 MLOAD DUP1 SWAP2 SUB SWAP1 RETURN JUMPDEST DUP2 PUSH1 0x5 PUSH1 0x0 DUP3 DUP2 MSTORE PUSH1 0x20 ADD SWAP1 DUP2 MSTORE PUSH1 0x20 ADD PUSH1 0x0 KECCAK256 PUSH1 0x0 SWAP1 SLOAD SWAP1 PUSH2 0x100 EXP SWAP1 DIV PUSH20 0xFFFFFFFFFFFFFFFFFFFFFFFFFFFFFFFFFFFFFFFF AND PUSH20 0xFFFFFFFFFFFFFFFFFFFFFFFFFFFFFFFFFFFFFFFF AND CALLER PUSH20 0xFFFFFFFFFFFFFFFFFFFFFFFFFFFFFFFFFFFFFFFF AND EQ PUSH2 0x140 JUMPI PUSH1 0x40 MLOAD PUSH32 0x8C379A000000000000000000000000000000000000000000000000000000000 DUP2 MSTORE PUSH1 0x4 ADD PUSH2 0x137 SWAP1 PUSH2 0xDCB JUMP JUMPDEST PUSH1 0x40 MLOAD DUP1 SWAP2 SUB SWAP1 REVERT JUMPDEST PUSH1 0x5 PUSH1 0x0 DUP3 DUP2 MSTORE PUSH1 0x20 ADD SWAP1 DUP2 MSTORE PUSH1 0x20 ADD PUSH1 0x0 KECCAK256 PUSH1 0x0 PUSH2 0x100 EXP DUP2 SLOAD SWAP1 PUSH20 0xFFFFFFFFFFFFFFFFFFFFFFFFFFFFFFFFFFFFFFFF MUL NOT AND SWAP1 SSTORE DUP1 PUSH32 0x7CC135E0CEBB02C3480AE5D74D377283180A2601F8F644EDF7987B009316C63A PUSH1 0x40 MLOAD PUSH1 0x40 MLOAD DUP1 SWAP2 SUB SWAP1 LOG2 DUP2 PUSH1 0x6 DUP2 SWAP1 SSTORE POP PUSH32 0x2B10FBAAC8C516AADE15DEBEFA149BCCD9E8C6748952D9E0C7AC04051B450E0E DUP3 PUSH1 0x40 MLOAD PUSH2 0x1D9 SWAP2 SWAP1 PUSH2 0xD90 JUMP JUMPDEST PUSH1 0x40 MLOAD DUP1 SWAP2 SUB SWAP1 LOG1 POP POP POP JUMP JUMPDEST PUSH1 0x0 DUP1 PUSH2 0x21B PUSH32 0x3133303261656534653836303462333638333063383031653631336438303832 ADDRESS PUSH4 0x42F2B65 PUSH1 0xE0 SHL PUSH2 0x2B2 JUMP JUMPDEST SWAP1 POP PUSH2 0x27F PUSH1 0x40 MLOAD DUP1 PUSH1 0x40 ADD PUSH1 0x40 MSTORE DUP1 PUSH1 0x1 DUP2 MSTORE PUSH1 0x20 ADD PUSH32 0x7000000000000000000000000000000000000000000000000000000000000000 DUP2 MSTORE POP PUSH1 0x40 MLOAD DUP1 PUSH1 0xC0 ADD PUSH1 0x40 MSTORE DUP1 PUSH1 0x88 DUP2 MSTORE PUSH1 0x20 ADD PUSH2 0x130E PUSH1 0x88 SWAP2 CODECOPY DUP4 PUSH2 0x2E3 SWAP1 SWAP3 SWAP2 SWAP1 PUSH4 0xFFFFFFFF AND JUMP JUMPDEST PUSH2 0x2A6 PUSH20 0xA8E22A742D39B13D54DF6A912FCC7B8E71DFAFE0 DUP3 PUSH8 0xDE0B6B3A7640000 PUSH2 0x316 JUMP JUMPDEST SWAP2 POP POP SWAP1 JUMP JUMPDEST PUSH1 0x6 SLOAD DUP2 JUMP JUMPDEST PUSH2 0x2BA PUSH2 0xA9A JUMP JUMPDEST PUSH2 0x2C2 PUSH2 0xA9A JUMP JUMPDEST PUSH2 0x2D9 DUP6 DUP6 DUP6 DUP5 PUSH2 0x336 SWAP1 SWAP4 SWAP3 SWAP2 SWAP1 PUSH4 0xFFFFFFFF AND JUMP JUMPDEST SWAP2 POP POP SWAP4 SWAP3 POP POP POP JUMP JUMPDEST PUSH2 0x2FA DUP3 DUP5 PUSH1 0x80 ADD MLOAD PUSH2 0x3E6 SWAP1 SWAP2 SWAP1 PUSH4 0xFFFFFFFF AND JUMP JUMPDEST PUSH2 0x311 DUP2 DUP5 PUSH1 0x80 ADD MLOAD PUSH2 0x3E6 SWAP1 SWAP2 SWAP1 PUSH4 0xFFFFFFFF AND JUMP JUMPDEST POP POP POP JUMP JUMPDEST PUSH1 0x0 PUSH2 0x32D DUP5 DUP5 DUP5 PUSH1 0x1 PUSH4 0x40429946 PUSH1 0xE0 SHL PUSH2 0x40B JUMP JUMPDEST SWAP1 POP SWAP4 SWAP3 POP POP POP JUMP JUMPDEST PUSH2 0x33E PUSH2 0xA9A JUMP JUMPDEST PUSH2 0x34E DUP6 PUSH1 0x80 ADD MLOAD PUSH2 0x100 PUSH2 0x673 JUMP JUMPDEST POP DUP4 DUP6 PUSH1 0x0 ADD DUP2 DUP2 MSTORE POP POP DUP3 DUP6 PUSH1 0x20 ADD SWAP1 PUSH20 0xFFFFFFFFFFFFFFFFFFFFFFFFFFFFFFFFFFFFFFFF AND SWAP1 DUP2 PUSH20 0xFFFFFFFFFFFFFFFFFFFFFFFFFFFFFFFFFFFFFFFF AND DUP2 MSTORE POP POP DUP2 DUP6 PUSH1 0x40 ADD SWAP1 PUSH28 0xFFFFFFFFFFFFFFFFFFFFFFFFFFFFFFFFFFFFFFFFFFFFFFFFFFFFFFFF NOT AND SWAP1 DUP2 PUSH28 0xFFFFFFFFFFFFFFFFFFFFFFFFFFFFFFFFFFFFFFFFFFFFFFFFFFFFFFFF NOT AND DUP2 MSTORE POP POP DUP5 SWAP1 POP SWAP5 SWAP4 POP POP POP POP JUMP JUMPDEST PUSH2 0x3F3 DUP3 PUSH1 0x3 DUP4 MLOAD PUSH2 0x6DD JUMP JUMPDEST PUSH2 0x406 DUP2 DUP4 PUSH2 0x822 SWAP1 SWAP2 SWAP1 PUSH4 0xFFFFFFFF AND JUMP JUMPDEST POP POP POP JUMP JUMPDEST PUSH1 0x0 ADDRESS PUSH1 0x4 SLOAD PUSH1 0x40 MLOAD PUSH1 0x20 ADD PUSH2 0x422 SWAP3 SWAP2 SWAP1 PUSH2 0xCA1 JUMP JUMPDEST PUSH1 0x40 MLOAD PUSH1 0x20 DUP2 DUP4 SUB SUB DUP2 MSTORE SWAP1 PUSH1 0x40 MSTORE DUP1 MLOAD SWAP1 PUSH1 0x20 ADD KECCAK256 SWAP1 POP PUSH1 0x4 SLOAD DUP6 PUSH1 0x60 ADD DUP2 DUP2 MSTORE POP POP DUP6 PUSH1 0x5 PUSH1 0x0 DUP4 DUP2 MSTORE PUSH1 0x20 ADD SWAP1 DUP2 MSTORE PUSH1 0x20 ADD PUSH1 0x0 KECCAK256 PUSH1 0x0 PUSH2 0x100 EXP DUP2 SLOAD DUP2 PUSH20 0xFFFFFFFFFFFFFFFFFFFFFFFFFFFFFFFFFFFFFFFF MUL NOT AND SWAP1 DUP4 PUSH20 0xFFFFFFFFFFFFFFFFFFFFFFFFFFFFFFFFFFFFFFFF AND MUL OR SWAP1 SSTORE POP DUP1 PUSH32 0xB5E6E01E79F91267DC17B4E6314D5D4D03593D2CEEE0FBB452B750BD70EA5AF9 PUSH1 0x40 MLOAD PUSH1 0x40 MLOAD DUP1 SWAP2 SUB SWAP1 LOG2 PUSH1 0x0 DUP3 PUSH1 0x0 DUP1 DUP9 PUSH1 0x0 ADD MLOAD DUP10 PUSH1 0x20 ADD MLOAD DUP11 PUSH1 0x40 ADD MLOAD DUP12 PUSH1 0x60 ADD MLOAD DUP11 DUP14 PUSH1 0x80 ADD MLOAD PUSH1 0x0 ADD MLOAD PUSH1 0x40 MLOAD PUSH1 0x24 ADD PUSH2 0x500 SWAP9 SWAP8 SWAP7 SWAP6 SWAP5 SWAP4 SWAP3 SWAP2 SWAP1 PUSH2 0xCCD JUMP JUMPDEST PUSH1 0x40 MLOAD PUSH1 0x20 DUP2 DUP4 SUB SUB DUP2 MSTORE SWAP1 PUSH1 0x40 MSTORE SWAP1 PUSH28 0xFFFFFFFFFFFFFFFFFFFFFFFFFFFFFFFFFFFFFFFFFFFFFFFFFFFFFFFF NOT AND PUSH1 0x20 DUP3 ADD DUP1 MLOAD PUSH28 0xFFFFFFFFFFFFFFFFFFFFFFFFFFFFFFFFFFFFFFFFFFFFFFFFFFFFFFFF DUP4 DUP2 DUP4 AND OR DUP4 MSTORE POP POP POP POP SWAP1 POP PUSH1 0x2 PUSH1 0x0 SWAP1 SLOAD SWAP1 PUSH2 0x100 EXP SWAP1 DIV PUSH20 0xFFFFFFFFFFFFFFFFFFFFFFFFFFFFFFFFFFFFFFFF AND PUSH20 0xFFFFFFFFFFFFFFFFFFFFFFFFFFFFFFFFFFFFFFFF AND PUSH4 0x4000AEA0 DUP9 DUP8 DUP5 PUSH1 0x40 MLOAD DUP5 PUSH4 0xFFFFFFFF AND PUSH1 0xE0 SHL DUP2 MSTORE PUSH1 0x4 ADD PUSH2 0x5BE SWAP4 SWAP3 SWAP2 SWAP1 PUSH2 0xD52 JUMP JUMPDEST PUSH1 0x20 PUSH1 0x40 MLOAD DUP1 DUP4 SUB DUP2 PUSH1 0x0 DUP8 DUP1 EXTCODESIZE ISZERO DUP1 ISZERO PUSH2 0x5D8 JUMPI PUSH1 0x0 DUP1 REVERT JUMPDEST POP GAS CALL ISZERO DUP1 ISZERO PUSH2 0x5EC JUMPI RETURNDATASIZE PUSH1 0x0 DUP1 RETURNDATACOPY RETURNDATASIZE PUSH1 0x0 REVERT JUMPDEST POP POP POP POP PUSH1 0x40 MLOAD RETURNDATASIZE PUSH1 0x1F NOT PUSH1 0x1F DUP3 ADD AND DUP3 ADD DUP1 PUSH1 0x40 MSTORE POP DUP2 ADD SWAP1 PUSH2 0x610 SWAP2 SWAP1 PUSH2 0xB4B JUMP JUMPDEST PUSH2 0x64F JUMPI PUSH1 0x40 MLOAD PUSH32 0x8C379A000000000000000000000000000000000000000000000000000000000 DUP2 MSTORE PUSH1 0x4 ADD PUSH2 0x646 SWAP1 PUSH2 0xDAB JUMP JUMPDEST PUSH1 0x40 MLOAD DUP1 SWAP2 SUB SWAP1 REVERT JUMPDEST PUSH1 0x1 PUSH1 0x4 PUSH1 0x0 DUP3 DUP3 SLOAD PUSH2 0x662 SWAP2 SWAP1 PUSH2 0xE18 JUMP JUMPDEST SWAP3 POP POP DUP2 SWAP1 SSTORE POP POP SWAP6 SWAP5 POP POP POP POP POP JUMP JUMPDEST PUSH2 0x67B PUSH2 0xB07 JUMP JUMPDEST PUSH1 0x0 PUSH1 0x20 DUP4 PUSH2 0x68A SWAP2 SWAP1 PUSH2 0x1182 JUMP JUMPDEST EQ PUSH2 0x6B6 JUMPI PUSH1 0x20 DUP3 PUSH2 0x69C SWAP2 SWAP1 PUSH2 0x1182 JUMP JUMPDEST PUSH1 0x20 PUSH2 0x6A8 SWAP2 SWAP1 PUSH2 0x1039 JUMP JUMPDEST DUP3 PUSH2 0x6B3 SWAP2 SWAP1 PUSH2 0xE18 JUMP JUMPDEST SWAP2 POP JUMPDEST DUP2 DUP4 PUSH1 0x20 ADD DUP2 DUP2 MSTORE POP POP PUSH1 0x40 MLOAD DUP1 DUP5 MSTORE PUSH1 0x0 DUP2 MSTORE DUP3 DUP2 ADD PUSH1 0x20 ADD PUSH1 0x40 MSTORE POP DUP3 SWAP1 POP SWAP3 SWAP2 POP POP JUMP JUMPDEST PUSH1 0x17 DUP2 GT PUSH2 0x70A JUMPI PUSH2 0x704 DUP2 PUSH1 0x5 DUP5 PUSH1 0xFF AND SWAP1 SHL PUSH1 0xFF AND OR DUP5 PUSH2 0x844 SWAP1 SWAP2 SWAP1 PUSH4 0xFFFFFFFF AND JUMP JUMPDEST POP PUSH2 0x81D JUMP JUMPDEST PUSH1 0xFF DUP2 GT PUSH2 0x74C JUMPI PUSH2 0x72F PUSH1 0x18 PUSH1 0x5 DUP5 PUSH1 0xFF AND SWAP1 SHL OR DUP5 PUSH2 0x844 SWAP1 SWAP2 SWAP1 PUSH4 0xFFFFFFFF AND JUMP JUMPDEST POP PUSH2 0x746 DUP2 PUSH1 0x1 DUP6 PUSH2 0x864 SWAP1 SWAP3 SWAP2 SWAP1 PUSH4 0xFFFFFFFF AND JUMP JUMPDEST POP PUSH2 0x81C JUMP JUMPDEST PUSH2 0xFFFF DUP2 GT PUSH2 0x78F JUMPI PUSH2 0x772 PUSH1 0x19 PUSH1 0x5 DUP5 PUSH1 0xFF AND SWAP1 SHL OR DUP5 PUSH2 0x844 SWAP1 SWAP2 SWAP1 PUSH4 0xFFFFFFFF AND JUMP JUMPDEST POP PUSH2 0x789 DUP2 PUSH1 0x2 DUP6 PUSH2 0x864 SWAP1 SWAP3 SWAP2 SWAP1 PUSH4 0xFFFFFFFF AND JUMP JUMPDEST POP PUSH2 0x81B JUMP JUMPDEST PUSH4 0xFFFFFFFF DUP2 GT PUSH2 0x7D4 JUMPI PUSH2 0x7B7 PUSH1 0x1A PUSH1 0x5 DUP5 PUSH1 0xFF AND SWAP1 SHL OR DUP5 PUSH2 0x844 SWAP1 SWAP2 SWAP1 PUSH4 0xFFFFFFFF AND JUMP JUMPDEST POP PUSH2 0x7CE DUP2 PUSH1 0x4 DUP6 PUSH2 0x864 SWAP1 SWAP3 SWAP2 SWAP1 PUSH4 0xFFFFFFFF AND JUMP JUMPDEST POP PUSH2 0x81A JUMP JUMPDEST PUSH8 0xFFFFFFFFFFFFFFFF DUP2 GT PUSH2 0x819 JUMPI PUSH2 0x800 PUSH1 0x1B PUSH1 0x5 DUP5 PUSH1 0xFF AND SWAP1 SHL OR DUP5 PUSH2 0x844 SWAP1 SWAP2 SWAP1 PUSH4 0xFFFFFFFF AND JUMP JUMPDEST POP PUSH2 0x817 DUP2 PUSH1 0x8 DUP6 PUSH2 0x864 SWAP1 SWAP3 SWAP2 SWAP1 PUSH4 0xFFFFFFFF AND JUMP JUMPDEST POP JUMPDEST JUMPDEST JUMPDEST JUMPDEST JUMPDEST POP POP POP JUMP JUMPDEST PUSH2 0x82A PUSH2 0xB07 JUMP JUMPDEST PUSH2 0x83C DUP4 DUP5 PUSH1 0x0 ADD MLOAD MLOAD DUP5 DUP6 MLOAD PUSH2 0x886 JUMP JUMPDEST SWAP1 POP SWAP3 SWAP2 POP POP JUMP JUMPDEST PUSH2 0x84C PUSH2 0xB07 JUMP JUMPDEST PUSH2 0x85C DUP4 DUP5 PUSH1 0x0 ADD MLOAD MLOAD DUP5 PUSH2 0x975 JUMP JUMPDEST SWAP1 POP SWAP3 SWAP2 POP POP JUMP JUMPDEST PUSH2 0x86C PUSH2 0xB07 JUMP JUMPDEST PUSH2 0x87D DUP5 DUP6 PUSH1 0x0 ADD MLOAD MLOAD DUP6 DUP6 PUSH2 0x9CC JUMP JUMPDEST SWAP1 POP SWAP4 SWAP3 POP POP POP JUMP JUMPDEST PUSH2 0x88E PUSH2 0xB07 JUMP JUMPDEST DUP3 MLOAD DUP3 GT ISZERO PUSH2 0x89C JUMPI PUSH1 0x0 DUP1 REVERT JUMPDEST DUP5 PUSH1 0x20 ADD MLOAD DUP3 DUP6 PUSH2 0x8AD SWAP2 SWAP1 PUSH2 0xE18 JUMP JUMPDEST GT ISZERO PUSH2 0x8E2 JUMPI PUSH2 0x8E1 DUP6 PUSH1 0x2 PUSH2 0x8D2 DUP9 PUSH1 0x20 ADD MLOAD DUP9 DUP8 PUSH2 0x8CD SWAP2 SWAP1 PUSH2 0xE18 JUMP JUMPDEST PUSH2 0xA5A JUMP JUMPDEST PUSH2 0x8DC SWAP2 SWAP1 PUSH2 0xFDF JUMP JUMPDEST PUSH2 0xA76 JUMP JUMPDEST JUMPDEST PUSH1 0x0 DUP1 DUP7 MLOAD DUP1 MLOAD DUP8 PUSH1 0x20 DUP4 ADD ADD SWAP4 POP DUP1 DUP9 DUP8 ADD GT ISZERO PUSH2 0x901 JUMPI DUP8 DUP7 ADD DUP3 MSTORE JUMPDEST PUSH1 0x20 DUP8 ADD SWAP3 POP POP POP JUMPDEST PUSH1 0x20 DUP5 LT PUSH2 0x948 JUMPI DUP1 MLOAD DUP3 MSTORE PUSH1 0x20 DUP3 PUSH2 0x923 SWAP2 SWAP1 PUSH2 0xE18 JUMP JUMPDEST SWAP2 POP PUSH1 0x20 DUP2 PUSH2 0x932 SWAP2 SWAP1 PUSH2 0xE18 JUMP JUMPDEST SWAP1 POP PUSH1 0x20 DUP5 PUSH2 0x941 SWAP2 SWAP1 PUSH2 0x1039 JUMP JUMPDEST SWAP4 POP PUSH2 0x90A JUMP JUMPDEST PUSH1 0x0 PUSH1 0x1 DUP6 PUSH1 0x20 SUB PUSH2 0x100 EXP SUB SWAP1 POP DUP1 NOT DUP3 MLOAD AND DUP2 DUP5 MLOAD AND DUP2 DUP2 OR DUP6 MSTORE POP POP POP DUP7 SWAP3 POP POP POP SWAP5 SWAP4 POP POP POP POP JUMP JUMPDEST PUSH2 0x97D PUSH2 0xB07 JUMP JUMPDEST DUP4 PUSH1 0x20 ADD MLOAD DUP4 LT PUSH2 0x9A3 JUMPI PUSH2 0x9A2 DUP5 PUSH1 0x2 DUP7 PUSH1 0x20 ADD MLOAD PUSH2 0x99D SWAP2 SWAP1 PUSH2 0xFDF JUMP JUMPDEST PUSH2 0xA76 JUMP JUMPDEST JUMPDEST DUP4 MLOAD DUP1 MLOAD PUSH1 0x20 DUP6 DUP4 ADD ADD DUP5 DUP2 MSTORE8 DUP2 DUP7 EQ ISZERO PUSH2 0x9BF JUMPI PUSH1 0x1 DUP3 ADD DUP4 MSTORE JUMPDEST POP POP POP DUP4 SWAP1 POP SWAP4 SWAP3 POP POP POP JUMP JUMPDEST PUSH2 0x9D4 PUSH2 0xB07 JUMP JUMPDEST DUP5 PUSH1 0x20 ADD MLOAD DUP5 DUP4 PUSH2 0x9E5 SWAP2 SWAP1 PUSH2 0xE18 JUMP JUMPDEST GT ISZERO PUSH2 0xA0D JUMPI PUSH2 0xA0C DUP6 PUSH1 0x2 DUP7 DUP6 PUSH2 0x9FD SWAP2 SWAP1 PUSH2 0xE18 JUMP JUMPDEST PUSH2 0xA07 SWAP2 SWAP1 PUSH2 0xFDF JUMP JUMPDEST PUSH2 0xA76 JUMP JUMPDEST JUMPDEST PUSH1 0x0 PUSH1 0x1 DUP4 PUSH2 0x100 PUSH2 0xA1F SWAP2 SWAP1 PUSH2 0xEC1 JUMP JUMPDEST PUSH2 0xA29 SWAP2 SWAP1 PUSH2 0x1039 JUMP JUMPDEST SWAP1 POP DUP6 MLOAD DUP4 DUP7 DUP3 ADD ADD DUP6 DUP4 NOT DUP3 MLOAD AND OR DUP2 MSTORE DUP2 MLOAD DUP6 DUP9 ADD GT ISZERO PUSH2 0xA4C JUMPI DUP5 DUP8 ADD DUP3 MSTORE JUMPDEST POP POP DUP6 SWAP2 POP POP SWAP5 SWAP4 POP POP POP POP JUMP JUMPDEST PUSH1 0x0 DUP2 DUP4 GT ISZERO PUSH2 0xA6C JUMPI DUP3 SWAP1 POP PUSH2 0xA70 JUMP JUMPDEST DUP2 SWAP1 POP JUMPDEST SWAP3 SWAP2 POP POP JUMP JUMPDEST PUSH1 0x0 DUP3 PUSH1 0x0 ADD MLOAD SWAP1 POP PUSH2 0xA89 DUP4 DUP4 PUSH2 0x673 JUMP JUMPDEST POP PUSH2 0xA94 DUP4 DUP3 PUSH2 0x822 JUMP JUMPDEST POP POP POP POP JUMP JUMPDEST PUSH1 0x40 MLOAD DUP1 PUSH1 0xA0 ADD PUSH1 0x40 MSTORE DUP1 PUSH1 0x0 DUP1 NOT AND DUP2 MSTORE PUSH1 0x20 ADD PUSH1 0x0 PUSH20 0xFFFFFFFFFFFFFFFFFFFFFFFFFFFFFFFFFFFFFFFF AND DUP2 MSTORE PUSH1 0x20 ADD PUSH1 0x0 PUSH28 0xFFFFFFFFFFFFFFFFFFFFFFFFFFFFFFFFFFFFFFFFFFFFFFFFFFFFFFFF NOT AND DUP2 MSTORE PUSH1 0x20 ADD PUSH1 0x0 DUP2 MSTORE PUSH1 0x20 ADD PUSH2 0xB01 PUSH2 0xB07 JUMP JUMPDEST DUP2 MSTORE POP SWAP1 JUMP JUMPDEST PUSH1 0x40 MLOAD DUP1 PUSH1 0x40 ADD PUSH1 0x40 MSTORE DUP1 PUSH1 0x60 DUP2 MSTORE PUSH1 0x20 ADD PUSH1 0x0 DUP2 MSTORE POP SWAP1 JUMP JUMPDEST PUSH1 0x0 DUP2 MLOAD SWAP1 POP PUSH2 0xB30 DUP2 PUSH2 0x12DF JUMP JUMPDEST SWAP3 SWAP2 POP POP JUMP JUMPDEST PUSH1 0x0 DUP2 CALLDATALOAD SWAP1 POP PUSH2 0xB45 DUP2 PUSH2 0x12F6 JUMP JUMPDEST SWAP3 SWAP2 POP POP JUMP JUMPDEST PUSH1 0x0 PUSH1 0x20 DUP3 DUP5 SUB SLT ISZERO PUSH2 0xB61 JUMPI PUSH2 0xB60 PUSH2 0x1211 JUMP JUMPDEST JUMPDEST PUSH1 0x0 PUSH2 0xB6F DUP5 DUP3 DUP6 ADD PUSH2 0xB21 JUMP JUMPDEST SWAP2 POP POP SWAP3 SWAP2 POP POP JUMP JUMPDEST PUSH1 0x0 DUP1 PUSH1 0x40 DUP4 DUP6 SUB SLT ISZERO PUSH2 0xB8F JUMPI PUSH2 0xB8E PUSH2 0x1211 JUMP JUMPDEST JUMPDEST PUSH1 0x0 PUSH2 0xB9D DUP6 DUP3 DUP7 ADD PUSH2 0xB36 JUMP JUMPDEST SWAP3 POP POP PUSH1 0x20 PUSH2 0xBAE DUP6 DUP3 DUP7 ADD PUSH2 0xB36 JUMP JUMPDEST SWAP2 POP POP SWAP3 POP SWAP3 SWAP1 POP JUMP JUMPDEST PUSH2 0xBC1 DUP2 PUSH2 0x106D JUMP JUMPDEST DUP3 MSTORE POP POP JUMP JUMPDEST PUSH2 0xBD0 DUP2 PUSH2 0x108B JUMP JUMPDEST DUP3 MSTORE POP POP JUMP JUMPDEST PUSH2 0xBDF DUP2 PUSH2 0x1095 JUMP JUMPDEST DUP3 MSTORE POP POP JUMP JUMPDEST PUSH1 0x0 PUSH2 0xBF0 DUP3 PUSH2 0xDEB JUMP JUMPDEST PUSH2 0xBFA DUP2 DUP6 PUSH2 0xDF6 JUMP JUMPDEST SWAP4 POP PUSH2 0xC0A DUP2 DUP6 PUSH1 0x20 DUP7 ADD PUSH2 0x1121 JUMP JUMPDEST PUSH2 0xC13 DUP2 PUSH2 0x1216 JUMP JUMPDEST DUP5 ADD SWAP2 POP POP SWAP3 SWAP2 POP POP JUMP JUMPDEST PUSH2 0xC2F PUSH2 0xC2A DUP3 PUSH2 0x10EB JUMP JUMPDEST PUSH2 0x1154 JUMP JUMPDEST DUP3 MSTORE POP POP JUMP JUMPDEST PUSH1 0x0 PUSH2 0xC42 PUSH1 0x23 DUP4 PUSH2 0xE07 JUMP JUMPDEST SWAP2 POP PUSH2 0xC4D DUP3 PUSH2 0x1241 JUMP JUMPDEST PUSH1 0x40 DUP3 ADD SWAP1 POP SWAP2 SWAP1 POP JUMP JUMPDEST PUSH1 0x0 PUSH2 0xC65 PUSH1 0x28 DUP4 PUSH2 0xE07 JUMP JUMPDEST SWAP2 POP PUSH2 0xC70 DUP3 PUSH2 0x1290 JUMP JUMPDEST PUSH1 0x40 DUP3 ADD SWAP1 POP SWAP2 SWAP1 POP JUMP JUMPDEST PUSH2 0xC84 DUP2 PUSH2 0x10E1 JUMP JUMPDEST DUP3 MSTORE POP POP JUMP JUMPDEST PUSH2 0xC9B PUSH2 0xC96 DUP3 PUSH2 0x10E1 JUMP JUMPDEST PUSH2 0x1178 JUMP JUMPDEST DUP3 MSTORE POP POP JUMP JUMPDEST PUSH1 0x0 PUSH2 0xCAD DUP3 DUP6 PUSH2 0xC1E JUMP JUMPDEST PUSH1 0x14 DUP3 ADD SWAP2 POP PUSH2 0xCBD DUP3 DUP5 PUSH2 0xC8A JUMP JUMPDEST PUSH1 0x20 DUP3 ADD SWAP2 POP DUP2 SWAP1 POP SWAP4 SWAP3 POP POP POP JUMP JUMPDEST PUSH1 0x0 PUSH2 0x100 DUP3 ADD SWAP1 POP PUSH2 0xCE3 PUSH1 0x0 DUP4 ADD DUP12 PUSH2 0xBB8 JUMP JUMPDEST PUSH2 0xCF0 PUSH1 0x20 DUP4 ADD DUP11 PUSH2 0xC7B JUMP JUMPDEST PUSH2 0xCFD PUSH1 0x40 DUP4 ADD DUP10 PUSH2 0xBC7 JUMP JUMPDEST PUSH2 0xD0A PUSH1 0x60 DUP4 ADD DUP9 PUSH2 0xBB8 JUMP JUMPDEST PUSH2 0xD17 PUSH1 0x80 DUP4 ADD DUP8 PUSH2 0xBD6 JUMP JUMPDEST PUSH2 0xD24 PUSH1 0xA0 DUP4 ADD DUP7 PUSH2 0xC7B JUMP JUMPDEST PUSH2 0xD31 PUSH1 0xC0 DUP4 ADD DUP6 PUSH2 0xC7B JUMP JUMPDEST DUP2 DUP2 SUB PUSH1 0xE0 DUP4 ADD MSTORE PUSH2 0xD43 DUP2 DUP5 PUSH2 0xBE5 JUMP JUMPDEST SWAP1 POP SWAP10 SWAP9 POP POP POP POP POP POP POP POP POP JUMP JUMPDEST PUSH1 0x0 PUSH1 0x60 DUP3 ADD SWAP1 POP PUSH2 0xD67 PUSH1 0x0 DUP4 ADD DUP7 PUSH2 0xBB8 JUMP JUMPDEST PUSH2 0xD74 PUSH1 0x20 DUP4 ADD DUP6 PUSH2 0xC7B JUMP JUMPDEST DUP2 DUP2 SUB PUSH1 0x40 DUP4 ADD MSTORE PUSH2 0xD86 DUP2 DUP5 PUSH2 0xBE5 JUMP JUMPDEST SWAP1 POP SWAP5 SWAP4 POP POP POP POP JUMP JUMPDEST PUSH1 0x0 PUSH1 0x20 DUP3 ADD SWAP1 POP PUSH2 0xDA5 PUSH1 0x0 DUP4 ADD DUP5 PUSH2 0xBC7 JUMP JUMPDEST SWAP3 SWAP2 POP POP JUMP JUMPDEST PUSH1 0x0 PUSH1 0x20 DUP3 ADD SWAP1 POP DUP2 DUP2 SUB PUSH1 0x0 DUP4 ADD MSTORE PUSH2 0xDC4 DUP2 PUSH2 0xC35 JUMP JUMPDEST SWAP1 POP SWAP2 SWAP1 POP JUMP JUMPDEST PUSH1 0x0 PUSH1 0x20 DUP3 ADD SWAP1 POP DUP2 DUP2 SUB PUSH1 0x0 DUP4 ADD MSTORE PUSH2 0xDE4 DUP2 PUSH2 0xC58 JUMP JUMPDEST SWAP1 POP SWAP2 SWAP1 POP JUMP JUMPDEST PUSH1 0x0 DUP2 MLOAD SWAP1 POP SWAP2 SWAP1 POP JUMP JUMPDEST PUSH1 0x0 DUP3 DUP3 MSTORE PUSH1 0x20 DUP3 ADD SWAP1 POP SWAP3 SWAP2 POP POP JUMP JUMPDEST PUSH1 0x0 DUP3 DUP3 MSTORE PUSH1 0x20 DUP3 ADD SWAP1 POP SWAP3 SWAP2 POP POP JUMP JUMPDEST PUSH1 0x0 PUSH2 0xE23 DUP3 PUSH2 0x10E1 JUMP JUMPDEST SWAP2 POP PUSH2 0xE2E DUP4 PUSH2 0x10E1 JUMP JUMPDEST SWAP3 POP DUP3 PUSH32 0xFFFFFFFFFFFFFFFFFFFFFFFFFFFFFFFFFFFFFFFFFFFFFFFFFFFFFFFFFFFFFFFF SUB DUP3 GT ISZERO PUSH2 0xE63 JUMPI PUSH2 0xE62 PUSH2 0x11B3 JUMP JUMPDEST JUMPDEST DUP3 DUP3 ADD SWAP1 POP SWAP3 SWAP2 POP POP JUMP JUMPDEST PUSH1 0x0 DUP1 DUP3 SWAP2 POP DUP4 SWAP1 POP JUMPDEST PUSH1 0x1 DUP6 GT ISZERO PUSH2 0xEB8 JUMPI DUP1 DUP7 DIV DUP2 GT ISZERO PUSH2 0xE94 JUMPI PUSH2 0xE93 PUSH2 0x11B3 JUMP JUMPDEST JUMPDEST PUSH1 0x1 DUP6 AND ISZERO PUSH2 0xEA3 JUMPI DUP1 DUP3 MUL SWAP2 POP JUMPDEST DUP1 DUP2 MUL SWAP1 POP PUSH2 0xEB1 DUP6 PUSH2 0x1234 JUMP JUMPDEST SWAP5 POP PUSH2 0xE78 JUMP JUMPDEST SWAP5 POP SWAP5 SWAP3 POP POP POP JUMP JUMPDEST PUSH1 0x0 PUSH2 0xECC DUP3 PUSH2 0x10E1 JUMP JUMPDEST SWAP2 POP PUSH2 0xED7 DUP4 PUSH2 0x10E1 JUMP JUMPDEST SWAP3 POP PUSH2 0xF04 PUSH32 0xFFFFFFFFFFFFFFFFFFFFFFFFFFFFFFFFFFFFFFFFFFFFFFFFFFFFFFFFFFFFFFFF DUP5 DUP5 PUSH2 0xF0C JUMP JUMPDEST SWAP1 POP SWAP3 SWAP2 POP POP JUMP JUMPDEST PUSH1 0x0 DUP3 PUSH2 0xF1C JUMPI PUSH1 0x1 SWAP1 POP PUSH2 0xFD8 JUMP JUMPDEST DUP2 PUSH2 0xF2A JUMPI PUSH1 0x0 SWAP1 POP PUSH2 0xFD8 JUMP JUMPDEST DUP2 PUSH1 0x1 DUP2 EQ PUSH2 0xF40 JUMPI PUSH1 0x2 DUP2 EQ PUSH2 0xF4A JUMPI PUSH2 0xF79 JUMP JUMPDEST PUSH1 0x1 SWAP2 POP POP PUSH2 0xFD8 JUMP JUMPDEST PUSH1 0xFF DUP5 GT ISZERO PUSH2 0xF5C JUMPI PUSH2 0xF5B PUSH2 0x11B3 JUMP JUMPDEST JUMPDEST DUP4 PUSH1 0x2 EXP SWAP2 POP DUP5 DUP3 GT ISZERO PUSH2 0xF73 JUMPI PUSH2 0xF72 PUSH2 0x11B3 JUMP JUMPDEST JUMPDEST POP PUSH2 0xFD8 JUMP JUMPDEST POP PUSH1 0x20 DUP4 LT PUSH2 0x133 DUP4 LT AND PUSH1 0x4E DUP5 LT PUSH1 0xB DUP5 LT AND OR ISZERO PUSH2 0xFAE JUMPI DUP3 DUP3 EXP SWAP1 POP DUP4 DUP2 GT ISZERO PUSH2 0xFA9 JUMPI PUSH2 0xFA8 PUSH2 0x11B3 JUMP JUMPDEST JUMPDEST PUSH2 0xFD8 JUMP JUMPDEST PUSH2 0xFBB DUP5 DUP5 DUP5 PUSH1 0x1 PUSH2 0xE6E JUMP JUMPDEST SWAP3 POP SWAP1 POP DUP2 DUP5 DIV DUP2 GT ISZERO PUSH2 0xFD2 JUMPI PUSH2 0xFD1 PUSH2 0x11B3 JUMP JUMPDEST JUMPDEST DUP2 DUP2 MUL SWAP1 POP JUMPDEST SWAP4 SWAP3 POP POP POP JUMP JUMPDEST PUSH1 0x0 PUSH2 0xFEA DUP3 PUSH2 0x10E1 JUMP JUMPDEST SWAP2 POP PUSH2 0xFF5 DUP4 PUSH2 0x10E1 JUMP JUMPDEST SWAP3 POP DUP2 PUSH32 0xFFFFFFFFFFFFFFFFFFFFFFFFFFFFFFFFFFFFFFFFFFFFFFFFFFFFFFFFFFFFFFFF DIV DUP4 GT DUP3 ISZERO ISZERO AND ISZERO PUSH2 0x102E JUMPI PUSH2 0x102D PUSH2 0x11B3 JUMP JUMPDEST JUMPDEST DUP3 DUP3 MUL SWAP1 POP SWAP3 SWAP2 POP POP JUMP JUMPDEST PUSH1 0x0 PUSH2 0x1044 DUP3 PUSH2 0x10E1 JUMP JUMPDEST SWAP2 POP PUSH2 0x104F DUP4 PUSH2 0x10E1 JUMP JUMPDEST SWAP3 POP DUP3 DUP3 LT ISZERO PUSH2 0x1062 JUMPI PUSH2 0x1061 PUSH2 0x11B3 JUMP JUMPDEST JUMPDEST DUP3 DUP3 SUB SWAP1 POP SWAP3 SWAP2 POP POP JUMP JUMPDEST PUSH1 0x0 PUSH2 0x1078 DUP3 PUSH2 0x10C1 JUMP JUMPDEST SWAP1 POP SWAP2 SWAP1 POP JUMP JUMPDEST PUSH1 0x0 DUP2 ISZERO ISZERO SWAP1 POP SWAP2 SWAP1 POP JUMP JUMPDEST PUSH1 0x0 DUP2 SWAP1 POP SWAP2 SWAP1 POP JUMP JUMPDEST PUSH1 0x0 PUSH32 0xFFFFFFFF00000000000000000000000000000000000000000000000000000000 DUP3 AND SWAP1 POP SWAP2 SWAP1 POP JUMP JUMPDEST PUSH1 0x0 PUSH20 0xFFFFFFFFFFFFFFFFFFFFFFFFFFFFFFFFFFFFFFFF DUP3 AND SWAP1 POP SWAP2 SWAP1 POP JUMP JUMPDEST PUSH1 0x0 DUP2 SWAP1 POP SWAP2 SWAP1 POP JUMP JUMPDEST PUSH1 0x0 PUSH2 0x10F6 DUP3 PUSH2 0x10FD JUMP JUMPDEST SWAP1 POP SWAP2 SWAP1 POP JUMP JUMPDEST PUSH1 0x0 PUSH2 0x1108 DUP3 PUSH2 0x110F JUMP JUMPDEST SWAP1 POP SWAP2 SWAP1 POP JUMP JUMPDEST PUSH1 0x0 PUSH2 0x111A DUP3 PUSH2 0x10C1 JUMP JUMPDEST SWAP1 POP SWAP2 SWAP1 POP JUMP JUMPDEST PUSH1 0x0 JUMPDEST DUP4 DUP2 LT ISZERO PUSH2 0x113F JUMPI DUP1 DUP3 ADD MLOAD DUP2 DUP5 ADD MSTORE PUSH1 0x20 DUP2 ADD SWAP1 POP PUSH2 0x1124 JUMP JUMPDEST DUP4 DUP2 GT ISZERO PUSH2 0x114E JUMPI PUSH1 0x0 DUP5 DUP5 ADD MSTORE JUMPDEST POP POP POP POP JUMP JUMPDEST PUSH1 0x0 PUSH2 0x115F DUP3 PUSH2 0x1166 JUMP JUMPDEST SWAP1 POP SWAP2 SWAP1 POP JUMP JUMPDEST PUSH1 0x0 PUSH2 0x1171 DUP3 PUSH2 0x1227 JUMP JUMPDEST SWAP1 POP SWAP2 SWAP1 POP JUMP JUMPDEST PUSH1 0x0 DUP2 SWAP1 POP SWAP2 SWAP1 POP JUMP JUMPDEST PUSH1 0x0 PUSH2 0x118D DUP3 PUSH2 0x10E1 JUMP JUMPDEST SWAP2 POP PUSH2 0x1198 DUP4 PUSH2 0x10E1 JUMP JUMPDEST SWAP3 POP DUP3 PUSH2 0x11A8 JUMPI PUSH2 0x11A7 PUSH2 0x11E2 JUMP JUMPDEST JUMPDEST DUP3 DUP3 MOD SWAP1 POP SWAP3 SWAP2 POP POP JUMP JUMPDEST PUSH32 0x4E487B7100000000000000000000000000000000000000000000000000000000 PUSH1 0x0 MSTORE PUSH1 0x11 PUSH1 0x4 MSTORE PUSH1 0x24 PUSH1 0x0 REVERT JUMPDEST PUSH32 0x4E487B7100000000000000000000000000000000000000000000000000000000 PUSH1 0x0 MSTORE PUSH1 0x12 PUSH1 0x4 MSTORE PUSH1 0x24 PUSH1 0x0 REVERT JUMPDEST PUSH1 0x0 DUP1 REVERT JUMPDEST PUSH1 0x0 PUSH1 0x1F NOT PUSH1 0x1F DUP4 ADD AND SWAP1 POP SWAP2 SWAP1 POP JUMP JUMPDEST PUSH1 0x0 DUP2 PUSH1 0x60 SHL SWAP1 POP SWAP2 SWAP1 POP JUMP JUMPDEST PUSH1 0x0 DUP2 PUSH1 0x1 SHR SWAP1 POP SWAP2 SWAP1 POP JUMP JUMPDEST PUSH32 0x756E61626C6520746F207472616E73666572416E6443616C6C20746F206F7261 PUSH1 0x0 DUP3 ADD MSTORE PUSH32 0x636C650000000000000000000000000000000000000000000000000000000000 PUSH1 0x20 DUP3 ADD MSTORE POP JUMP JUMPDEST PUSH32 0x536F75726365206D75737420626520746865206F7261636C65206F6620746865 PUSH1 0x0 DUP3 ADD MSTORE PUSH32 0x2072657175657374000000000000000000000000000000000000000000000000 PUSH1 0x20 DUP3 ADD MSTORE POP JUMP JUMPDEST PUSH2 0x12E8 DUP2 PUSH2 0x107F JUMP JUMPDEST DUP2 EQ PUSH2 0x12F3 JUMPI PUSH1 0x0 DUP1 REVERT JUMPDEST POP JUMP JUMPDEST PUSH2 0x12FF DUP2 PUSH2 0x108B JUMP JUMPDEST DUP2 EQ PUSH2 0x130A JUMPI PUSH1 0x0 DUP1 REVERT JUMPDEST POP JUMP INVALID PUSH28 0x2274223A2262797465733332222C226D223A22676574222C2275223A 0x22 PUSH9 0x747470733A2F2F636F PUSH10 0x6E74656C656772617068 0x2E PUSH4 0x6F6D2F74 PUSH2 0x6773 0x2F PUSH2 0x6C74 PUSH4 0x6F696E22 0x2C 0x22 PUSH10 0x223A2262616679626569 PUSH2 0x7278 PUSH12 0x6B7A7A663463706D76626E32 PUSH11 0x7737707963687867636569 CALLER PUSH26 0x6D647A6C7933786969747479667368787A3274337661227DA264 PUSH10 0x706673582212204513D7 0xB8 0xAC SDIV BASEFEE PUSH9 0xCF76BC5C66F78302DD 0xF SWAP15 0x1F SWAP6 POP 0x4A CODESIZE JUMP 0x4F 0xE3 0xA8 PUSH11 0x57B7B664736F6C63430008 SMOD STOP CALLER "
        },
        "methodIdentifiers": {
          "fulfill(bytes32,bytes32)": "042f2b65",
          "request()": "338cdca1",
          "result()": "65372147"
        }
      }
    }
  }
}