{
  "_format": "hh-sol-artifact-1",
  "contractName": "ATestnetConsumer",
  "sourceName": "contracts/ATestnetConsumer.sol",
  "abi": [
    {
      "inputs": [],
      "stateMutability": "nonpayable",
      "type": "constructor"
    },
    {
      "anonymous": false,
      "inputs": [
        {
          "indexed": true,
          "internalType": "bytes32",
          "name": "id",
          "type": "bytes32"
        }
      ],
      "name": "ChainlinkCancelled",
      "type": "event"
    },
    {
      "anonymous": false,
      "inputs": [
        {
          "indexed": true,
          "internalType": "bytes32",
          "name": "id",
          "type": "bytes32"
        }
      ],
      "name": "ChainlinkFulfilled",
      "type": "event"
    },
    {
      "anonymous": false,
      "inputs": [
        {
          "indexed": true,
          "internalType": "bytes32",
          "name": "id",
          "type": "bytes32"
        }
      ],
      "name": "ChainlinkRequested",
      "type": "event"
    },
    {
      "anonymous": false,
      "inputs": [
        {
          "indexed": true,
          "internalType": "address",
          "name": "from",
          "type": "address"
        },
        {
          "indexed": true,
          "internalType": "address",
          "name": "to",
          "type": "address"
        }
      ],
      "name": "OwnershipTransferRequested",
      "type": "event"
    },
    {
      "anonymous": false,
      "inputs": [
        {
          "indexed": true,
          "internalType": "address",
          "name": "from",
          "type": "address"
        },
        {
          "indexed": true,
          "internalType": "address",
          "name": "to",
          "type": "address"
        }
      ],
      "name": "OwnershipTransferred",
      "type": "event"
    },
    {
      "anonymous": false,
      "inputs": [
        {
          "indexed": true,
          "internalType": "bytes32",
          "name": "requestId",
          "type": "bytes32"
        },
        {
          "indexed": true,
          "internalType": "int256",
          "name": "change",
          "type": "int256"
        }
      ],
      "name": "RequestEthereumChangeFulfilled",
      "type": "event"
    },
    {
      "anonymous": false,
      "inputs": [
        {
          "indexed": true,
          "internalType": "bytes32",
          "name": "requestId",
          "type": "bytes32"
        },
        {
          "indexed": true,
          "internalType": "bytes32",
          "name": "market",
          "type": "bytes32"
        }
      ],
      "name": "RequestEthereumLastMarket",
      "type": "event"
    },
    {
      "anonymous": false,
      "inputs": [
        {
          "indexed": true,
          "internalType": "bytes32",
          "name": "requestId",
          "type": "bytes32"
        },
        {
          "indexed": true,
          "internalType": "uint256",
          "name": "price",
          "type": "uint256"
        }
      ],
      "name": "RequestEthereumPriceFulfilled",
      "type": "event"
    },
    {
      "inputs": [],
      "name": "acceptOwnership",
      "outputs": [],
      "stateMutability": "nonpayable",
      "type": "function"
    },
    {
      "inputs": [
        {
          "internalType": "bytes32",
          "name": "_requestId",
          "type": "bytes32"
        },
        {
          "internalType": "uint256",
          "name": "_payment",
          "type": "uint256"
        },
        {
          "internalType": "bytes4",
          "name": "_callbackFunctionId",
          "type": "bytes4"
        },
        {
          "internalType": "uint256",
          "name": "_expiration",
          "type": "uint256"
        }
      ],
      "name": "cancelRequest",
      "outputs": [],
      "stateMutability": "nonpayable",
      "type": "function"
    },
    {
      "inputs": [],
      "name": "changeDay",
      "outputs": [
        {
          "internalType": "int256",
          "name": "",
          "type": "int256"
        }
      ],
      "stateMutability": "view",
      "type": "function"
    },
    {
      "inputs": [],
      "name": "currentPrice",
      "outputs": [
        {
          "internalType": "uint256",
          "name": "",
          "type": "uint256"
        }
      ],
      "stateMutability": "view",
      "type": "function"
    },
    {
      "inputs": [
        {
          "internalType": "bytes32",
          "name": "_requestId",
          "type": "bytes32"
        },
        {
          "internalType": "int256",
          "name": "_change",
          "type": "int256"
        }
      ],
      "name": "fulfillEthereumChange",
      "outputs": [],
      "stateMutability": "nonpayable",
      "type": "function"
    },
    {
      "inputs": [
        {
          "internalType": "bytes32",
          "name": "_requestId",
          "type": "bytes32"
        },
        {
          "internalType": "bytes32",
          "name": "_market",
          "type": "bytes32"
        }
      ],
      "name": "fulfillEthereumLastMarket",
      "outputs": [],
      "stateMutability": "nonpayable",
      "type": "function"
    },
    {
      "inputs": [
        {
          "internalType": "bytes32",
          "name": "_requestId",
          "type": "bytes32"
        },
        {
          "internalType": "uint256",
          "name": "_price",
          "type": "uint256"
        }
      ],
      "name": "fulfillEthereumPrice",
      "outputs": [],
      "stateMutability": "nonpayable",
      "type": "function"
    },
    {
      "inputs": [],
      "name": "getChainlinkToken",
      "outputs": [
        {
          "internalType": "address",
          "name": "",
          "type": "address"
        }
      ],
      "stateMutability": "view",
      "type": "function"
    },
    {
      "inputs": [],
      "name": "lastMarket",
      "outputs": [
        {
          "internalType": "bytes32",
          "name": "",
          "type": "bytes32"
        }
      ],
      "stateMutability": "view",
      "type": "function"
    },
    {
      "inputs": [],
      "name": "owner",
      "outputs": [
        {
          "internalType": "address",
          "name": "",
          "type": "address"
        }
      ],
      "stateMutability": "view",
      "type": "function"
    },
    {
      "inputs": [
        {
          "internalType": "address",
          "name": "_oracle",
          "type": "address"
        },
        {
          "internalType": "string",
          "name": "_jobId",
          "type": "string"
        }
      ],
      "name": "requestEthereumChange",
      "outputs": [],
      "stateMutability": "nonpayable",
      "type": "function"
    },
    {
      "inputs": [
        {
          "internalType": "address",
          "name": "_oracle",
          "type": "address"
        },
        {
          "internalType": "string",
          "name": "_jobId",
          "type": "string"
        }
      ],
      "name": "requestEthereumLastMarket",
      "outputs": [],
      "stateMutability": "nonpayable",
      "type": "function"
    },
    {
      "inputs": [
        {
          "internalType": "address",
          "name": "_oracle",
          "type": "address"
        },
        {
          "internalType": "string",
          "name": "_jobId",
          "type": "string"
        }
      ],
      "name": "requestEthereumPrice",
      "outputs": [],
      "stateMutability": "nonpayable",
      "type": "function"
    },
    {
      "inputs": [
        {
          "internalType": "address",
          "name": "to",
          "type": "address"
        }
      ],
      "name": "transferOwnership",
      "outputs": [],
      "stateMutability": "nonpayable",
      "type": "function"
    },
    {
      "inputs": [],
      "name": "withdrawLink",
      "outputs": [],
      "stateMutability": "nonpayable",
      "type": "function"
    }
  ],
  "bytecode": "0x608060405260016004553480156200001657600080fd5b50338060008073ffffffffffffffffffffffffffffffffffffffff168273ffffffffffffffffffffffffffffffffffffffff1614156200008d576040517f08c379a00000000000000000000000000000000000000000000000000000000081526004016200008490620003e3565b60405180910390fd5b81600660006101000a81548173ffffffffffffffffffffffffffffffffffffffff021916908373ffffffffffffffffffffffffffffffffffffffff160217905550600073ffffffffffffffffffffffffffffffffffffffff168173ffffffffffffffffffffffffffffffffffffffff1614620001155762000114816200012e60201b60201c565b5b505050620001286200026060201b60201c565b620004dd565b3373ffffffffffffffffffffffffffffffffffffffff168173ffffffffffffffffffffffffffffffffffffffff161415620001a0576040517f08c379a0000000000000000000000000000000000000000000000000000000008152600401620001979062000405565b60405180910390fd5b80600760006101000a81548173ffffffffffffffffffffffffffffffffffffffff021916908373ffffffffffffffffffffffffffffffffffffffff1602179055508073ffffffffffffffffffffffffffffffffffffffff16600660009054906101000a900473ffffffffffffffffffffffffffffffffffffffff1673ffffffffffffffffffffffffffffffffffffffff167fed8889f560326eb138920d842192f0eb3dd22b4f139c87a2c57538e05bae127860405160405180910390a350565b6200030673c89bd4e1632d3a43cb03aaad5262cbe4038bc57173ffffffffffffffffffffffffffffffffffffffff166338cc48316040518163ffffffff1660e01b815260040160206040518083038186803b158015620002bf57600080fd5b505afa158015620002d4573d6000803e3d6000fd5b505050506040513d601f19601f82011682018060405250810190620002fa919062000363565b6200030860201b60201c565b565b80600260006101000a81548173ffffffffffffffffffffffffffffffffffffffff021916908373ffffffffffffffffffffffffffffffffffffffff16021790555050565b6000815190506200035d81620004c3565b92915050565b6000602082840312156200037c576200037b6200046c565b5b60006200038c848285016200034c565b91505092915050565b6000620003a460188362000427565b9150620003b18262000471565b602082019050919050565b6000620003cb60178362000427565b9150620003d8826200049a565b602082019050919050565b60006020820190508181036000830152620003fe8162000395565b9050919050565b600060208201905081810360008301526200042081620003bc565b9050919050565b600082825260208201905092915050565b600062000445826200044c565b9050919050565b600073ffffffffffffffffffffffffffffffffffffffff82169050919050565b600080fd5b7f43616e6e6f7420736574206f776e657220746f207a65726f0000000000000000600082015250565b7f43616e6e6f74207472616e7366657220746f2073656c66000000000000000000600082015250565b620004ce8162000438565b8114620004da57600080fd5b50565b612d5480620004ed6000396000f3fe608060405234801561001057600080fd5b50600436106100f55760003560e01c806392cdaaf311610097578063e9edbf0311610066578063e9edbf0314610212578063ec65d0f814610230578063f2fde38b1461024c578063f3bdf8ba14610268576100f5565b806392cdaaf3146101a05780639d1b464a146101bc578063a46fbe1a146101da578063ab643c10146101f6576100f5565b8063619cba1a116100d3578063619cba1a1461015257806379ba50971461016e5780638da5cb5b146101785780638dc654a214610196576100f5565b8063165d35e1146100fa5780632183abd11461011857806349556aff14610136575b600080fd5b610102610284565b60405161010f919061222d565b60405180910390f35b610120610293565b60405161012d9190612394565b60405180910390f35b610150600480360381019061014b9190611f29565b610299565b005b61016c60048036038101906101679190611ea0565b6103d8565b005b610176610552565b005b6101806106e9565b60405161018d919061222d565b60405180910390f35b61019e610713565b005b6101ba60048036038101906101b59190611fa9565b61087e565b005b6101c46109bd565b6040516101d1919061246f565b60405180910390f35b6101f460048036038101906101ef9190611f69565b6109c3565b005b610210600480360381019061020b9190611ea0565b610b02565b005b61021a610c79565b6040516102279190612334565b60405180910390f35b61024a60048036038101906102459190611fe9565b610c7f565b005b61026660048036038101906102619190611e73565b610c99565b005b610282600480360381019061027d9190611ea0565b610cad565b005b600061028e610f4c565b905090565b60095481565b816005600082815260200190815260200160002060009054906101000a900473ffffffffffffffffffffffffffffffffffffffff1673ffffffffffffffffffffffffffffffffffffffff163373ffffffffffffffffffffffffffffffffffffffff161461033b576040517f08c379a00000000000000000000000000000000000000000000000000000000081526004016103329061244f565b60405180910390fd5b6005600082815260200190815260200160002060006101000a81549073ffffffffffffffffffffffffffffffffffffffff0219169055807f7cc135e0cebb02c3480ae5d74d377283180a2601f8f644edf7987b009316c63a60405160405180910390a281837f1a7783cfc5355cd0706abec2229662cda9cefcfc8aeb31fec8b391ba5eb67cbe60405160405180910390a381600a81905550505050565b6103e0610f76565b60006103fc6103ee83611008565b3063a46fbe1a60e01b611032565b90506104606040518060400160405280600381526020017f6765740000000000000000000000000000000000000000000000000000000000815250604051806080016040528060498152602001612cd660499139836110639092919063ffffffff16565b6104df6040518060400160405280600481526020017f70617468000000000000000000000000000000000000000000000000000000008152506040518060400160405280601881526020017f5241572e4554482e5553442e4348414e47455043544441590000000000000000815250836110639092919063ffffffff16565b61052d6040518060400160405280600581526020017f74696d6573000000000000000000000000000000000000000000000000000000815250633b9aca00836110969092919063ffffffff16565b61054c8382670de0b6b3a7640000600161054791906126d4565b6110c9565b50505050565b600760009054906101000a900473ffffffffffffffffffffffffffffffffffffffff1673ffffffffffffffffffffffffffffffffffffffff163373ffffffffffffffffffffffffffffffffffffffff16146105e2576040517f08c379a00000000000000000000000000000000000000000000000000000000081526004016105d9906123af565b60405180910390fd5b6000600660009054906101000a900473ffffffffffffffffffffffffffffffffffffffff16905033600660006101000a81548173ffffffffffffffffffffffffffffffffffffffff021916908373ffffffffffffffffffffffffffffffffffffffff1602179055506000600760006101000a81548173ffffffffffffffffffffffffffffffffffffffff021916908373ffffffffffffffffffffffffffffffffffffffff1602179055503373ffffffffffffffffffffffffffffffffffffffff168173ffffffffffffffffffffffffffffffffffffffff167f8be0079c531659141344cd1fd0a4f28419497f9722a3daafe3b4186f6b6457e060405160405180910390a350565b6000600660009054906101000a900473ffffffffffffffffffffffffffffffffffffffff16905090565b61071b610f76565b6000610725610f4c565b90508073ffffffffffffffffffffffffffffffffffffffff1663a9059cbb338373ffffffffffffffffffffffffffffffffffffffff166370a08231306040518263ffffffff1660e01b815260040161077d919061222d565b60206040518083038186803b15801561079557600080fd5b505afa1580156107a9573d6000803e3d6000fd5b505050506040513d601f19601f820116820180604052508101906107cd9190612050565b6040518363ffffffff1660e01b81526004016107ea929190612248565b602060405180830381600087803b15801561080457600080fd5b505af1158015610818573d6000803e3d6000fd5b505050506040513d601f19601f8201168201806040525081019061083c9190611efc565b61087b576040517f08c379a00000000000000000000000000000000000000000000000000000000081526004016108729061240f565b60405180910390fd5b50565b816005600082815260200190815260200160002060009054906101000a900473ffffffffffffffffffffffffffffffffffffffff1673ffffffffffffffffffffffffffffffffffffffff163373ffffffffffffffffffffffffffffffffffffffff1614610920576040517f08c379a00000000000000000000000000000000000000000000000000000000081526004016109179061244f565b60405180910390fd5b6005600082815260200190815260200160002060006101000a81549073ffffffffffffffffffffffffffffffffffffffff0219169055807f7cc135e0cebb02c3480ae5d74d377283180a2601f8f644edf7987b009316c63a60405160405180910390a281837f794eb9e29f6750ede99e05248d997a9ab9fa23c4a7eaff8afa729080eb7c642860405160405180910390a381600881905550505050565b60085481565b816005600082815260200190815260200160002060009054906101000a900473ffffffffffffffffffffffffffffffffffffffff1673ffffffffffffffffffffffffffffffffffffffff163373ffffffffffffffffffffffffffffffffffffffff1614610a65576040517f08c379a0000000000000000000000000000000000000000000000000000000008152600401610a5c9061244f565b60405180910390fd5b6005600082815260200190815260200160002060006101000a81549073ffffffffffffffffffffffffffffffffffffffff0219169055807f7cc135e0cebb02c3480ae5d74d377283180a2601f8f644edf7987b009316c63a60405160405180910390a281837f36f03c766dbeb725bf2a1e6cf2d934a02bf3cd9644b55767c8f41ef2d4af061260405160405180910390a381600981905550505050565b610b0a610f76565b6000610b26610b1883611008565b306392cdaaf360e01b611032565b9050610b8a6040518060400160405280600381526020017f67657400000000000000000000000000000000000000000000000000000000008152506040518060600160405280603f8152602001612c97603f9139836110639092919063ffffffff16565b610c096040518060400160405280600481526020017f70617468000000000000000000000000000000000000000000000000000000008152506040518060400160405280600381526020017f5553440000000000000000000000000000000000000000000000000000000000815250836110639092919063ffffffff16565b610c546040518060400160405280600581526020017f74696d65730000000000000000000000000000000000000000000000000000008152506064836110969092919063ffffffff16565b610c738382670de0b6b3a76400006001610c6e91906126d4565b6110c9565b50505050565b600a5481565b610c87610f76565b610c93848484846110e9565b50505050565b610ca1610f76565b610caa816111fc565b50565b610cb5610f76565b6000610cd1610cc383611008565b306349556aff60e01b611032565b9050610d356040518060400160405280600381526020017f6765740000000000000000000000000000000000000000000000000000000000815250604051806080016040528060498152602001612cd660499139836110639092919063ffffffff16565b6000600467ffffffffffffffff811115610d5257610d51612a5c565b5b604051908082528060200260200182016040528015610d8557816020015b6060815260200190600190039081610d705790505b5090506040518060400160405280600381526020017f524157000000000000000000000000000000000000000000000000000000000081525081600081518110610dd257610dd1612a2d565b5b60200260200101819052506040518060400160405280600381526020017f455448000000000000000000000000000000000000000000000000000000000081525081600181518110610e2757610e26612a2d565b5b60200260200101819052506040518060400160405280600381526020017f555344000000000000000000000000000000000000000000000000000000000081525081600281518110610e7c57610e7b612a2d565b5b60200260200101819052506040518060400160405280600a81526020017f4c4153544d41524b45540000000000000000000000000000000000000000000081525081600381518110610ed157610ed0612a2d565b5b6020026020010181905250610f266040518060400160405280600481526020017f7061746800000000000000000000000000000000000000000000000000000000815250828461132b9092919063ffffffff16565b610f458483670de0b6b3a76400006001610f4091906126d4565b6110c9565b5050505050565b6000600260009054906101000a900473ffffffffffffffffffffffffffffffffffffffff16905090565b600660009054906101000a900473ffffffffffffffffffffffffffffffffffffffff1673ffffffffffffffffffffffffffffffffffffffff163373ffffffffffffffffffffffffffffffffffffffff1614611006576040517f08c379a0000000000000000000000000000000000000000000000000000000008152600401610ffd906123ef565b60405180910390fd5b565b600080829050600081511415611024576000801b91505061102d565b60208301519150505b919050565b61103a611ce9565b611042611ce9565b611059858585846113b2909392919063ffffffff16565b9150509392505050565b61107a82846080015161146290919063ffffffff16565b61109181846080015161146290919063ffffffff16565b505050565b6110ad82846080015161146290919063ffffffff16565b6110c481846080015161148790919063ffffffff16565b505050565b60006110e08484846001634042994660e01b611534565b90509392505050565b60006005600086815260200190815260200160002060009054906101000a900473ffffffffffffffffffffffffffffffffffffffff1690506005600086815260200190815260200160002060006101000a81549073ffffffffffffffffffffffffffffffffffffffff0219169055847fe1fe3afa0f7f761ff0a8b89086790efd5140d2907ebd5b7ff6bfcb5e075fd4c560405160405180910390a28073ffffffffffffffffffffffffffffffffffffffff16636ee4d553868686866040518563ffffffff1660e01b81526004016111c3949392919061234f565b600060405180830381600087803b1580156111dd57600080fd5b505af11580156111f1573d6000803e3d6000fd5b505050505050505050565b3373ffffffffffffffffffffffffffffffffffffffff168173ffffffffffffffffffffffffffffffffffffffff16141561126b576040517f08c379a00000000000000000000000000000000000000000000000000000000081526004016112629061242f565b60405180910390fd5b80600760006101000a81548173ffffffffffffffffffffffffffffffffffffffff021916908373ffffffffffffffffffffffffffffffffffffffff1602179055508073ffffffffffffffffffffffffffffffffffffffff16600660009054906101000a900473ffffffffffffffffffffffffffffffffffffffff1673ffffffffffffffffffffffffffffffffffffffff167fed8889f560326eb138920d842192f0eb3dd22b4f139c87a2c57538e05bae127860405160405180910390a350565b61134282846080015161146290919063ffffffff16565b61134f836080015161179c565b60005b815181101561139f5761138c82828151811061137157611370612a2d565b5b6020026020010151856080015161146290919063ffffffff16565b808061139790612927565b915050611352565b506113ad83608001516117aa565b505050565b6113ba611ce9565b6113ca85608001516101006117b8565b508385600001818152505082856020019073ffffffffffffffffffffffffffffffffffffffff16908173ffffffffffffffffffffffffffffffffffffffff16815250508185604001907bffffffffffffffffffffffffffffffffffffffffffffffffffffffff191690817bffffffffffffffffffffffffffffffffffffffffffffffffffffffff191681525050849050949350505050565b61146f8260038351611822565b611482818361196790919063ffffffff16565b505050565b7fffffffffffffffffffffffffffffffffffffffffffffffff00000000000000008112156114be576114b98282611989565b611530565b67ffffffffffffffff8113156114dd576114d88282611a00565b61152f565b600081126114f6576114f182600083611822565b61152e565b61152d826001837fffffffffffffffffffffffffffffffffffffffffffffffffffffffffffffffff611528919061272e565b611822565b5b5b5b5050565b60003060045460405160200161154b929190612201565b604051602081830303815290604052805190602001209050600454856060018181525050856005600083815260200190815260200160002060006101000a81548173ffffffffffffffffffffffffffffffffffffffff021916908373ffffffffffffffffffffffffffffffffffffffff160217905550807fb5e6e01e79f91267dc17b4e6314d5d4d03593d2ceee0fbb452b750bd70ea5af960405160405180910390a2600082600080886000015189602001518a604001518b606001518a8d6080015160000151604051602401611629989796959493929190612271565b604051602081830303815290604052907bffffffffffffffffffffffffffffffffffffffffffffffffffffffff19166020820180517bffffffffffffffffffffffffffffffffffffffffffffffffffffffff83818316178352505050509050600260009054906101000a900473ffffffffffffffffffffffffffffffffffffffff1673ffffffffffffffffffffffffffffffffffffffff16634000aea08887846040518463ffffffff1660e01b81526004016116e7939291906122f6565b602060405180830381600087803b15801561170157600080fd5b505af1158015611715573d6000803e3d6000fd5b505050506040513d601f19601f820116820180604052508101906117399190611efc565b611778576040517f08c379a000000000000000000000000000000000000000000000000000000000815260040161176f906123cf565b60405180910390fd5b60016004600082825461178b919061250d565b925050819055505095945050505050565b6117a7816004611a4c565b50565b6117b5816007611a4c565b50565b6117c0611d56565b60006020836117cf919061299e565b146117fb576020826117e1919061299e565b60206117ed91906127c2565b826117f8919061250d565b91505b81836020018181525050604051808452600081528281016020016040525082905092915050565b6017811161184f576118498160058460ff16901b60ff161784611a6e90919063ffffffff16565b50611962565b60ff811161189157611874601860058460ff16901b1784611a6e90919063ffffffff16565b5061188b81600185611a8e9092919063ffffffff16565b50611961565b61ffff81116118d4576118b7601960058460ff16901b1784611a6e90919063ffffffff16565b506118ce81600285611a8e9092919063ffffffff16565b50611960565b63ffffffff8111611919576118fc601a60058460ff16901b1784611a6e90919063ffffffff16565b5061191381600485611a8e9092919063ffffffff16565b5061195f565b67ffffffffffffffff811161195e57611945601b60058460ff16901b1784611a6e90919063ffffffff16565b5061195c81600885611a8e9092919063ffffffff16565b505b5b5b5b5b505050565b61196f611d56565b61198183846000015151848551611ab0565b905092915050565b6119a760036005600660ff16901b1783611a6e90919063ffffffff16565b506119fc82827fffffffffffffffffffffffffffffffffffffffffffffffffffffffffffffffff6119d8919061272e565b6040516020016119e8919061246f565b604051602081830303815290604052611b9f565b5050565b611a1e60026005600660ff16901b1783611a6e90919063ffffffff16565b50611a488282604051602001611a34919061246f565b604051602081830303815290604052611b9f565b5050565b611a69601f60058360ff16901b1783611a6e90919063ffffffff16565b505050565b611a76611d56565b611a868384600001515184611bc4565b905092915050565b611a96611d56565b611aa7848560000151518585611c1b565b90509392505050565b611ab8611d56565b8251821115611ac657600080fd5b84602001518285611ad7919061250d565b1115611b0c57611b0b856002611afc88602001518887611af7919061250d565b611ca9565b611b0691906126d4565b611cc5565b5b600080865180518760208301019350808887011115611b2b5787860182525b60208701925050505b60208410611b725780518252602082611b4d919061250d565b9150602081611b5c919061250d565b9050602084611b6b91906127c2565b9350611b34565b60006001856020036101000a03905080198251168184511681811785525050508692505050949350505050565b611bac8260028351611822565b611bbf818361196790919063ffffffff16565b505050565b611bcc611d56565b83602001518310611bf257611bf18460028660200151611bec91906126d4565b611cc5565b5b8351805160208583010184815381861415611c0e576001820183525b5050508390509392505050565b611c23611d56565b84602001518483611c34919061250d565b1115611c5c57611c5b8560028685611c4c919061250d565b611c5691906126d4565b611cc5565b5b6000600183610100611c6e91906125b6565b611c7891906127c2565b90508551838682010185831982511617815281518588011115611c9b5784870182525b505085915050949350505050565b600081831115611cbb57829050611cbf565b8190505b92915050565b600082600001519050611cd883836117b8565b50611ce38382611967565b50505050565b6040518060a0016040528060008019168152602001600073ffffffffffffffffffffffffffffffffffffffff16815260200160007bffffffffffffffffffffffffffffffffffffffffffffffffffffffff1916815260200160008152602001611d50611d56565b81525090565b604051806040016040528060608152602001600081525090565b6000611d83611d7e846124af565b61248a565b905082815260208101848484011115611d9f57611d9e612a90565b5b611daa8482856128b4565b509392505050565b600081359050611dc181612c0c565b92915050565b600081519050611dd681612c23565b92915050565b600081359050611deb81612c3a565b92915050565b600081359050611e0081612c51565b92915050565b600081359050611e1581612c68565b92915050565b600082601f830112611e3057611e2f612a8b565b5b8135611e40848260208601611d70565b91505092915050565b600081359050611e5881612c7f565b92915050565b600081519050611e6d81612c7f565b92915050565b600060208284031215611e8957611e88612a9a565b5b6000611e9784828501611db2565b91505092915050565b60008060408385031215611eb757611eb6612a9a565b5b6000611ec585828601611db2565b925050602083013567ffffffffffffffff811115611ee657611ee5612a95565b5b611ef285828601611e1b565b9150509250929050565b600060208284031215611f1257611f11612a9a565b5b6000611f2084828501611dc7565b91505092915050565b60008060408385031215611f4057611f3f612a9a565b5b6000611f4e85828601611ddc565b9250506020611f5f85828601611ddc565b9150509250929050565b60008060408385031215611f8057611f7f612a9a565b5b6000611f8e85828601611ddc565b9250506020611f9f85828601611e06565b9150509250929050565b60008060408385031215611fc057611fbf612a9a565b5b6000611fce85828601611ddc565b9250506020611fdf85828601611e49565b9150509250929050565b6000806000806080858703121561200357612002612a9a565b5b600061201187828801611ddc565b945050602061202287828801611e49565b935050604061203387828801611df1565b925050606061204487828801611e49565b91505092959194509250565b60006020828403121561206657612065612a9a565b5b600061207484828501611e5e565b91505092915050565b612086816127f6565b82525050565b61209581612814565b82525050565b6120a48161281e565b82525050565b60006120b5826124e0565b6120bf81856124eb565b93506120cf8185602086016128c3565b6120d881612a9f565b840191505092915050565b6120f46120ef8261287e565b612970565b82525050565b6121038161284a565b82525050565b60006121166016836124fc565b915061212182612aca565b602082019050919050565b60006121396023836124fc565b915061214482612af3565b604082019050919050565b600061215c6016836124fc565b915061216782612b42565b602082019050919050565b600061217f6012836124fc565b915061218a82612b6b565b602082019050919050565b60006121a26017836124fc565b91506121ad82612b94565b602082019050919050565b60006121c56028836124fc565b91506121d082612bbd565b604082019050919050565b6121e481612874565b82525050565b6121fb6121f682612874565b612994565b82525050565b600061220d82856120e3565b60148201915061221d82846121ea565b6020820191508190509392505050565b6000602082019050612242600083018461207d565b92915050565b600060408201905061225d600083018561207d565b61226a60208301846121db565b9392505050565b600061010082019050612287600083018b61207d565b612294602083018a6121db565b6122a1604083018961208c565b6122ae606083018861207d565b6122bb608083018761209b565b6122c860a08301866121db565b6122d560c08301856121db565b81810360e08301526122e781846120aa565b90509998505050505050505050565b600060608201905061230b600083018661207d565b61231860208301856121db565b818103604083015261232a81846120aa565b9050949350505050565b6000602082019050612349600083018461208c565b92915050565b6000608082019050612364600083018761208c565b61237160208301866121db565b61237e604083018561209b565b61238b60608301846121db565b95945050505050565b60006020820190506123a960008301846120fa565b92915050565b600060208201905081810360008301526123c881612109565b9050919050565b600060208201905081810360008301526123e88161212c565b9050919050565b600060208201905081810360008301526124088161214f565b9050919050565b6000602082019050818103600083015261242881612172565b9050919050565b6000602082019050818103600083015261244881612195565b9050919050565b60006020820190508181036000830152612468816121b8565b9050919050565b600060208201905061248460008301846121db565b92915050565b60006124946124a5565b90506124a082826128f6565b919050565b6000604051905090565b600067ffffffffffffffff8211156124ca576124c9612a5c565b5b6124d382612a9f565b9050602081019050919050565b600081519050919050565b600082825260208201905092915050565b600082825260208201905092915050565b600061251882612874565b915061252383612874565b9250827fffffffffffffffffffffffffffffffffffffffffffffffffffffffffffffffff03821115612558576125576129cf565b5b828201905092915050565b6000808291508390505b60018511156125ad57808604811115612589576125886129cf565b5b60018516156125985780820291505b80810290506125a685612abd565b945061256d565b94509492505050565b60006125c182612874565b91506125cc83612874565b92506125f97fffffffffffffffffffffffffffffffffffffffffffffffffffffffffffffffff8484612601565b905092915050565b60008261261157600190506126cd565b8161261f57600090506126cd565b8160018114612635576002811461263f5761266e565b60019150506126cd565b60ff841115612651576126506129cf565b5b8360020a915084821115612668576126676129cf565b5b506126cd565b5060208310610133831016604e8410600b84101617156126a35782820a90508381111561269e5761269d6129cf565b5b6126cd565b6126b08484846001612563565b925090508184048111156126c7576126c66129cf565b5b81810290505b9392505050565b60006126df82612874565b91506126ea83612874565b9250817fffffffffffffffffffffffffffffffffffffffffffffffffffffffffffffffff0483118215151615612723576127226129cf565b5b828202905092915050565b60006127398261284a565b91506127448361284a565b9250827f80000000000000000000000000000000000000000000000000000000000000000182126000841215161561277f5761277e6129cf565b5b827f7fffffffffffffffffffffffffffffffffffffffffffffffffffffffffffffff0182136000841216156127b7576127b66129cf565b5b828203905092915050565b60006127cd82612874565b91506127d883612874565b9250828210156127eb576127ea6129cf565b5b828203905092915050565b600061280182612854565b9050919050565b60008115159050919050565b6000819050919050565b60007fffffffff0000000000000000000000000000000000000000000000000000000082169050919050565b6000819050919050565b600073ffffffffffffffffffffffffffffffffffffffff82169050919050565b6000819050919050565b600061288982612890565b9050919050565b600061289b826128a2565b9050919050565b60006128ad82612854565b9050919050565b82818337600083830152505050565b60005b838110156128e15780820151818401526020810190506128c6565b838111156128f0576000848401525b50505050565b6128ff82612a9f565b810181811067ffffffffffffffff8211171561291e5761291d612a5c565b5b80604052505050565b600061293282612874565b91507fffffffffffffffffffffffffffffffffffffffffffffffffffffffffffffffff821415612965576129646129cf565b5b600182019050919050565b600061297b82612982565b9050919050565b600061298d82612ab0565b9050919050565b6000819050919050565b60006129a982612874565b91506129b483612874565b9250826129c4576129c36129fe565b5b828206905092915050565b7f4e487b7100000000000000000000000000000000000000000000000000000000600052601160045260246000fd5b7f4e487b7100000000000000000000000000000000000000000000000000000000600052601260045260246000fd5b7f4e487b7100000000000000000000000000000000000000000000000000000000600052603260045260246000fd5b7f4e487b7100000000000000000000000000000000000000000000000000000000600052604160045260246000fd5b600080fd5b600080fd5b600080fd5b600080fd5b6000601f19601f8301169050919050565b60008160601b9050919050565b60008160011c9050919050565b7f4d7573742062652070726f706f736564206f776e657200000000000000000000600082015250565b7f756e61626c6520746f207472616e73666572416e6443616c6c20746f206f726160008201527f636c650000000000000000000000000000000000000000000000000000000000602082015250565b7f4f6e6c792063616c6c61626c65206279206f776e657200000000000000000000600082015250565b7f556e61626c6520746f207472616e736665720000000000000000000000000000600082015250565b7f43616e6e6f74207472616e7366657220746f2073656c66000000000000000000600082015250565b7f536f75726365206d75737420626520746865206f7261636c65206f662074686560008201527f2072657175657374000000000000000000000000000000000000000000000000602082015250565b612c15816127f6565b8114612c2057600080fd5b50565b612c2c81612808565b8114612c3757600080fd5b50565b612c4381612814565b8114612c4e57600080fd5b50565b612c5a8161281e565b8114612c6557600080fd5b50565b612c718161284a565b8114612c7c57600080fd5b50565b612c8881612874565b8114612c9357600080fd5b5056fe68747470733a2f2f6d696e2d6170692e63727970746f636f6d706172652e636f6d2f646174612f70726963653f6673796d3d455448267473796d733d55534468747470733a2f2f6d696e2d6170692e63727970746f636f6d706172652e636f6d2f646174612f70726963656d756c746966756c6c3f6673796d733d455448267473796d733d555344a2646970667358221220c13019d1284957da93419ed696d17d2f10c55eff7af94b13ee6f1981abd7a6aa64736f6c63430008070033",
  "linkReferences": {},
  "deployedLinkReferences": {}
}