{
  "_format": "hh-sol-artifact-1",
  "contractName": "External_Adapter_Request_Examples",
  "sourceName": "contracts/External_Adapter_Request_Examples.sol",
  "abi": [
    {
      "inputs": [
        {
          "internalType": "address",
          "name": "linkContractAddress",
          "type": "address"
        }
      ],
      "stateMutability": "nonpayable",
      "type": "constructor"
    },
    {
      "anonymous": false,
      "inputs": [
        {
          "indexed": true,
          "internalType": "bytes32",
          "name": "id",
          "type": "bytes32"
        }
      ],
      "name": "ChainlinkCancelled",
      "type": "event"
    },
    {
      "anonymous": false,
      "inputs": [
        {
          "indexed": true,
          "internalType": "bytes32",
          "name": "id",
          "type": "bytes32"
        }
      ],
      "name": "ChainlinkFulfilled",
      "type": "event"
    },
    {
      "anonymous": false,
      "inputs": [
        {
          "indexed": true,
          "internalType": "bytes32",
          "name": "id",
          "type": "bytes32"
        }
      ],
      "name": "ChainlinkRequested",
      "type": "event"
    },
    {
      "anonymous": false,
      "inputs": [
        {
          "indexed": false,
          "internalType": "string",
          "name": "name",
          "type": "string"
        },
        {
          "indexed": false,
          "internalType": "bool",
          "name": "reply",
          "type": "bool"
        }
      ],
      "name": "boolAdapterReply",
      "type": "event"
    },
    {
      "anonymous": false,
      "inputs": [
        {
          "indexed": false,
          "internalType": "string",
          "name": "name",
          "type": "string"
        },
        {
          "indexed": false,
          "internalType": "bytes32",
          "name": "reply",
          "type": "bytes32"
        }
      ],
      "name": "bytes32AdapterReply",
      "type": "event"
    },
    {
      "anonymous": false,
      "inputs": [
        {
          "indexed": false,
          "internalType": "string",
          "name": "name",
          "type": "string"
        },
        {
          "indexed": false,
          "internalType": "int256",
          "name": "reply",
          "type": "int256"
        }
      ],
      "name": "int256AdapterReply",
      "type": "event"
    },
    {
      "anonymous": false,
      "inputs": [
        {
          "indexed": false,
          "internalType": "string",
          "name": "name",
          "type": "string"
        },
        {
          "indexed": false,
          "internalType": "uint256",
          "name": "reply",
          "type": "uint256"
        }
      ],
      "name": "uint256AdapterReply",
      "type": "event"
    },
    {
      "inputs": [
        {
          "internalType": "address",
          "name": "_oracle",
          "type": "address"
        },
        {
          "internalType": "string",
          "name": "_jobId",
          "type": "string"
        },
        {
          "internalType": "uint256",
          "name": "_payment",
          "type": "uint256"
        },
        {
          "internalType": "string",
          "name": "_requestParams",
          "type": "string"
        }
      ],
      "name": "boolAdapterCall",
      "outputs": [
        {
          "internalType": "bytes32",
          "name": "requestId",
          "type": "bytes32"
        }
      ],
      "stateMutability": "nonpayable",
      "type": "function"
    },
    {
      "inputs": [],
      "name": "bool_result",
      "outputs": [
        {
          "internalType": "bool",
          "name": "",
          "type": "bool"
        }
      ],
      "stateMutability": "view",
      "type": "function"
    },
    {
      "inputs": [
        {
          "internalType": "address",
          "name": "_oracle",
          "type": "address"
        },
        {
          "internalType": "string",
          "name": "_jobId",
          "type": "string"
        },
        {
          "internalType": "uint256",
          "name": "_payment",
          "type": "uint256"
        },
        {
          "internalType": "string",
          "name": "_requestParams",
          "type": "string"
        }
      ],
      "name": "bytes32AdapterCall",
      "outputs": [
        {
          "internalType": "bytes32",
          "name": "requestId",
          "type": "bytes32"
        }
      ],
      "stateMutability": "nonpayable",
      "type": "function"
    },
    {
      "inputs": [],
      "name": "bytes32_result",
      "outputs": [
        {
          "internalType": "bytes32",
          "name": "",
          "type": "bytes32"
        }
      ],
      "stateMutability": "view",
      "type": "function"
    },
    {
      "inputs": [
        {
          "internalType": "bytes32",
          "name": "_requestId",
          "type": "bytes32"
        },
        {
          "internalType": "bool",
          "name": "_reply",
          "type": "bool"
        }
      ],
      "name": "fulfillBool",
      "outputs": [],
      "stateMutability": "nonpayable",
      "type": "function"
    },
    {
      "inputs": [
        {
          "internalType": "bytes32",
          "name": "_requestId",
          "type": "bytes32"
        },
        {
          "internalType": "bytes32",
          "name": "_reply",
          "type": "bytes32"
        }
      ],
      "name": "fulfillBytes32",
      "outputs": [],
      "stateMutability": "nonpayable",
      "type": "function"
    },
    {
      "inputs": [
        {
          "internalType": "bytes32",
          "name": "_requestId",
          "type": "bytes32"
        },
        {
          "internalType": "int256",
          "name": "_reply",
          "type": "int256"
        }
      ],
      "name": "fulfillInt256",
      "outputs": [],
      "stateMutability": "nonpayable",
      "type": "function"
    },
    {
      "inputs": [
        {
          "internalType": "bytes32",
          "name": "_requestId",
          "type": "bytes32"
        },
        {
          "internalType": "uint256",
          "name": "_reply",
          "type": "uint256"
        }
      ],
      "name": "fulfillUint256",
      "outputs": [],
      "stateMutability": "nonpayable",
      "type": "function"
    },
    {
      "inputs": [
        {
          "internalType": "address",
          "name": "_oracle",
          "type": "address"
        },
        {
          "internalType": "string",
          "name": "_jobId",
          "type": "string"
        },
        {
          "internalType": "uint256",
          "name": "_payment",
          "type": "uint256"
        },
        {
          "internalType": "string",
          "name": "_requestParams",
          "type": "string"
        }
      ],
      "name": "int256AdapterCall",
      "outputs": [
        {
          "internalType": "bytes32",
          "name": "requestId",
          "type": "bytes32"
        }
      ],
      "stateMutability": "nonpayable",
      "type": "function"
    },
    {
      "inputs": [],
      "name": "int256_result",
      "outputs": [
        {
          "internalType": "int256",
          "name": "",
          "type": "int256"
        }
      ],
      "stateMutability": "view",
      "type": "function"
    },
    {
      "inputs": [
        {
          "internalType": "address",
          "name": "_oracle",
          "type": "address"
        },
        {
          "internalType": "string",
          "name": "_jobId",
          "type": "string"
        },
        {
          "internalType": "uint256",
          "name": "_payment",
          "type": "uint256"
        },
        {
          "internalType": "string",
          "name": "_requestParams",
          "type": "string"
        }
      ],
      "name": "uint256AdapterCall",
      "outputs": [
        {
          "internalType": "bytes32",
          "name": "requestId",
          "type": "bytes32"
        }
      ],
      "stateMutability": "nonpayable",
      "type": "function"
    },
    {
      "inputs": [],
      "name": "uint256_result",
      "outputs": [
        {
          "internalType": "uint256",
          "name": "",
          "type": "uint256"
        }
      ],
      "stateMutability": "view",
      "type": "function"
    }
  ],
  "bytecode": "0x608060405260016004553480156200001657600080fd5b506040516200230f3803806200230f83398181016040528101906200003c9190620000af565b6200004d816200005460201b60201c565b5062000134565b80600260006101000a81548173ffffffffffffffffffffffffffffffffffffffff021916908373ffffffffffffffffffffffffffffffffffffffff16021790555050565b600081519050620000a9816200011a565b92915050565b600060208284031215620000c857620000c762000115565b5b6000620000d88482850162000098565b91505092915050565b6000620000ee82620000f5565b9050919050565b600073ffffffffffffffffffffffffffffffffffffffff82169050919050565b600080fd5b6200012581620000e1565b81146200013157600080fd5b50565b6121cb80620001446000396000f3fe608060405234801561001057600080fd5b50600436106100b45760003560e01c80636a2e3ab7116100715780636a2e3ab7146101795780636e50e83a146101a95780637c1f72a0146101c7578063d668e1ba146101e3578063f9655fde14610201578063fab325f514610231576100b4565b80630941dfb3146100b9578063127f0d2a146100d557806326ff7cda146101055780632ba842881461012357806332146504146101415780635eb6f0001461015d575b600080fd5b6100d360048036038101906100ce919061167a565b610261565b005b6100ef60048036038101906100ea9190611566565b6103a9565b6040516100fc91906119d7565b60405180910390f35b61010d6104b9565b60405161011a9190611b05565b60405180910390f35b61012b6104bf565b60405161013891906119d7565b60405180910390f35b61015b6004803603810190610156919061163a565b6104c5565b005b610177600480360381019061017291906116ba565b610620565b005b610193600480360381019061018e9190611566565b610768565b6040516101a091906119d7565b60405180910390f35b6101b1610878565b6040516101be91906119f2565b60405180910390f35b6101e160048036038101906101dc91906116fa565b61087e565b005b6101eb6109c6565b6040516101f891906119bc565b60405180910390f35b61021b60048036038101906102169190611566565b6109d9565b60405161022891906119d7565b60405180910390f35b61024b60048036038101906102469190611566565b610ae9565b60405161025891906119d7565b60405180910390f35b816005600082815260200190815260200160002060009054906101000a900473ffffffffffffffffffffffffffffffffffffffff1673ffffffffffffffffffffffffffffffffffffffff163373ffffffffffffffffffffffffffffffffffffffff1614610303576040517f08c379a00000000000000000000000000000000000000000000000000000000081526004016102fa90611ae5565b60405180910390fd5b6005600082815260200190815260200160002060006101000a81549073ffffffffffffffffffffffffffffffffffffffff0219169055807f7cc135e0cebb02c3480ae5d74d377283180a2601f8f644edf7987b009316c63a60405160405180910390a2816009819055507fdbb7bea395204da325e836f2375f392081152b224349387309f865df9c19ce2c8260405161039c9190611a0d565b60405180910390a1505050565b60006103b361140b565b61041161040388888080601f016020809104026020016040519081016040528093929190818152602001838380828437600081840152601f19601f82011690508083019250505050505050610bf9565b30635eb6f00060e01b610c23565b90506104a16040518060400160405280600181526020017f700000000000000000000000000000000000000000000000000000000000000081525085858080601f016020809104026020016040519081016040528093929190818152602001838380828437600081840152601f19601f8201169050808301925050505050505083610c549092919063ffffffff16565b6104ac888287610c87565b9150509695505050505050565b60075481565b60095481565b816005600082815260200190815260200160002060009054906101000a900473ffffffffffffffffffffffffffffffffffffffff1673ffffffffffffffffffffffffffffffffffffffff163373ffffffffffffffffffffffffffffffffffffffff1614610567576040517f08c379a000000000000000000000000000000000000000000000000000000000815260040161055e90611ae5565b60405180910390fd5b6005600082815260200190815260200160002060006101000a81549073ffffffffffffffffffffffffffffffffffffffff0219169055807f7cc135e0cebb02c3480ae5d74d377283180a2601f8f644edf7987b009316c63a60405160405180910390a281600860006101000a81548160ff0219169083151502179055507f622c782522db5098e0f79fccd5c2b5b18a9717cdb1eb12934e4b1beb3b255377826040516106139190611ab7565b60405180910390a1505050565b816005600082815260200190815260200160002060009054906101000a900473ffffffffffffffffffffffffffffffffffffffff1673ffffffffffffffffffffffffffffffffffffffff163373ffffffffffffffffffffffffffffffffffffffff16146106c2576040517f08c379a00000000000000000000000000000000000000000000000000000000081526004016106b990611ae5565b60405180910390fd5b6005600082815260200190815260200160002060006101000a81549073ffffffffffffffffffffffffffffffffffffffff0219169055807f7cc135e0cebb02c3480ae5d74d377283180a2601f8f644edf7987b009316c63a60405160405180910390a2816006819055507f8c2992c05dc87c07311894d1f943111cba4f45bbe1fd66dce65cc5db2c8343598260405161075b9190611a89565b60405180910390a1505050565b600061077261140b565b6107d06107c288888080601f016020809104026020016040519081016040528093929190818152602001838380828437600081840152601f19601f82011690508083019250505050505050610bf9565b30633214650460e01b610c23565b90506108606040518060400160405280600181526020017f700000000000000000000000000000000000000000000000000000000000000081525085858080601f016020809104026020016040519081016040528093929190818152602001838380828437600081840152601f19601f8201169050808301925050505050505083610c549092919063ffffffff16565b61086b888287610c87565b9150509695505050505050565b60065481565b816005600082815260200190815260200160002060009054906101000a900473ffffffffffffffffffffffffffffffffffffffff1673ffffffffffffffffffffffffffffffffffffffff163373ffffffffffffffffffffffffffffffffffffffff1614610920576040517f08c379a000000000000000000000000000000000000000000000000000000000815260040161091790611ae5565b60405180910390fd5b6005600082815260200190815260200160002060006101000a81549073ffffffffffffffffffffffffffffffffffffffff0219169055807f7cc135e0cebb02c3480ae5d74d377283180a2601f8f644edf7987b009316c63a60405160405180910390a2816007819055507f55cbd3f8c60adc9f7984732c240ea015acf17284b6d83d670ba4ee42b44783ee826040516109b99190611a5b565b60405180910390a1505050565b600860009054906101000a900460ff1681565b60006109e361140b565b610a41610a3388888080601f016020809104026020016040519081016040528093929190818152602001838380828437600081840152601f19601f82011690508083019250505050505050610bf9565b30637c1f72a060e01b610c23565b9050610ad16040518060400160405280600181526020017f700000000000000000000000000000000000000000000000000000000000000081525085858080601f016020809104026020016040519081016040528093929190818152602001838380828437600081840152601f19601f8201169050808301925050505050505083610c549092919063ffffffff16565b610adc888287610c87565b9150509695505050505050565b6000610af361140b565b610b51610b4388888080601f016020809104026020016040519081016040528093929190818152602001838380828437600081840152601f19601f82011690508083019250505050505050610bf9565b30630941dfb360e01b610c23565b9050610be16040518060400160405280600181526020017f700000000000000000000000000000000000000000000000000000000000000081525085858080601f016020809104026020016040519081016040528093929190818152602001838380828437600081840152601f19601f8201169050808301925050505050505083610c549092919063ffffffff16565b610bec888287610c87565b9150509695505050505050565b600080829050600081511415610c15576000801b915050610c1e565b60208301519150505b919050565b610c2b61140b565b610c3361140b565b610c4a85858584610ca7909392919063ffffffff16565b9150509392505050565b610c6b828460800151610d5790919063ffffffff16565b610c82818460800151610d5790919063ffffffff16565b505050565b6000610c9e8484846001634042994660e01b610d7c565b90509392505050565b610caf61140b565b610cbf8560800151610100610fe4565b508385600001818152505082856020019073ffffffffffffffffffffffffffffffffffffffff16908173ffffffffffffffffffffffffffffffffffffffff16815250508185604001907bffffffffffffffffffffffffffffffffffffffffffffffffffffffff191690817bffffffffffffffffffffffffffffffffffffffffffffffffffffffff191681525050849050949350505050565b610d64826003835161104e565b610d77818361119390919063ffffffff16565b505050565b600030600454604051602001610d939291906118cd565b604051602081830303815290604052805190602001209050600454856060018181525050856005600083815260200190815260200160002060006101000a81548173ffffffffffffffffffffffffffffffffffffffff021916908373ffffffffffffffffffffffffffffffffffffffff160217905550807fb5e6e01e79f91267dc17b4e6314d5d4d03593d2ceee0fbb452b750bd70ea5af960405160405180910390a2600082600080886000015189602001518a604001518b606001518a8d6080015160000151604051602401610e719897969594939291906118f9565b604051602081830303815290604052907bffffffffffffffffffffffffffffffffffffffffffffffffffffffff19166020820180517bffffffffffffffffffffffffffffffffffffffffffffffffffffffff83818316178352505050509050600260009054906101000a900473ffffffffffffffffffffffffffffffffffffffff1673ffffffffffffffffffffffffffffffffffffffff16634000aea08887846040518463ffffffff1660e01b8152600401610f2f9392919061197e565b602060405180830381600087803b158015610f4957600080fd5b505af1158015610f5d573d6000803e3d6000fd5b505050506040513d601f19601f82011682018060405250810190610f81919061160d565b610fc0576040517f08c379a0000000000000000000000000000000000000000000000000000000008152600401610fb790611a3b565b60405180910390fd5b600160046000828254610fd39190611b4d565b925050819055505095945050505050565b610fec611478565b6000602083610ffb9190611ec1565b146110275760208261100d9190611ec1565b60206110199190611d6e565b826110249190611b4d565b91505b81836020018181525050604051808452600081528281016020016040525082905092915050565b6017811161107b576110758160058460ff16901b60ff1617846111b590919063ffffffff16565b5061118e565b60ff81116110bd576110a0601860058460ff16901b17846111b590919063ffffffff16565b506110b7816001856111d59092919063ffffffff16565b5061118d565b61ffff8111611100576110e3601960058460ff16901b17846111b590919063ffffffff16565b506110fa816002856111d59092919063ffffffff16565b5061118c565b63ffffffff811161114557611128601a60058460ff16901b17846111b590919063ffffffff16565b5061113f816004856111d59092919063ffffffff16565b5061118b565b67ffffffffffffffff811161118a57611171601b60058460ff16901b17846111b590919063ffffffff16565b50611188816008856111d59092919063ffffffff16565b505b5b5b5b5b505050565b61119b611478565b6111ad838460000151518485516111f7565b905092915050565b6111bd611478565b6111cd83846000015151846112e6565b905092915050565b6111dd611478565b6111ee84856000015151858561133d565b90509392505050565b6111ff611478565b825182111561120d57600080fd5b8460200151828561121e9190611b4d565b1115611253576112528560026112438860200151888761123e9190611b4d565b6113cb565b61124d9190611d14565b6113e7565b5b6000808651805187602083010193508088870111156112725787860182525b60208701925050505b602084106112b957805182526020826112949190611b4d565b91506020816112a39190611b4d565b90506020846112b29190611d6e565b935061127b565b60006001856020036101000a03905080198251168184511681811785525050508692505050949350505050565b6112ee611478565b8360200151831061131457611313846002866020015161130e9190611d14565b6113e7565b5b8351805160208583010184815381861415611330576001820183525b5050508390509392505050565b611345611478565b846020015184836113569190611b4d565b111561137e5761137d856002868561136e9190611b4d565b6113789190611d14565b6113e7565b5b60006001836101006113909190611bf6565b61139a9190611d6e565b905085518386820101858319825116178152815185880111156113bd5784870182525b505085915050949350505050565b6000818311156113dd578290506113e1565b8190505b92915050565b6000826000015190506113fa8383610fe4565b506114058382611193565b50505050565b6040518060a0016040528060008019168152602001600073ffffffffffffffffffffffffffffffffffffffff16815260200160007bffffffffffffffffffffffffffffffffffffffffffffffffffffffff1916815260200160008152602001611472611478565b81525090565b604051806040016040528060608152602001600081525090565b6000813590506114a181612122565b92915050565b6000813590506114b681612139565b92915050565b6000815190506114cb81612139565b92915050565b6000813590506114e081612150565b92915050565b6000813590506114f581612167565b92915050565b60008083601f84011261151157611510611f55565b5b8235905067ffffffffffffffff81111561152e5761152d611f50565b5b60208301915083600182028301111561154a57611549611f5a565b5b9250929050565b6000813590506115608161217e565b92915050565b6000806000806000806080878903121561158357611582611f64565b5b600061159189828a01611492565b965050602087013567ffffffffffffffff8111156115b2576115b1611f5f565b5b6115be89828a016114fb565b955095505060406115d189828a01611551565b935050606087013567ffffffffffffffff8111156115f2576115f1611f5f565b5b6115fe89828a016114fb565b92509250509295509295509295565b60006020828403121561162357611622611f64565b5b6000611631848285016114bc565b91505092915050565b6000806040838503121561165157611650611f64565b5b600061165f858286016114d1565b9250506020611670858286016114a7565b9150509250929050565b6000806040838503121561169157611690611f64565b5b600061169f858286016114d1565b92505060206116b0858286016114d1565b9150509250929050565b600080604083850312156116d1576116d0611f64565b5b60006116df858286016114d1565b92505060206116f0858286016114e6565b9150509250929050565b6000806040838503121561171157611710611f64565b5b600061171f858286016114d1565b925050602061173085828601611551565b9150509250929050565b61174381611da2565b82525050565b61175281611db4565b82525050565b61176181611dc0565b82525050565b61177081611dca565b82525050565b600061178182611b20565b61178b8185611b2b565b935061179b818560208601611e60565b6117a481611f69565b840191505092915050565b6117c06117bb82611e2a565b611e93565b82525050565b6117cf81611df6565b82525050565b60006117e2601f83611b3c565b91506117ed82611f94565b602082019050919050565b6000611805602383611b3c565b915061181082611fbd565b604082019050919050565b6000611828602183611b3c565b91506118338261200c565b604082019050919050565b600061184b602183611b3c565b91506118568261205b565b604082019050919050565b600061186e601e83611b3c565b9150611879826120aa565b602082019050919050565b6000611891602883611b3c565b915061189c826120d3565b604082019050919050565b6118b081611e20565b82525050565b6118c76118c282611e20565b611eb7565b82525050565b60006118d982856117af565b6014820191506118e982846118b6565b6020820191508190509392505050565b60006101008201905061190f600083018b61173a565b61191c602083018a6118a7565b6119296040830189611758565b611936606083018861173a565b6119436080830187611767565b61195060a08301866118a7565b61195d60c08301856118a7565b81810360e083015261196f8184611776565b90509998505050505050505050565b6000606082019050611993600083018661173a565b6119a060208301856118a7565b81810360408301526119b28184611776565b9050949350505050565b60006020820190506119d16000830184611749565b92915050565b60006020820190506119ec6000830184611758565b92915050565b6000602082019050611a0760008301846117c6565b92915050565b60006040820190508181036000830152611a26816117d5565b9050611a356020830184611758565b92915050565b60006020820190508181036000830152611a54816117f8565b9050919050565b60006040820190508181036000830152611a748161181b565b9050611a8360208301846118a7565b92915050565b60006040820190508181036000830152611aa28161183e565b9050611ab160208301846117c6565b92915050565b60006040820190508181036000830152611ad081611861565b9050611adf6020830184611749565b92915050565b60006020820190508181036000830152611afe81611884565b9050919050565b6000602082019050611b1a60008301846118a7565b92915050565b600081519050919050565b600082825260208201905092915050565b600082825260208201905092915050565b6000611b5882611e20565b9150611b6383611e20565b9250827fffffffffffffffffffffffffffffffffffffffffffffffffffffffffffffffff03821115611b9857611b97611ef2565b5b828201905092915050565b6000808291508390505b6001851115611bed57808604811115611bc957611bc8611ef2565b5b6001851615611bd85780820291505b8081029050611be685611f87565b9450611bad565b94509492505050565b6000611c0182611e20565b9150611c0c83611e20565b9250611c397fffffffffffffffffffffffffffffffffffffffffffffffffffffffffffffffff8484611c41565b905092915050565b600082611c515760019050611d0d565b81611c5f5760009050611d0d565b8160018114611c755760028114611c7f57611cae565b6001915050611d0d565b60ff841115611c9157611c90611ef2565b5b8360020a915084821115611ca857611ca7611ef2565b5b50611d0d565b5060208310610133831016604e8410600b8410161715611ce35782820a905083811115611cde57611cdd611ef2565b5b611d0d565b611cf08484846001611ba3565b92509050818404811115611d0757611d06611ef2565b5b81810290505b9392505050565b6000611d1f82611e20565b9150611d2a83611e20565b9250817fffffffffffffffffffffffffffffffffffffffffffffffffffffffffffffffff0483118215151615611d6357611d62611ef2565b5b828202905092915050565b6000611d7982611e20565b9150611d8483611e20565b925082821015611d9757611d96611ef2565b5b828203905092915050565b6000611dad82611e00565b9050919050565b60008115159050919050565b6000819050919050565b60007fffffffff0000000000000000000000000000000000000000000000000000000082169050919050565b6000819050919050565b600073ffffffffffffffffffffffffffffffffffffffff82169050919050565b6000819050919050565b6000611e3582611e3c565b9050919050565b6000611e4782611e4e565b9050919050565b6000611e5982611e00565b9050919050565b60005b83811015611e7e578082015181840152602081019050611e63565b83811115611e8d576000848401525b50505050565b6000611e9e82611ea5565b9050919050565b6000611eb082611f7a565b9050919050565b6000819050919050565b6000611ecc82611e20565b9150611ed783611e20565b925082611ee757611ee6611f21565b5b828206905092915050565b7f4e487b7100000000000000000000000000000000000000000000000000000000600052601160045260246000fd5b7f4e487b7100000000000000000000000000000000000000000000000000000000600052601260045260246000fd5b600080fd5b600080fd5b600080fd5b600080fd5b600080fd5b6000601f19601f8301169050919050565b60008160601b9050919050565b60008160011c9050919050565b7f436861696e6c696e6b206e6f64652072657475726e6564206279746573333200600082015250565b7f756e61626c6520746f207472616e73666572416e6443616c6c20746f206f726160008201527f636c650000000000000000000000000000000000000000000000000000000000602082015250565b7f436861696e6c696e6b206e6f64652072657475726e656420612075696e74323560008201527f3600000000000000000000000000000000000000000000000000000000000000602082015250565b7f436861696e6c696e6b206e6f64652072657475726e656420616e20696e74323560008201527f3600000000000000000000000000000000000000000000000000000000000000602082015250565b7f436861696e6c696e6b206e6f64652072657475726e6564206120626f6f6c0000600082015250565b7f536f75726365206d75737420626520746865206f7261636c65206f662074686560008201527f2072657175657374000000000000000000000000000000000000000000000000602082015250565b61212b81611da2565b811461213657600080fd5b50565b61214281611db4565b811461214d57600080fd5b50565b61215981611dc0565b811461216457600080fd5b50565b61217081611df6565b811461217b57600080fd5b50565b61218781611e20565b811461219257600080fd5b5056fea2646970667358221220fa9610ec63a5af752fb11e435686a25d68abcd8040891a3c5705a1acae38b73164736f6c63430008070033",
  "linkReferences": {},
  "deployedLinkReferences": {}
}