{
  "_format": "hh-sol-artifact-1",
  "contractName": "GeneratedCodeTest",
  "sourceName": "contracts/GeneratedCodeTest.sol",
  "abi": [
    {
      "inputs": [],
      "stateMutability": "nonpayable",
      "type": "constructor"
    },
    {
      "anonymous": false,
      "inputs": [
        {
          "indexed": true,
          "internalType": "bytes32",
          "name": "id",
          "type": "bytes32"
        }
      ],
      "name": "ChainlinkCancelled",
      "type": "event"
    },
    {
      "anonymous": false,
      "inputs": [
        {
          "indexed": true,
          "internalType": "bytes32",
          "name": "id",
          "type": "bytes32"
        }
      ],
      "name": "ChainlinkFulfilled",
      "type": "event"
    },
    {
      "anonymous": false,
      "inputs": [
        {
          "indexed": true,
          "internalType": "bytes32",
          "name": "id",
          "type": "bytes32"
        }
      ],
      "name": "ChainlinkRequested",
      "type": "event"
    },
    {
      "anonymous": false,
      "inputs": [
        {
          "indexed": false,
          "internalType": "bytes32",
          "name": "reply",
          "type": "bytes32"
        }
      ],
      "name": "adapterReply",
      "type": "event"
    },
    {
      "inputs": [
        {
          "internalType": "bytes32",
          "name": "_requestId",
          "type": "bytes32"
        },
        {
          "internalType": "bytes32",
          "name": "_reply",
          "type": "bytes32"
        }
      ],
      "name": "fulfill",
      "outputs": [],
      "stateMutability": "nonpayable",
      "type": "function"
    },
    {
      "inputs": [],
      "name": "request",
      "outputs": [
        {
          "internalType": "bytes32",
          "name": "requestId",
          "type": "bytes32"
        }
      ],
      "stateMutability": "nonpayable",
      "type": "function"
    },
    {
      "inputs": [],
      "name": "result",
      "outputs": [
        {
          "internalType": "bytes32",
          "name": "",
          "type": "bytes32"
        }
      ],
      "stateMutability": "view",
      "type": "function"
    }
  ],
  "bytecode": "0x6080604052600160045534801561001557600080fd5b5061003973326c977e6efc84e512bb9c30f76e30c160ed06fb61003e60201b60201c565b610082565b80600260006101000a81548173ffffffffffffffffffffffffffffffffffffffff021916908373ffffffffffffffffffffffffffffffffffffffff16021790555050565b611407806100916000396000f3fe608060405234801561001057600080fd5b50600436106100415760003560e01c8063042f2b6514610046578063338cdca1146100625780636537214714610080575b600080fd5b610060600480360381019061005b9190610b79565b61009e565b005b61006a6101e6565b6040516100779190610d91565b60405180910390f35b6100886102ad565b6040516100959190610d91565b60405180910390f35b816005600082815260200190815260200160002060009054906101000a900473ffffffffffffffffffffffffffffffffffffffff1673ffffffffffffffffffffffffffffffffffffffff163373ffffffffffffffffffffffffffffffffffffffff1614610140576040517f08c379a000000000000000000000000000000000000000000000000000000000815260040161013790610dcc565b60405180910390fd5b6005600082815260200190815260200160002060006101000a81549073ffffffffffffffffffffffffffffffffffffffff0219169055807f7cc135e0cebb02c3480ae5d74d377283180a2601f8f644edf7987b009316c63a60405160405180910390a2816006819055507f2b10fbaac8c516aade15debefa149bccd9e8c6748952d9e0c7ac04051b450e0e826040516101d99190610d91565b60405180910390a1505050565b60008061021b7f31333032616565346538363034623336383330633830316536313364383038323063042f2b6560e01b6102b3565b90506102806040518060400160405280600181526020017f700000000000000000000000000000000000000000000000000000000000000081525060405180610100016040528060c3815260200161130f60c39139836102e49092919063ffffffff16565b6102a773a8e22a742d39b13d54df6a912fcc7b8e71dfafe082670de0b6b3a7640000610317565b91505090565b60065481565b6102bb610a9b565b6102c3610a9b565b6102da85858584610337909392919063ffffffff16565b9150509392505050565b6102fb8284608001516103e790919063ffffffff16565b6103128184608001516103e790919063ffffffff16565b505050565b600061032e8484846001634042994660e01b61040c565b90509392505050565b61033f610a9b565b61034f8560800151610100610674565b508385600001818152505082856020019073ffffffffffffffffffffffffffffffffffffffff16908173ffffffffffffffffffffffffffffffffffffffff16815250508185604001907bffffffffffffffffffffffffffffffffffffffffffffffffffffffff191690817bffffffffffffffffffffffffffffffffffffffffffffffffffffffff191681525050849050949350505050565b6103f482600383516106de565b610407818361082390919063ffffffff16565b505050565b600030600454604051602001610423929190610ca2565b604051602081830303815290604052805190602001209050600454856060018181525050856005600083815260200190815260200160002060006101000a81548173ffffffffffffffffffffffffffffffffffffffff021916908373ffffffffffffffffffffffffffffffffffffffff160217905550807fb5e6e01e79f91267dc17b4e6314d5d4d03593d2ceee0fbb452b750bd70ea5af960405160405180910390a2600082600080886000015189602001518a604001518b606001518a8d6080015160000151604051602401610501989796959493929190610cce565b604051602081830303815290604052907bffffffffffffffffffffffffffffffffffffffffffffffffffffffff19166020820180517bffffffffffffffffffffffffffffffffffffffffffffffffffffffff83818316178352505050509050600260009054906101000a900473ffffffffffffffffffffffffffffffffffffffff1673ffffffffffffffffffffffffffffffffffffffff16634000aea08887846040518463ffffffff1660e01b81526004016105bf93929190610d53565b602060405180830381600087803b1580156105d957600080fd5b505af11580156105ed573d6000803e3d6000fd5b505050506040513d601f19601f820116820180604052508101906106119190610b4c565b610650576040517f08c379a000000000000000000000000000000000000000000000000000000000815260040161064790610dac565b60405180910390fd5b6001600460008282546106639190610e19565b925050819055505095945050505050565b61067c610b08565b600060208361068b9190611183565b146106b75760208261069d9190611183565b60206106a9919061103a565b826106b49190610e19565b91505b81836020018181525050604051808452600081528281016020016040525082905092915050565b6017811161070b576107058160058460ff16901b60ff16178461084590919063ffffffff16565b5061081e565b60ff811161074d57610730601860058460ff16901b178461084590919063ffffffff16565b50610747816001856108659092919063ffffffff16565b5061081d565b61ffff811161079057610773601960058460ff16901b178461084590919063ffffffff16565b5061078a816002856108659092919063ffffffff16565b5061081c565b63ffffffff81116107d5576107b8601a60058460ff16901b178461084590919063ffffffff16565b506107cf816004856108659092919063ffffffff16565b5061081b565b67ffffffffffffffff811161081a57610801601b60058460ff16901b178461084590919063ffffffff16565b50610818816008856108659092919063ffffffff16565b505b5b5b5b5b505050565b61082b610b08565b61083d83846000015151848551610887565b905092915050565b61084d610b08565b61085d8384600001515184610976565b905092915050565b61086d610b08565b61087e8485600001515185856109cd565b90509392505050565b61088f610b08565b825182111561089d57600080fd5b846020015182856108ae9190610e19565b11156108e3576108e28560026108d3886020015188876108ce9190610e19565b610a5b565b6108dd9190610fe0565b610a77565b5b6000808651805187602083010193508088870111156109025787860182525b60208701925050505b6020841061094957805182526020826109249190610e19565b91506020816109339190610e19565b9050602084610942919061103a565b935061090b565b60006001856020036101000a03905080198251168184511681811785525050508692505050949350505050565b61097e610b08565b836020015183106109a4576109a3846002866020015161099e9190610fe0565b610a77565b5b83518051602085830101848153818614156109c0576001820183525b5050508390509392505050565b6109d5610b08565b846020015184836109e69190610e19565b1115610a0e57610a0d85600286856109fe9190610e19565b610a089190610fe0565b610a77565b5b6000600183610100610a209190610ec2565b610a2a919061103a565b90508551838682010185831982511617815281518588011115610a4d5784870182525b505085915050949350505050565b600081831115610a6d57829050610a71565b8190505b92915050565b600082600001519050610a8a8383610674565b50610a958382610823565b50505050565b6040518060a0016040528060008019168152602001600073ffffffffffffffffffffffffffffffffffffffff16815260200160007bffffffffffffffffffffffffffffffffffffffffffffffffffffffff1916815260200160008152602001610b02610b08565b81525090565b604051806040016040528060608152602001600081525090565b600081519050610b31816112e0565b92915050565b600081359050610b46816112f7565b92915050565b600060208284031215610b6257610b61611212565b5b6000610b7084828501610b22565b91505092915050565b60008060408385031215610b9057610b8f611212565b5b6000610b9e85828601610b37565b9250506020610baf85828601610b37565b9150509250929050565b610bc28161106e565b82525050565b610bd18161108c565b82525050565b610be081611096565b82525050565b6000610bf182610dec565b610bfb8185610df7565b9350610c0b818560208601611122565b610c1481611217565b840191505092915050565b610c30610c2b826110ec565b611155565b82525050565b6000610c43602383610e08565b9150610c4e82611242565b604082019050919050565b6000610c66602883610e08565b9150610c7182611291565b604082019050919050565b610c85816110e2565b82525050565b610c9c610c97826110e2565b611179565b82525050565b6000610cae8285610c1f565b601482019150610cbe8284610c8b565b6020820191508190509392505050565b600061010082019050610ce4600083018b610bb9565b610cf1602083018a610c7c565b610cfe6040830189610bc8565b610d0b6060830188610bb9565b610d186080830187610bd7565b610d2560a0830186610c7c565b610d3260c0830185610c7c565b81810360e0830152610d448184610be6565b90509998505050505050505050565b6000606082019050610d686000830186610bb9565b610d756020830185610c7c565b8181036040830152610d878184610be6565b9050949350505050565b6000602082019050610da66000830184610bc8565b92915050565b60006020820190508181036000830152610dc581610c36565b9050919050565b60006020820190508181036000830152610de581610c59565b9050919050565b600081519050919050565b600082825260208201905092915050565b600082825260208201905092915050565b6000610e24826110e2565b9150610e2f836110e2565b9250827fffffffffffffffffffffffffffffffffffffffffffffffffffffffffffffffff03821115610e6457610e636111b4565b5b828201905092915050565b6000808291508390505b6001851115610eb957808604811115610e9557610e946111b4565b5b6001851615610ea45780820291505b8081029050610eb285611235565b9450610e79565b94509492505050565b6000610ecd826110e2565b9150610ed8836110e2565b9250610f057fffffffffffffffffffffffffffffffffffffffffffffffffffffffffffffffff8484610f0d565b905092915050565b600082610f1d5760019050610fd9565b81610f2b5760009050610fd9565b8160018114610f415760028114610f4b57610f7a565b6001915050610fd9565b60ff841115610f5d57610f5c6111b4565b5b8360020a915084821115610f7457610f736111b4565b5b50610fd9565b5060208310610133831016604e8410600b8410161715610faf5782820a905083811115610faa57610fa96111b4565b5b610fd9565b610fbc8484846001610e6f565b92509050818404811115610fd357610fd26111b4565b5b81810290505b9392505050565b6000610feb826110e2565b9150610ff6836110e2565b9250817fffffffffffffffffffffffffffffffffffffffffffffffffffffffffffffffff048311821515161561102f5761102e6111b4565b5b828202905092915050565b6000611045826110e2565b9150611050836110e2565b925082821015611063576110626111b4565b5b828203905092915050565b6000611079826110c2565b9050919050565b60008115159050919050565b6000819050919050565b60007fffffffff0000000000000000000000000000000000000000000000000000000082169050919050565b600073ffffffffffffffffffffffffffffffffffffffff82169050919050565b6000819050919050565b60006110f7826110fe565b9050919050565b600061110982611110565b9050919050565b600061111b826110c2565b9050919050565b60005b83811015611140578082015181840152602081019050611125565b8381111561114f576000848401525b50505050565b600061116082611167565b9050919050565b600061117282611228565b9050919050565b6000819050919050565b600061118e826110e2565b9150611199836110e2565b9250826111a9576111a86111e3565b5b828206905092915050565b7f4e487b7100000000000000000000000000000000000000000000000000000000600052601160045260246000fd5b7f4e487b7100000000000000000000000000000000000000000000000000000000600052601260045260246000fd5b600080fd5b6000601f19601f8301169050919050565b60008160601b9050919050565b60008160011c9050919050565b7f756e61626c6520746f207472616e73666572416e6443616c6c20746f206f726160008201527f636c650000000000000000000000000000000000000000000000000000000000602082015250565b7f536f75726365206d75737420626520746865206f7261636c65206f662074686560008201527f2072657175657374000000000000000000000000000000000000000000000000602082015250565b6112e981611080565b81146112f457600080fd5b50565b6113008161108c565b811461130b57600080fd5b5056fe7b2274223a2262797465733332222c226d223a22676574222c2275223a2268747470733a2f2f6170692e747769747465722e636f6d2f312e312f73746174757365732f757365725f74696d656c696e652e6a736f6e3f73637265656e5f6e616d653d656c6f6e6d75736b26636f756e743d31222c226a223a2272657475726e20726573706f6e73652e646174615b305d2e746578742e7265706c616365285c22405c222c2022415422292e736c69636528302c333129222c2272223a2231323334227da26469706673582212204c574d76c10c483f13e9fffd739234d52a0fc0d346390a67532f25b9a45d7c6d64736f6c63430008070033",
  "linkReferences": {},
  "deployedLinkReferences": {}
}