{
  "_format": "hh-sol-artifact-1",
  "contractName": "GeneratedCodeTest",
  "sourceName": "contracts/GeneratedCodeTest.sol",
  "abi": [
    {
      "inputs": [],
      "stateMutability": "nonpayable",
      "type": "constructor"
    },
    {
      "anonymous": false,
      "inputs": [
        {
          "indexed": true,
          "internalType": "bytes32",
          "name": "id",
          "type": "bytes32"
        }
      ],
      "name": "ChainlinkCancelled",
      "type": "event"
    },
    {
      "anonymous": false,
      "inputs": [
        {
          "indexed": true,
          "internalType": "bytes32",
          "name": "id",
          "type": "bytes32"
        }
      ],
      "name": "ChainlinkFulfilled",
      "type": "event"
    },
    {
      "anonymous": false,
      "inputs": [
        {
          "indexed": true,
          "internalType": "bytes32",
          "name": "id",
          "type": "bytes32"
        }
      ],
      "name": "ChainlinkRequested",
      "type": "event"
    },
    {
      "anonymous": false,
      "inputs": [
        {
          "indexed": false,
          "internalType": "int256",
          "name": "reply",
          "type": "int256"
        }
      ],
      "name": "adapterReply",
      "type": "event"
    },
    {
      "inputs": [
        {
          "internalType": "bytes32",
          "name": "_requestId",
          "type": "bytes32"
        },
        {
          "internalType": "int256",
          "name": "_reply",
          "type": "int256"
        }
      ],
      "name": "fulfill",
      "outputs": [],
      "stateMutability": "nonpayable",
      "type": "function"
    },
    {
      "inputs": [],
      "name": "request",
      "outputs": [
        {
          "internalType": "bytes32",
          "name": "requestId",
          "type": "bytes32"
        }
      ],
      "stateMutability": "nonpayable",
      "type": "function"
    },
    {
      "inputs": [],
      "name": "result",
      "outputs": [
        {
          "internalType": "int256",
          "name": "",
          "type": "int256"
        }
      ],
      "stateMutability": "view",
      "type": "function"
    }
  ],
  "bytecode": "0x60806040526001600455600060065534801561001a57600080fd5b5061003e73326c977e6efc84e512bb9c30f76e30c160ed06fb61004360201b60201c565b610087565b80600260006101000a81548173ffffffffffffffffffffffffffffffffffffffff021916908373ffffffffffffffffffffffffffffffffffffffff16021790555050565b611428806100966000396000f3fe608060405234801561001057600080fd5b50600436106100415760003560e01c8063338cdca1146100465780636537214714610064578063bda71d0414610082575b600080fd5b61004e61009e565b60405161005b9190610db4565b60405180910390f35b61006c610164565b6040516100799190610dcf565b60405180910390f35b61009c60048036038101906100979190610b8d565b61016a565b005b6000806100d37f39643863373833643062393634353935383639376238383066643832333133373063bda71d0460e01b6102b2565b90506101376040518060400160405280600181526020017f70000000000000000000000000000000000000000000000000000000000000008152506040518060c001604052806085815260200161136e60859139836102e39092919063ffffffff16565b61015e73a8e22a742d39b13d54df6a912fcc7b8e71dfafe082670de0b6b3a7640000610316565b91505090565b60065481565b816005600082815260200190815260200160002060009054906101000a900473ffffffffffffffffffffffffffffffffffffffff1673ffffffffffffffffffffffffffffffffffffffff163373ffffffffffffffffffffffffffffffffffffffff161461020c576040517f08c379a000000000000000000000000000000000000000000000000000000000815260040161020390610e0a565b60405180910390fd5b6005600082815260200190815260200160002060006101000a81549073ffffffffffffffffffffffffffffffffffffffff0219169055807f7cc135e0cebb02c3480ae5d74d377283180a2601f8f644edf7987b009316c63a60405160405180910390a2816006819055507faed67a707757c6c1631f42a5cb7718a84ec1d5a06c84252c40015cd3f0754e6d826040516102a59190610dcf565b60405180910390a1505050565b6102ba610a9a565b6102c2610a9a565b6102d985858584610336909392919063ffffffff16565b9150509392505050565b6102fa8284608001516103e690919063ffffffff16565b6103118184608001516103e690919063ffffffff16565b505050565b600061032d8484846001634042994660e01b61040b565b90509392505050565b61033e610a9a565b61034e8560800151610100610673565b508385600001818152505082856020019073ffffffffffffffffffffffffffffffffffffffff16908173ffffffffffffffffffffffffffffffffffffffff16815250508185604001907bffffffffffffffffffffffffffffffffffffffffffffffffffffffff191690817bffffffffffffffffffffffffffffffffffffffffffffffffffffffff191681525050849050949350505050565b6103f382600383516106dd565b610406818361082290919063ffffffff16565b505050565b600030600454604051602001610422929190610cc5565b604051602081830303815290604052805190602001209050600454856060018181525050856005600083815260200190815260200160002060006101000a81548173ffffffffffffffffffffffffffffffffffffffff021916908373ffffffffffffffffffffffffffffffffffffffff160217905550807fb5e6e01e79f91267dc17b4e6314d5d4d03593d2ceee0fbb452b750bd70ea5af960405160405180910390a2600082600080886000015189602001518a604001518b606001518a8d6080015160000151604051602401610500989796959493929190610cf1565b604051602081830303815290604052907bffffffffffffffffffffffffffffffffffffffffffffffffffffffff19166020820180517bffffffffffffffffffffffffffffffffffffffffffffffffffffffff83818316178352505050509050600260009054906101000a900473ffffffffffffffffffffffffffffffffffffffff1673ffffffffffffffffffffffffffffffffffffffff16634000aea08887846040518463ffffffff1660e01b81526004016105be93929190610d76565b602060405180830381600087803b1580156105d857600080fd5b505af11580156105ec573d6000803e3d6000fd5b505050506040513d601f19601f820116820180604052508101906106109190610b60565b61064f576040517f08c379a000000000000000000000000000000000000000000000000000000000815260040161064690610dea565b60405180910390fd5b6001600460008282546106629190610e57565b925050819055505095945050505050565b61067b610b07565b600060208361068a91906111cb565b146106b65760208261069c91906111cb565b60206106a89190611078565b826106b39190610e57565b91505b81836020018181525050604051808452600081528281016020016040525082905092915050565b6017811161070a576107048160058460ff16901b60ff16178461084490919063ffffffff16565b5061081d565b60ff811161074c5761072f601860058460ff16901b178461084490919063ffffffff16565b50610746816001856108649092919063ffffffff16565b5061081c565b61ffff811161078f57610772601960058460ff16901b178461084490919063ffffffff16565b50610789816002856108649092919063ffffffff16565b5061081b565b63ffffffff81116107d4576107b7601a60058460ff16901b178461084490919063ffffffff16565b506107ce816004856108649092919063ffffffff16565b5061081a565b67ffffffffffffffff811161081957610800601b60058460ff16901b178461084490919063ffffffff16565b50610817816008856108649092919063ffffffff16565b505b5b5b5b5b505050565b61082a610b07565b61083c83846000015151848551610886565b905092915050565b61084c610b07565b61085c8384600001515184610975565b905092915050565b61086c610b07565b61087d8485600001515185856109cc565b90509392505050565b61088e610b07565b825182111561089c57600080fd5b846020015182856108ad9190610e57565b11156108e2576108e18560026108d2886020015188876108cd9190610e57565b610a5a565b6108dc919061101e565b610a76565b5b6000808651805187602083010193508088870111156109015787860182525b60208701925050505b6020841061094857805182526020826109239190610e57565b91506020816109329190610e57565b90506020846109419190611078565b935061090a565b60006001856020036101000a03905080198251168184511681811785525050508692505050949350505050565b61097d610b07565b836020015183106109a3576109a2846002866020015161099d919061101e565b610a76565b5b83518051602085830101848153818614156109bf576001820183525b5050508390509392505050565b6109d4610b07565b846020015184836109e59190610e57565b1115610a0d57610a0c85600286856109fd9190610e57565b610a07919061101e565b610a76565b5b6000600183610100610a1f9190610f00565b610a299190611078565b90508551838682010185831982511617815281518588011115610a4c5784870182525b505085915050949350505050565b600081831115610a6c57829050610a70565b8190505b92915050565b600082600001519050610a898383610673565b50610a948382610822565b50505050565b6040518060a0016040528060008019168152602001600073ffffffffffffffffffffffffffffffffffffffff16815260200160007bffffffffffffffffffffffffffffffffffffffffffffffffffffffff1916815260200160008152602001610b01610b07565b81525090565b604051806040016040528060608152602001600081525090565b600081519050610b3081611328565b92915050565b600081359050610b458161133f565b92915050565b600081359050610b5a81611356565b92915050565b600060208284031215610b7657610b7561125a565b5b6000610b8484828501610b21565b91505092915050565b60008060408385031215610ba457610ba361125a565b5b6000610bb285828601610b36565b9250506020610bc385828601610b4b565b9150509250929050565b610bd6816110ac565b82525050565b610be5816110ca565b82525050565b610bf4816110d4565b82525050565b6000610c0582610e2a565b610c0f8185610e35565b9350610c1f81856020860161116a565b610c288161125f565b840191505092915050565b610c44610c3f82611134565b61119d565b82525050565b610c5381611100565b82525050565b6000610c66602383610e46565b9150610c718261128a565b604082019050919050565b6000610c89602883610e46565b9150610c94826112d9565b604082019050919050565b610ca88161112a565b82525050565b610cbf610cba8261112a565b6111c1565b82525050565b6000610cd18285610c33565b601482019150610ce18284610cae565b6020820191508190509392505050565b600061010082019050610d07600083018b610bcd565b610d14602083018a610c9f565b610d216040830189610bdc565b610d2e6060830188610bcd565b610d3b6080830187610beb565b610d4860a0830186610c9f565b610d5560c0830185610c9f565b81810360e0830152610d678184610bfa565b90509998505050505050505050565b6000606082019050610d8b6000830186610bcd565b610d986020830185610c9f565b8181036040830152610daa8184610bfa565b9050949350505050565b6000602082019050610dc96000830184610bdc565b92915050565b6000602082019050610de46000830184610c4a565b92915050565b60006020820190508181036000830152610e0381610c59565b9050919050565b60006020820190508181036000830152610e2381610c7c565b9050919050565b600081519050919050565b600082825260208201905092915050565b600082825260208201905092915050565b6000610e628261112a565b9150610e6d8361112a565b9250827fffffffffffffffffffffffffffffffffffffffffffffffffffffffffffffffff03821115610ea257610ea16111fc565b5b828201905092915050565b6000808291508390505b6001851115610ef757808604811115610ed357610ed26111fc565b5b6001851615610ee25780820291505b8081029050610ef08561127d565b9450610eb7565b94509492505050565b6000610f0b8261112a565b9150610f168361112a565b9250610f437fffffffffffffffffffffffffffffffffffffffffffffffffffffffffffffffff8484610f4b565b905092915050565b600082610f5b5760019050611017565b81610f695760009050611017565b8160018114610f7f5760028114610f8957610fb8565b6001915050611017565b60ff841115610f9b57610f9a6111fc565b5b8360020a915084821115610fb257610fb16111fc565b5b50611017565b5060208310610133831016604e8410600b8410161715610fed5782820a905083811115610fe857610fe76111fc565b5b611017565b610ffa8484846001610ead565b92509050818404811115611011576110106111fc565b5b81810290505b9392505050565b60006110298261112a565b91506110348361112a565b9250817fffffffffffffffffffffffffffffffffffffffffffffffffffffffffffffffff048311821515161561106d5761106c6111fc565b5b828202905092915050565b60006110838261112a565b915061108e8361112a565b9250828210156110a1576110a06111fc565b5b828203905092915050565b60006110b78261110a565b9050919050565b60008115159050919050565b6000819050919050565b60007fffffffff0000000000000000000000000000000000000000000000000000000082169050919050565b6000819050919050565b600073ffffffffffffffffffffffffffffffffffffffff82169050919050565b6000819050919050565b600061113f82611146565b9050919050565b600061115182611158565b9050919050565b60006111638261110a565b9050919050565b60005b8381101561118857808201518184015260208101905061116d565b83811115611197576000848401525b50505050565b60006111a8826111af565b9050919050565b60006111ba82611270565b9050919050565b6000819050919050565b60006111d68261112a565b91506111e18361112a565b9250826111f1576111f061122b565b5b828206905092915050565b7f4e487b7100000000000000000000000000000000000000000000000000000000600052601160045260246000fd5b7f4e487b7100000000000000000000000000000000000000000000000000000000600052601260045260246000fd5b600080fd5b6000601f19601f8301169050919050565b60008160601b9050919050565b60008160011c9050919050565b7f756e61626c6520746f207472616e73666572416e6443616c6c20746f206f726160008201527f636c650000000000000000000000000000000000000000000000000000000000602082015250565b7f536f75726365206d75737420626520746865206f7261636c65206f662074686560008201527f2072657175657374000000000000000000000000000000000000000000000000602082015250565b611331816110be565b811461133c57600080fd5b50565b611348816110ca565b811461135357600080fd5b50565b61135f81611100565b811461136a57600080fd5b5056fe7b2274223a22696e74323536222c226d223a22676574222c2275223a22687474703a2f2f7777772e72616e646f6d6e756d6265726170692e636f6d2f6170692f76312e302f72616e646f6d3f6d696e3d313030266d61783d3130303026636f756e743d31222c226a223a2272657475726e20726573706f6e73652e646174615b305d3b227da264697066735822122041c56a61a5433add203c949a1a5283c9dd6af69f9b710a63c6f33fb070799a4764736f6c63430008070033",
  "linkReferences": {},
  "deployedLinkReferences": {}
}