{
  "_format": "hh-sol-artifact-1",
  "contractName": "GeneratedCodeTest",
  "sourceName": "contracts/GeneratedCodeTest.sol",
  "abi": [
    {
      "inputs": [],
      "stateMutability": "nonpayable",
      "type": "constructor"
    },
    {
      "anonymous": false,
      "inputs": [
        {
          "indexed": true,
          "internalType": "bytes32",
          "name": "id",
          "type": "bytes32"
        }
      ],
      "name": "ChainlinkCancelled",
      "type": "event"
    },
    {
      "anonymous": false,
      "inputs": [
        {
          "indexed": true,
          "internalType": "bytes32",
          "name": "id",
          "type": "bytes32"
        }
      ],
      "name": "ChainlinkFulfilled",
      "type": "event"
    },
    {
      "anonymous": false,
      "inputs": [
        {
          "indexed": true,
          "internalType": "bytes32",
          "name": "id",
          "type": "bytes32"
        }
      ],
      "name": "ChainlinkRequested",
      "type": "event"
    },
    {
      "anonymous": false,
      "inputs": [
        {
          "indexed": false,
          "internalType": "bytes32",
          "name": "reply",
          "type": "bytes32"
        }
      ],
      "name": "adapterReply",
      "type": "event"
    },
    {
      "inputs": [
        {
          "internalType": "bytes32",
          "name": "_requestId",
          "type": "bytes32"
        },
        {
          "internalType": "bytes32",
          "name": "_reply",
          "type": "bytes32"
        }
      ],
      "name": "fulfill",
      "outputs": [],
      "stateMutability": "nonpayable",
      "type": "function"
    },
    {
      "inputs": [],
      "name": "request",
      "outputs": [
        {
          "internalType": "bytes32",
          "name": "requestId",
          "type": "bytes32"
        }
      ],
      "stateMutability": "nonpayable",
      "type": "function"
    },
    {
      "inputs": [],
      "name": "result",
      "outputs": [
        {
          "internalType": "bytes32",
          "name": "",
          "type": "bytes32"
        }
      ],
      "stateMutability": "view",
      "type": "function"
    }
  ],
  "bytecode": "0x6080604052600160045534801561001557600080fd5b5061003973326c977e6efc84e512bb9c30f76e30c160ed06fb61003e60201b60201c565b610082565b80600260006101000a81548173ffffffffffffffffffffffffffffffffffffffff021916908373ffffffffffffffffffffffffffffffffffffffff16021790555050565b6113cb806100916000396000f3fe608060405234801561001057600080fd5b50600436106100415760003560e01c8063042f2b6514610046578063338cdca1146100625780636537214714610080575b600080fd5b610060600480360381019061005b9190610b78565b61009e565b005b61006a6101e6565b6040516100779190610d90565b60405180910390f35b6100886102ac565b6040516100959190610d90565b60405180910390f35b816005600082815260200190815260200160002060009054906101000a900473ffffffffffffffffffffffffffffffffffffffff1673ffffffffffffffffffffffffffffffffffffffff163373ffffffffffffffffffffffffffffffffffffffff1614610140576040517f08c379a000000000000000000000000000000000000000000000000000000000815260040161013790610dcb565b60405180910390fd5b6005600082815260200190815260200160002060006101000a81549073ffffffffffffffffffffffffffffffffffffffff0219169055807f7cc135e0cebb02c3480ae5d74d377283180a2601f8f644edf7987b009316c63a60405160405180910390a2816006819055507f2b10fbaac8c516aade15debefa149bccd9e8c6748952d9e0c7ac04051b450e0e826040516101d99190610d90565b60405180910390a1505050565b60008061021b7f31333032616565346538363034623336383330633830316536313364383038323063042f2b6560e01b6102b2565b905061027f6040518060400160405280600181526020017f70000000000000000000000000000000000000000000000000000000000000008152506040518060c001604052806088815260200161130e60889139836102e39092919063ffffffff16565b6102a673a8e22a742d39b13d54df6a912fcc7b8e71dfafe082670de0b6b3a7640000610316565b91505090565b60065481565b6102ba610a9a565b6102c2610a9a565b6102d985858584610336909392919063ffffffff16565b9150509392505050565b6102fa8284608001516103e690919063ffffffff16565b6103118184608001516103e690919063ffffffff16565b505050565b600061032d8484846001634042994660e01b61040b565b90509392505050565b61033e610a9a565b61034e8560800151610100610673565b508385600001818152505082856020019073ffffffffffffffffffffffffffffffffffffffff16908173ffffffffffffffffffffffffffffffffffffffff16815250508185604001907bffffffffffffffffffffffffffffffffffffffffffffffffffffffff191690817bffffffffffffffffffffffffffffffffffffffffffffffffffffffff191681525050849050949350505050565b6103f382600383516106dd565b610406818361082290919063ffffffff16565b505050565b600030600454604051602001610422929190610ca1565b604051602081830303815290604052805190602001209050600454856060018181525050856005600083815260200190815260200160002060006101000a81548173ffffffffffffffffffffffffffffffffffffffff021916908373ffffffffffffffffffffffffffffffffffffffff160217905550807fb5e6e01e79f91267dc17b4e6314d5d4d03593d2ceee0fbb452b750bd70ea5af960405160405180910390a2600082600080886000015189602001518a604001518b606001518a8d6080015160000151604051602401610500989796959493929190610ccd565b604051602081830303815290604052907bffffffffffffffffffffffffffffffffffffffffffffffffffffffff19166020820180517bffffffffffffffffffffffffffffffffffffffffffffffffffffffff83818316178352505050509050600260009054906101000a900473ffffffffffffffffffffffffffffffffffffffff1673ffffffffffffffffffffffffffffffffffffffff16634000aea08887846040518463ffffffff1660e01b81526004016105be93929190610d52565b602060405180830381600087803b1580156105d857600080fd5b505af11580156105ec573d6000803e3d6000fd5b505050506040513d601f19601f820116820180604052508101906106109190610b4b565b61064f576040517f08c379a000000000000000000000000000000000000000000000000000000000815260040161064690610dab565b60405180910390fd5b6001600460008282546106629190610e18565b925050819055505095945050505050565b61067b610b07565b600060208361068a9190611182565b146106b65760208261069c9190611182565b60206106a89190611039565b826106b39190610e18565b91505b81836020018181525050604051808452600081528281016020016040525082905092915050565b6017811161070a576107048160058460ff16901b60ff16178461084490919063ffffffff16565b5061081d565b60ff811161074c5761072f601860058460ff16901b178461084490919063ffffffff16565b50610746816001856108649092919063ffffffff16565b5061081c565b61ffff811161078f57610772601960058460ff16901b178461084490919063ffffffff16565b50610789816002856108649092919063ffffffff16565b5061081b565b63ffffffff81116107d4576107b7601a60058460ff16901b178461084490919063ffffffff16565b506107ce816004856108649092919063ffffffff16565b5061081a565b67ffffffffffffffff811161081957610800601b60058460ff16901b178461084490919063ffffffff16565b50610817816008856108649092919063ffffffff16565b505b5b5b5b5b505050565b61082a610b07565b61083c83846000015151848551610886565b905092915050565b61084c610b07565b61085c8384600001515184610975565b905092915050565b61086c610b07565b61087d8485600001515185856109cc565b90509392505050565b61088e610b07565b825182111561089c57600080fd5b846020015182856108ad9190610e18565b11156108e2576108e18560026108d2886020015188876108cd9190610e18565b610a5a565b6108dc9190610fdf565b610a76565b5b6000808651805187602083010193508088870111156109015787860182525b60208701925050505b6020841061094857805182526020826109239190610e18565b91506020816109329190610e18565b90506020846109419190611039565b935061090a565b60006001856020036101000a03905080198251168184511681811785525050508692505050949350505050565b61097d610b07565b836020015183106109a3576109a2846002866020015161099d9190610fdf565b610a76565b5b83518051602085830101848153818614156109bf576001820183525b5050508390509392505050565b6109d4610b07565b846020015184836109e59190610e18565b1115610a0d57610a0c85600286856109fd9190610e18565b610a079190610fdf565b610a76565b5b6000600183610100610a1f9190610ec1565b610a299190611039565b90508551838682010185831982511617815281518588011115610a4c5784870182525b505085915050949350505050565b600081831115610a6c57829050610a70565b8190505b92915050565b600082600001519050610a898383610673565b50610a948382610822565b50505050565b6040518060a0016040528060008019168152602001600073ffffffffffffffffffffffffffffffffffffffff16815260200160007bffffffffffffffffffffffffffffffffffffffffffffffffffffffff1916815260200160008152602001610b01610b07565b81525090565b604051806040016040528060608152602001600081525090565b600081519050610b30816112df565b92915050565b600081359050610b45816112f6565b92915050565b600060208284031215610b6157610b60611211565b5b6000610b6f84828501610b21565b91505092915050565b60008060408385031215610b8f57610b8e611211565b5b6000610b9d85828601610b36565b9250506020610bae85828601610b36565b9150509250929050565b610bc18161106d565b82525050565b610bd08161108b565b82525050565b610bdf81611095565b82525050565b6000610bf082610deb565b610bfa8185610df6565b9350610c0a818560208601611121565b610c1381611216565b840191505092915050565b610c2f610c2a826110eb565b611154565b82525050565b6000610c42602383610e07565b9150610c4d82611241565b604082019050919050565b6000610c65602883610e07565b9150610c7082611290565b604082019050919050565b610c84816110e1565b82525050565b610c9b610c96826110e1565b611178565b82525050565b6000610cad8285610c1e565b601482019150610cbd8284610c8a565b6020820191508190509392505050565b600061010082019050610ce3600083018b610bb8565b610cf0602083018a610c7b565b610cfd6040830189610bc7565b610d0a6060830188610bb8565b610d176080830187610bd6565b610d2460a0830186610c7b565b610d3160c0830185610c7b565b81810360e0830152610d438184610be5565b90509998505050505050505050565b6000606082019050610d676000830186610bb8565b610d746020830185610c7b565b8181036040830152610d868184610be5565b9050949350505050565b6000602082019050610da56000830184610bc7565b92915050565b60006020820190508181036000830152610dc481610c35565b9050919050565b60006020820190508181036000830152610de481610c58565b9050919050565b600081519050919050565b600082825260208201905092915050565b600082825260208201905092915050565b6000610e23826110e1565b9150610e2e836110e1565b9250827fffffffffffffffffffffffffffffffffffffffffffffffffffffffffffffffff03821115610e6357610e626111b3565b5b828201905092915050565b6000808291508390505b6001851115610eb857808604811115610e9457610e936111b3565b5b6001851615610ea35780820291505b8081029050610eb185611234565b9450610e78565b94509492505050565b6000610ecc826110e1565b9150610ed7836110e1565b9250610f047fffffffffffffffffffffffffffffffffffffffffffffffffffffffffffffffff8484610f0c565b905092915050565b600082610f1c5760019050610fd8565b81610f2a5760009050610fd8565b8160018114610f405760028114610f4a57610f79565b6001915050610fd8565b60ff841115610f5c57610f5b6111b3565b5b8360020a915084821115610f7357610f726111b3565b5b50610fd8565b5060208310610133831016604e8410600b8410161715610fae5782820a905083811115610fa957610fa86111b3565b5b610fd8565b610fbb8484846001610e6e565b92509050818404811115610fd257610fd16111b3565b5b81810290505b9392505050565b6000610fea826110e1565b9150610ff5836110e1565b9250817fffffffffffffffffffffffffffffffffffffffffffffffffffffffffffffffff048311821515161561102e5761102d6111b3565b5b828202905092915050565b6000611044826110e1565b915061104f836110e1565b925082821015611062576110616111b3565b5b828203905092915050565b6000611078826110c1565b9050919050565b60008115159050919050565b6000819050919050565b60007fffffffff0000000000000000000000000000000000000000000000000000000082169050919050565b600073ffffffffffffffffffffffffffffffffffffffff82169050919050565b6000819050919050565b60006110f6826110fd565b9050919050565b60006111088261110f565b9050919050565b600061111a826110c1565b9050919050565b60005b8381101561113f578082015181840152602081019050611124565b8381111561114e576000848401525b50505050565b600061115f82611166565b9050919050565b600061117182611227565b9050919050565b6000819050919050565b600061118d826110e1565b9150611198836110e1565b9250826111a8576111a76111e2565b5b828206905092915050565b7f4e487b7100000000000000000000000000000000000000000000000000000000600052601160045260246000fd5b7f4e487b7100000000000000000000000000000000000000000000000000000000600052601260045260246000fd5b600080fd5b6000601f19601f8301169050919050565b60008160601b9050919050565b60008160011c9050919050565b7f756e61626c6520746f207472616e73666572416e6443616c6c20746f206f726160008201527f636c650000000000000000000000000000000000000000000000000000000000602082015250565b7f536f75726365206d75737420626520746865206f7261636c65206f662074686560008201527f2072657175657374000000000000000000000000000000000000000000000000602082015250565b6112e88161107f565b81146112f357600080fd5b50565b6112ff8161108b565b811461130a57600080fd5b5056fe7b2274223a2262797465733332222c226d223a22676574222c2275223a2268747470733a2f2f636f696e74656c6567726170682e636f6d2f746167732f616c74636f696e222c2269223a22626166796265696172786b6b7a7a663463706d76626e326a773770796368786763656933796d647a6c7933786969747479667368787a3274337661227da2646970667358221220fc304ceefb5a6ca0816a272909716f180bcc1da73ef8c5758055b09e15e614e864736f6c63430008070033",
  "linkReferences": {},
  "deployedLinkReferences": {}
}