{
  "_format": "hh-sol-artifact-1",
  "contractName": "AdapterJS",
  "sourceName": "contracts/AdapterJS.sol",
  "abi": [
    {
      "inputs": [
        {
          "internalType": "address",
          "name": "_chainlinkNode",
          "type": "address"
        },
        {
          "internalType": "uint256",
          "name": "_fee",
          "type": "uint256"
        }
      ],
      "stateMutability": "nonpayable",
      "type": "constructor"
    },
    {
      "anonymous": false,
      "inputs": [
        {
          "components": [
            {
              "internalType": "bytes32",
              "name": "id",
              "type": "bytes32"
            },
            {
              "internalType": "address",
              "name": "callbackAddress",
              "type": "address"
            },
            {
              "internalType": "bytes4",
              "name": "callbackFunctionId",
              "type": "bytes4"
            },
            {
              "internalType": "uint256",
              "name": "nonce",
              "type": "uint256"
            },
            {
              "components": [
                {
                  "internalType": "bytes",
                  "name": "buf",
                  "type": "bytes"
                },
                {
                  "internalType": "uint256",
                  "name": "capacity",
                  "type": "uint256"
                }
              ],
              "internalType": "struct BufferChainlink.buffer",
              "name": "buf",
              "type": "tuple"
            }
          ],
          "indexed": false,
          "internalType": "struct Chainlink.Request",
          "name": "request",
          "type": "tuple"
        }
      ],
      "name": "CLrequest",
      "type": "event"
    },
    {
      "anonymous": false,
      "inputs": [
        {
          "indexed": true,
          "internalType": "bytes32",
          "name": "id",
          "type": "bytes32"
        }
      ],
      "name": "ChainlinkCancelled",
      "type": "event"
    },
    {
      "anonymous": false,
      "inputs": [
        {
          "indexed": true,
          "internalType": "bytes32",
          "name": "id",
          "type": "bytes32"
        }
      ],
      "name": "ChainlinkFulfilled",
      "type": "event"
    },
    {
      "anonymous": false,
      "inputs": [
        {
          "indexed": true,
          "internalType": "bytes32",
          "name": "id",
          "type": "bytes32"
        }
      ],
      "name": "ChainlinkRequested",
      "type": "event"
    },
    {
      "anonymous": false,
      "inputs": [
        {
          "indexed": false,
          "internalType": "bool",
          "name": "reply",
          "type": "bool"
        }
      ],
      "name": "boolAdapterReply",
      "type": "event"
    },
    {
      "anonymous": false,
      "inputs": [
        {
          "indexed": false,
          "internalType": "bytes32",
          "name": "reply",
          "type": "bytes32"
        }
      ],
      "name": "bytes32AdapterReply",
      "type": "event"
    },
    {
      "anonymous": false,
      "inputs": [
        {
          "indexed": false,
          "internalType": "uint256",
          "name": "",
          "type": "uint256"
        }
      ],
      "name": "calledAdapter",
      "type": "event"
    },
    {
      "anonymous": false,
      "inputs": [
        {
          "indexed": false,
          "internalType": "uint256",
          "name": "time",
          "type": "uint256"
        }
      ],
      "name": "deployed",
      "type": "event"
    },
    {
      "anonymous": false,
      "inputs": [
        {
          "indexed": false,
          "internalType": "int256",
          "name": "reply",
          "type": "int256"
        }
      ],
      "name": "int256AdapterReply",
      "type": "event"
    },
    {
      "anonymous": false,
      "inputs": [
        {
          "indexed": false,
          "internalType": "uint256",
          "name": "reply",
          "type": "uint256"
        }
      ],
      "name": "uint256AdapterReply",
      "type": "event"
    },
    {
      "inputs": [
        {
          "internalType": "bytes32",
          "name": "_requestId",
          "type": "bytes32"
        },
        {
          "internalType": "bool",
          "name": "_reply",
          "type": "bool"
        }
      ],
      "name": "boolFullfill",
      "outputs": [],
      "stateMutability": "nonpayable",
      "type": "function"
    },
    {
      "inputs": [
        {
          "internalType": "bytes32",
          "name": "_requestId",
          "type": "bytes32"
        },
        {
          "internalType": "bytes32",
          "name": "_reply",
          "type": "bytes32"
        }
      ],
      "name": "bytes32Fullfill",
      "outputs": [],
      "stateMutability": "nonpayable",
      "type": "function"
    },
    {
      "inputs": [
        {
          "internalType": "bytes32",
          "name": "_bytes32",
          "type": "bytes32"
        }
      ],
      "name": "bytes32ToString",
      "outputs": [
        {
          "internalType": "string",
          "name": "",
          "type": "string"
        }
      ],
      "stateMutability": "pure",
      "type": "function"
    },
    {
      "inputs": [],
      "name": "chainlinkNode",
      "outputs": [
        {
          "internalType": "address",
          "name": "",
          "type": "address"
        }
      ],
      "stateMutability": "view",
      "type": "function"
    },
    {
      "inputs": [],
      "name": "fee",
      "outputs": [
        {
          "internalType": "uint256",
          "name": "",
          "type": "uint256"
        }
      ],
      "stateMutability": "view",
      "type": "function"
    },
    {
      "inputs": [
        {
          "internalType": "string",
          "name": "_method",
          "type": "string"
        },
        {
          "internalType": "string",
          "name": "_url",
          "type": "string"
        },
        {
          "internalType": "string",
          "name": "_headers",
          "type": "string"
        },
        {
          "internalType": "string",
          "name": "_data",
          "type": "string"
        },
        {
          "internalType": "string",
          "name": "_javascript",
          "type": "string"
        },
        {
          "internalType": "string",
          "name": "_ipfs",
          "type": "string"
        }
      ],
      "name": "int256CallAdapter",
      "outputs": [
        {
          "internalType": "bytes32",
          "name": "requestId",
          "type": "bytes32"
        }
      ],
      "stateMutability": "nonpayable",
      "type": "function"
    },
    {
      "inputs": [
        {
          "internalType": "bytes32",
          "name": "_requestId",
          "type": "bytes32"
        },
        {
          "internalType": "int256",
          "name": "_reply",
          "type": "int256"
        }
      ],
      "name": "int256Fullfill",
      "outputs": [],
      "stateMutability": "nonpayable",
      "type": "function"
    },
    {
      "inputs": [],
      "name": "simpleCallAdapter",
      "outputs": [
        {
          "internalType": "bytes32",
          "name": "requestId",
          "type": "bytes32"
        }
      ],
      "stateMutability": "nonpayable",
      "type": "function"
    },
    {
      "inputs": [
        {
          "internalType": "bytes32",
          "name": "_requestId",
          "type": "bytes32"
        },
        {
          "internalType": "uint256",
          "name": "_reply",
          "type": "uint256"
        }
      ],
      "name": "simpleFulfill",
      "outputs": [],
      "stateMutability": "nonpayable",
      "type": "function"
    },
    {
      "inputs": [
        {
          "internalType": "bytes32",
          "name": "_requestId",
          "type": "bytes32"
        },
        {
          "internalType": "uint256",
          "name": "_reply",
          "type": "uint256"
        }
      ],
      "name": "uint256Fullfill",
      "outputs": [],
      "stateMutability": "nonpayable",
      "type": "function"
    },
    {
      "inputs": [],
      "name": "uninit",
      "outputs": [
        {
          "internalType": "bytes32",
          "name": "",
          "type": "bytes32"
        }
      ],
      "stateMutability": "view",
      "type": "function"
    }
  ],
  "bytecode": "0x608060405260016004553480156200001657600080fd5b50604051620027713803806200277183398181016040528101906200003c91906200015c565b6200006173326c977e6efc84e512bb9c30f76e30c160ed06fb620000ea60201b60201c565b81600660006101000a81548173ffffffffffffffffffffffffffffffffffffffff021916908373ffffffffffffffffffffffffffffffffffffffff160217905550806007819055507f15b40ec05fb71b25f4e46c28335f2626d29465bafb74d67b683a01cff2a3522442604051620000da9190620001ae565b60405180910390a150506200023d565b80600260006101000a81548173ffffffffffffffffffffffffffffffffffffffff021916908373ffffffffffffffffffffffffffffffffffffffff16021790555050565b6000815190506200013f8162000209565b92915050565b600081519050620001568162000223565b92915050565b600080604083850312156200017057600080fd5b600062000180858286016200012e565b9250506020620001938582860162000145565b9150509250929050565b620001a881620001ff565b82525050565b6000602082019050620001c560008301846200019d565b92915050565b6000620001d882620001df565b9050919050565b600073ffffffffffffffffffffffffffffffffffffffff82169050919050565b6000819050919050565b6200021481620001cb565b81146200022057600080fd5b50565b6200022e81620001ff565b81146200023a57600080fd5b50565b612524806200024d6000396000f3fe608060405234801561001057600080fd5b50600436106100a95760003560e01c80639201de55116100715780639201de551461013c578063be4cdc8d1461016c578063ddca3f431461018a578063e3b4e212146101a8578063f07029b9146101d8578063ff68299a146101f6576100a9565b806310dba203146100ae5780632ee56849146100cc578063341a2476146100e85780633fc958ea146101045780635d3b29ef14610120575b600080fd5b6100b6610212565b6040516100c39190611d91565b60405180910390f35b6100e660048036038101906100e19190611864565b610218565b005b61010260048036038101906100fd9190611828565b610359565b005b61011e600480360381019061011991906118a0565b61049a565b005b61013a600480360381019061013591906117ec565b6105db565b005b610156600480360381019061015191906117c3565b61071c565b6040516101639190611de2565b60405180910390f35b610174610975565b6040516101819190611d91565b60405180910390f35b6101926109e7565b60405161019f9190611e66565b60405180910390f35b6101c260048036038101906101bd91906118dc565b6109ed565b6040516101cf9190611d91565b60405180910390f35b6101e0610cf3565b6040516101ed9190611c98565b60405180910390f35b610210600480360381019061020b91906118a0565b610d19565b005b60085481565b816005600082815260200190815260200160002060009054906101000a900473ffffffffffffffffffffffffffffffffffffffff1673ffffffffffffffffffffffffffffffffffffffff163373ffffffffffffffffffffffffffffffffffffffff16146102ba576040517f08c379a00000000000000000000000000000000000000000000000000000000081526004016102b190611e24565b60405180910390fd5b6005600082815260200190815260200160002060006101000a81549073ffffffffffffffffffffffffffffffffffffffff0219169055807f7cc135e0cebb02c3480ae5d74d377283180a2601f8f644edf7987b009316c63a60405160405180910390a27ff83420c728b9acd9fcdaa60a5bba545814a0ebfee0e8cfcbdb73f171f3e5f79c8260405161034c9190611dac565b60405180910390a1505050565b816005600082815260200190815260200160002060009054906101000a900473ffffffffffffffffffffffffffffffffffffffff1673ffffffffffffffffffffffffffffffffffffffff163373ffffffffffffffffffffffffffffffffffffffff16146103fb576040517f08c379a00000000000000000000000000000000000000000000000000000000081526004016103f290611e24565b60405180910390fd5b6005600082815260200190815260200160002060006101000a81549073ffffffffffffffffffffffffffffffffffffffff0219169055807f7cc135e0cebb02c3480ae5d74d377283180a2601f8f644edf7987b009316c63a60405160405180910390a27fc76965736a0f2ed17e98ec7c2dab6231b5f98e52f597e6d6bf0bdb9b9878ed7d8260405161048d9190611d91565b60405180910390a1505050565b816005600082815260200190815260200160002060009054906101000a900473ffffffffffffffffffffffffffffffffffffffff1673ffffffffffffffffffffffffffffffffffffffff163373ffffffffffffffffffffffffffffffffffffffff161461053c576040517f08c379a000000000000000000000000000000000000000000000000000000000815260040161053390611e24565b60405180910390fd5b6005600082815260200190815260200160002060006101000a81549073ffffffffffffffffffffffffffffffffffffffff0219169055807f7cc135e0cebb02c3480ae5d74d377283180a2601f8f644edf7987b009316c63a60405160405180910390a27fa3bc099d9a6f5297ef1269c4501dbf6315c78eca2baefdfc64bfb9f07a60b6d3826040516105ce9190611e66565b60405180910390a1505050565b816005600082815260200190815260200160002060009054906101000a900473ffffffffffffffffffffffffffffffffffffffff1673ffffffffffffffffffffffffffffffffffffffff163373ffffffffffffffffffffffffffffffffffffffff161461067d576040517f08c379a000000000000000000000000000000000000000000000000000000000815260040161067490611e24565b60405180910390fd5b6005600082815260200190815260200160002060006101000a81549073ffffffffffffffffffffffffffffffffffffffff0219169055807f7cc135e0cebb02c3480ae5d74d377283180a2601f8f644edf7987b009316c63a60405160405180910390a27f5bf6c807803406bbd4941bd53364338bd8c211c6f25efbdcf329fac81659ced58260405161070f9190611d76565b60405180910390a1505050565b606060005b60208160ff161080156107995750600060f81b838260ff1660208110610770577f4e487b7100000000000000000000000000000000000000000000000000000000600052603260045260246000fd5b1a60f81b7effffffffffffffffffffffffffffffffffffffffffffffffffffffffffffff191614155b156107b15780806107a9906122b3565b915050610721565b60008160ff1667ffffffffffffffff8111156107f6577f4e487b7100000000000000000000000000000000000000000000000000000000600052604160045260246000fd5b6040519080825280601f01601f1916602001820160405280156108285781602001600182028036833780820191505090505b509050600091505b60208260ff161080156108a85750600060f81b848360ff166020811061087f577f4e487b7100000000000000000000000000000000000000000000000000000000600052603260045260246000fd5b1a60f81b7effffffffffffffffffffffffffffffffffffffffffffffffffffffffffffff191614155b1561096b57838260ff16602081106108e9577f4e487b7100000000000000000000000000000000000000000000000000000000600052603260045260246000fd5b1a60f81b818360ff1681518110610929577f4e487b7100000000000000000000000000000000000000000000000000000000600052603260045260246000fd5b60200101907effffffffffffffffffffffffffffffffffffffffffffffffffffffffffffff1916908160001a9053508180610963906122b3565b925050610830565b8092505050919050565b6000806109aa7f623164343263643534613361343230316231663632356136386534386161643230633fc958ea60e01b610e5a565b905060006109dd600660009054906101000a900473ffffffffffffffffffffffffffffffffffffffff1683600754610e8b565b9050809250505090565b60075481565b60007fa2203473d53683a1a173586bef49af3847e1c5f0abec27ccf1d7a61cfe02c0c66008604051610a1f9190611dc7565b60405180910390a1610a2f611642565b610a4360085430632ee5684960e01b610e5a565b9050610ac46040518060400160405280600a81526020017f72657475726e54797065000000000000000000000000000000000000000000008152506040518060400160405280600681526020017f696e74323536000000000000000000000000000000000000000000000000000081525083610eab9092919063ffffffff16565b610b0e6040518060400160405280600681526020017f6d6574686f6400000000000000000000000000000000000000000000000000008152508983610eab9092919063ffffffff16565b610b586040518060400160405280600381526020017f75726c00000000000000000000000000000000000000000000000000000000008152508883610eab9092919063ffffffff16565b610ba26040518060400160405280600781526020017f68656164657273000000000000000000000000000000000000000000000000008152508783610eab9092919063ffffffff16565b610bec6040518060400160405280600481526020017f64617461000000000000000000000000000000000000000000000000000000008152508683610eab9092919063ffffffff16565b610c366040518060400160405280600a81526020017f6a617661736372697074000000000000000000000000000000000000000000008152508583610eab9092919063ffffffff16565b610c806040518060400160405280600481526020017f69706673000000000000000000000000000000000000000000000000000000008152508483610eab9092919063ffffffff16565b7f17dbb24558c7b512d80db37150a8fee6ef4adf7a4398c63a9d82faa08790769881604051610caf9190611e44565b60405180910390a1610ce6600660009054906101000a900473ffffffffffffffffffffffffffffffffffffffff1682600754610e8b565b9150509695505050505050565b600660009054906101000a900473ffffffffffffffffffffffffffffffffffffffff1681565b816005600082815260200190815260200160002060009054906101000a900473ffffffffffffffffffffffffffffffffffffffff1673ffffffffffffffffffffffffffffffffffffffff163373ffffffffffffffffffffffffffffffffffffffff1614610dbb576040517f08c379a0000000000000000000000000000000000000000000000000000000008152600401610db290611e24565b60405180910390fd5b6005600082815260200190815260200160002060006101000a81549073ffffffffffffffffffffffffffffffffffffffff0219169055807f7cc135e0cebb02c3480ae5d74d377283180a2601f8f644edf7987b009316c63a60405160405180910390a27fa3bc099d9a6f5297ef1269c4501dbf6315c78eca2baefdfc64bfb9f07a60b6d382604051610e4d9190611e66565b60405180910390a1505050565b610e62611642565b610e6a611642565b610e8185858584610ede909392919063ffffffff16565b9150509392505050565b6000610ea28484846001634042994660e01b610f8e565b90509392505050565b610ec28284608001516111f690919063ffffffff16565b610ed98184608001516111f690919063ffffffff16565b505050565b610ee6611642565b610ef6856080015161010061121b565b508385600001818152505082856020019073ffffffffffffffffffffffffffffffffffffffff16908173ffffffffffffffffffffffffffffffffffffffff16815250508185604001907bffffffffffffffffffffffffffffffffffffffffffffffffffffffff191690817bffffffffffffffffffffffffffffffffffffffffffffffffffffffff191681525050849050949350505050565b600030600454604051602001610fa5929190611c6c565b604051602081830303815290604052805190602001209050600454856060018181525050856005600083815260200190815260200160002060006101000a81548173ffffffffffffffffffffffffffffffffffffffff021916908373ffffffffffffffffffffffffffffffffffffffff160217905550807fb5e6e01e79f91267dc17b4e6314d5d4d03593d2ceee0fbb452b750bd70ea5af960405160405180910390a2600082600080886000015189602001518a604001518b606001518a8d6080015160000151604051602401611083989796959493929190611cb3565b604051602081830303815290604052907bffffffffffffffffffffffffffffffffffffffffffffffffffffffff19166020820180517bffffffffffffffffffffffffffffffffffffffffffffffffffffffff83818316178352505050509050600260009054906101000a900473ffffffffffffffffffffffffffffffffffffffff1673ffffffffffffffffffffffffffffffffffffffff16634000aea08887846040518463ffffffff1660e01b815260040161114193929190611d38565b602060405180830381600087803b15801561115b57600080fd5b505af115801561116f573d6000803e3d6000fd5b505050506040513d601f19601f82011682018060405250810190611193919061179a565b6111d2576040517f08c379a00000000000000000000000000000000000000000000000000000000081526004016111c990611e04565b60405180910390fd5b6001600460008282546111e59190611f20565b925050819055505095945050505050565b6112038260038351611285565b61121681836113ca90919063ffffffff16565b505050565b6112236116af565b6000602083611232919061230b565b1461125e57602082611244919061230b565b60206112509190612141565b8261125b9190611f20565b91505b81836020018181525050604051808452600081528281016020016040525082905092915050565b601781116112b2576112ac8160058460ff16901b60ff1617846113ec90919063ffffffff16565b506113c5565b60ff81116112f4576112d7601860058460ff16901b17846113ec90919063ffffffff16565b506112ee8160018561140c9092919063ffffffff16565b506113c4565b61ffff81116113375761131a601960058460ff16901b17846113ec90919063ffffffff16565b506113318160028561140c9092919063ffffffff16565b506113c3565b63ffffffff811161137c5761135f601a60058460ff16901b17846113ec90919063ffffffff16565b506113768160048561140c9092919063ffffffff16565b506113c2565b67ffffffffffffffff81116113c1576113a8601b60058460ff16901b17846113ec90919063ffffffff16565b506113bf8160088561140c9092919063ffffffff16565b505b5b5b5b5b505050565b6113d26116af565b6113e48384600001515184855161142e565b905092915050565b6113f46116af565b611404838460000151518461151d565b905092915050565b6114146116af565b611425848560000151518585611574565b90509392505050565b6114366116af565b825182111561144457600080fd5b846020015182856114559190611f20565b111561148a5761148985600261147a886020015188876114759190611f20565b611602565b61148491906120e7565b61161e565b5b6000808651805187602083010193508088870111156114a95787860182525b60208701925050505b602084106114f057805182526020826114cb9190611f20565b91506020816114da9190611f20565b90506020846114e99190612141565b93506114b2565b60006001856020036101000a03905080198251168184511681811785525050508692505050949350505050565b6115256116af565b8360200151831061154b5761154a846002866020015161154591906120e7565b61161e565b5b8351805160208583010184815381861415611567576001820183525b5050508390509392505050565b61157c6116af565b8460200151848361158d9190611f20565b11156115b5576115b485600286856115a59190611f20565b6115af91906120e7565b61161e565b5b60006001836101006115c79190611fc9565b6115d19190612141565b905085518386820101858319825116178152815185880111156115f45784870182525b505085915050949350505050565b60008183111561161457829050611618565b8190505b92915050565b600082600001519050611631838361121b565b5061163c83826113ca565b50505050565b6040518060a0016040528060008019168152602001600073ffffffffffffffffffffffffffffffffffffffff16815260200160007bffffffffffffffffffffffffffffffffffffffffffffffffffffffff19168152602001600081526020016116a96116af565b81525090565b604051806040016040528060608152602001600081525090565b60006116dc6116d784611ea6565b611e81565b9050828152602081018484840111156116f457600080fd5b6116ff848285612240565b509392505050565b60008135905061171681612492565b92915050565b60008151905061172b81612492565b92915050565b600081359050611740816124a9565b92915050565b600081359050611755816124c0565b92915050565b600082601f83011261176c57600080fd5b813561177c8482602086016116c9565b91505092915050565b600081359050611794816124d7565b92915050565b6000602082840312156117ac57600080fd5b60006117ba8482850161171c565b91505092915050565b6000602082840312156117d557600080fd5b60006117e384828501611731565b91505092915050565b600080604083850312156117ff57600080fd5b600061180d85828601611731565b925050602061181e85828601611707565b9150509250929050565b6000806040838503121561183b57600080fd5b600061184985828601611731565b925050602061185a85828601611731565b9150509250929050565b6000806040838503121561187757600080fd5b600061188585828601611731565b925050602061189685828601611746565b9150509250929050565b600080604083850312156118b357600080fd5b60006118c185828601611731565b92505060206118d285828601611785565b9150509250929050565b60008060008060008060c087890312156118f557600080fd5b600087013567ffffffffffffffff81111561190f57600080fd5b61191b89828a0161175b565b965050602087013567ffffffffffffffff81111561193857600080fd5b61194489828a0161175b565b955050604087013567ffffffffffffffff81111561196157600080fd5b61196d89828a0161175b565b945050606087013567ffffffffffffffff81111561198a57600080fd5b61199689828a0161175b565b935050608087013567ffffffffffffffff8111156119b357600080fd5b6119bf89828a0161175b565b92505060a087013567ffffffffffffffff8111156119dc57600080fd5b6119e889828a0161175b565b9150509295509295509295565b6119fe81612175565b82525050565b611a0d81612175565b82525050565b611a1c81612187565b82525050565b611a2b81612193565b82525050565b611a3a81612193565b82525050565b611a498161219d565b82525050565b611a588161219d565b82525050565b6000611a6982611ed7565b611a738185611eed565b9350611a8381856020860161224f565b611a8c816123c9565b840191505092915050565b6000611aa282611ed7565b611aac8185611efe565b9350611abc81856020860161224f565b611ac5816123c9565b840191505092915050565b611ae1611adc8261220a565b6122dd565b82525050565b611af0816121c9565b82525050565b611aff8161222e565b82525050565b6000611b1082611ee2565b611b1a8185611f0f565b9350611b2a81856020860161224f565b611b33816123c9565b840191505092915050565b6000611b4b602383611f0f565b9150611b56826123f4565b604082019050919050565b6000611b6e602883611f0f565b9150611b7982612443565b604082019050919050565b600060a083016000830151611b9c6000860182611a22565b506020830151611baf60208601826119f5565b506040830151611bc26040860182611a40565b506060830151611bd56060860182611c37565b5060808301518482036080860152611bed8282611bfa565b9150508091505092915050565b60006040830160008301518482036000860152611c178282611a5e565b9150506020830151611c2c6020860182611c37565b508091505092915050565b611c40816121f3565b82525050565b611c4f816121f3565b82525050565b611c66611c61826121f3565b612301565b82525050565b6000611c788285611ad0565b601482019150611c888284611c55565b6020820191508190509392505050565b6000602082019050611cad6000830184611a04565b92915050565b600061010082019050611cc9600083018b611a04565b611cd6602083018a611c46565b611ce36040830189611a31565b611cf06060830188611a04565b611cfd6080830187611a4f565b611d0a60a0830186611c46565b611d1760c0830185611c46565b81810360e0830152611d298184611a97565b90509998505050505050505050565b6000606082019050611d4d6000830186611a04565b611d5a6020830185611c46565b8181036040830152611d6c8184611a97565b9050949350505050565b6000602082019050611d8b6000830184611a13565b92915050565b6000602082019050611da66000830184611a31565b92915050565b6000602082019050611dc16000830184611ae7565b92915050565b6000602082019050611ddc6000830184611af6565b92915050565b60006020820190508181036000830152611dfc8184611b05565b905092915050565b60006020820190508181036000830152611e1d81611b3e565b9050919050565b60006020820190508181036000830152611e3d81611b61565b9050919050565b60006020820190508181036000830152611e5e8184611b84565b905092915050565b6000602082019050611e7b6000830184611c46565b92915050565b6000611e8b611e9c565b9050611e978282612282565b919050565b6000604051905090565b600067ffffffffffffffff821115611ec157611ec061239a565b5b611eca826123c9565b9050602081019050919050565b600081519050919050565b600081519050919050565b600082825260208201905092915050565b600082825260208201905092915050565b600082825260208201905092915050565b6000611f2b826121f3565b9150611f36836121f3565b9250827fffffffffffffffffffffffffffffffffffffffffffffffffffffffffffffffff03821115611f6b57611f6a61233c565b5b828201905092915050565b6000808291508390505b6001851115611fc057808604811115611f9c57611f9b61233c565b5b6001851615611fab5780820291505b8081029050611fb9856123e7565b9450611f80565b94509492505050565b6000611fd4826121f3565b9150611fdf836121f3565b925061200c7fffffffffffffffffffffffffffffffffffffffffffffffffffffffffffffffff8484612014565b905092915050565b60008261202457600190506120e0565b8161203257600090506120e0565b8160018114612048576002811461205257612081565b60019150506120e0565b60ff8411156120645761206361233c565b5b8360020a91508482111561207b5761207a61233c565b5b506120e0565b5060208310610133831016604e8410600b84101617156120b65782820a9050838111156120b1576120b061233c565b5b6120e0565b6120c38484846001611f76565b925090508184048111156120da576120d961233c565b5b81810290505b9392505050565b60006120f2826121f3565b91506120fd836121f3565b9250817fffffffffffffffffffffffffffffffffffffffffffffffffffffffffffffffff04831182151516156121365761213561233c565b5b828202905092915050565b600061214c826121f3565b9150612157836121f3565b92508282101561216a5761216961233c565b5b828203905092915050565b6000612180826121d3565b9050919050565b60008115159050919050565b6000819050919050565b60007fffffffff0000000000000000000000000000000000000000000000000000000082169050919050565b6000819050919050565b600073ffffffffffffffffffffffffffffffffffffffff82169050919050565b6000819050919050565b600060ff82169050919050565b60006122158261221c565b9050919050565b6000612227826121d3565b9050919050565b6000612239826121f3565b9050919050565b82818337600083830152505050565b60005b8381101561226d578082015181840152602081019050612252565b8381111561227c576000848401525b50505050565b61228b826123c9565b810181811067ffffffffffffffff821117156122aa576122a961239a565b5b80604052505050565b60006122be826121fd565b915060ff8214156122d2576122d161233c565b5b600182019050919050565b60006122e8826122ef565b9050919050565b60006122fa826123da565b9050919050565b6000819050919050565b6000612316826121f3565b9150612321836121f3565b9250826123315761233061236b565b5b828206905092915050565b7f4e487b7100000000000000000000000000000000000000000000000000000000600052601160045260246000fd5b7f4e487b7100000000000000000000000000000000000000000000000000000000600052601260045260246000fd5b7f4e487b7100000000000000000000000000000000000000000000000000000000600052604160045260246000fd5b6000601f19601f8301169050919050565b60008160601b9050919050565b60008160011c9050919050565b7f756e61626c6520746f207472616e73666572416e6443616c6c20746f206f726160008201527f636c650000000000000000000000000000000000000000000000000000000000602082015250565b7f536f75726365206d75737420626520746865206f7261636c65206f662074686560008201527f2072657175657374000000000000000000000000000000000000000000000000602082015250565b61249b81612187565b81146124a657600080fd5b50565b6124b281612193565b81146124bd57600080fd5b50565b6124c9816121c9565b81146124d457600080fd5b50565b6124e0816121f3565b81146124eb57600080fd5b5056fea26469706673582212209ff0cb183e2eb4ae575bdada8750214b15e60786c39875341fbc1cbbe3c5eb1664736f6c63430008040033",
  "linkReferences": {},
  "deployedLinkReferences": {}
}