{
  "_format": "hh-sol-artifact-1",
  "contractName": "AdapterJS",
  "sourceName": "contracts/AdapterJS.sol",
  "abi": [
    {
      "inputs": [
        {
          "internalType": "address",
          "name": "_chainlinkNode",
          "type": "address"
        },
        {
          "internalType": "uint256",
          "name": "_fee",
          "type": "uint256"
        }
      ],
      "stateMutability": "nonpayable",
      "type": "constructor"
    },
    {
      "anonymous": false,
      "inputs": [
        {
          "components": [
            {
              "internalType": "bytes32",
              "name": "id",
              "type": "bytes32"
            },
            {
              "internalType": "address",
              "name": "callbackAddress",
              "type": "address"
            },
            {
              "internalType": "bytes4",
              "name": "callbackFunctionId",
              "type": "bytes4"
            },
            {
              "internalType": "uint256",
              "name": "nonce",
              "type": "uint256"
            },
            {
              "components": [
                {
                  "internalType": "bytes",
                  "name": "buf",
                  "type": "bytes"
                },
                {
                  "internalType": "uint256",
                  "name": "capacity",
                  "type": "uint256"
                }
              ],
              "internalType": "struct BufferChainlink.buffer",
              "name": "buf",
              "type": "tuple"
            }
          ],
          "indexed": false,
          "internalType": "struct Chainlink.Request",
          "name": "request",
          "type": "tuple"
        }
      ],
      "name": "CLrequest",
      "type": "event"
    },
    {
      "anonymous": false,
      "inputs": [
        {
          "indexed": true,
          "internalType": "bytes32",
          "name": "id",
          "type": "bytes32"
        }
      ],
      "name": "ChainlinkCancelled",
      "type": "event"
    },
    {
      "anonymous": false,
      "inputs": [
        {
          "indexed": true,
          "internalType": "bytes32",
          "name": "id",
          "type": "bytes32"
        }
      ],
      "name": "ChainlinkFulfilled",
      "type": "event"
    },
    {
      "anonymous": false,
      "inputs": [
        {
          "indexed": true,
          "internalType": "bytes32",
          "name": "id",
          "type": "bytes32"
        }
      ],
      "name": "ChainlinkRequested",
      "type": "event"
    },
    {
      "anonymous": false,
      "inputs": [
        {
          "indexed": true,
          "internalType": "bytes32",
          "name": "requestId",
          "type": "bytes32"
        },
        {
          "indexed": true,
          "internalType": "uint256",
          "name": "price",
          "type": "uint256"
        }
      ],
      "name": "RequestEthereumPriceFulfilled",
      "type": "event"
    },
    {
      "anonymous": false,
      "inputs": [
        {
          "indexed": false,
          "internalType": "bool",
          "name": "reply",
          "type": "bool"
        }
      ],
      "name": "boolAdapterReply",
      "type": "event"
    },
    {
      "anonymous": false,
      "inputs": [
        {
          "indexed": false,
          "internalType": "bytes32",
          "name": "reply",
          "type": "bytes32"
        }
      ],
      "name": "bytes32AdapterReply",
      "type": "event"
    },
    {
      "anonymous": false,
      "inputs": [
        {
          "indexed": false,
          "internalType": "uint256",
          "name": "",
          "type": "uint256"
        }
      ],
      "name": "calledAdapter",
      "type": "event"
    },
    {
      "anonymous": false,
      "inputs": [
        {
          "indexed": false,
          "internalType": "uint256",
          "name": "time",
          "type": "uint256"
        }
      ],
      "name": "deployed",
      "type": "event"
    },
    {
      "anonymous": false,
      "inputs": [
        {
          "indexed": false,
          "internalType": "int256",
          "name": "reply",
          "type": "int256"
        }
      ],
      "name": "int256AdapterReply",
      "type": "event"
    },
    {
      "anonymous": false,
      "inputs": [
        {
          "indexed": false,
          "internalType": "uint256",
          "name": "reply",
          "type": "uint256"
        }
      ],
      "name": "uint256AdapterReply",
      "type": "event"
    },
    {
      "inputs": [
        {
          "internalType": "bytes32",
          "name": "_requestId",
          "type": "bytes32"
        },
        {
          "internalType": "bool",
          "name": "_reply",
          "type": "bool"
        }
      ],
      "name": "boolFullfill",
      "outputs": [],
      "stateMutability": "nonpayable",
      "type": "function"
    },
    {
      "inputs": [
        {
          "internalType": "bytes32",
          "name": "_requestId",
          "type": "bytes32"
        },
        {
          "internalType": "bytes32",
          "name": "_reply",
          "type": "bytes32"
        }
      ],
      "name": "bytes32Fullfill",
      "outputs": [],
      "stateMutability": "nonpayable",
      "type": "function"
    },
    {
      "inputs": [
        {
          "internalType": "bytes32",
          "name": "_bytes32",
          "type": "bytes32"
        }
      ],
      "name": "bytes32ToString",
      "outputs": [
        {
          "internalType": "string",
          "name": "",
          "type": "string"
        }
      ],
      "stateMutability": "pure",
      "type": "function"
    },
    {
      "inputs": [],
      "name": "chainlinkNode",
      "outputs": [
        {
          "internalType": "address",
          "name": "",
          "type": "address"
        }
      ],
      "stateMutability": "view",
      "type": "function"
    },
    {
      "inputs": [],
      "name": "fee",
      "outputs": [
        {
          "internalType": "uint256",
          "name": "",
          "type": "uint256"
        }
      ],
      "stateMutability": "view",
      "type": "function"
    },
    {
      "inputs": [
        {
          "internalType": "bytes32",
          "name": "_requestId",
          "type": "bytes32"
        },
        {
          "internalType": "uint256",
          "name": "_price",
          "type": "uint256"
        }
      ],
      "name": "fulfillEthereumPrice",
      "outputs": [],
      "stateMutability": "nonpayable",
      "type": "function"
    },
    {
      "inputs": [
        {
          "internalType": "address",
          "name": "_oracle",
          "type": "address"
        },
        {
          "internalType": "string",
          "name": "_jobId",
          "type": "string"
        },
        {
          "internalType": "uint256",
          "name": "payment",
          "type": "uint256"
        },
        {
          "internalType": "string",
          "name": "_method",
          "type": "string"
        },
        {
          "internalType": "string",
          "name": "_url",
          "type": "string"
        },
        {
          "internalType": "string",
          "name": "_headers",
          "type": "string"
        },
        {
          "internalType": "string",
          "name": "_data",
          "type": "string"
        },
        {
          "internalType": "string",
          "name": "_javascript",
          "type": "string"
        },
        {
          "internalType": "string",
          "name": "_ipfs",
          "type": "string"
        }
      ],
      "name": "int256CallAdapter",
      "outputs": [
        {
          "internalType": "bytes32",
          "name": "requestId",
          "type": "bytes32"
        }
      ],
      "stateMutability": "nonpayable",
      "type": "function"
    },
    {
      "inputs": [
        {
          "internalType": "bytes32",
          "name": "_requestId",
          "type": "bytes32"
        },
        {
          "internalType": "int256",
          "name": "_reply",
          "type": "int256"
        }
      ],
      "name": "int256Fullfill",
      "outputs": [],
      "stateMutability": "nonpayable",
      "type": "function"
    },
    {
      "inputs": [
        {
          "internalType": "address",
          "name": "_oracle",
          "type": "address"
        },
        {
          "internalType": "string",
          "name": "_jobId",
          "type": "string"
        },
        {
          "internalType": "uint256",
          "name": "payment",
          "type": "uint256"
        }
      ],
      "name": "requestEthereumPrice",
      "outputs": [],
      "stateMutability": "nonpayable",
      "type": "function"
    },
    {
      "inputs": [],
      "name": "simpleCallAdapter",
      "outputs": [
        {
          "internalType": "bytes32",
          "name": "requestId",
          "type": "bytes32"
        }
      ],
      "stateMutability": "nonpayable",
      "type": "function"
    },
    {
      "inputs": [
        {
          "internalType": "bytes32",
          "name": "_requestId",
          "type": "bytes32"
        },
        {
          "internalType": "uint256",
          "name": "_reply",
          "type": "uint256"
        }
      ],
      "name": "simpleFulfill",
      "outputs": [],
      "stateMutability": "nonpayable",
      "type": "function"
    },
    {
      "inputs": [
        {
          "internalType": "bytes32",
          "name": "_requestId",
          "type": "bytes32"
        },
        {
          "internalType": "uint256",
          "name": "_reply",
          "type": "uint256"
        }
      ],
      "name": "uint256Fullfill",
      "outputs": [],
      "stateMutability": "nonpayable",
      "type": "function"
    },
    {
      "inputs": [],
      "name": "uninit",
      "outputs": [
        {
          "internalType": "bytes32",
          "name": "",
          "type": "bytes32"
        }
      ],
      "stateMutability": "view",
      "type": "function"
    }
  ],
  "bytecode": "0x608060405260016004553480156200001657600080fd5b50604051620028123803806200281283398181016040528101906200003c91906200015c565b6200006173326c977e6efc84e512bb9c30f76e30c160ed06fb620000ea60201b60201c565b81600660006101000a81548173ffffffffffffffffffffffffffffffffffffffff021916908373ffffffffffffffffffffffffffffffffffffffff160217905550806007819055507f15b40ec05fb71b25f4e46c28335f2626d29465bafb74d67b683a01cff2a3522442604051620000da9190620001b4565b60405180910390a1505062000248565b80600260006101000a81548173ffffffffffffffffffffffffffffffffffffffff021916908373ffffffffffffffffffffffffffffffffffffffff16021790555050565b6000815190506200013f8162000214565b92915050565b60008151905062000156816200022e565b92915050565b600080604083850312156200017657620001756200020f565b5b600062000186858286016200012e565b9250506020620001998582860162000145565b9150509250929050565b620001ae8162000205565b82525050565b6000602082019050620001cb6000830184620001a3565b92915050565b6000620001de82620001e5565b9050919050565b600073ffffffffffffffffffffffffffffffffffffffff82169050919050565b6000819050919050565b600080fd5b6200021f81620001d1565b81146200022b57600080fd5b50565b620002398162000205565b81146200024557600080fd5b50565b6125ba80620002586000396000f3fe608060405234801561001057600080fd5b50600436106100cf5760003560e01c80639201de551161008c578063be4cdc8d11610066578063be4cdc8d146101fa578063ddca3f4314610218578063f07029b914610236578063ff68299a14610254576100cf565b80639201de551461017e57806392cdaaf3146101ae578063a3e69c91146101ca576100cf565b806310dba203146100d45780632ee56849146100f2578063341a24761461010e5780633fc958ea1461012a5780635d3b29ef1461014657806363a3cd4c14610162575b600080fd5b6100dc610270565b6040516100e99190611e1b565b60405180910390f35b61010c60048036038101906101079190611b36565b610276565b005b61012860048036038101906101239190611af6565b6103b7565b005b610144600480360381019061013f9190611b76565b6104f8565b005b610160600480360381019061015b9190611ab6565b610639565b005b61017c6004803603810190610177919061185f565b61077a565b005b61019860048036038101906101939190611a89565b6107aa565b6040516101a59190611e51565b60405180910390f35b6101c860048036038101906101c39190611b76565b610945565b005b6101e460048036038101906101df91906118ce565b610a7d565b6040516101f19190611e1b565b60405180910390f35b610202610cf9565b60405161020f9190611e1b565b60405180910390f35b610220610d6b565b60405161022d9190611eb3565b60405180910390f35b61023e610d71565b60405161024b9190611d22565b60405180910390f35b61026e60048036038101906102699190611b76565b610d97565b005b60085481565b816005600082815260200190815260200160002060009054906101000a900473ffffffffffffffffffffffffffffffffffffffff1673ffffffffffffffffffffffffffffffffffffffff163373ffffffffffffffffffffffffffffffffffffffff1614610318576040517f08c379a000000000000000000000000000000000000000000000000000000000815260040161030f90611e93565b60405180910390fd5b6005600082815260200190815260200160002060006101000a81549073ffffffffffffffffffffffffffffffffffffffff0219169055807f7cc135e0cebb02c3480ae5d74d377283180a2601f8f644edf7987b009316c63a60405160405180910390a27ff83420c728b9acd9fcdaa60a5bba545814a0ebfee0e8cfcbdb73f171f3e5f79c826040516103aa9190611e36565b60405180910390a1505050565b816005600082815260200190815260200160002060009054906101000a900473ffffffffffffffffffffffffffffffffffffffff1673ffffffffffffffffffffffffffffffffffffffff163373ffffffffffffffffffffffffffffffffffffffff1614610459576040517f08c379a000000000000000000000000000000000000000000000000000000000815260040161045090611e93565b60405180910390fd5b6005600082815260200190815260200160002060006101000a81549073ffffffffffffffffffffffffffffffffffffffff0219169055807f7cc135e0cebb02c3480ae5d74d377283180a2601f8f644edf7987b009316c63a60405160405180910390a27fc76965736a0f2ed17e98ec7c2dab6231b5f98e52f597e6d6bf0bdb9b9878ed7d826040516104eb9190611e1b565b60405180910390a1505050565b816005600082815260200190815260200160002060009054906101000a900473ffffffffffffffffffffffffffffffffffffffff1673ffffffffffffffffffffffffffffffffffffffff163373ffffffffffffffffffffffffffffffffffffffff161461059a576040517f08c379a000000000000000000000000000000000000000000000000000000000815260040161059190611e93565b60405180910390fd5b6005600082815260200190815260200160002060006101000a81549073ffffffffffffffffffffffffffffffffffffffff0219169055807f7cc135e0cebb02c3480ae5d74d377283180a2601f8f644edf7987b009316c63a60405160405180910390a27fa3bc099d9a6f5297ef1269c4501dbf6315c78eca2baefdfc64bfb9f07a60b6d38260405161062c9190611eb3565b60405180910390a1505050565b816005600082815260200190815260200160002060009054906101000a900473ffffffffffffffffffffffffffffffffffffffff1673ffffffffffffffffffffffffffffffffffffffff163373ffffffffffffffffffffffffffffffffffffffff16146106db576040517f08c379a00000000000000000000000000000000000000000000000000000000081526004016106d290611e93565b60405180910390fd5b6005600082815260200190815260200160002060006101000a81549073ffffffffffffffffffffffffffffffffffffffff0219169055807f7cc135e0cebb02c3480ae5d74d377283180a2601f8f644edf7987b009316c63a60405160405180910390a27f5bf6c807803406bbd4941bd53364338bd8c211c6f25efbdcf329fac81659ced58260405161076d9190611e00565b60405180910390a1505050565b600061079661078884610ed8565b306392cdaaf360e01b610f02565b90506107a3848284610f33565b5050505050565b606060005b60208160ff161080156108015750600060f81b838260ff16602081106107d8576107d76123d6565b5b1a60f81b7effffffffffffffffffffffffffffffffffffffffffffffffffffffffffffff191614155b15610819578080610811906122ef565b9150506107af565b60008160ff1667ffffffffffffffff81111561083857610837612405565b5b6040519080825280601f01601f19166020018201604052801561086a5781602001600182028036833780820191505090505b509050600091505b60208260ff161080156108c45750600060f81b848360ff166020811061089b5761089a6123d6565b5b1a60f81b7effffffffffffffffffffffffffffffffffffffffffffffffffffffffffffff191614155b1561093b57838260ff16602081106108df576108de6123d6565b5b1a60f81b818360ff16815181106108f9576108f86123d6565b5b60200101907effffffffffffffffffffffffffffffffffffffffffffffffffffffffffffff1916908160001a9053508180610933906122ef565b925050610872565b8092505050919050565b816005600082815260200190815260200160002060009054906101000a900473ffffffffffffffffffffffffffffffffffffffff1673ffffffffffffffffffffffffffffffffffffffff163373ffffffffffffffffffffffffffffffffffffffff16146109e7576040517f08c379a00000000000000000000000000000000000000000000000000000000081526004016109de90611e93565b60405180910390fd5b6005600082815260200190815260200160002060006101000a81549073ffffffffffffffffffffffffffffffffffffffff0219169055807f7cc135e0cebb02c3480ae5d74d377283180a2601f8f644edf7987b009316c63a60405160405180910390a281837f794eb9e29f6750ede99e05248d997a9ab9fa23c4a7eaff8afa729080eb7c642860405160405180910390a3505050565b6000610a876116ea565b610aa1610a938b610ed8565b30632ee5684960e01b610f02565b9050610b226040518060400160405280600a81526020017f72657475726e54797065000000000000000000000000000000000000000000008152506040518060400160405280600681526020017f696e74323536000000000000000000000000000000000000000000000000000081525083610f539092919063ffffffff16565b610b6c6040518060400160405280600681526020017f6d6574686f6400000000000000000000000000000000000000000000000000008152508983610f539092919063ffffffff16565b610bb66040518060400160405280600381526020017f75726c00000000000000000000000000000000000000000000000000000000008152508883610f539092919063ffffffff16565b610c006040518060400160405280600781526020017f68656164657273000000000000000000000000000000000000000000000000008152508783610f539092919063ffffffff16565b610c4a6040518060400160405280600481526020017f64617461000000000000000000000000000000000000000000000000000000008152508683610f539092919063ffffffff16565b610c946040518060400160405280600a81526020017f6a617661736372697074000000000000000000000000000000000000000000008152508583610f539092919063ffffffff16565b610cde6040518060400160405280600481526020017f69706673000000000000000000000000000000000000000000000000000000008152508483610f539092919063ffffffff16565b610ce98b828b610f33565b9150509998505050505050505050565b600080610d2e7f623164343263643534613361343230316231663632356136386534386161643230633fc958ea60e01b610f02565b90506000610d61600660009054906101000a900473ffffffffffffffffffffffffffffffffffffffff1683600754610f33565b9050809250505090565b60075481565b600660009054906101000a900473ffffffffffffffffffffffffffffffffffffffff1681565b816005600082815260200190815260200160002060009054906101000a900473ffffffffffffffffffffffffffffffffffffffff1673ffffffffffffffffffffffffffffffffffffffff163373ffffffffffffffffffffffffffffffffffffffff1614610e39576040517f08c379a0000000000000000000000000000000000000000000000000000000008152600401610e3090611e93565b60405180910390fd5b6005600082815260200190815260200160002060006101000a81549073ffffffffffffffffffffffffffffffffffffffff0219169055807f7cc135e0cebb02c3480ae5d74d377283180a2601f8f644edf7987b009316c63a60405160405180910390a27fa3bc099d9a6f5297ef1269c4501dbf6315c78eca2baefdfc64bfb9f07a60b6d382604051610ecb9190611eb3565b60405180910390a1505050565b600080829050600081511415610ef4576000801b915050610efd565b60208301519150505b919050565b610f0a6116ea565b610f126116ea565b610f2985858584610f86909392919063ffffffff16565b9150509392505050565b6000610f4a8484846001634042994660e01b611036565b90509392505050565b610f6a82846080015161129e90919063ffffffff16565b610f8181846080015161129e90919063ffffffff16565b505050565b610f8e6116ea565b610f9e85608001516101006112c3565b508385600001818152505082856020019073ffffffffffffffffffffffffffffffffffffffff16908173ffffffffffffffffffffffffffffffffffffffff16815250508185604001907bffffffffffffffffffffffffffffffffffffffffffffffffffffffff191690817bffffffffffffffffffffffffffffffffffffffffffffffffffffffff191681525050849050949350505050565b60003060045460405160200161104d929190611cf6565b604051602081830303815290604052805190602001209050600454856060018181525050856005600083815260200190815260200160002060006101000a81548173ffffffffffffffffffffffffffffffffffffffff021916908373ffffffffffffffffffffffffffffffffffffffff160217905550807fb5e6e01e79f91267dc17b4e6314d5d4d03593d2ceee0fbb452b750bd70ea5af960405160405180910390a2600082600080886000015189602001518a604001518b606001518a8d608001516000015160405160240161112b989796959493929190611d3d565b604051602081830303815290604052907bffffffffffffffffffffffffffffffffffffffffffffffffffffffff19166020820180517bffffffffffffffffffffffffffffffffffffffffffffffffffffffff83818316178352505050509050600260009054906101000a900473ffffffffffffffffffffffffffffffffffffffff1673ffffffffffffffffffffffffffffffffffffffff16634000aea08887846040518463ffffffff1660e01b81526004016111e993929190611dc2565b602060405180830381600087803b15801561120357600080fd5b505af1158015611217573d6000803e3d6000fd5b505050506040513d601f19601f8201168201806040525081019061123b9190611a5c565b61127a576040517f08c379a000000000000000000000000000000000000000000000000000000000815260040161127190611e73565b60405180910390fd5b60016004600082825461128d9190611f5c565b925050819055505095945050505050565b6112ab826003835161132d565b6112be818361147290919063ffffffff16565b505050565b6112cb611757565b60006020836112da9190612347565b14611306576020826112ec9190612347565b60206112f8919061217d565b826113039190611f5c565b91505b81836020018181525050604051808452600081528281016020016040525082905092915050565b6017811161135a576113548160058460ff16901b60ff16178461149490919063ffffffff16565b5061146d565b60ff811161139c5761137f601860058460ff16901b178461149490919063ffffffff16565b50611396816001856114b49092919063ffffffff16565b5061146c565b61ffff81116113df576113c2601960058460ff16901b178461149490919063ffffffff16565b506113d9816002856114b49092919063ffffffff16565b5061146b565b63ffffffff811161142457611407601a60058460ff16901b178461149490919063ffffffff16565b5061141e816004856114b49092919063ffffffff16565b5061146a565b67ffffffffffffffff811161146957611450601b60058460ff16901b178461149490919063ffffffff16565b50611467816008856114b49092919063ffffffff16565b505b5b5b5b5b505050565b61147a611757565b61148c838460000151518485516114d6565b905092915050565b61149c611757565b6114ac83846000015151846115c5565b905092915050565b6114bc611757565b6114cd84856000015151858561161c565b90509392505050565b6114de611757565b82518211156114ec57600080fd5b846020015182856114fd9190611f5c565b1115611532576115318560026115228860200151888761151d9190611f5c565b6116aa565b61152c9190612123565b6116c6565b5b6000808651805187602083010193508088870111156115515787860182525b60208701925050505b6020841061159857805182526020826115739190611f5c565b91506020816115829190611f5c565b9050602084611591919061217d565b935061155a565b60006001856020036101000a03905080198251168184511681811785525050508692505050949350505050565b6115cd611757565b836020015183106115f3576115f284600286602001516115ed9190612123565b6116c6565b5b835180516020858301018481538186141561160f576001820183525b5050508390509392505050565b611624611757565b846020015184836116359190611f5c565b111561165d5761165c856002868561164d9190611f5c565b6116579190612123565b6116c6565b5b600060018361010061166f9190612005565b611679919061217d565b9050855183868201018583198251161781528151858801111561169c5784870182525b505085915050949350505050565b6000818311156116bc578290506116c0565b8190505b92915050565b6000826000015190506116d983836112c3565b506116e48382611472565b50505050565b6040518060a0016040528060008019168152602001600073ffffffffffffffffffffffffffffffffffffffff16815260200160007bffffffffffffffffffffffffffffffffffffffffffffffffffffffff1916815260200160008152602001611751611757565b81525090565b604051806040016040528060608152602001600081525090565b600061178461177f84611ef3565b611ece565b9050828152602081018484840111156117a05761179f612439565b5b6117ab84828561227c565b509392505050565b6000813590506117c281612511565b92915050565b6000813590506117d781612528565b92915050565b6000815190506117ec81612528565b92915050565b6000813590506118018161253f565b92915050565b60008135905061181681612556565b92915050565b600082601f83011261183157611830612434565b5b8135611841848260208601611771565b91505092915050565b6000813590506118598161256d565b92915050565b60008060006060848603121561187857611877612443565b5b6000611886868287016117b3565b935050602084013567ffffffffffffffff8111156118a7576118a661243e565b5b6118b38682870161181c565b92505060406118c48682870161184a565b9150509250925092565b60008060008060008060008060006101208a8c0312156118f1576118f0612443565b5b60006118ff8c828d016117b3565b99505060208a013567ffffffffffffffff8111156119205761191f61243e565b5b61192c8c828d0161181c565b985050604061193d8c828d0161184a565b97505060608a013567ffffffffffffffff81111561195e5761195d61243e565b5b61196a8c828d0161181c565b96505060808a013567ffffffffffffffff81111561198b5761198a61243e565b5b6119978c828d0161181c565b95505060a08a013567ffffffffffffffff8111156119b8576119b761243e565b5b6119c48c828d0161181c565b94505060c08a013567ffffffffffffffff8111156119e5576119e461243e565b5b6119f18c828d0161181c565b93505060e08a013567ffffffffffffffff811115611a1257611a1161243e565b5b611a1e8c828d0161181c565b9250506101008a013567ffffffffffffffff811115611a4057611a3f61243e565b5b611a4c8c828d0161181c565b9150509295985092959850929598565b600060208284031215611a7257611a71612443565b5b6000611a80848285016117dd565b91505092915050565b600060208284031215611a9f57611a9e612443565b5b6000611aad848285016117f2565b91505092915050565b60008060408385031215611acd57611acc612443565b5b6000611adb858286016117f2565b9250506020611aec858286016117c8565b9150509250929050565b60008060408385031215611b0d57611b0c612443565b5b6000611b1b858286016117f2565b9250506020611b2c858286016117f2565b9150509250929050565b60008060408385031215611b4d57611b4c612443565b5b6000611b5b858286016117f2565b9250506020611b6c85828601611807565b9150509250929050565b60008060408385031215611b8d57611b8c612443565b5b6000611b9b858286016117f2565b9250506020611bac8582860161184a565b9150509250929050565b611bbf816121b1565b82525050565b611bce816121c3565b82525050565b611bdd816121cf565b82525050565b611bec816121d9565b82525050565b6000611bfd82611f24565b611c078185611f3a565b9350611c1781856020860161228b565b611c2081612448565b840191505092915050565b611c3c611c3782612246565b612319565b82525050565b611c4b81612205565b82525050565b6000611c5c82611f2f565b611c668185611f4b565b9350611c7681856020860161228b565b611c7f81612448565b840191505092915050565b6000611c97602383611f4b565b9150611ca282612473565b604082019050919050565b6000611cba602883611f4b565b9150611cc5826124c2565b604082019050919050565b611cd98161222f565b82525050565b611cf0611ceb8261222f565b61233d565b82525050565b6000611d028285611c2b565b601482019150611d128284611cdf565b6020820191508190509392505050565b6000602082019050611d376000830184611bb6565b92915050565b600061010082019050611d53600083018b611bb6565b611d60602083018a611cd0565b611d6d6040830189611bd4565b611d7a6060830188611bb6565b611d876080830187611be3565b611d9460a0830186611cd0565b611da160c0830185611cd0565b81810360e0830152611db38184611bf2565b90509998505050505050505050565b6000606082019050611dd76000830186611bb6565b611de46020830185611cd0565b8181036040830152611df68184611bf2565b9050949350505050565b6000602082019050611e156000830184611bc5565b92915050565b6000602082019050611e306000830184611bd4565b92915050565b6000602082019050611e4b6000830184611c42565b92915050565b60006020820190508181036000830152611e6b8184611c51565b905092915050565b60006020820190508181036000830152611e8c81611c8a565b9050919050565b60006020820190508181036000830152611eac81611cad565b9050919050565b6000602082019050611ec86000830184611cd0565b92915050565b6000611ed8611ee9565b9050611ee482826122be565b919050565b6000604051905090565b600067ffffffffffffffff821115611f0e57611f0d612405565b5b611f1782612448565b9050602081019050919050565b600081519050919050565b600081519050919050565b600082825260208201905092915050565b600082825260208201905092915050565b6000611f678261222f565b9150611f728361222f565b9250827fffffffffffffffffffffffffffffffffffffffffffffffffffffffffffffffff03821115611fa757611fa6612378565b5b828201905092915050565b6000808291508390505b6001851115611ffc57808604811115611fd857611fd7612378565b5b6001851615611fe75780820291505b8081029050611ff585612466565b9450611fbc565b94509492505050565b60006120108261222f565b915061201b8361222f565b92506120487fffffffffffffffffffffffffffffffffffffffffffffffffffffffffffffffff8484612050565b905092915050565b600082612060576001905061211c565b8161206e576000905061211c565b8160018114612084576002811461208e576120bd565b600191505061211c565b60ff8411156120a05761209f612378565b5b8360020a9150848211156120b7576120b6612378565b5b5061211c565b5060208310610133831016604e8410600b84101617156120f25782820a9050838111156120ed576120ec612378565b5b61211c565b6120ff8484846001611fb2565b9250905081840481111561211657612115612378565b5b81810290505b9392505050565b600061212e8261222f565b91506121398361222f565b9250817fffffffffffffffffffffffffffffffffffffffffffffffffffffffffffffffff048311821515161561217257612171612378565b5b828202905092915050565b60006121888261222f565b91506121938361222f565b9250828210156121a6576121a5612378565b5b828203905092915050565b60006121bc8261220f565b9050919050565b60008115159050919050565b6000819050919050565b60007fffffffff0000000000000000000000000000000000000000000000000000000082169050919050565b6000819050919050565b600073ffffffffffffffffffffffffffffffffffffffff82169050919050565b6000819050919050565b600060ff82169050919050565b600061225182612258565b9050919050565b60006122638261226a565b9050919050565b60006122758261220f565b9050919050565b82818337600083830152505050565b60005b838110156122a957808201518184015260208101905061228e565b838111156122b8576000848401525b50505050565b6122c782612448565b810181811067ffffffffffffffff821117156122e6576122e5612405565b5b80604052505050565b60006122fa82612239565b915060ff82141561230e5761230d612378565b5b600182019050919050565b60006123248261232b565b9050919050565b600061233682612459565b9050919050565b6000819050919050565b60006123528261222f565b915061235d8361222f565b92508261236d5761236c6123a7565b5b828206905092915050565b7f4e487b7100000000000000000000000000000000000000000000000000000000600052601160045260246000fd5b7f4e487b7100000000000000000000000000000000000000000000000000000000600052601260045260246000fd5b7f4e487b7100000000000000000000000000000000000000000000000000000000600052603260045260246000fd5b7f4e487b7100000000000000000000000000000000000000000000000000000000600052604160045260246000fd5b600080fd5b600080fd5b600080fd5b600080fd5b6000601f19601f8301169050919050565b60008160601b9050919050565b60008160011c9050919050565b7f756e61626c6520746f207472616e73666572416e6443616c6c20746f206f726160008201527f636c650000000000000000000000000000000000000000000000000000000000602082015250565b7f536f75726365206d75737420626520746865206f7261636c65206f662074686560008201527f2072657175657374000000000000000000000000000000000000000000000000602082015250565b61251a816121b1565b811461252557600080fd5b50565b612531816121c3565b811461253c57600080fd5b50565b612548816121cf565b811461255357600080fd5b50565b61255f81612205565b811461256a57600080fd5b50565b6125768161222f565b811461258157600080fd5b5056fea26469706673582212202b77faedda374db59ad914e85ed8ccbaf088de9baae7a796bf12ff02a89b35e964736f6c63430008070033",
  "linkReferences": {},
  "deployedLinkReferences": {}
}