{
  "_format": "hh-sol-artifact-1",
  "contractName": "External_Adapter_Request_Examples",
  "sourceName": "contracts/External_Adapter_Request_Examples.sol",
  "abi": [
    {
      "inputs": [
        {
          "internalType": "address",
          "name": "linkContractAddress",
          "type": "address"
        }
      ],
      "stateMutability": "nonpayable",
      "type": "constructor"
    },
    {
      "anonymous": false,
      "inputs": [
        {
          "indexed": true,
          "internalType": "bytes32",
          "name": "id",
          "type": "bytes32"
        }
      ],
      "name": "ChainlinkCancelled",
      "type": "event"
    },
    {
      "anonymous": false,
      "inputs": [
        {
          "indexed": true,
          "internalType": "bytes32",
          "name": "id",
          "type": "bytes32"
        }
      ],
      "name": "ChainlinkFulfilled",
      "type": "event"
    },
    {
      "anonymous": false,
      "inputs": [
        {
          "indexed": true,
          "internalType": "bytes32",
          "name": "id",
          "type": "bytes32"
        }
      ],
      "name": "ChainlinkRequested",
      "type": "event"
    },
    {
      "anonymous": false,
      "inputs": [
        {
          "indexed": false,
          "internalType": "string",
          "name": "name",
          "type": "string"
        },
        {
          "indexed": false,
          "internalType": "bool",
          "name": "reply",
          "type": "bool"
        }
      ],
      "name": "boolAdapterReply",
      "type": "event"
    },
    {
      "anonymous": false,
      "inputs": [
        {
          "indexed": false,
          "internalType": "string",
          "name": "name",
          "type": "string"
        },
        {
          "indexed": false,
          "internalType": "bytes32",
          "name": "reply",
          "type": "bytes32"
        }
      ],
      "name": "bytes32AdapterReply",
      "type": "event"
    },
    {
      "anonymous": false,
      "inputs": [
        {
          "indexed": false,
          "internalType": "string",
          "name": "name",
          "type": "string"
        },
        {
          "indexed": false,
          "internalType": "int256",
          "name": "reply",
          "type": "int256"
        }
      ],
      "name": "int256AdapterReply",
      "type": "event"
    },
    {
      "anonymous": false,
      "inputs": [
        {
          "indexed": false,
          "internalType": "string",
          "name": "name",
          "type": "string"
        },
        {
          "indexed": false,
          "internalType": "uint256",
          "name": "reply",
          "type": "uint256"
        }
      ],
      "name": "uint256AdapterReply",
      "type": "event"
    },
    {
      "inputs": [
        {
          "internalType": "address",
          "name": "_oracle",
          "type": "address"
        },
        {
          "internalType": "string",
          "name": "_jobId",
          "type": "string"
        },
        {
          "internalType": "uint256",
          "name": "_payment",
          "type": "uint256"
        },
        {
          "internalType": "string",
          "name": "_requestParams",
          "type": "string"
        }
      ],
      "name": "boolAdapterCall",
      "outputs": [
        {
          "internalType": "bytes32",
          "name": "requestId",
          "type": "bytes32"
        }
      ],
      "stateMutability": "nonpayable",
      "type": "function"
    },
    {
      "inputs": [
        {
          "internalType": "address",
          "name": "_oracle",
          "type": "address"
        },
        {
          "internalType": "string",
          "name": "_jobId",
          "type": "string"
        },
        {
          "internalType": "uint256",
          "name": "_payment",
          "type": "uint256"
        },
        {
          "internalType": "string",
          "name": "_requestParams",
          "type": "string"
        }
      ],
      "name": "bytes32AdapterCall",
      "outputs": [
        {
          "internalType": "bytes32",
          "name": "requestId",
          "type": "bytes32"
        }
      ],
      "stateMutability": "nonpayable",
      "type": "function"
    },
    {
      "inputs": [
        {
          "internalType": "bytes32",
          "name": "_bytes32",
          "type": "bytes32"
        }
      ],
      "name": "bytes32ToString",
      "outputs": [
        {
          "internalType": "string",
          "name": "",
          "type": "string"
        }
      ],
      "stateMutability": "pure",
      "type": "function"
    },
    {
      "inputs": [
        {
          "internalType": "bytes32",
          "name": "_requestId",
          "type": "bytes32"
        },
        {
          "internalType": "bool",
          "name": "_reply",
          "type": "bool"
        }
      ],
      "name": "fulfillBool",
      "outputs": [],
      "stateMutability": "nonpayable",
      "type": "function"
    },
    {
      "inputs": [
        {
          "internalType": "bytes32",
          "name": "_requestId",
          "type": "bytes32"
        },
        {
          "internalType": "bytes32",
          "name": "_reply",
          "type": "bytes32"
        }
      ],
      "name": "fulfillBytes32",
      "outputs": [],
      "stateMutability": "nonpayable",
      "type": "function"
    },
    {
      "inputs": [
        {
          "internalType": "bytes32",
          "name": "_requestId",
          "type": "bytes32"
        },
        {
          "internalType": "int256",
          "name": "_reply",
          "type": "int256"
        }
      ],
      "name": "fulfillInt256",
      "outputs": [],
      "stateMutability": "nonpayable",
      "type": "function"
    },
    {
      "inputs": [
        {
          "internalType": "bytes32",
          "name": "_requestId",
          "type": "bytes32"
        },
        {
          "internalType": "uint256",
          "name": "_reply",
          "type": "uint256"
        }
      ],
      "name": "fulfillUint256",
      "outputs": [],
      "stateMutability": "nonpayable",
      "type": "function"
    },
    {
      "inputs": [
        {
          "internalType": "address",
          "name": "_oracle",
          "type": "address"
        },
        {
          "internalType": "string",
          "name": "_jobId",
          "type": "string"
        },
        {
          "internalType": "uint256",
          "name": "_payment",
          "type": "uint256"
        },
        {
          "internalType": "string",
          "name": "_requestParams",
          "type": "string"
        }
      ],
      "name": "int256AdapterCall",
      "outputs": [
        {
          "internalType": "bytes32",
          "name": "requestId",
          "type": "bytes32"
        }
      ],
      "stateMutability": "nonpayable",
      "type": "function"
    },
    {
      "inputs": [
        {
          "internalType": "address",
          "name": "_oracle",
          "type": "address"
        },
        {
          "internalType": "string",
          "name": "_jobId",
          "type": "string"
        },
        {
          "internalType": "uint256",
          "name": "_payment",
          "type": "uint256"
        },
        {
          "internalType": "string",
          "name": "_requestParams",
          "type": "string"
        }
      ],
      "name": "uint256AdapterCall",
      "outputs": [
        {
          "internalType": "bytes32",
          "name": "requestId",
          "type": "bytes32"
        }
      ],
      "stateMutability": "nonpayable",
      "type": "function"
    }
  ],
  "bytecode": "0x608060405260016004553480156200001657600080fd5b50604051620024c4380380620024c483398181016040528101906200003c9190620000af565b6200004d816200005460201b60201c565b5062000134565b80600260006101000a81548173ffffffffffffffffffffffffffffffffffffffff021916908373ffffffffffffffffffffffffffffffffffffffff16021790555050565b600081519050620000a9816200011a565b92915050565b600060208284031215620000c857620000c762000115565b5b6000620000d88482850162000098565b91505092915050565b6000620000ee82620000f5565b9050919050565b600073ffffffffffffffffffffffffffffffffffffffff82169050919050565b600080fd5b6200012581620000e1565b81146200013157600080fd5b50565b61238080620001446000396000f3fe608060405234801561001057600080fd5b50600436106100935760003560e01c80636a2e3ab7116100665780636a2e3ab71461011c5780637c1f72a01461014c5780639201de5514610168578063f9655fde14610198578063fab325f5146101c857610093565b80630941dfb314610098578063127f0d2a146100b457806332146504146100e45780635eb6f00014610100575b600080fd5b6100b260048036038101906100ad9190611785565b6101f8565b005b6100ce60048036038101906100c99190611644565b610339565b6040516100db9190611b00565b60405180910390f35b6100fe60048036038101906100f99190611745565b610449565b005b61011a600480360381019061011591906117c5565b61058a565b005b61013660048036038101906101319190611644565b6106cb565b6040516101439190611b00565b60405180910390f35b61016660048036038101906101619190611805565b6107db565b005b610182600480360381019061017d9190611718565b61091c565b60405161018f9190611b1b565b60405180910390f35b6101b260048036038101906101ad9190611644565b610ab7565b6040516101bf9190611b00565b60405180910390f35b6101e260048036038101906101dd9190611644565b610bc7565b6040516101ef9190611b00565b60405180910390f35b816005600082815260200190815260200160002060009054906101000a900473ffffffffffffffffffffffffffffffffffffffff1673ffffffffffffffffffffffffffffffffffffffff163373ffffffffffffffffffffffffffffffffffffffff161461029a576040517f08c379a000000000000000000000000000000000000000000000000000000000815260040161029190611c15565b60405180910390fd5b6005600082815260200190815260200160002060006101000a81549073ffffffffffffffffffffffffffffffffffffffff0219169055807f7cc135e0cebb02c3480ae5d74d377283180a2601f8f644edf7987b009316c63a60405160405180910390a27fdbb7bea395204da325e836f2375f392081152b224349387309f865df9c19ce2c8260405161032c9190611b3d565b60405180910390a1505050565b60006103436114e9565b6103a161039388888080601f016020809104026020016040519081016040528093929190818152602001838380828437600081840152601f19601f82011690508083019250505050505050610cd7565b30635eb6f00060e01b610d01565b90506104316040518060400160405280600181526020017f700000000000000000000000000000000000000000000000000000000000000081525085858080601f016020809104026020016040519081016040528093929190818152602001838380828437600081840152601f19601f8201169050808301925050505050505083610d329092919063ffffffff16565b61043c888287610d65565b9150509695505050505050565b816005600082815260200190815260200160002060009054906101000a900473ffffffffffffffffffffffffffffffffffffffff1673ffffffffffffffffffffffffffffffffffffffff163373ffffffffffffffffffffffffffffffffffffffff16146104eb576040517f08c379a00000000000000000000000000000000000000000000000000000000081526004016104e290611c15565b60405180910390fd5b6005600082815260200190815260200160002060006101000a81549073ffffffffffffffffffffffffffffffffffffffff0219169055807f7cc135e0cebb02c3480ae5d74d377283180a2601f8f644edf7987b009316c63a60405160405180910390a27f622c782522db5098e0f79fccd5c2b5b18a9717cdb1eb12934e4b1beb3b2553778260405161057d9190611be7565b60405180910390a1505050565b816005600082815260200190815260200160002060009054906101000a900473ffffffffffffffffffffffffffffffffffffffff1673ffffffffffffffffffffffffffffffffffffffff163373ffffffffffffffffffffffffffffffffffffffff161461062c576040517f08c379a000000000000000000000000000000000000000000000000000000000815260040161062390611c15565b60405180910390fd5b6005600082815260200190815260200160002060006101000a81549073ffffffffffffffffffffffffffffffffffffffff0219169055807f7cc135e0cebb02c3480ae5d74d377283180a2601f8f644edf7987b009316c63a60405160405180910390a27f8c2992c05dc87c07311894d1f943111cba4f45bbe1fd66dce65cc5db2c834359826040516106be9190611bb9565b60405180910390a1505050565b60006106d56114e9565b61073361072588888080601f016020809104026020016040519081016040528093929190818152602001838380828437600081840152601f19601f82011690508083019250505050505050610cd7565b30633214650460e01b610d01565b90506107c36040518060400160405280600181526020017f700000000000000000000000000000000000000000000000000000000000000081525085858080601f016020809104026020016040519081016040528093929190818152602001838380828437600081840152601f19601f8201169050808301925050505050505083610d329092919063ffffffff16565b6107ce888287610d65565b9150509695505050505050565b816005600082815260200190815260200160002060009054906101000a900473ffffffffffffffffffffffffffffffffffffffff1673ffffffffffffffffffffffffffffffffffffffff163373ffffffffffffffffffffffffffffffffffffffff161461087d576040517f08c379a000000000000000000000000000000000000000000000000000000000815260040161087490611c15565b60405180910390fd5b6005600082815260200190815260200160002060006101000a81549073ffffffffffffffffffffffffffffffffffffffff0219169055807f7cc135e0cebb02c3480ae5d74d377283180a2601f8f644edf7987b009316c63a60405160405180910390a27f55cbd3f8c60adc9f7984732c240ea015acf17284b6d83d670ba4ee42b44783ee8260405161090f9190611b8b565b60405180910390a1505050565b606060005b60208160ff161080156109735750600060f81b838260ff166020811061094a576109496120a7565b5b1a60f81b7effffffffffffffffffffffffffffffffffffffffffffffffffffffffffffff191614155b1561098b57808061098390611fc0565b915050610921565b60008160ff1667ffffffffffffffff8111156109aa576109a96120d6565b5b6040519080825280601f01601f1916602001820160405280156109dc5781602001600182028036833780820191505090505b509050600091505b60208260ff16108015610a365750600060f81b848360ff1660208110610a0d57610a0c6120a7565b5b1a60f81b7effffffffffffffffffffffffffffffffffffffffffffffffffffffffffffff191614155b15610aad57838260ff1660208110610a5157610a506120a7565b5b1a60f81b818360ff1681518110610a6b57610a6a6120a7565b5b60200101907effffffffffffffffffffffffffffffffffffffffffffffffffffffffffffff1916908160001a9053508180610aa590611fc0565b9250506109e4565b8092505050919050565b6000610ac16114e9565b610b1f610b1188888080601f016020809104026020016040519081016040528093929190818152602001838380828437600081840152601f19601f82011690508083019250505050505050610cd7565b30637c1f72a060e01b610d01565b9050610baf6040518060400160405280600181526020017f700000000000000000000000000000000000000000000000000000000000000081525085858080601f016020809104026020016040519081016040528093929190818152602001838380828437600081840152601f19601f8201169050808301925050505050505083610d329092919063ffffffff16565b610bba888287610d65565b9150509695505050505050565b6000610bd16114e9565b610c2f610c2188888080601f016020809104026020016040519081016040528093929190818152602001838380828437600081840152601f19601f82011690508083019250505050505050610cd7565b30630941dfb360e01b610d01565b9050610cbf6040518060400160405280600181526020017f700000000000000000000000000000000000000000000000000000000000000081525085858080601f016020809104026020016040519081016040528093929190818152602001838380828437600081840152601f19601f8201169050808301925050505050505083610d329092919063ffffffff16565b610cca888287610d65565b9150509695505050505050565b600080829050600081511415610cf3576000801b915050610cfc565b60208301519150505b919050565b610d096114e9565b610d116114e9565b610d2885858584610d85909392919063ffffffff16565b9150509392505050565b610d49828460800151610e3590919063ffffffff16565b610d60818460800151610e3590919063ffffffff16565b505050565b6000610d7c8484846001634042994660e01b610e5a565b90509392505050565b610d8d6114e9565b610d9d85608001516101006110c2565b508385600001818152505082856020019073ffffffffffffffffffffffffffffffffffffffff16908173ffffffffffffffffffffffffffffffffffffffff16815250508185604001907bffffffffffffffffffffffffffffffffffffffffffffffffffffffff191690817bffffffffffffffffffffffffffffffffffffffffffffffffffffffff191681525050849050949350505050565b610e42826003835161112c565b610e55818361127190919063ffffffff16565b505050565b600030600454604051602001610e71929190611a11565b604051602081830303815290604052805190602001209050600454856060018181525050856005600083815260200190815260200160002060006101000a81548173ffffffffffffffffffffffffffffffffffffffff021916908373ffffffffffffffffffffffffffffffffffffffff160217905550807fb5e6e01e79f91267dc17b4e6314d5d4d03593d2ceee0fbb452b750bd70ea5af960405160405180910390a2600082600080886000015189602001518a604001518b606001518a8d6080015160000151604051602401610f4f989796959493929190611a3d565b604051602081830303815290604052907bffffffffffffffffffffffffffffffffffffffffffffffffffffffff19166020820180517bffffffffffffffffffffffffffffffffffffffffffffffffffffffff83818316178352505050509050600260009054906101000a900473ffffffffffffffffffffffffffffffffffffffff1673ffffffffffffffffffffffffffffffffffffffff16634000aea08887846040518463ffffffff1660e01b815260040161100d93929190611ac2565b602060405180830381600087803b15801561102757600080fd5b505af115801561103b573d6000803e3d6000fd5b505050506040513d601f19601f8201168201806040525081019061105f91906116eb565b61109e576040517f08c379a000000000000000000000000000000000000000000000000000000000815260040161109590611b6b565b60405180910390fd5b6001600460008282546110b19190611c6d565b925050819055505095945050505050565b6110ca611556565b60006020836110d99190612018565b14611105576020826110eb9190612018565b60206110f79190611e8e565b826111029190611c6d565b91505b81836020018181525050604051808452600081528281016020016040525082905092915050565b60178111611159576111538160058460ff16901b60ff16178461129390919063ffffffff16565b5061126c565b60ff811161119b5761117e601860058460ff16901b178461129390919063ffffffff16565b50611195816001856112b39092919063ffffffff16565b5061126b565b61ffff81116111de576111c1601960058460ff16901b178461129390919063ffffffff16565b506111d8816002856112b39092919063ffffffff16565b5061126a565b63ffffffff811161122357611206601a60058460ff16901b178461129390919063ffffffff16565b5061121d816004856112b39092919063ffffffff16565b50611269565b67ffffffffffffffff81116112685761124f601b60058460ff16901b178461129390919063ffffffff16565b50611266816008856112b39092919063ffffffff16565b505b5b5b5b5b505050565b611279611556565b61128b838460000151518485516112d5565b905092915050565b61129b611556565b6112ab83846000015151846113c4565b905092915050565b6112bb611556565b6112cc84856000015151858561141b565b90509392505050565b6112dd611556565b82518211156112eb57600080fd5b846020015182856112fc9190611c6d565b1115611331576113308560026113218860200151888761131c9190611c6d565b6114a9565b61132b9190611e34565b6114c5565b5b6000808651805187602083010193508088870111156113505787860182525b60208701925050505b6020841061139757805182526020826113729190611c6d565b91506020816113819190611c6d565b90506020846113909190611e8e565b9350611359565b60006001856020036101000a03905080198251168184511681811785525050508692505050949350505050565b6113cc611556565b836020015183106113f2576113f184600286602001516113ec9190611e34565b6114c5565b5b835180516020858301018481538186141561140e576001820183525b5050508390509392505050565b611423611556565b846020015184836114349190611c6d565b111561145c5761145b856002868561144c9190611c6d565b6114569190611e34565b6114c5565b5b600060018361010061146e9190611d16565b6114789190611e8e565b9050855183868201018583198251161781528151858801111561149b5784870182525b505085915050949350505050565b6000818311156114bb578290506114bf565b8190505b92915050565b6000826000015190506114d883836110c2565b506114e38382611271565b50505050565b6040518060a0016040528060008019168152602001600073ffffffffffffffffffffffffffffffffffffffff16815260200160007bffffffffffffffffffffffffffffffffffffffffffffffffffffffff1916815260200160008152602001611550611556565b81525090565b604051806040016040528060608152602001600081525090565b60008135905061157f816122d7565b92915050565b600081359050611594816122ee565b92915050565b6000815190506115a9816122ee565b92915050565b6000813590506115be81612305565b92915050565b6000813590506115d38161231c565b92915050565b60008083601f8401126115ef576115ee61210a565b5b8235905067ffffffffffffffff81111561160c5761160b612105565b5b6020830191508360018202830111156116285761162761210f565b5b9250929050565b60008135905061163e81612333565b92915050565b6000806000806000806080878903121561166157611660612119565b5b600061166f89828a01611570565b965050602087013567ffffffffffffffff8111156116905761168f612114565b5b61169c89828a016115d9565b955095505060406116af89828a0161162f565b935050606087013567ffffffffffffffff8111156116d0576116cf612114565b5b6116dc89828a016115d9565b92509250509295509295509295565b60006020828403121561170157611700612119565b5b600061170f8482850161159a565b91505092915050565b60006020828403121561172e5761172d612119565b5b600061173c848285016115af565b91505092915050565b6000806040838503121561175c5761175b612119565b5b600061176a858286016115af565b925050602061177b85828601611585565b9150509250929050565b6000806040838503121561179c5761179b612119565b5b60006117aa858286016115af565b92505060206117bb858286016115af565b9150509250929050565b600080604083850312156117dc576117db612119565b5b60006117ea858286016115af565b92505060206117fb858286016115c4565b9150509250929050565b6000806040838503121561181c5761181b612119565b5b600061182a858286016115af565b925050602061183b8582860161162f565b9150509250929050565b61184e81611ec2565b82525050565b61185d81611ed4565b82525050565b61186c81611ee0565b82525050565b61187b81611eea565b82525050565b600061188c82611c35565b6118968185611c4b565b93506118a6818560208601611f8d565b6118af8161211e565b840191505092915050565b6118cb6118c682611f57565b611fea565b82525050565b6118da81611f16565b82525050565b60006118eb82611c40565b6118f58185611c5c565b9350611905818560208601611f8d565b61190e8161211e565b840191505092915050565b6000611926601f83611c5c565b915061193182612149565b602082019050919050565b6000611949602383611c5c565b915061195482612172565b604082019050919050565b600061196c602183611c5c565b9150611977826121c1565b604082019050919050565b600061198f602183611c5c565b915061199a82612210565b604082019050919050565b60006119b2601e83611c5c565b91506119bd8261225f565b602082019050919050565b60006119d5602883611c5c565b91506119e082612288565b604082019050919050565b6119f481611f40565b82525050565b611a0b611a0682611f40565b61200e565b82525050565b6000611a1d82856118ba565b601482019150611a2d82846119fa565b6020820191508190509392505050565b600061010082019050611a53600083018b611845565b611a60602083018a6119eb565b611a6d6040830189611863565b611a7a6060830188611845565b611a876080830187611872565b611a9460a08301866119eb565b611aa160c08301856119eb565b81810360e0830152611ab38184611881565b90509998505050505050505050565b6000606082019050611ad76000830186611845565b611ae460208301856119eb565b8181036040830152611af68184611881565b9050949350505050565b6000602082019050611b156000830184611863565b92915050565b60006020820190508181036000830152611b3581846118e0565b905092915050565b60006040820190508181036000830152611b5681611919565b9050611b656020830184611863565b92915050565b60006020820190508181036000830152611b848161193c565b9050919050565b60006040820190508181036000830152611ba48161195f565b9050611bb360208301846119eb565b92915050565b60006040820190508181036000830152611bd281611982565b9050611be160208301846118d1565b92915050565b60006040820190508181036000830152611c00816119a5565b9050611c0f6020830184611854565b92915050565b60006020820190508181036000830152611c2e816119c8565b9050919050565b600081519050919050565b600081519050919050565b600082825260208201905092915050565b600082825260208201905092915050565b6000611c7882611f40565b9150611c8383611f40565b9250827fffffffffffffffffffffffffffffffffffffffffffffffffffffffffffffffff03821115611cb857611cb7612049565b5b828201905092915050565b6000808291508390505b6001851115611d0d57808604811115611ce957611ce8612049565b5b6001851615611cf85780820291505b8081029050611d068561213c565b9450611ccd565b94509492505050565b6000611d2182611f40565b9150611d2c83611f40565b9250611d597fffffffffffffffffffffffffffffffffffffffffffffffffffffffffffffffff8484611d61565b905092915050565b600082611d715760019050611e2d565b81611d7f5760009050611e2d565b8160018114611d955760028114611d9f57611dce565b6001915050611e2d565b60ff841115611db157611db0612049565b5b8360020a915084821115611dc857611dc7612049565b5b50611e2d565b5060208310610133831016604e8410600b8410161715611e035782820a905083811115611dfe57611dfd612049565b5b611e2d565b611e108484846001611cc3565b92509050818404811115611e2757611e26612049565b5b81810290505b9392505050565b6000611e3f82611f40565b9150611e4a83611f40565b9250817fffffffffffffffffffffffffffffffffffffffffffffffffffffffffffffffff0483118215151615611e8357611e82612049565b5b828202905092915050565b6000611e9982611f40565b9150611ea483611f40565b925082821015611eb757611eb6612049565b5b828203905092915050565b6000611ecd82611f20565b9050919050565b60008115159050919050565b6000819050919050565b60007fffffffff0000000000000000000000000000000000000000000000000000000082169050919050565b6000819050919050565b600073ffffffffffffffffffffffffffffffffffffffff82169050919050565b6000819050919050565b600060ff82169050919050565b6000611f6282611f69565b9050919050565b6000611f7482611f7b565b9050919050565b6000611f8682611f20565b9050919050565b60005b83811015611fab578082015181840152602081019050611f90565b83811115611fba576000848401525b50505050565b6000611fcb82611f4a565b915060ff821415611fdf57611fde612049565b5b600182019050919050565b6000611ff582611ffc565b9050919050565b60006120078261212f565b9050919050565b6000819050919050565b600061202382611f40565b915061202e83611f40565b92508261203e5761203d612078565b5b828206905092915050565b7f4e487b7100000000000000000000000000000000000000000000000000000000600052601160045260246000fd5b7f4e487b7100000000000000000000000000000000000000000000000000000000600052601260045260246000fd5b7f4e487b7100000000000000000000000000000000000000000000000000000000600052603260045260246000fd5b7f4e487b7100000000000000000000000000000000000000000000000000000000600052604160045260246000fd5b600080fd5b600080fd5b600080fd5b600080fd5b600080fd5b6000601f19601f8301169050919050565b60008160601b9050919050565b60008160011c9050919050565b7f436861696e6c696e6b206e6f64652072657475726e6564206279746573333200600082015250565b7f756e61626c6520746f207472616e73666572416e6443616c6c20746f206f726160008201527f636c650000000000000000000000000000000000000000000000000000000000602082015250565b7f436861696e6c696e6b206e6f64652072657475726e656420612075696e74323560008201527f3600000000000000000000000000000000000000000000000000000000000000602082015250565b7f436861696e6c696e6b206e6f64652072657475726e656420616e20696e74323560008201527f3600000000000000000000000000000000000000000000000000000000000000602082015250565b7f436861696e6c696e6b206e6f64652072657475726e6564206120626f6f6c0000600082015250565b7f536f75726365206d75737420626520746865206f7261636c65206f662074686560008201527f2072657175657374000000000000000000000000000000000000000000000000602082015250565b6122e081611ec2565b81146122eb57600080fd5b50565b6122f781611ed4565b811461230257600080fd5b50565b61230e81611ee0565b811461231957600080fd5b50565b61232581611f16565b811461233057600080fd5b50565b61233c81611f40565b811461234757600080fd5b5056fea264697066735822122019433bdcd8ffacc1567379c24fcdb477ea83561187418341079e29cb6b9f080764736f6c63430008070033",
  "linkReferences": {},
  "deployedLinkReferences": {}
}