{
  "_format": "hh-sol-artifact-1",
  "contractName": "AdapterjsTest",
  "sourceName": "contracts/AdapterjsTest.sol",
  "abi": [
    {
      "inputs": [],
      "stateMutability": "nonpayable",
      "type": "constructor"
    },
    {
      "anonymous": false,
      "inputs": [
        {
          "indexed": true,
          "internalType": "bytes32",
          "name": "id",
          "type": "bytes32"
        }
      ],
      "name": "ChainlinkCancelled",
      "type": "event"
    },
    {
      "anonymous": false,
      "inputs": [
        {
          "indexed": true,
          "internalType": "bytes32",
          "name": "id",
          "type": "bytes32"
        }
      ],
      "name": "ChainlinkFulfilled",
      "type": "event"
    },
    {
      "anonymous": false,
      "inputs": [
        {
          "indexed": true,
          "internalType": "bytes32",
          "name": "id",
          "type": "bytes32"
        }
      ],
      "name": "ChainlinkRequested",
      "type": "event"
    },
    {
      "anonymous": false,
      "inputs": [
        {
          "indexed": true,
          "internalType": "string",
          "name": "name",
          "type": "string"
        },
        {
          "indexed": true,
          "internalType": "bool",
          "name": "reply",
          "type": "bool"
        }
      ],
      "name": "boolAdapterReply",
      "type": "event"
    },
    {
      "anonymous": false,
      "inputs": [
        {
          "indexed": true,
          "internalType": "string",
          "name": "name",
          "type": "string"
        },
        {
          "indexed": true,
          "internalType": "bytes32",
          "name": "reply",
          "type": "bytes32"
        }
      ],
      "name": "bytes32AdapterReply",
      "type": "event"
    },
    {
      "anonymous": false,
      "inputs": [
        {
          "indexed": true,
          "internalType": "string",
          "name": "name",
          "type": "string"
        },
        {
          "indexed": true,
          "internalType": "bytes",
          "name": "reply",
          "type": "bytes"
        }
      ],
      "name": "bytesAdapterReply",
      "type": "event"
    },
    {
      "anonymous": false,
      "inputs": [
        {
          "indexed": true,
          "internalType": "string",
          "name": "name",
          "type": "string"
        },
        {
          "indexed": true,
          "internalType": "int256",
          "name": "reply",
          "type": "int256"
        }
      ],
      "name": "intAdapterReply",
      "type": "event"
    },
    {
      "anonymous": false,
      "inputs": [
        {
          "indexed": true,
          "internalType": "string",
          "name": "name",
          "type": "string"
        },
        {
          "indexed": true,
          "internalType": "string",
          "name": "reply",
          "type": "string"
        }
      ],
      "name": "stringAdapterReply",
      "type": "event"
    },
    {
      "anonymous": false,
      "inputs": [
        {
          "indexed": true,
          "internalType": "string",
          "name": "name",
          "type": "string"
        },
        {
          "indexed": true,
          "internalType": "uint256",
          "name": "reply",
          "type": "uint256"
        }
      ],
      "name": "uintAdapterReply",
      "type": "event"
    },
    {
      "inputs": [
        {
          "internalType": "address",
          "name": "_oracle",
          "type": "address"
        },
        {
          "internalType": "string",
          "name": "_jobId",
          "type": "string"
        },
        {
          "internalType": "uint256",
          "name": "_payment",
          "type": "uint256"
        },
        {
          "internalType": "string",
          "name": "_js",
          "type": "string"
        },
        {
          "internalType": "string",
          "name": "_vars",
          "type": "string"
        },
        {
          "internalType": "string",
          "name": "_cid",
          "type": "string"
        },
        {
          "internalType": "string",
          "name": "_ref",
          "type": "string"
        }
      ],
      "name": "boolAdapterCall",
      "outputs": [
        {
          "internalType": "bytes32",
          "name": "requestId",
          "type": "bytes32"
        }
      ],
      "stateMutability": "nonpayable",
      "type": "function"
    },
    {
      "inputs": [],
      "name": "bool_result",
      "outputs": [
        {
          "internalType": "bool",
          "name": "",
          "type": "bool"
        }
      ],
      "stateMutability": "view",
      "type": "function"
    },
    {
      "inputs": [
        {
          "internalType": "address",
          "name": "_oracle",
          "type": "address"
        },
        {
          "internalType": "string",
          "name": "_jobId",
          "type": "string"
        },
        {
          "internalType": "uint256",
          "name": "_payment",
          "type": "uint256"
        },
        {
          "internalType": "string",
          "name": "_js",
          "type": "string"
        },
        {
          "internalType": "string",
          "name": "_vars",
          "type": "string"
        },
        {
          "internalType": "string",
          "name": "_cid",
          "type": "string"
        },
        {
          "internalType": "string",
          "name": "_ref",
          "type": "string"
        }
      ],
      "name": "bytes32AdapterCall",
      "outputs": [
        {
          "internalType": "bytes32",
          "name": "requestId",
          "type": "bytes32"
        }
      ],
      "stateMutability": "nonpayable",
      "type": "function"
    },
    {
      "inputs": [],
      "name": "bytes32_result",
      "outputs": [
        {
          "internalType": "bytes32",
          "name": "",
          "type": "bytes32"
        }
      ],
      "stateMutability": "view",
      "type": "function"
    },
    {
      "inputs": [
        {
          "internalType": "address",
          "name": "_oracle",
          "type": "address"
        },
        {
          "internalType": "string",
          "name": "_jobId",
          "type": "string"
        },
        {
          "internalType": "uint256",
          "name": "_payment",
          "type": "uint256"
        },
        {
          "internalType": "string",
          "name": "_js",
          "type": "string"
        },
        {
          "internalType": "string",
          "name": "_vars",
          "type": "string"
        },
        {
          "internalType": "string",
          "name": "_cid",
          "type": "string"
        },
        {
          "internalType": "string",
          "name": "_ref",
          "type": "string"
        }
      ],
      "name": "bytesAdapterCall",
      "outputs": [
        {
          "internalType": "bytes32",
          "name": "requestId",
          "type": "bytes32"
        }
      ],
      "stateMutability": "nonpayable",
      "type": "function"
    },
    {
      "inputs": [],
      "name": "bytes_result",
      "outputs": [
        {
          "internalType": "bytes",
          "name": "",
          "type": "bytes"
        }
      ],
      "stateMutability": "view",
      "type": "function"
    },
    {
      "inputs": [
        {
          "internalType": "bytes32",
          "name": "_requestId",
          "type": "bytes32"
        },
        {
          "internalType": "bool",
          "name": "_reply",
          "type": "bool"
        }
      ],
      "name": "fulfillBool",
      "outputs": [],
      "stateMutability": "nonpayable",
      "type": "function"
    },
    {
      "inputs": [
        {
          "internalType": "bytes32",
          "name": "_requestId",
          "type": "bytes32"
        },
        {
          "internalType": "bytes",
          "name": "_reply",
          "type": "bytes"
        }
      ],
      "name": "fulfillBytes",
      "outputs": [],
      "stateMutability": "nonpayable",
      "type": "function"
    },
    {
      "inputs": [
        {
          "internalType": "bytes32",
          "name": "_requestId",
          "type": "bytes32"
        },
        {
          "internalType": "bytes32",
          "name": "_reply",
          "type": "bytes32"
        }
      ],
      "name": "fulfillBytes32",
      "outputs": [],
      "stateMutability": "nonpayable",
      "type": "function"
    },
    {
      "inputs": [
        {
          "internalType": "bytes32",
          "name": "_requestId",
          "type": "bytes32"
        },
        {
          "internalType": "int256",
          "name": "_reply",
          "type": "int256"
        }
      ],
      "name": "fulfillInt",
      "outputs": [],
      "stateMutability": "nonpayable",
      "type": "function"
    },
    {
      "inputs": [
        {
          "internalType": "bytes32",
          "name": "_requestId",
          "type": "bytes32"
        },
        {
          "internalType": "string",
          "name": "_reply",
          "type": "string"
        }
      ],
      "name": "fulfillString",
      "outputs": [],
      "stateMutability": "nonpayable",
      "type": "function"
    },
    {
      "inputs": [
        {
          "internalType": "bytes32",
          "name": "_requestId",
          "type": "bytes32"
        },
        {
          "internalType": "uint256",
          "name": "_reply",
          "type": "uint256"
        }
      ],
      "name": "fulfillUint",
      "outputs": [],
      "stateMutability": "nonpayable",
      "type": "function"
    },
    {
      "inputs": [],
      "name": "getInt",
      "outputs": [
        {
          "internalType": "int256",
          "name": "num",
          "type": "int256"
        }
      ],
      "stateMutability": "view",
      "type": "function"
    },
    {
      "inputs": [
        {
          "internalType": "address",
          "name": "_oracle",
          "type": "address"
        },
        {
          "internalType": "string",
          "name": "_jobId",
          "type": "string"
        },
        {
          "internalType": "uint256",
          "name": "_payment",
          "type": "uint256"
        },
        {
          "internalType": "string",
          "name": "_js",
          "type": "string"
        },
        {
          "internalType": "string",
          "name": "_vars",
          "type": "string"
        },
        {
          "internalType": "string",
          "name": "_cid",
          "type": "string"
        },
        {
          "internalType": "string",
          "name": "_ref",
          "type": "string"
        }
      ],
      "name": "intAdapterCall",
      "outputs": [
        {
          "internalType": "bytes32",
          "name": "requestId",
          "type": "bytes32"
        }
      ],
      "stateMutability": "nonpayable",
      "type": "function"
    },
    {
      "inputs": [],
      "name": "int_result",
      "outputs": [
        {
          "internalType": "int256",
          "name": "",
          "type": "int256"
        }
      ],
      "stateMutability": "view",
      "type": "function"
    },
    {
      "inputs": [],
      "name": "js",
      "outputs": [
        {
          "internalType": "string",
          "name": "",
          "type": "string"
        }
      ],
      "stateMutability": "view",
      "type": "function"
    },
    {
      "inputs": [
        {
          "internalType": "address",
          "name": "_oracle",
          "type": "address"
        },
        {
          "internalType": "string",
          "name": "_jobId",
          "type": "string"
        },
        {
          "internalType": "uint256",
          "name": "_payment",
          "type": "uint256"
        },
        {
          "internalType": "string",
          "name": "_js",
          "type": "string"
        },
        {
          "internalType": "string",
          "name": "_vars",
          "type": "string"
        },
        {
          "internalType": "string",
          "name": "_cid",
          "type": "string"
        },
        {
          "internalType": "string",
          "name": "_ref",
          "type": "string"
        }
      ],
      "name": "stringAdapterCall",
      "outputs": [
        {
          "internalType": "bytes32",
          "name": "requestId",
          "type": "bytes32"
        }
      ],
      "stateMutability": "nonpayable",
      "type": "function"
    },
    {
      "inputs": [
        {
          "internalType": "string",
          "name": "source",
          "type": "string"
        }
      ],
      "name": "stringToBytes32",
      "outputs": [
        {
          "internalType": "bytes32",
          "name": "result",
          "type": "bytes32"
        }
      ],
      "stateMutability": "pure",
      "type": "function"
    },
    {
      "inputs": [],
      "name": "string_result",
      "outputs": [
        {
          "internalType": "string",
          "name": "",
          "type": "string"
        }
      ],
      "stateMutability": "view",
      "type": "function"
    },
    {
      "inputs": [
        {
          "internalType": "address",
          "name": "_oracle",
          "type": "address"
        },
        {
          "internalType": "string",
          "name": "_jobId",
          "type": "string"
        },
        {
          "internalType": "uint256",
          "name": "_payment",
          "type": "uint256"
        },
        {
          "internalType": "string",
          "name": "_js",
          "type": "string"
        },
        {
          "internalType": "string",
          "name": "_vars",
          "type": "string"
        },
        {
          "internalType": "string",
          "name": "_cid",
          "type": "string"
        },
        {
          "internalType": "string",
          "name": "_ref",
          "type": "string"
        }
      ],
      "name": "uintAdapterCall",
      "outputs": [
        {
          "internalType": "bytes32",
          "name": "requestId",
          "type": "bytes32"
        }
      ],
      "stateMutability": "nonpayable",
      "type": "function"
    },
    {
      "inputs": [],
      "name": "uint_result",
      "outputs": [
        {
          "internalType": "uint256",
          "name": "",
          "type": "uint256"
        }
      ],
      "stateMutability": "view",
      "type": "function"
    }
  ],
  "bytecode": "0x608060405260016004553480156200001657600080fd5b506200003c73326c977e6efc84e512bb9c30f76e30c160ed06fb6200004260201b60201c565b62000086565b80600260006101000a81548173ffffffffffffffffffffffffffffffffffffffff021916908373ffffffffffffffffffffffffffffffffffffffff16021790555050565b61342480620000966000396000f3fe608060405234801561001057600080fd5b50600436106101375760003560e01c8063922d268b116100b8578063cfb519281161007c578063cfb519281461034e578063d3d8e5281461037e578063d5e6b8221461039c578063d668e1ba146103cc578063edbf55f6146103ea578063ee10c8721461040857610137565b8063922d268b14610286578063a6bdca07146102b6578063a976447f146102d2578063c2fb852314610302578063c36075251461031e57610137565b80634181e55f116100ff5780634181e55f146101ce57806359fc1630146101fe5780635f5567401461021c5780636273899814610238578063668553ce1461025657610137565b80630941dfb31461013c5780631789b906146101585780632ba842881461017657806332146504146101945780633db7fa19146101b0575b600080fd5b6101566004803603810190610151919061226e565b610424565b005b610160610576565b60405161016d91906122c7565b60405180910390f35b61017e61057c565b60405161018b91906122f1565b60405180910390f35b6101ae60048036038101906101a99190612344565b610582565b005b6101b86106e9565b6040516101c5919061241d565b60405180910390f35b6101e860048036038101906101e391906125fe565b610777565b6040516101f591906122f1565b60405180910390f35b610206610906565b6040516102139190612745565b60405180910390f35b61023660048036038101906102319190612760565b61090c565b005b610240610a5e565b60405161024d9190612745565b60405180910390f35b610270600480360381019061026b91906125fe565b610a67565b60405161027d91906122f1565b60405180910390f35b6102a0600480360381019061029b91906125fe565b610bf6565b6040516102ad91906122f1565b60405180910390f35b6102d060048036038101906102cb9190612800565b610d85565b005b6102ec60048036038101906102e791906125fe565b610efa565b6040516102f991906122f1565b60405180910390f35b61031c600480360381019061031791906128b6565b611089565b005b610338600480360381019061033391906125fe565b6111fe565b60405161034591906122f1565b60405180910390f35b61036860048036038101906103639190612916565b6113a4565b60405161037591906122f1565b60405180910390f35b6103866113ce565b60405161039391906129b4565b60405180910390f35b6103b660048036038101906103b191906125fe565b61145c565b6040516103c391906122f1565b60405180910390f35b6103d46115eb565b6040516103e191906129e5565b60405180910390f35b6103f26115fe565b6040516103ff919061241d565b60405180910390f35b610422600480360381019061041d9190612a2c565b61168c565b005b816005600082815260200190815260200160002060009054906101000a900473ffffffffffffffffffffffffffffffffffffffff1673ffffffffffffffffffffffffffffffffffffffff163373ffffffffffffffffffffffffffffffffffffffff16146104c6576040517f08c379a00000000000000000000000000000000000000000000000000000000081526004016104bd90612ade565b60405180910390fd5b6005600082815260200190815260200160002060006101000a81549073ffffffffffffffffffffffffffffffffffffffff0219169055807f7cc135e0cebb02c3480ae5d74d377283180a2601f8f644edf7987b009316c63a60405160405180910390a2816009819055508160405161053d90612b55565b60405180910390207fdbb7bea395204da325e836f2375f392081152b224349387309f865df9c19ce2c60405160405180910390a3505050565b60075481565b60095481565b816005600082815260200190815260200160002060009054906101000a900473ffffffffffffffffffffffffffffffffffffffff1673ffffffffffffffffffffffffffffffffffffffff163373ffffffffffffffffffffffffffffffffffffffff1614610624576040517f08c379a000000000000000000000000000000000000000000000000000000000815260040161061b90612ade565b60405180910390fd5b6005600082815260200190815260200160002060006101000a81549073ffffffffffffffffffffffffffffffffffffffff0219169055807f7cc135e0cebb02c3480ae5d74d377283180a2601f8f644edf7987b009316c63a60405160405180910390a281600660006101000a81548160ff0219169083151502179055508115156040516106b090612bb6565b60405180910390207f622c782522db5098e0f79fccd5c2b5b18a9717cdb1eb12934e4b1beb3b25537760405160405180910390a3505050565b600a80546106f690612bfa565b80601f016020809104026020016040519081016040528092919081815260200182805461072290612bfa565b801561076f5780601f106107445761010080835404028352916020019161076f565b820191906000526020600020905b81548152906001019060200180831161075257829003601f168201915b505050505081565b6000610781611fee565b61079b61078d896113a4565b3063c2fb852360e01b6117de565b905060008651146107f1576107f06040518060400160405280600281526020017f6a73000000000000000000000000000000000000000000000000000000000000815250878361180f9092919063ffffffff16565b5b6000855114610845576108446040518060400160405280600481526020017f7661727300000000000000000000000000000000000000000000000000000000815250868361180f9092919063ffffffff16565b5b6000845114610899576108986040518060400160405280600381526020017f6369640000000000000000000000000000000000000000000000000000000000815250858361180f9092919063ffffffff16565b5b60008351146108ed576108ec6040518060400160405280600381526020017f7265660000000000000000000000000000000000000000000000000000000000815250848361180f9092919063ffffffff16565b5b6108f8898289611842565b915050979650505050505050565b60085481565b816005600082815260200190815260200160002060009054906101000a900473ffffffffffffffffffffffffffffffffffffffff1673ffffffffffffffffffffffffffffffffffffffff163373ffffffffffffffffffffffffffffffffffffffff16146109ae576040517f08c379a00000000000000000000000000000000000000000000000000000000081526004016109a590612ade565b60405180910390fd5b6005600082815260200190815260200160002060006101000a81549073ffffffffffffffffffffffffffffffffffffffff0219169055807f7cc135e0cebb02c3480ae5d74d377283180a2601f8f644edf7987b009316c63a60405160405180910390a28160078190555081604051610a2590612c78565b60405180910390207fc85ac0b7e112a94ead461f1ace17d4adf80203281175a827c146e3b526148dd460405160405180910390a3505050565b60006006905090565b6000610a71611fee565b610a8b610a7d896113a4565b30630941dfb360e01b6117de565b90506000865114610ae157610ae06040518060400160405280600281526020017f6a73000000000000000000000000000000000000000000000000000000000000815250878361180f9092919063ffffffff16565b5b6000855114610b3557610b346040518060400160405280600481526020017f7661727300000000000000000000000000000000000000000000000000000000815250868361180f9092919063ffffffff16565b5b6000845114610b8957610b886040518060400160405280600381526020017f6369640000000000000000000000000000000000000000000000000000000000815250858361180f9092919063ffffffff16565b5b6000835114610bdd57610bdc6040518060400160405280600381526020017f7265660000000000000000000000000000000000000000000000000000000000815250848361180f9092919063ffffffff16565b5b610be8898289611842565b915050979650505050505050565b6000610c00611fee565b610c1a610c0c896113a4565b3063ee10c87260e01b6117de565b90506000865114610c7057610c6f6040518060400160405280600281526020017f6a73000000000000000000000000000000000000000000000000000000000000815250878361180f9092919063ffffffff16565b5b6000855114610cc457610cc36040518060400160405280600481526020017f7661727300000000000000000000000000000000000000000000000000000000815250868361180f9092919063ffffffff16565b5b6000845114610d1857610d176040518060400160405280600381526020017f6369640000000000000000000000000000000000000000000000000000000000815250858361180f9092919063ffffffff16565b5b6000835114610d6c57610d6b6040518060400160405280600381526020017f7265660000000000000000000000000000000000000000000000000000000000815250848361180f9092919063ffffffff16565b5b610d77898289611842565b915050979650505050505050565b826005600082815260200190815260200160002060009054906101000a900473ffffffffffffffffffffffffffffffffffffffff1673ffffffffffffffffffffffffffffffffffffffff163373ffffffffffffffffffffffffffffffffffffffff1614610e27576040517f08c379a0000000000000000000000000000000000000000000000000000000008152600401610e1e90612ade565b60405180910390fd5b6005600082815260200190815260200160002060006101000a81549073ffffffffffffffffffffffffffffffffffffffff0219169055807f7cc135e0cebb02c3480ae5d74d377283180a2601f8f644edf7987b009316c63a60405160405180910390a28282600a9190610e9b92919061205b565b508282604051610eac929190612cb2565b6040518091039020604051610ec090612d17565b60405180910390207f29d3211c98a410378b4a89f05d787a15bdc4e2cae81674329609bb50d3bc592660405160405180910390a350505050565b6000610f04611fee565b610f1e610f10896113a4565b30635f55674060e01b6117de565b90506000865114610f7457610f736040518060400160405280600281526020017f6a73000000000000000000000000000000000000000000000000000000000000815250878361180f9092919063ffffffff16565b5b6000855114610fc857610fc76040518060400160405280600481526020017f7661727300000000000000000000000000000000000000000000000000000000815250868361180f9092919063ffffffff16565b5b600084511461101c5761101b6040518060400160405280600381526020017f6369640000000000000000000000000000000000000000000000000000000000815250858361180f9092919063ffffffff16565b5b60008351146110705761106f6040518060400160405280600381526020017f7265660000000000000000000000000000000000000000000000000000000000815250848361180f9092919063ffffffff16565b5b61107b898289611842565b915050979650505050505050565b826005600082815260200190815260200160002060009054906101000a900473ffffffffffffffffffffffffffffffffffffffff1673ffffffffffffffffffffffffffffffffffffffff163373ffffffffffffffffffffffffffffffffffffffff161461112b576040517f08c379a000000000000000000000000000000000000000000000000000000000815260040161112290612ade565b60405180910390fd5b6005600082815260200190815260200160002060006101000a81549073ffffffffffffffffffffffffffffffffffffffff0219169055807f7cc135e0cebb02c3480ae5d74d377283180a2601f8f644edf7987b009316c63a60405160405180910390a28282600b919061119f9291906120e1565b5082826040516111b0929190612d5c565b60405180910390206040516111c490612dc1565b60405180910390207f5d154487576b6364837e16be9c9b149c65176be29bb2cef4d5dc4f54a406d02f60405160405180910390a350505050565b6000611208611fee565b611222611214896113a4565b30633214650460e01b6117de565b905085600c908051906020019061123a929190612167565b50600086511461128f5761128e6040518060400160405280600281526020017f6a73000000000000000000000000000000000000000000000000000000000000815250878361180f9092919063ffffffff16565b5b60008551146112e3576112e26040518060400160405280600481526020017f7661727300000000000000000000000000000000000000000000000000000000815250868361180f9092919063ffffffff16565b5b6000845114611337576113366040518060400160405280600381526020017f6369640000000000000000000000000000000000000000000000000000000000815250858361180f9092919063ffffffff16565b5b600083511461138b5761138a6040518060400160405280600381526020017f7265660000000000000000000000000000000000000000000000000000000000815250848361180f9092919063ffffffff16565b5b611396898289611842565b915050979650505050505050565b6000808290506000815114156113c0576000801b9150506113c9565b60208301519150505b919050565b600b80546113db90612bfa565b80601f016020809104026020016040519081016040528092919081815260200182805461140790612bfa565b80156114545780601f1061142957610100808354040283529160200191611454565b820191906000526020600020905b81548152906001019060200180831161143757829003601f168201915b505050505081565b6000611466611fee565b611480611472896113a4565b3063a6bdca0760e01b6117de565b905060008651146114d6576114d56040518060400160405280600281526020017f6a73000000000000000000000000000000000000000000000000000000000000815250878361180f9092919063ffffffff16565b5b600085511461152a576115296040518060400160405280600481526020017f7661727300000000000000000000000000000000000000000000000000000000815250868361180f9092919063ffffffff16565b5b600084511461157e5761157d6040518060400160405280600381526020017f6369640000000000000000000000000000000000000000000000000000000000815250858361180f9092919063ffffffff16565b5b60008351146115d2576115d16040518060400160405280600381526020017f7265660000000000000000000000000000000000000000000000000000000000815250848361180f9092919063ffffffff16565b5b6115dd898289611842565b915050979650505050505050565b600660009054906101000a900460ff1681565b600c805461160b90612bfa565b80601f016020809104026020016040519081016040528092919081815260200182805461163790612bfa565b80156116845780601f1061165957610100808354040283529160200191611684565b820191906000526020600020905b81548152906001019060200180831161166757829003601f168201915b505050505081565b816005600082815260200190815260200160002060009054906101000a900473ffffffffffffffffffffffffffffffffffffffff1673ffffffffffffffffffffffffffffffffffffffff163373ffffffffffffffffffffffffffffffffffffffff161461172e576040517f08c379a000000000000000000000000000000000000000000000000000000000815260040161172590612ade565b60405180910390fd5b6005600082815260200190815260200160002060006101000a81549073ffffffffffffffffffffffffffffffffffffffff0219169055807f7cc135e0cebb02c3480ae5d74d377283180a2601f8f644edf7987b009316c63a60405160405180910390a281600881905550816040516117a590612e22565b60405180910390207faecc35363fecbe45fe234ddc41096c0d5b5083d52a2b193f5b59e8837b4f1bcc60405160405180910390a3505050565b6117e6611fee565b6117ee611fee565b6118058585858461190e909392919063ffffffff16565b9150509392505050565b6118268284608001516119be90919063ffffffff16565b61183d8184608001516119be90919063ffffffff16565b505050565b60008060045490506001816118579190612e66565b6004819055506000634042994660e01b60008087600001513089604001518760018c6080015160000151604051602401611898989796959493929190612f06565b604051602081830303815290604052907bffffffffffffffffffffffffffffffffffffffffffffffffffffffff19166020820180517bffffffffffffffffffffffffffffffffffffffffffffffffffffffff83818316178352505050509050611903868386846119e3565b925050509392505050565b611916611fee565b6119268560800151610100611b87565b508385600001818152505082856020019073ffffffffffffffffffffffffffffffffffffffff16908173ffffffffffffffffffffffffffffffffffffffff16815250508185604001907bffffffffffffffffffffffffffffffffffffffffffffffffffffffff191690817bffffffffffffffffffffffffffffffffffffffffffffffffffffffff191681525050849050949350505050565b6119cb8260038351611bf1565b6119de8183611d7690919063ffffffff16565b505050565b600030846040516020016119f8929190613044565b604051602081830303815290604052805190602001209050846005600083815260200190815260200160002060006101000a81548173ffffffffffffffffffffffffffffffffffffffff021916908373ffffffffffffffffffffffffffffffffffffffff160217905550807fb5e6e01e79f91267dc17b4e6314d5d4d03593d2ceee0fbb452b750bd70ea5af960405160405180910390a2600260009054906101000a900473ffffffffffffffffffffffffffffffffffffffff1673ffffffffffffffffffffffffffffffffffffffff16634000aea08685856040518463ffffffff1660e01b8152600401611aee93929190613070565b602060405180830381600087803b158015611b0857600080fd5b505af1158015611b1c573d6000803e3d6000fd5b505050506040513d601f19601f82011682018060405250810190611b4091906130c3565b611b7f576040517f08c379a0000000000000000000000000000000000000000000000000000000008152600401611b7690613162565b60405180910390fd5b949350505050565b611b8f6121ed565b6000602083611b9e91906131b1565b14611bca57602082611bb091906131b1565b6020611bbc91906131e2565b82611bc79190612e66565b91505b81836020018181525050604051808452600081528281016020016040525082905092915050565b60178167ffffffffffffffff1611611c2857611c228160058460ff16901b60ff161784611d9890919063ffffffff16565b50611d71565b60ff8167ffffffffffffffff1611611c7e57611c57601860058460ff16901b1784611d9890919063ffffffff16565b50611c788167ffffffffffffffff16600185611db89092919063ffffffff16565b50611d70565b61ffff8167ffffffffffffffff1611611cd557611cae601960058460ff16901b1784611d9890919063ffffffff16565b50611ccf8167ffffffffffffffff16600285611db89092919063ffffffff16565b50611d6f565b63ffffffff8167ffffffffffffffff1611611d2e57611d07601a60058460ff16901b1784611d9890919063ffffffff16565b50611d288167ffffffffffffffff16600485611db89092919063ffffffff16565b50611d6e565b611d4b601b60058460ff16901b1784611d9890919063ffffffff16565b50611d6c8167ffffffffffffffff16600885611db89092919063ffffffff16565b505b5b5b5b505050565b611d7e6121ed565b611d9083846000015151848551611dda565b905092915050565b611da06121ed565b611db08384600001515184611ec9565b905092915050565b611dc06121ed565b611dd1848560000151518585611f20565b90509392505050565b611de26121ed565b8251821115611df057600080fd5b84602001518285611e019190612e66565b1115611e3657611e35856002611e2688602001518887611e219190612e66565b611fae565b611e309190613216565b611fca565b5b600080865180518760208301019350808887011115611e555787860182525b60208701925050505b60208410611e9c5780518252602082611e779190612e66565b9150602081611e869190612e66565b9050602084611e9591906131e2565b9350611e5e565b60006001856020036101000a03905080198251168184511681811785525050508692505050949350505050565b611ed16121ed565b83602001518310611ef757611ef68460028660200151611ef19190613216565b611fca565b5b8351805160208583010184815381861415611f13576001820183525b5050508390509392505050565b611f286121ed565b84602001518483611f399190612e66565b1115611f6157611f608560028685611f519190612e66565b611f5b9190613216565b611fca565b5b6000600183610100611f7391906133a3565b611f7d91906131e2565b90508551838682010185831982511617815281518588011115611fa05784870182525b505085915050949350505050565b600081831115611fc057829050611fc4565b8190505b92915050565b600082600001519050611fdd8383611b87565b50611fe88382611d76565b50505050565b6040518060a0016040528060008019168152602001600073ffffffffffffffffffffffffffffffffffffffff16815260200160007bffffffffffffffffffffffffffffffffffffffffffffffffffffffff19168152602001600081526020016120556121ed565b81525090565b82805461206790612bfa565b90600052602060002090601f01602090048101928261208957600085556120d0565b82601f106120a257803560ff19168380011785556120d0565b828001600101855582156120d0579182015b828111156120cf5782358255916020019190600101906120b4565b5b5090506120dd9190612207565b5090565b8280546120ed90612bfa565b90600052602060002090601f01602090048101928261210f5760008555612156565b82601f1061212857803560ff1916838001178555612156565b82800160010185558215612156579182015b8281111561215557823582559160200191906001019061213a565b5b5090506121639190612207565b5090565b82805461217390612bfa565b90600052602060002090601f01602090048101928261219557600085556121dc565b82601f106121ae57805160ff19168380011785556121dc565b828001600101855582156121dc579182015b828111156121db5782518255916020019190600101906121c0565b5b5090506121e99190612207565b5090565b604051806040016040528060608152602001600081525090565b5b80821115612220576000816000905550600101612208565b5090565b6000604051905090565b600080fd5b600080fd5b6000819050919050565b61224b81612238565b811461225657600080fd5b50565b60008135905061226881612242565b92915050565b600080604083850312156122855761228461222e565b5b600061229385828601612259565b92505060206122a485828601612259565b9150509250929050565b6000819050919050565b6122c1816122ae565b82525050565b60006020820190506122dc60008301846122b8565b92915050565b6122eb81612238565b82525050565b600060208201905061230660008301846122e2565b92915050565b60008115159050919050565b6123218161230c565b811461232c57600080fd5b50565b60008135905061233e81612318565b92915050565b6000806040838503121561235b5761235a61222e565b5b600061236985828601612259565b925050602061237a8582860161232f565b9150509250929050565b600081519050919050565b600082825260208201905092915050565b60005b838110156123be5780820151818401526020810190506123a3565b838111156123cd576000848401525b50505050565b6000601f19601f8301169050919050565b60006123ef82612384565b6123f9818561238f565b93506124098185602086016123a0565b612412816123d3565b840191505092915050565b6000602082019050818103600083015261243781846123e4565b905092915050565b600073ffffffffffffffffffffffffffffffffffffffff82169050919050565b600061246a8261243f565b9050919050565b61247a8161245f565b811461248557600080fd5b50565b60008135905061249781612471565b92915050565b600080fd5b600080fd5b7f4e487b7100000000000000000000000000000000000000000000000000000000600052604160045260246000fd5b6124df826123d3565b810181811067ffffffffffffffff821117156124fe576124fd6124a7565b5b80604052505050565b6000612511612224565b905061251d82826124d6565b919050565b600067ffffffffffffffff82111561253d5761253c6124a7565b5b612546826123d3565b9050602081019050919050565b82818337600083830152505050565b600061257561257084612522565b612507565b905082815260208101848484011115612591576125906124a2565b5b61259c848285612553565b509392505050565b600082601f8301126125b9576125b861249d565b5b81356125c9848260208601612562565b91505092915050565b6125db816122ae565b81146125e657600080fd5b50565b6000813590506125f8816125d2565b92915050565b600080600080600080600060e0888a03121561261d5761261c61222e565b5b600061262b8a828b01612488565b975050602088013567ffffffffffffffff81111561264c5761264b612233565b5b6126588a828b016125a4565b96505060406126698a828b016125e9565b955050606088013567ffffffffffffffff81111561268a57612689612233565b5b6126968a828b016125a4565b945050608088013567ffffffffffffffff8111156126b7576126b6612233565b5b6126c38a828b016125a4565b93505060a088013567ffffffffffffffff8111156126e4576126e3612233565b5b6126f08a828b016125a4565b92505060c088013567ffffffffffffffff81111561271157612710612233565b5b61271d8a828b016125a4565b91505092959891949750929550565b6000819050919050565b61273f8161272c565b82525050565b600060208201905061275a6000830184612736565b92915050565b600080604083850312156127775761277661222e565b5b600061278585828601612259565b9250506020612796858286016125e9565b9150509250929050565b600080fd5b600080fd5b60008083601f8401126127c0576127bf61249d565b5b8235905067ffffffffffffffff8111156127dd576127dc6127a0565b5b6020830191508360018202830111156127f9576127f86127a5565b5b9250929050565b6000806000604084860312156128195761281861222e565b5b600061282786828701612259565b935050602084013567ffffffffffffffff81111561284857612847612233565b5b612854868287016127aa565b92509250509250925092565b60008083601f8401126128765761287561249d565b5b8235905067ffffffffffffffff811115612893576128926127a0565b5b6020830191508360018202830111156128af576128ae6127a5565b5b9250929050565b6000806000604084860312156128cf576128ce61222e565b5b60006128dd86828701612259565b935050602084013567ffffffffffffffff8111156128fe576128fd612233565b5b61290a86828701612860565b92509250509250925092565b60006020828403121561292c5761292b61222e565b5b600082013567ffffffffffffffff81111561294a57612949612233565b5b612956848285016125a4565b91505092915050565b600081519050919050565b600082825260208201905092915050565b60006129868261295f565b612990818561296a565b93506129a08185602086016123a0565b6129a9816123d3565b840191505092915050565b600060208201905081810360008301526129ce818461297b565b905092915050565b6129df8161230c565b82525050565b60006020820190506129fa60008301846129d6565b92915050565b612a098161272c565b8114612a1457600080fd5b50565b600081359050612a2681612a00565b92915050565b60008060408385031215612a4357612a4261222e565b5b6000612a5185828601612259565b9250506020612a6285828601612a17565b9150509250929050565b7f536f75726365206d75737420626520746865206f7261636c65206f662074686560008201527f2072657175657374000000000000000000000000000000000000000000000000602082015250565b6000612ac860288361238f565b9150612ad382612a6c565b604082019050919050565b60006020820190508181036000830152612af781612abb565b9050919050565b600081905092915050565b7f436861696e6c696e6b206e6f64652072657475726e6564206279746573333200600082015250565b6000612b3f601f83612afe565b9150612b4a82612b09565b601f82019050919050565b6000612b6082612b32565b9150819050919050565b7f436861696e6c696e6b206e6f64652072657475726e6564206120626f6f6c0000600082015250565b6000612ba0601e83612afe565b9150612bab82612b6a565b601e82019050919050565b6000612bc182612b93565b9150819050919050565b7f4e487b7100000000000000000000000000000000000000000000000000000000600052602260045260246000fd5b60006002820490506001821680612c1257607f821691505b60208210811415612c2657612c25612bcb565b5b50919050565b7f436861696e6c696e6b206e6f64652072657475726e656420612075696e740000600082015250565b6000612c62601e83612afe565b9150612c6d82612c2c565b601e82019050919050565b6000612c8382612c55565b9150819050919050565b6000612c998385612afe565b9350612ca6838584612553565b82840190509392505050565b6000612cbf828486612c8d565b91508190509392505050565b7f436861696e6c696e6b206e6f64652072657475726e6564206120737472696e67600082015250565b6000612d01602083612afe565b9150612d0c82612ccb565b602082019050919050565b6000612d2282612cf4565b9150819050919050565b600081905092915050565b6000612d438385612d2c565b9350612d50838584612553565b82840190509392505050565b6000612d69828486612d37565b91508190509392505050565b7f436861696e6c696e6b206e6f64652072657475726e6564206279746573000000600082015250565b6000612dab601d83612afe565b9150612db682612d75565b601d82019050919050565b6000612dcc82612d9e565b9150819050919050565b7f436861696e6c696e6b206e6f64652072657475726e656420616e20696e740000600082015250565b6000612e0c601e83612afe565b9150612e1782612dd6565b601e82019050919050565b6000612e2d82612dff565b9150819050919050565b7f4e487b7100000000000000000000000000000000000000000000000000000000600052601160045260246000fd5b6000612e71826122ae565b9150612e7c836122ae565b9250827fffffffffffffffffffffffffffffffffffffffffffffffffffffffffffffffff03821115612eb157612eb0612e37565b5b828201905092915050565b612ec58161245f565b82525050565b60007fffffffff0000000000000000000000000000000000000000000000000000000082169050919050565b612f0081612ecb565b82525050565b600061010082019050612f1c600083018b612ebc565b612f29602083018a6122b8565b612f3660408301896122e2565b612f436060830188612ebc565b612f506080830187612ef7565b612f5d60a08301866122b8565b612f6a60c08301856122b8565b81810360e0830152612f7c818461297b565b90509998505050505050505050565b6000819050919050565b6000612fb0612fab612fa68461243f565b612f8b565b61243f565b9050919050565b6000612fc282612f95565b9050919050565b6000612fd482612fb7565b9050919050565b60008160601b9050919050565b6000612ff382612fdb565b9050919050565b600061300582612fe8565b9050919050565b61301d61301882612fc9565b612ffa565b82525050565b6000819050919050565b61303e613039826122ae565b613023565b82525050565b6000613050828561300c565b601482019150613060828461302d565b6020820191508190509392505050565b60006060820190506130856000830186612ebc565b61309260208301856122b8565b81810360408301526130a4818461297b565b9050949350505050565b6000815190506130bd81612318565b92915050565b6000602082840312156130d9576130d861222e565b5b60006130e7848285016130ae565b91505092915050565b7f756e61626c6520746f207472616e73666572416e6443616c6c20746f206f726160008201527f636c650000000000000000000000000000000000000000000000000000000000602082015250565b600061314c60238361238f565b9150613157826130f0565b604082019050919050565b6000602082019050818103600083015261317b8161313f565b9050919050565b7f4e487b7100000000000000000000000000000000000000000000000000000000600052601260045260246000fd5b60006131bc826122ae565b91506131c7836122ae565b9250826131d7576131d6613182565b5b828206905092915050565b60006131ed826122ae565b91506131f8836122ae565b92508282101561320b5761320a612e37565b5b828203905092915050565b6000613221826122ae565b915061322c836122ae565b9250817fffffffffffffffffffffffffffffffffffffffffffffffffffffffffffffffff048311821515161561326557613264612e37565b5b828202905092915050565b60008160011c9050919050565b6000808291508390505b60018511156132c7578086048111156132a3576132a2612e37565b5b60018516156132b25780820291505b80810290506132c085613270565b9450613287565b94509492505050565b6000826132e0576001905061339c565b816132ee576000905061339c565b8160018114613304576002811461330e5761333d565b600191505061339c565b60ff8411156133205761331f612e37565b5b8360020a91508482111561333757613336612e37565b5b5061339c565b5060208310610133831016604e8410600b84101617156133725782820a90508381111561336d5761336c612e37565b5b61339c565b61337f848484600161327d565b9250905081840481111561339657613395612e37565b5b81810290505b9392505050565b60006133ae826122ae565b91506133b9836122ae565b92506133e67fffffffffffffffffffffffffffffffffffffffffffffffffffffffffffffffff84846132d0565b90509291505056fea2646970667358221220254cb8c9164dc784aa557bf8e122ef93b6a1d33daa6b6d455fbae7cc8b146b7164736f6c63430008090033",
  "linkReferences": {},
  "deployedLinkReferences": {}
}